{
  "_format": "hh3-artifact-1",
  "contractName": "GHKBuyPool",
  "sourceName": "contracts/ghk-buy/GHKBuyPool.sol",
  "abi": [
    {
      "inputs": [],
      "name": "ECDSAInvalidSignature",
      "type": "error"
    },
    {
      "inputs": [
        {
          "internalType": "uint256",
          "name": "length",
          "type": "uint256"
        }
      ],
      "name": "ECDSAInvalidSignatureLength",
      "type": "error"
    },
    {
      "inputs": [
        {
          "internalType": "bytes32",
          "name": "s",
          "type": "bytes32"
        }
      ],
      "name": "ECDSAInvalidSignatureS",
      "type": "error"
    },
    {
      "inputs": [
        {
          "internalType": "address",
          "name": "account",
          "type": "address"
        },
        {
          "internalType": "uint256",
          "name": "currentNonce",
          "type": "uint256"
        }
      ],
      "name": "InvalidAccountNonce",
      "type": "error"
    },
    {
      "inputs": [],
      "name": "InvalidInitialization",
      "type": "error"
    },
    {
      "inputs": [],
      "name": "NotInitializing",
      "type": "error"
    },
    {
      "inputs": [
        {
          "internalType": "address",
          "name": "owner",
          "type": "address"
        }
      ],
      "name": "OwnableInvalidOwner",
      "type": "error"
    },
    {
      "inputs": [
        {
          "internalType": "address",
          "name": "account",
          "type": "address"
        }
      ],
      "name": "OwnableUnauthorizedAccount",
      "type": "error"
    },
    {
      "inputs": [
        {
          "internalType": "address",
          "name": "token",
          "type": "address"
        }
      ],
      "name": "SafeERC20FailedOperation",
      "type": "error"
    },
    {
      "anonymous": false,
      "inputs": [
        {
          "indexed": true,
          "internalType": "address",
          "name": "account",
          "type": "address"
        }
      ],
      "name": "AddedToBlacklist",
      "type": "event"
    },
    {
      "anonymous": false,
      "inputs": [
        {
          "indexed": true,
          "internalType": "address",
          "name": "to",
          "type": "address"
        },
        {
          "indexed": false,
          "internalType": "address",
          "name": "inviter",
          "type": "address"
        }
      ],
      "name": "BindInviter",
      "type": "event"
    },
    {
      "anonymous": false,
      "inputs": [
        {
          "indexed": true,
          "internalType": "uint256",
          "name": "oldVal",
          "type": "uint256"
        },
        {
          "indexed": false,
          "internalType": "uint256",
          "name": "newVal",
          "type": "uint256"
        }
      ],
      "name": "BuyGHKAmountMaxUpdated",
      "type": "event"
    },
    {
      "anonymous": false,
      "inputs": [
        {
          "indexed": true,
          "internalType": "uint256",
          "name": "oldVal",
          "type": "uint256"
        },
        {
          "indexed": false,
          "internalType": "uint256",
          "name": "newVal",
          "type": "uint256"
        }
      ],
      "name": "BuyGHKAmountMinUpdated",
      "type": "event"
    },
    {
      "anonymous": false,
      "inputs": [
        {
          "indexed": true,
          "internalType": "uint256",
          "name": "oldVal",
          "type": "uint256"
        },
        {
          "indexed": false,
          "internalType": "uint256",
          "name": "newVal",
          "type": "uint256"
        }
      ],
      "name": "BuyGHKFeePercentageUpdated",
      "type": "event"
    },
    {
      "anonymous": false,
      "inputs": [
        {
          "indexed": true,
          "internalType": "address",
          "name": "to",
          "type": "address"
        },
        {
          "indexed": false,
          "internalType": "uint256",
          "name": "ghkValue",
          "type": "uint256"
        }
      ],
      "name": "BuyOffline",
      "type": "event"
    },
    {
      "anonymous": false,
      "inputs": [
        {
          "indexed": true,
          "internalType": "address",
          "name": "coin",
          "type": "address"
        },
        {
          "indexed": false,
          "internalType": "address",
          "name": "to",
          "type": "address"
        },
        {
          "indexed": false,
          "internalType": "uint256",
          "name": "amount",
          "type": "uint256"
        }
      ],
      "name": "EmergencyWithdraw",
      "type": "event"
    },
    {
      "anonymous": false,
      "inputs": [
        {
          "indexed": false,
          "internalType": "address",
          "name": "oldPool",
          "type": "address"
        },
        {
          "indexed": false,
          "internalType": "address",
          "name": "newPool",
          "type": "address"
        }
      ],
      "name": "GHKE_BUY_PoolUpdated",
      "type": "event"
    },
    {
      "anonymous": false,
      "inputs": [
        {
          "indexed": false,
          "internalType": "uint256",
          "name": "newPrice",
          "type": "uint256"
        }
      ],
      "name": "GHK_GHKE_PriceUpdated",
      "type": "event"
    },
    {
      "anonymous": false,
      "inputs": [
        {
          "indexed": false,
          "internalType": "uint64",
          "name": "version",
          "type": "uint64"
        }
      ],
      "name": "Initialized",
      "type": "event"
    },
    {
      "anonymous": false,
      "inputs": [
        {
          "indexed": true,
          "internalType": "address",
          "name": "user",
          "type": "address"
        },
        {
          "indexed": false,
          "internalType": "uint256",
          "name": "level",
          "type": "uint256"
        },
        {
          "indexed": false,
          "internalType": "address",
          "name": "inviter",
          "type": "address"
        },
        {
          "indexed": false,
          "internalType": "uint256",
          "name": "inviterReward",
          "type": "uint256"
        },
        {
          "indexed": false,
          "internalType": "uint256",
          "name": "ghkAmount",
          "type": "uint256"
        },
        {
          "indexed": false,
          "internalType": "uint256",
          "name": "rate",
          "type": "uint256"
        },
        {
          "indexed": false,
          "internalType": "uint256",
          "name": "price",
          "type": "uint256"
        }
      ],
      "name": "InviterReward",
      "type": "event"
    },
    {
      "anonymous": false,
      "inputs": [
        {
          "indexed": false,
          "internalType": "uint256",
          "name": "rate",
          "type": "uint256"
        }
      ],
      "name": "InviterRewardLevel1Updated",
      "type": "event"
    },
    {
      "anonymous": false,
      "inputs": [
        {
          "indexed": false,
          "internalType": "uint256",
          "name": "rate",
          "type": "uint256"
        }
      ],
      "name": "InviterRewardLevel2Updated",
      "type": "event"
    },
    {
      "anonymous": false,
      "inputs": [
        {
          "indexed": false,
          "internalType": "uint256",
          "name": "newPrice",
          "type": "uint256"
        }
      ],
      "name": "LatestXAUPriceUpdated",
      "type": "event"
    },
    {
      "anonymous": false,
      "inputs": [
        {
          "indexed": false,
          "internalType": "uint256",
          "name": "oldVal",
          "type": "uint256"
        },
        {
          "indexed": false,
          "internalType": "uint256",
          "name": "newVal",
          "type": "uint256"
        }
      ],
      "name": "MaxLatestPriceDeviationUpdated",
      "type": "event"
    },
    {
      "anonymous": false,
      "inputs": [
        {
          "indexed": false,
          "internalType": "uint256",
          "name": "oldVal",
          "type": "uint256"
        },
        {
          "indexed": false,
          "internalType": "uint256",
          "name": "newVal",
          "type": "uint256"
        }
      ],
      "name": "MaxOraclePriceDeviationUpdated",
      "type": "event"
    },
    {
      "anonymous": false,
      "inputs": [
        {
          "indexed": true,
          "internalType": "address",
          "name": "previousOwner",
          "type": "address"
        },
        {
          "indexed": true,
          "internalType": "address",
          "name": "newOwner",
          "type": "address"
        }
      ],
      "name": "OwnershipTransferred",
      "type": "event"
    },
    {
      "anonymous": false,
      "inputs": [
        {
          "indexed": true,
          "internalType": "address",
          "name": "account",
          "type": "address"
        }
      ],
      "name": "RemovedFromBlacklist",
      "type": "event"
    },
    {
      "anonymous": false,
      "inputs": [
        {
          "indexed": false,
          "internalType": "address",
          "name": "oldSigner",
          "type": "address"
        },
        {
          "indexed": false,
          "internalType": "address",
          "name": "newSigner",
          "type": "address"
        }
      ],
      "name": "SignerUpdated",
      "type": "event"
    },
    {
      "anonymous": false,
      "inputs": [
        {
          "indexed": true,
          "internalType": "address",
          "name": "to",
          "type": "address"
        },
        {
          "indexed": false,
          "internalType": "address",
          "name": "inviter",
          "type": "address"
        },
        {
          "indexed": false,
          "internalType": "uint256",
          "name": "ghkValue",
          "type": "uint256"
        },
        {
          "indexed": false,
          "internalType": "address",
          "name": "tradeToken",
          "type": "address"
        },
        {
          "indexed": false,
          "internalType": "uint256",
          "name": "gPrice",
          "type": "uint256"
        },
        {
          "indexed": false,
          "internalType": "uint256",
          "name": "usdValue",
          "type": "uint256"
        },
        {
          "indexed": false,
          "internalType": "uint256",
          "name": "feePercentage",
          "type": "uint256"
        },
        {
          "indexed": false,
          "internalType": "uint256",
          "name": "tokenPrice",
          "type": "uint256"
        },
        {
          "indexed": false,
          "internalType": "uint256",
          "name": "tokenValue",
          "type": "uint256"
        }
      ],
      "name": "TokenBuy",
      "type": "event"
    },
    {
      "anonymous": false,
      "inputs": [
        {
          "indexed": true,
          "internalType": "address",
          "name": "token",
          "type": "address"
        },
        {
          "indexed": false,
          "internalType": "bool",
          "name": "enabled",
          "type": "bool"
        }
      ],
      "name": "TradeTokenUpdated",
      "type": "event"
    },
    {
      "anonymous": false,
      "inputs": [
        {
          "indexed": false,
          "internalType": "address",
          "name": "oldTo",
          "type": "address"
        },
        {
          "indexed": false,
          "internalType": "address",
          "name": "newTo",
          "type": "address"
        }
      ],
      "name": "USDToAddressUpdated",
      "type": "event"
    },
    {
      "inputs": [],
      "name": "BUY_GHK_AMOUNT_MAX",
      "outputs": [
        {
          "internalType": "uint256",
          "name": "",
          "type": "uint256"
        }
      ],
      "stateMutability": "view",
      "type": "function"
    },
    {
      "inputs": [],
      "name": "BUY_GHK_AMOUNT_MIN",
      "outputs": [
        {
          "internalType": "uint256",
          "name": "",
          "type": "uint256"
        }
      ],
      "stateMutability": "view",
      "type": "function"
    },
    {
      "inputs": [],
      "name": "BUY_GHK_FEE_PERCENTAGE",
      "outputs": [
        {
          "internalType": "uint256",
          "name": "",
          "type": "uint256"
        }
      ],
      "stateMutability": "view",
      "type": "function"
    },
    {
      "inputs": [],
      "name": "GHK",
      "outputs": [
        {
          "internalType": "contract IERC20",
          "name": "",
          "type": "address"
        }
      ],
      "stateMutability": "view",
      "type": "function"
    },
    {
      "inputs": [],
      "name": "GHKE",
      "outputs": [
        {
          "internalType": "contract IERC20",
          "name": "",
          "type": "address"
        }
      ],
      "stateMutability": "view",
      "type": "function"
    },
    {
      "inputs": [],
      "name": "GHKE_BUY_POOL",
      "outputs": [
        {
          "internalType": "address",
          "name": "",
          "type": "address"
        }
      ],
      "stateMutability": "view",
      "type": "function"
    },
    {
      "inputs": [],
      "name": "GHK_GHKE_PRICE",
      "outputs": [
        {
          "internalType": "uint256",
          "name": "",
          "type": "uint256"
        }
      ],
      "stateMutability": "view",
      "type": "function"
    },
    {
      "inputs": [],
      "name": "INVITER_REWARD_LEVEL_1",
      "outputs": [
        {
          "internalType": "uint256",
          "name": "",
          "type": "uint256"
        }
      ],
      "stateMutability": "view",
      "type": "function"
    },
    {
      "inputs": [],
      "name": "INVITER_REWARD_LEVEL_2",
      "outputs": [
        {
          "internalType": "uint256",
          "name": "",
          "type": "uint256"
        }
      ],
      "stateMutability": "view",
      "type": "function"
    },
    {
      "inputs": [],
      "name": "USDC",
      "outputs": [
        {
          "internalType": "address",
          "name": "",
          "type": "address"
        }
      ],
      "stateMutability": "view",
      "type": "function"
    },
    {
      "inputs": [],
      "name": "USDT",
      "outputs": [
        {
          "internalType": "address",
          "name": "",
          "type": "address"
        }
      ],
      "stateMutability": "view",
      "type": "function"
    },
    {
      "inputs": [],
      "name": "USD_TO_ADDRESS",
      "outputs": [
        {
          "internalType": "address",
          "name": "",
          "type": "address"
        }
      ],
      "stateMutability": "view",
      "type": "function"
    },
    {
      "inputs": [
        {
          "internalType": "address",
          "name": "account",
          "type": "address"
        }
      ],
      "name": "addToBlacklist",
      "outputs": [],
      "stateMutability": "nonpayable",
      "type": "function"
    },
    {
      "inputs": [
        {
          "internalType": "uint256",
          "name": "amount",
          "type": "uint256"
        },
        {
          "internalType": "address",
          "name": "tradeToken",
          "type": "address"
        },
        {
          "internalType": "address",
          "name": "inviter",
          "type": "address"
        },
        {
          "internalType": "uint256",
          "name": "offchainXAUPrice",
          "type": "uint256"
        },
        {
          "internalType": "uint256",
          "name": "deadline",
          "type": "uint256"
        },
        {
          "internalType": "bytes",
          "name": "sig",
          "type": "bytes"
        }
      ],
      "name": "buy",
      "outputs": [],
      "stateMutability": "nonpayable",
      "type": "function"
    },
    {
      "inputs": [
        {
          "internalType": "uint256",
          "name": "amount",
          "type": "uint256"
        },
        {
          "internalType": "address",
          "name": "to",
          "type": "address"
        }
      ],
      "name": "buyOffline",
      "outputs": [],
      "stateMutability": "nonpayable",
      "type": "function"
    },
    {
      "inputs": [
        {
          "internalType": "address",
          "name": "user",
          "type": "address"
        },
        {
          "internalType": "address",
          "name": "coin",
          "type": "address"
        },
        {
          "internalType": "uint256",
          "name": "usdtAmount",
          "type": "uint256"
        },
        {
          "internalType": "uint256",
          "name": "offchainXAUPrice",
          "type": "uint256"
        },
        {
          "internalType": "uint256",
          "name": "deadline",
          "type": "uint256"
        },
        {
          "internalType": "bytes",
          "name": "sig",
          "type": "bytes"
        }
      ],
      "name": "buyTo",
      "outputs": [
        {
          "internalType": "bool",
          "name": "",
          "type": "bool"
        }
      ],
      "stateMutability": "nonpayable",
      "type": "function"
    },
    {
      "inputs": [
        {
          "internalType": "address",
          "name": "coin",
          "type": "address"
        },
        {
          "internalType": "address",
          "name": "to",
          "type": "address"
        },
        {
          "internalType": "uint256",
          "name": "amount",
          "type": "uint256"
        }
      ],
      "name": "emergencyWithdraw",
      "outputs": [],
      "stateMutability": "nonpayable",
      "type": "function"
    },
    {
      "inputs": [
        {
          "internalType": "uint256",
          "name": "offchainXAUPrice",
          "type": "uint256"
        }
      ],
      "name": "getPrice",
      "outputs": [
        {
          "internalType": "uint256",
          "name": "",
          "type": "uint256"
        }
      ],
      "stateMutability": "view",
      "type": "function"
    },
    {
      "inputs": [],
      "name": "getUsdcPrice",
      "outputs": [
        {
          "internalType": "uint256",
          "name": "",
          "type": "uint256"
        }
      ],
      "stateMutability": "view",
      "type": "function"
    },
    {
      "inputs": [],
      "name": "getUsdtPrice",
      "outputs": [
        {
          "internalType": "uint256",
          "name": "",
          "type": "uint256"
        }
      ],
      "stateMutability": "view",
      "type": "function"
    },
    {
      "inputs": [
        {
          "internalType": "address",
          "name": "_usdToAddress",
          "type": "address"
        },
        {
          "internalType": "address",
          "name": "_GHK",
          "type": "address"
        },
        {
          "internalType": "address",
          "name": "_GHKE",
          "type": "address"
        },
        {
          "internalType": "address",
          "name": "_USDT",
          "type": "address"
        },
        {
          "internalType": "address",
          "name": "_USDC",
          "type": "address"
        },
        {
          "internalType": "address",
          "name": "_dataFeedXAU",
          "type": "address"
        },
        {
          "internalType": "address",
          "name": "_dataFeedUSDT",
          "type": "address"
        },
        {
          "internalType": "address",
          "name": "_dataFeedUSDC",
          "type": "address"
        },
        {
          "internalType": "uint256",
          "name": "_initialXAUPrice",
          "type": "uint256"
        },
        {
          "internalType": "address",
          "name": "_signer",
          "type": "address"
        }
      ],
      "name": "initialize",
      "outputs": [],
      "stateMutability": "nonpayable",
      "type": "function"
    },
    {
      "inputs": [
        {
          "internalType": "address",
          "name": "",
          "type": "address"
        }
      ],
      "name": "inviterStatus",
      "outputs": [
        {
          "internalType": "bool",
          "name": "",
          "type": "bool"
        }
      ],
      "stateMutability": "view",
      "type": "function"
    },
    {
      "inputs": [
        {
          "internalType": "address",
          "name": "",
          "type": "address"
        }
      ],
      "name": "inviters",
      "outputs": [
        {
          "internalType": "address",
          "name": "",
          "type": "address"
        }
      ],
      "stateMutability": "view",
      "type": "function"
    },
    {
      "inputs": [
        {
          "internalType": "address",
          "name": "account",
          "type": "address"
        }
      ],
      "name": "isBlacklisted",
      "outputs": [
        {
          "internalType": "bool",
          "name": "",
          "type": "bool"
        }
      ],
      "stateMutability": "view",
      "type": "function"
    },
    {
      "inputs": [],
      "name": "latestXAUPrice",
      "outputs": [
        {
          "internalType": "uint256",
          "name": "",
          "type": "uint256"
        }
      ],
      "stateMutability": "view",
      "type": "function"
    },
    {
      "inputs": [],
      "name": "maxLatestPriceDeviation",
      "outputs": [
        {
          "internalType": "uint256",
          "name": "",
          "type": "uint256"
        }
      ],
      "stateMutability": "view",
      "type": "function"
    },
    {
      "inputs": [],
      "name": "maxOraclePriceDeviation",
      "outputs": [
        {
          "internalType": "uint256",
          "name": "",
          "type": "uint256"
        }
      ],
      "stateMutability": "view",
      "type": "function"
    },
    {
      "inputs": [
        {
          "internalType": "address",
          "name": "owner",
          "type": "address"
        }
      ],
      "name": "nonces",
      "outputs": [
        {
          "internalType": "uint256",
          "name": "",
          "type": "uint256"
        }
      ],
      "stateMutability": "view",
      "type": "function"
    },
    {
      "inputs": [],
      "name": "owner",
      "outputs": [
        {
          "internalType": "address",
          "name": "",
          "type": "address"
        }
      ],
      "stateMutability": "view",
      "type": "function"
    },
    {
      "inputs": [
        {
          "internalType": "address",
          "name": "account",
          "type": "address"
        }
      ],
      "name": "removeFromBlacklist",
      "outputs": [],
      "stateMutability": "nonpayable",
      "type": "function"
    },
    {
      "inputs": [],
      "name": "renounceOwnership",
      "outputs": [],
      "stateMutability": "nonpayable",
      "type": "function"
    },
    {
      "inputs": [
        {
          "internalType": "uint256",
          "name": "_newMax",
          "type": "uint256"
        }
      ],
      "name": "setBuyGHKAmountMax",
      "outputs": [],
      "stateMutability": "nonpayable",
      "type": "function"
    },
    {
      "inputs": [
        {
          "internalType": "uint256",
          "name": "_newMin",
          "type": "uint256"
        }
      ],
      "name": "setBuyGHKAmountMin",
      "outputs": [],
      "stateMutability": "nonpayable",
      "type": "function"
    },
    {
      "inputs": [
        {
          "internalType": "uint256",
          "name": "_newFeePercentage",
          "type": "uint256"
        }
      ],
      "name": "setBuyGHKFeePercentage",
      "outputs": [],
      "stateMutability": "nonpayable",
      "type": "function"
    },
    {
      "inputs": [
        {
          "internalType": "address",
          "name": "_dataFeedUSDC",
          "type": "address"
        }
      ],
      "name": "setDataFeedUSDC",
      "outputs": [],
      "stateMutability": "nonpayable",
      "type": "function"
    },
    {
      "inputs": [
        {
          "internalType": "address",
          "name": "_dataFeedUSDT",
          "type": "address"
        }
      ],
      "name": "setDataFeedUSDT",
      "outputs": [],
      "stateMutability": "nonpayable",
      "type": "function"
    },
    {
      "inputs": [
        {
          "internalType": "address",
          "name": "_dataFeedXAU",
          "type": "address"
        }
      ],
      "name": "setDataFeedXAU",
      "outputs": [],
      "stateMutability": "nonpayable",
      "type": "function"
    },
    {
      "inputs": [
        {
          "internalType": "address",
          "name": "pool",
          "type": "address"
        }
      ],
      "name": "setGHKE_BUY_POOL",
      "outputs": [],
      "stateMutability": "nonpayable",
      "type": "function"
    },
    {
      "inputs": [
        {
          "internalType": "uint256",
          "name": "newPrice",
          "type": "uint256"
        }
      ],
      "name": "setGHK_GHKE_Price",
      "outputs": [],
      "stateMutability": "nonpayable",
      "type": "function"
    },
    {
      "inputs": [
        {
          "internalType": "uint256",
          "name": "rate",
          "type": "uint256"
        }
      ],
      "name": "setInviterRewardLevel1",
      "outputs": [],
      "stateMutability": "nonpayable",
      "type": "function"
    },
    {
      "inputs": [
        {
          "internalType": "uint256",
          "name": "rate",
          "type": "uint256"
        }
      ],
      "name": "setInviterRewardLevel2",
      "outputs": [],
      "stateMutability": "nonpayable",
      "type": "function"
    },
    {
      "inputs": [
        {
          "internalType": "uint256",
          "name": "price",
          "type": "uint256"
        }
      ],
      "name": "setLatestXAUPrice",
      "outputs": [],
      "stateMutability": "nonpayable",
      "type": "function"
    },
    {
      "inputs": [
        {
          "internalType": "uint256",
          "name": "deviation",
          "type": "uint256"
        }
      ],
      "name": "setMaxLatestPriceDeviation",
      "outputs": [],
      "stateMutability": "nonpayable",
      "type": "function"
    },
    {
      "inputs": [
        {
          "internalType": "uint256",
          "name": "deviation",
          "type": "uint256"
        }
      ],
      "name": "setMaxOraclePriceDeviation",
      "outputs": [],
      "stateMutability": "nonpayable",
      "type": "function"
    },
    {
      "inputs": [
        {
          "internalType": "address",
          "name": "_signer",
          "type": "address"
        }
      ],
      "name": "setSigner",
      "outputs": [],
      "stateMutability": "nonpayable",
      "type": "function"
    },
    {
      "inputs": [
        {
          "internalType": "address",
          "name": "tokenAddress",
          "type": "address"
        },
        {
          "internalType": "bool",
          "name": "enabled",
          "type": "bool"
        }
      ],
      "name": "setTradeToken",
      "outputs": [],
      "stateMutability": "nonpayable",
      "type": "function"
    },
    {
      "inputs": [
        {
          "internalType": "address",
          "name": "_USDC",
          "type": "address"
        }
      ],
      "name": "setUSDC",
      "outputs": [],
      "stateMutability": "nonpayable",
      "type": "function"
    },
    {
      "inputs": [
        {
          "internalType": "address",
          "name": "_USDT",
          "type": "address"
        }
      ],
      "name": "setUSDT",
      "outputs": [],
      "stateMutability": "nonpayable",
      "type": "function"
    },
    {
      "inputs": [
        {
          "internalType": "address",
          "name": "_usdToAddress",
          "type": "address"
        }
      ],
      "name": "setUsdToAddress",
      "outputs": [],
      "stateMutability": "nonpayable",
      "type": "function"
    },
    {
      "inputs": [],
      "name": "signer",
      "outputs": [
        {
          "internalType": "address",
          "name": "",
          "type": "address"
        }
      ],
      "stateMutability": "view",
      "type": "function"
    },
    {
      "inputs": [
        {
          "internalType": "address",
          "name": "",
          "type": "address"
        }
      ],
      "name": "tradeTokens",
      "outputs": [
        {
          "internalType": "bool",
          "name": "",
          "type": "bool"
        }
      ],
      "stateMutability": "view",
      "type": "function"
    },
    {
      "inputs": [
        {
          "internalType": "address",
          "name": "newOwner",
          "type": "address"
        }
      ],
      "name": "transferOwnership",
      "outputs": [],
      "stateMutability": "nonpayable",
      "type": "function"
    }
  ],
  "bytecode": "0x60808060405234601557612cdb908161001a8239f35b5f80fdfe60806040526004361015610011575f80fd5b5f3560e01c80630e3063af1461197a57806311c57e2e146118ce5780631203117f146118a8578063138b75981461188b578063162eefb51461180d578063179af607146117f0578063238ac933146117ca578063260373ae146117ad578063327841af146116ea57806334463a68146116cd578063365deb891461168e5780633ae03403146116685780633c68f689146115d15780633d64d7891461154957806344337ea11461145957806350c1b9231461141a57806351c2eeb5146113dd578063537df3b61461131557806360c42688146112fb5780636a42dcf0146112de5780636c19e78314611256578063709b90a8146111fc578063715018a614611165578063717c06381461113f57806375f2c9a4146111225780637ecebe00146110cb57806381be4cf11461108c57806389a30271146110665780638da5cb5b146110215780639473304114610c8a578063961bdfbf14610c7057806398ae4b4914610c165780639ca14bb714610bc25780639d7a6ba414610ba5578063a407db2314610b7f578063b3e089a214610b40578063b4e5ffab14610aec578063c50d5210146109a3578063c54e44eb1461097d578063c562c7ec14610960578063c853012114610923578063e24f2adb14610906578063e53f002e146108ba578063e63ea4081461078f578063e757223014610769578063ed72d07f14610728578063efc3b80b146106eb578063f04da7421461061b578063f2fde38b146105f0578063f94853f814610544578063fe575a87146105075763ff68c98a14610255575f80fd5b346104985760c03660031901126104985761026e6121a0565b610276612174565b6044356064359260a43567ffffffffffffffff81116104985761029d9036906004016121b6565b90926001600160a01b036017541633036104c3576001600160a01b0383165f5260166020526102d360ff60405f205416156121e4565b6103496103446102e1612528565b93670de0b6b3a76400006102f58686612391565b04966084358a61033e896001600160a01b03165f527f5ab42ced628888259c08ac98db1eb0cf702fc1501344311d8b100cd1bfe4bb0060205260405f2080549060018201905590565b89612822565b6122fb565b61035286612577565b9161035e831515612346565b6402540be40085028581046402540be40014861517156104af5783610382916123a4565b9461039160065487111561222f565b602460206001600160a01b0360085416604051928380926370a0823160e01b82523060048301525afa9081156104a4575f9161046c575b5061045e976103e16001600160a01b03928911156122b0565b16936103fa846001600160a01b03600a54163388612951565b604051945f86528760208701526040860152606085015260808401525f60a084015260c083015260e08201527f576fe07bbe6e1c45021370de894794430c43791b12ed6220eaaf433b2a8dc78d6101003392a26001600160a01b03600854166129b2565b600c55602060405160018152f35b90506020813d60201161049c575b816104876020938361227a565b81010312610498575161045e6103c8565b5f80fd5b3d915061047a565b6040513d5f823e3d90fd5b634e487b7160e01b5f52601160045260245ffd5b606460405162461bcd60e51b815260206004820152601160248201527f7065726d697373696f6e2064656e6965640000000000000000000000000000006044820152fd5b34610498576020366003190112610498576001600160a01b036105286121a0565b165f526016602052602060ff60405f2054166040519015158152f35b3461049857602036600319011261049857600435610560612a07565b801561059a577f6da9b5c0b274236b1aa0a633b646ab28ed3c19c54f91542c4852917558cb06ba60206005549280600555604051908152a2005b608460405162461bcd60e51b815260206004820152602960248201527f4d696e696d756d2062757920616d6f756e74206d75737420626520677265617460448201526806572207468616e20360bc1b6064820152fd5b346104985760203660031901126104985761061961060c6121a0565b610614612a07565b612767565b005b34610498576020366003190112610498576106346121a0565b61063c612a07565b6001600160a01b0381169081156106a757600a80546001600160a01b031981169093179055604080516001600160a01b0393841681529190921660208201527f624ff6db49070a5fbc16b55ef6c8227f8f377a7b9eff06a948cd8d167b66488291819081015b0390a1005b606460405162461bcd60e51b815260206004820152600f60248201527f496e76616c6964206164647265737300000000000000000000000000000000006044820152fd5b34610498576020366003190112610498576001600160a01b0361070c6121a0565b610714612a07565b166001600160a01b03195f5416175f555f80f35b34610498576020366003190112610498576001600160a01b036107496121a0565b165f52601260205260206001600160a01b0360405f205416604051908152f35b34610498576020366003190112610498576020610787600435612577565b604051908152f35b34610498576060366003190112610498576107a86121a0565b6107b0612174565b6001600160a01b03604435926107c4612a07565b16916040516370a0823160e01b8152306004820152602081602481875afa80156104a45782915f91610885575b50106108415781610824827ff24ef89f38eadc1bde50701ad6e4d6d11a2dc24f7cf834a486991f388332850494866129b2565b604080516001600160a01b039290921682526020820192909252a2005b606460405162461bcd60e51b815260206004820152600c60248201527f616d6f756e74206572726f7200000000000000000000000000000000000000006044820152fd5b9150506020813d6020116108b2575b816108a16020938361227a565b8101031261049857819051856107f1565b3d9150610894565b34610498576020366003190112610498577fd5cc76d68d08ffa62a4dc5391bfc63c18b9670139a132ce8274cdb7e86de28b460206004356108f9612a07565b80600c55604051908152a1005b34610498575f366003190112610498576020601354604051908152f35b34610498576020366003190112610498576001600160a01b036109446121a0565b165f526010602052602060ff60405f2054166040519015158152f35b34610498575f366003190112610498576020600754604051908152f35b34610498575f3660031901126104985760206001600160a01b0360035416604051908152f35b34610498576040366003190112610498576004356109bf612174565b906109c8612a07565b6001600160a01b03821691825f52601660205260ff60405f205416610aa8576109f560065483111561222f565b6001600160a01b03600854166040516370a0823160e01b8152306004820152602081602481855afa9081156104a4575f91610a70575b50836020938193610a62610a67947f74ebc01d304ee2020e987f00ff465e30fb250f36c9e46eb8470759b08ce895db9811156122b0565b6129b2565b604051908152a2005b939190506020843d602011610aa0575b81610a8d6020938361227a565b8101031261049857925190929083610a2b565b3d9150610a80565b606460405162461bcd60e51b815260206004820152601c60248201527f426c61636b6c6973743a20746f20697320626c61636b6c6973746564000000006044820152fd5b34610498576020366003190112610498577fb5865171012deafb77c058c28d5b93945e289aebebd7d750320334b2c6e1c40e6040600435610b2b612a07565b600d549080600d5582519182526020820152a1005b34610498576020366003190112610498576001600160a01b03610b616121a0565b610b69612a07565b166001600160a01b031960045416176004555f80f35b34610498575f3660031901126104985760206001600160a01b0360085416604051908152f35b34610498575f366003190112610498576020601454604051908152f35b34610498576020366003190112610498577f31484c1c833eee86681a714ea664c32f985033093c9ee252a8189209ce7bdc1d6040600435610c01612a07565b600e549080600e5582519182526020820152a1005b34610498576020366003190112610498577f9be4c2a4a6ec357a97e3dd84470216bd98df5049471fc0f84e07514619c203956020600435610c55612a07565b610c636127108211156124dd565b80601555604051908152a1005b34610498575f366003190112610498576020610787612528565b346104985761014036600319011261049857610ca46121a0565b610cac612174565b90610cb561218a565b91606435916001600160a01b038316809303610498576084356001600160a01b0381168091036104985760a4356001600160a01b0381168091036104985760c435906001600160a01b0382168092036104985760e435926001600160a01b0384168094036104985761012435966001600160a01b038816809803610498577ff0c57e16840df040f15088dc2f81fe391c3923bec73e23a9662efc9c229c6a00549660ff8860401c16159967ffffffffffffffff891680159081611019575b600114908161100f575b159081611006575b50610fde5767ffffffffffffffff1989166001177ff0c57e16840df040f15088dc2f81fe391c3923bec73e23a9662efc9c229c6a00556001600160a01b0398899283918d610f9f575b50610dd7612ad3565b610ddf612ad3565b610de7612ad3565b610df033612767565b166001600160a01b03196008541617600855166001600160a01b03196009541617600955806001600160a01b03196003541617600355816001600160a01b031960045416176004555f52601060205260405f20600160ff198254161790555f52601060205260405f20600160ff198254161790556001600160a01b03195f5416175f556001600160a01b031960015416176001556001600160a01b03196002541617600255678ac7230489e8000060055569010f0cf064dd5920000060065560196007556402540be4006013556064601455603260155564486b1dea80600b5516806001600160a01b0319600a541617600a555f52601160205260405f20600160ff1982541617905561010435600c556050600d556103e8600e556001600160a01b0319600f541617600f55610f2257005b68ff0000000000000000197ff0c57e16840df040f15088dc2f81fe391c3923bec73e23a9662efc9c229c6a0054167ff0c57e16840df040f15088dc2f81fe391c3923bec73e23a9662efc9c229c6a00557fc7f505b2f371ae2175ee4913f4499e1f2633a7b5936321eed1cdaeb6115181d2602060405160018152a1005b68ffffffffffffffffff191668010000000000000001177ff0c57e16840df040f15088dc2f81fe391c3923bec73e23a9662efc9c229c6a00558d610dce565b7ff92ee8a9000000000000000000000000000000000000000000000000000000005f5260045ffd5b9050158c610d85565b303b159150610d7d565b8c9150610d73565b34610498575f3660031901126104985760206001600160a01b037f9016d09d72d40fdae2fd8ceac6b6234c7706214fd39c1cd1e609a0528c1993005416604051908152f35b34610498575f3660031901126104985760206001600160a01b0360045416604051908152f35b34610498576020366003190112610498576001600160a01b036110ad6121a0565b6110b5612a07565b166001600160a01b031960015416176001555f80f35b34610498576020366003190112610498576001600160a01b036110ec6121a0565b165f527f5ab42ced628888259c08ac98db1eb0cf702fc1501344311d8b100cd1bfe4bb00602052602060405f2054604051908152f35b34610498575f366003190112610498576020601554604051908152f35b34610498575f3660031901126104985760206001600160a01b0360095416604051908152f35b34610498575f3660031901126104985761117d612a07565b5f6001600160a01b037f9016d09d72d40fdae2fd8ceac6b6234c7706214fd39c1cd1e609a0528c199300546001600160a01b031981167f9016d09d72d40fdae2fd8ceac6b6234c7706214fd39c1cd1e609a0528c19930055167f8be0079c531659141344cd1fd0a4f28419497f9722a3daafe3b4186f6b6457e08280a3005b34610498576020366003190112610498577f877eb8e50ade0ca8e7577f085d16acbccbae2aa624994be43415b6a66e565b02602060043561123b612a07565b6112496127108211156124dd565b80601455604051908152a1005b34610498576020366003190112610498577f2d025324f0a785e8c12d0a0d91a9caa49df4ef20ff87e0df7213a1d4f3157beb6001600160a01b036112986121a0565b6112a0612a07565b6106a2600f54918381166001600160a01b0319841617600f5560405193849316839092916001600160a01b0360209181604085019616845216910152565b34610498575f366003190112610498576020600554604051908152f35b34610498575f366003190112610498576020610787612459565b34610498576020366003190112610498576001600160a01b036113366121a0565b61133e612a07565b1661134a8115156123c2565b805f52601660205260ff60405f2054161561139957805f52601660205260405f2060ff1981541690557f2b6bf71b58b3583add364b3d9060ebf8019650f65f5be35f5464b9cb3e4ba2d45f80a2005b606460405162461bcd60e51b815260206004820152601f60248201527f426c61636b6c697374546f6b656e3a204e6f7420626c61636b6c6973746564006044820152fd5b34610498576020366003190112610498576001600160a01b036113fe6121a0565b165f526011602052602060ff60405f2054166040519015158152f35b34610498576020366003190112610498576001600160a01b0361143b6121a0565b611443612a07565b166001600160a01b031960035416176003555f80f35b34610498576020366003190112610498576001600160a01b0361147a6121a0565b611482612a07565b1661148e8115156123c2565b805f52601660205260ff60405f2054166114df57805f52601660205260405f20600160ff198254161790557ff9b68063b051b82957fa193585681240904fed808db8b30fc5a2d2202c6ed6275f80a2005b608460405162461bcd60e51b815260206004820152602360248201527f426c61636b6c697374546f6b656e3a20416c726561647920626c61636b6c697360448201527f74656400000000000000000000000000000000000000000000000000000000006064820152fd5b34610498576020366003190112610498577fc885250daef155d053580f614943e0636ca49239fd2970838d515df3738bdc8a6001600160a01b0361158b6121a0565b611593612a07565b6106a2601754918381166001600160a01b031984161760175560405193849316839092916001600160a01b0360209181604085019616845216910152565b34610498576020366003190112610498576004356115ed612a07565b8015611624576020817fedc0c63da22d77f24aab5cf375dc00652205b8ae2aa6aec9b29c62446cb8b43392601355604051908152a1005b606460405162461bcd60e51b815260206004820152601c60248201527f5072696365206d7573742062652067726561746572207468616e2030000000006044820152fd5b34610498575f3660031901126104985760206001600160a01b03600a5416604051908152f35b34610498576020366003190112610498576001600160a01b036116af6121a0565b6116b7612a07565b166001600160a01b031960025416176002555f80f35b34610498575f366003190112610498576020600c54604051908152f35b3461049857602036600319011261049857600435611706612a07565b6127108111611743577f244852cd05ca459924e91572c84674f3374b806dacc0378e01f0283c14912d5160206007549280600755604051908152a2005b608460405162461bcd60e51b815260206004820152602160248201527f4665652070657263656e746167652063616e6e6f74206578636565642031303060448201527f25000000000000000000000000000000000000000000000000000000000000006064820152fd5b34610498575f366003190112610498576020600654604051908152f35b34610498575f3660031901126104985760206001600160a01b03600f5416604051908152f35b34610498575f366003190112610498576020600d54604051908152f35b34610498576040366003190112610498576118266121a0565b602435908115158092036104985760206001600160a01b037f1996274124fd3418649ced8b48aa3f3076c5eef885125806d703a482989e51eb92611868612a07565b1692835f526010825260405f2060ff1981541660ff8316179055604051908152a2005b34610498575f366003190112610498576020600e54604051908152f35b34610498575f3660031901126104985760206001600160a01b0360175416604051908152f35b34610498576020366003190112610498576004356118ea612a07565b8015611924577f48666edaf6cb2437ec76d3dfb3d1736f9912fa847528f73de7c0fbc216df307860206006549280600655604051908152a2005b608460405162461bcd60e51b815260206004820152602960248201527f4d6178696d756d2062757920616d6f756e74206d75737420626520677265617460448201526806572207468616e20360bc1b6064820152fd5b346104985760c036600319011261049857600435611996612174565b9061199f61218a565b6064359260a43567ffffffffffffffff8111610498576119c39036906004016121b6565b92335f5260166020526119dd60ff60405f205416156121e4565b6001600160a01b03811690811515948561210c575b60055487106120c857611a0960065488111561222f565b602460206001600160a01b0360085416604051928380926370a0823160e01b82523060048301525afa80156104a4575f90612094575b611a4c91508811156122b0565b6001600160a01b03851693845f52601060205260ff60405f2054161561205057611ac191610344916084358b611abb336001600160a01b03165f527f5ab42ced628888259c08ac98db1eb0cf702fc1501344311d8b100cd1bfe4bb0060205260405f2080549060018201905590565b33612822565b611aca87612577565b90611ad6821515612346565b60075461271081018091116104af57612710611b0184611afc6402540be400948c612391565b612391565b040492831561200c575f9680611fef575b611f9b575b50506004546001600160a01b03168303611e9b57611b33612459565b928315611e5757670de0b6b3a7640000830290838204670de0b6b3a7640000036104af5784611b9f611b897f576fe07bbe6e1c45021370de894794430c43791b12ed6220eaaf433b2a8dc78d97611bef956123a4565b80936001600160a01b03600a5416903390612951565b60075460405195869533998c8c89949160e096936001600160a01b03919a999895929a8261010089019c16885260208801521660408601526060850152608084015260a083015260c08201520152565b0390a25b611c0982336001600160a01b03600854166129b2565b6001600160a01b0381169081611c39575b83335f52601160205260405f20600160ff19825416179055600c555f80f35b6305f5e100612710611c59611c5060145487612391565b60135490612391565b0404906001600160a01b03600954166040516370a0823160e01b8152306004820152602081602481855afa80156104a45784915f91611e22575b501015611dbf575b5050505f5260126020526001600160a01b0360405f205416906305f5e100612710611ccb611c5060155485612391565b04049082151580611d49575b15611c1a57611cf282846001600160a01b03600954166129b2565b60155490601354926040519460028652602086015260408501526060840152608083015260a08201527f8aaee62c43541bf39b4bbf418da51ad0c0b13a92159bc917dd41aafca9f2f2e360c03392a2818080611c1a565b50602460206001600160a01b0360095416604051928380926370a0823160e01b82523060048301525afa80156104a45783915f91611d8a575b501015611cd7565b9150506020813d602011611db7575b81611da66020938361227a565b810103126104985782905186611d82565b3d9150611d99565b611dca9183916129b2565b6014546013549060405192600184528460208501526040840152846060840152608083015260a08201527f8aaee62c43541bf39b4bbf418da51ad0c0b13a92159bc917dd41aafca9f2f2e360c03392a2838080611c9b565b9150506020813d602011611e4f575b81611e3e6020938361227a565b810103126104985783905188611c93565b3d9150611e31565b606460405162461bcd60e51b815260206004820152601260248201527f496e76616c6964207573646320707269636500000000000000000000000000006044820152fd5b6003546001600160a01b03168303611f5757611eb5612528565b928315611f1357670de0b6b3a7640000830290838204670de0b6b3a7640000036104af5784611b9f611b897f576fe07bbe6e1c45021370de894794430c43791b12ed6220eaaf433b2a8dc78d97611f0b956123a4565b0390a2611bf3565b606460405162461bcd60e51b815260206004820152601260248201527f496e76616c6964207573647420707269636500000000000000000000000000006044820152fd5b606460405162461bcd60e51b815260206004820152601660248201527f756e737570706f72746564207472616465546f6b656e000000000000000000006044820152fd5b90919550335f52601260205260405f20816001600160a01b03198254161790556040519081527faedcbe757d0af5671d08686487d4ddf9c86e82687daf8fd291edfe54b7e9707c60203392a2938780611b17565b50335f5260126020526001600160a01b0360405f20541615611b12565b606460405162461bcd60e51b815260206004820152601160248201527f496e76616c696420757364416d6f756e740000000000000000000000000000006044820152fd5b606460405162461bcd60e51b815260206004820152601260248201527f496e76616c6964207472616465546f6b656e00000000000000000000000000006044820152fd5b506020813d6020116120c0575b816120ae6020938361227a565b8101031261049857611a4c9051611a3f565b3d91506120a1565b606460405162461bcd60e51b815260206004820152601460248201527f616d6f756e74206c657373207468616e206d696e0000000000000000000000006044820152fd5b338314158061215e575b6119f257606460405162461bcd60e51b815260206004820152600f60248201527f496e76616c696420696e766974657200000000000000000000000000000000006044820152fd5b50825f52601160205260ff60405f205416612116565b602435906001600160a01b038216820361049857565b604435906001600160a01b038216820361049857565b600435906001600160a01b038216820361049857565b9181601f840112156104985782359167ffffffffffffffff8311610498576020838186019501011161049857565b156121eb57565b606460405162461bcd60e51b815260206004820152601e60248201527f426c61636b6c6973743a207573657220697320626c61636b6c697374656400006044820152fd5b1561223657565b606460405162461bcd60e51b815260206004820152601460248201527f616d6f756e74206d6f7265207468616e206d61780000000000000000000000006044820152fd5b90601f8019910116810190811067ffffffffffffffff82111761229c57604052565b634e487b7160e01b5f52604160045260245ffd5b156122b757565b606460405162461bcd60e51b815260206004820152601560248201527f616d6f756e74206578636565642062616c616e636500000000000000000000006044820152fd5b1561230257565b606460405162461bcd60e51b815260206004820152601160248201527f496e76616c6964207369676e61747572650000000000000000000000000000006044820152fd5b1561234d57565b606460405162461bcd60e51b815260206004820152601260248201527f496e76616c696420676f6c6420707269636500000000000000000000000000006044820152fd5b818102929181159184041417156104af57565b81156123ae570490565b634e487b7160e01b5f52601260045260245ffd5b156123c957565b606460405162461bcd60e51b815260206004820152601c60248201527f426c61636b6c697374546f6b656e3a205a65726f2061646472657373000000006044820152fd5b519069ffffffffffffffffffff8216820361049857565b908160a0910312610498576124388161240d565b9160208201519160408101519161245660806060840151930161240d565b90565b600460a06001600160a01b036002541660405192838092633fabe5a360e21b82525afa9081156104a4575f916124a9575b506402540be4008102908082046402540be40014901517156104af5790565b6124cb915060a03d60a0116124d6575b6124c3818361227a565b810190612424565b50505090505f61248a565b503d6124b9565b156124e457565b606460405162461bcd60e51b815260206004820152601760248201527f526174652063616e6e6f742065786365656420313030250000000000000000006044820152fd5b600460a06001600160a01b036001541660405192838092633fabe5a360e21b82525afa9081156104a4575f916124a957506402540be4008102908082046402540be40014901517156104af5790565b600460a06001600160a01b035f541660405192838092633fabe5a360e21b82525afa9081156104a4575f91612743575b506402540be4008102908082056402540be40014901517156104af5780821090811591612719575b50156126af57600c5480821090811591612685575b501561261b576402540be4008102908082046402540be40014901517156104af576126176305f5e10091600b54906123a4565b0490565b608460405162461bcd60e51b815260206004820152603260248201527f4f6666636861696e2070726963652064657669617465732066726f6d206c617460448201527f65737420707269636520746f6f206d75636800000000000000000000000000006064820152fd5b9050600e54612710039061271082116104af57612710916126a591612391565b048110155f6125e4565b608460405162461bcd60e51b815260206004820152603260248201527f4f6666636861696e2070726963652064657669617465732066726f6d206f726160448201527f636c6520707269636520746f6f206d75636800000000000000000000000000006064820152fd5b9050600d54612710039061271082116104af576127109161273991612391565b048110155f6125cf565b61275c915060a03d60a0116124d6576124c3818361227a565b50505090505f6125a7565b6001600160a01b031680156127f6576001600160a01b037f9016d09d72d40fdae2fd8ceac6b6234c7706214fd39c1cd1e609a0528c19930054826001600160a01b03198216177f9016d09d72d40fdae2fd8ceac6b6234c7706214fd39c1cd1e609a0528c19930055167f8be0079c531659141344cd1fd0a4f28419497f9722a3daafe3b4186f6b6457e05f80a3565b7f1e4fbdf7000000000000000000000000000000000000000000000000000000005f525f60045260245ffd5b9291928242101561290d57604051926020840194855260408401523060601b60608401526bffffffffffffffffffffffff199060601b16607483015260888201524660a882015260a8815261287860c88261227a565b5190207f19457468657265756d205369676e6564204d6573736167653a0a3332000000005f52601c52603c5f2067ffffffffffffffff831161229c57604051906128cc601f8501601f19166020018361227a565b8382523684840111610498575f6020856128fa966128f1968387013784010152612b2a565b90929192612b64565b6001600160a01b0380600f541691161490565b606460405162461bcd60e51b815260206004820152601160248201527f5369676e617475726520657870697265640000000000000000000000000000006044820152fd5b9091926001600160a01b036129b09481604051957f23b872dd0000000000000000000000000000000000000000000000000000000060208801521660248601521660448401526064830152606482526129ab60848361227a565b612a66565b565b6040517fa9059cbb0000000000000000000000000000000000000000000000000000000060208201526001600160a01b039290921660248301526044808301939093529181526129b0916129ab60648361227a565b6001600160a01b037f9016d09d72d40fdae2fd8ceac6b6234c7706214fd39c1cd1e609a0528c19930054163303612a3a57565b7f118cdaa7000000000000000000000000000000000000000000000000000000005f523360045260245ffd5b905f602091828151910182855af1156104a4575f513d612aca57506001600160a01b0381163b155b612a955750565b6001600160a01b03907f5274afe7000000000000000000000000000000000000000000000000000000005f521660045260245ffd5b60011415612a8e565b60ff7ff0c57e16840df040f15088dc2f81fe391c3923bec73e23a9662efc9c229c6a005460401c1615612b0257565b7fd7e6bcf8000000000000000000000000000000000000000000000000000000005f5260045ffd5b8151919060418303612b5a57612b539250602082015190606060408401519301515f1a90612c23565b9192909190565b50505f9160029190565b6004811015612c0f5780612b76575050565b60018103612ba6577ff645eedf000000000000000000000000000000000000000000000000000000005f5260045ffd5b60028103612bda57507ffce698f7000000000000000000000000000000000000000000000000000000005f5260045260245ffd5b600314612be45750565b7fd78bce0c000000000000000000000000000000000000000000000000000000005f5260045260245ffd5b634e487b7160e01b5f52602160045260245ffd5b91907f7fffffffffffffffffffffffffffffff5d576e7357a4501ddfe92f46681b20a08411612c9a579160209360809260ff5f9560405194855216868401526040830152606082015282805260015afa156104a4575f516001600160a01b03811615612c9057905f905f90565b505f906001905f90565b5050505f916003919056fea2646970667358221220f44f98437fe49f2dbcf5d5d79d533c27605cf9ac4b282a4258f39861c23aeeb164736f6c634300081e0033",
  "linkReferences": {},
  "deployedLinkReferences": {},
  "immutableReferences": {},
  "inputSourceName": "project/contracts/ghk-buy/GHKBuyPool.sol",
  "buildInfoId": "solc-0_8_30-5239ca842f0266fb57e8443af2249fc2c07ad5dc"
}