{
  "_format": "hh3-artifact-1",
  "contractName": "GHKEMiningPool",
  "sourceName": "contracts/ghke-mining-pool/GHKEMiningPool.sol",
  "abi": [
    {
      "inputs": [],
      "name": "InvalidInitialization",
      "type": "error"
    },
    {
      "inputs": [],
      "name": "NotInitializing",
      "type": "error"
    },
    {
      "inputs": [
        {
          "internalType": "address",
          "name": "owner",
          "type": "address"
        }
      ],
      "name": "OwnableInvalidOwner",
      "type": "error"
    },
    {
      "inputs": [
        {
          "internalType": "address",
          "name": "account",
          "type": "address"
        }
      ],
      "name": "OwnableUnauthorizedAccount",
      "type": "error"
    },
    {
      "inputs": [
        {
          "internalType": "address",
          "name": "token",
          "type": "address"
        }
      ],
      "name": "SafeERC20FailedOperation",
      "type": "error"
    },
    {
      "anonymous": false,
      "inputs": [
        {
          "indexed": true,
          "internalType": "address",
          "name": "coin",
          "type": "address"
        },
        {
          "indexed": false,
          "internalType": "address",
          "name": "to",
          "type": "address"
        },
        {
          "indexed": false,
          "internalType": "uint256",
          "name": "amount",
          "type": "uint256"
        }
      ],
      "name": "EmergencyWithdraw",
      "type": "event"
    },
    {
      "anonymous": false,
      "inputs": [
        {
          "indexed": false,
          "internalType": "uint64",
          "name": "version",
          "type": "uint64"
        }
      ],
      "name": "Initialized",
      "type": "event"
    },
    {
      "anonymous": false,
      "inputs": [
        {
          "indexed": true,
          "internalType": "uint256",
          "name": "oldVal",
          "type": "uint256"
        },
        {
          "indexed": false,
          "internalType": "uint256",
          "name": "newVal",
          "type": "uint256"
        }
      ],
      "name": "LockPeriodUpdated",
      "type": "event"
    },
    {
      "anonymous": false,
      "inputs": [
        {
          "indexed": true,
          "internalType": "uint256",
          "name": "oldVal",
          "type": "uint256"
        },
        {
          "indexed": false,
          "internalType": "uint256",
          "name": "newVal",
          "type": "uint256"
        }
      ],
      "name": "MinStakeGhkAmountUpdated",
      "type": "event"
    },
    {
      "anonymous": false,
      "inputs": [
        {
          "indexed": true,
          "internalType": "address",
          "name": "previousOwner",
          "type": "address"
        },
        {
          "indexed": true,
          "internalType": "address",
          "name": "newOwner",
          "type": "address"
        }
      ],
      "name": "OwnershipTransferred",
      "type": "event"
    },
    {
      "anonymous": false,
      "inputs": [
        {
          "indexed": true,
          "internalType": "address",
          "name": "user",
          "type": "address"
        },
        {
          "indexed": false,
          "internalType": "uint256",
          "name": "reward",
          "type": "uint256"
        },
        {
          "indexed": false,
          "internalType": "uint256",
          "name": "index",
          "type": "uint256"
        }
      ],
      "name": "RewardClaimed",
      "type": "event"
    },
    {
      "anonymous": false,
      "inputs": [
        {
          "indexed": false,
          "internalType": "uint256",
          "name": "newRate",
          "type": "uint256"
        }
      ],
      "name": "RewardRateUpdated",
      "type": "event"
    },
    {
      "anonymous": false,
      "inputs": [
        {
          "indexed": true,
          "internalType": "address",
          "name": "user",
          "type": "address"
        },
        {
          "indexed": false,
          "internalType": "uint256",
          "name": "amount",
          "type": "uint256"
        },
        {
          "indexed": false,
          "internalType": "uint256",
          "name": "index",
          "type": "uint256"
        }
      ],
      "name": "Staked",
      "type": "event"
    },
    {
      "anonymous": false,
      "inputs": [
        {
          "indexed": true,
          "internalType": "bool",
          "name": "stop",
          "type": "bool"
        }
      ],
      "name": "StopStatusChanged",
      "type": "event"
    },
    {
      "anonymous": false,
      "inputs": [
        {
          "indexed": true,
          "internalType": "address",
          "name": "user",
          "type": "address"
        },
        {
          "indexed": false,
          "internalType": "uint256",
          "name": "amount",
          "type": "uint256"
        },
        {
          "indexed": false,
          "internalType": "uint256",
          "name": "index",
          "type": "uint256"
        }
      ],
      "name": "Unstaked",
      "type": "event"
    },
    {
      "inputs": [],
      "name": "LOCK_PERIOD",
      "outputs": [
        {
          "internalType": "uint256",
          "name": "",
          "type": "uint256"
        }
      ],
      "stateMutability": "view",
      "type": "function"
    },
    {
      "inputs": [],
      "name": "MIN_STAKE_GHK_AMOUNT",
      "outputs": [
        {
          "internalType": "uint256",
          "name": "",
          "type": "uint256"
        }
      ],
      "stateMutability": "view",
      "type": "function"
    },
    {
      "inputs": [
        {
          "internalType": "address",
          "name": "user",
          "type": "address"
        },
        {
          "internalType": "uint256",
          "name": "index",
          "type": "uint256"
        }
      ],
      "name": "calculateReward",
      "outputs": [
        {
          "internalType": "uint256",
          "name": "",
          "type": "uint256"
        }
      ],
      "stateMutability": "view",
      "type": "function"
    },
    {
      "inputs": [
        {
          "internalType": "uint256",
          "name": "index",
          "type": "uint256"
        }
      ],
      "name": "claimReward",
      "outputs": [],
      "stateMutability": "nonpayable",
      "type": "function"
    },
    {
      "inputs": [],
      "name": "cumulativeRewardRate",
      "outputs": [
        {
          "internalType": "uint256",
          "name": "",
          "type": "uint256"
        }
      ],
      "stateMutability": "view",
      "type": "function"
    },
    {
      "inputs": [],
      "name": "currentRewardPerDay",
      "outputs": [
        {
          "internalType": "uint256",
          "name": "",
          "type": "uint256"
        }
      ],
      "stateMutability": "view",
      "type": "function"
    },
    {
      "inputs": [
        {
          "internalType": "uint256",
          "name": "amount",
          "type": "uint256"
        }
      ],
      "name": "deposit",
      "outputs": [],
      "stateMutability": "nonpayable",
      "type": "function"
    },
    {
      "inputs": [
        {
          "internalType": "uint256",
          "name": "index",
          "type": "uint256"
        }
      ],
      "name": "emergencyWithdraw",
      "outputs": [],
      "stateMutability": "nonpayable",
      "type": "function"
    },
    {
      "inputs": [
        {
          "internalType": "address",
          "name": "coin",
          "type": "address"
        },
        {
          "internalType": "address",
          "name": "to",
          "type": "address"
        },
        {
          "internalType": "uint256",
          "name": "amount",
          "type": "uint256"
        }
      ],
      "name": "emergencyWithdraw",
      "outputs": [],
      "stateMutability": "nonpayable",
      "type": "function"
    },
    {
      "inputs": [
        {
          "internalType": "address",
          "name": "user",
          "type": "address"
        }
      ],
      "name": "getStakeCount",
      "outputs": [
        {
          "internalType": "uint256",
          "name": "",
          "type": "uint256"
        }
      ],
      "stateMutability": "view",
      "type": "function"
    },
    {
      "inputs": [
        {
          "internalType": "address",
          "name": "user",
          "type": "address"
        },
        {
          "internalType": "uint256",
          "name": "startIndex",
          "type": "uint256"
        }
      ],
      "name": "getStakesPage",
      "outputs": [
        {
          "internalType": "uint256[]",
          "name": "ids",
          "type": "uint256[]"
        },
        {
          "internalType": "uint256[]",
          "name": "amounts",
          "type": "uint256[]"
        },
        {
          "internalType": "uint256[]",
          "name": "startTimes",
          "type": "uint256[]"
        },
        {
          "internalType": "uint256[]",
          "name": "unlockTimes",
          "type": "uint256[]"
        },
        {
          "internalType": "uint256[]",
          "name": "rewards",
          "type": "uint256[]"
        }
      ],
      "stateMutability": "view",
      "type": "function"
    },
    {
      "inputs": [],
      "name": "ghkeToken",
      "outputs": [
        {
          "internalType": "contract IERC20",
          "name": "",
          "type": "address"
        }
      ],
      "stateMutability": "view",
      "type": "function"
    },
    {
      "inputs": [
        {
          "internalType": "address",
          "name": "_ghkeToken",
          "type": "address"
        }
      ],
      "name": "initialize",
      "outputs": [],
      "stateMutability": "nonpayable",
      "type": "function"
    },
    {
      "inputs": [],
      "name": "lastUpdateTime",
      "outputs": [
        {
          "internalType": "uint256",
          "name": "",
          "type": "uint256"
        }
      ],
      "stateMutability": "view",
      "type": "function"
    },
    {
      "inputs": [],
      "name": "owner",
      "outputs": [
        {
          "internalType": "address",
          "name": "",
          "type": "address"
        }
      ],
      "stateMutability": "view",
      "type": "function"
    },
    {
      "inputs": [],
      "name": "renounceOwnership",
      "outputs": [],
      "stateMutability": "nonpayable",
      "type": "function"
    },
    {
      "inputs": [
        {
          "internalType": "uint256",
          "name": "_newVal",
          "type": "uint256"
        }
      ],
      "name": "setLockPeriod",
      "outputs": [],
      "stateMutability": "nonpayable",
      "type": "function"
    },
    {
      "inputs": [
        {
          "internalType": "uint256",
          "name": "_newVal",
          "type": "uint256"
        }
      ],
      "name": "setMinStakeGhkAmount",
      "outputs": [],
      "stateMutability": "nonpayable",
      "type": "function"
    },
    {
      "inputs": [
        {
          "internalType": "bool",
          "name": "isStop",
          "type": "bool"
        }
      ],
      "name": "setStop",
      "outputs": [],
      "stateMutability": "nonpayable",
      "type": "function"
    },
    {
      "inputs": [
        {
          "internalType": "address",
          "name": "",
          "type": "address"
        },
        {
          "internalType": "uint256",
          "name": "",
          "type": "uint256"
        }
      ],
      "name": "stakes",
      "outputs": [
        {
          "internalType": "uint256",
          "name": "amount",
          "type": "uint256"
        },
        {
          "internalType": "uint256",
          "name": "startTime",
          "type": "uint256"
        },
        {
          "internalType": "uint256",
          "name": "unlockTime",
          "type": "uint256"
        },
        {
          "internalType": "uint256",
          "name": "userRewardRate",
          "type": "uint256"
        }
      ],
      "stateMutability": "view",
      "type": "function"
    },
    {
      "inputs": [],
      "name": "stop",
      "outputs": [
        {
          "internalType": "bool",
          "name": "",
          "type": "bool"
        }
      ],
      "stateMutability": "view",
      "type": "function"
    },
    {
      "inputs": [
        {
          "internalType": "address",
          "name": "newOwner",
          "type": "address"
        }
      ],
      "name": "transferOwnership",
      "outputs": [],
      "stateMutability": "nonpayable",
      "type": "function"
    },
    {
      "inputs": [
        {
          "internalType": "uint256",
          "name": "newRate",
          "type": "uint256"
        }
      ],
      "name": "updateRewardRate",
      "outputs": [],
      "stateMutability": "nonpayable",
      "type": "function"
    },
    {
      "inputs": [
        {
          "internalType": "uint256",
          "name": "index",
          "type": "uint256"
        }
      ],
      "name": "withdraw",
      "outputs": [],
      "stateMutability": "nonpayable",
      "type": "function"
    }
  ],
  "bytecode": "0x60808060405234601557611708908161001a8239f35b5f80fdfe6080806040526004361015610012575f80fd5b5f3560e01c90816307da68f5146111ae575080630dfa21d7146111885780631820cabb1461116b5780631852e8d91461105e5780632e1a7d4d14610f6a5780635312ea8e14610ebb578063584b62a114610e4a5780635be3511d14610dfa578063641657cb14610d5f578063715018a614610cbb578063779972da14610c6b5780638bf18b2e14610c4e5780638da5cb5b14610c095780639ef3a26114610bb5578063ae169a5014610a37578063b6b55f2514610808578063c4d66de8146105f8578063c8cb09341461033b578063c8f33c911461031e578063cf57ee69146102e7578063df631bd4146102ca578063e63ea40814610170578063f2fde38b146101455763fb9936cb14610124575f80fd5b34610141575f366003190112610141576020600354604051908152f35b5f80fd5b346101415760203660031901126101415761016e6101616111d0565b6101696115af565b611422565b005b34610141576060366003190112610141576101896111d0565b6024356001600160a01b0381168103610141576001600160a01b03604435926101b06115af565b16916040517f70a08231000000000000000000000000000000000000000000000000000000008152306004820152602081602481875afa80156102bf5782915f9161028a575b50106102465781610229827ff24ef89f38eadc1bde50701ad6e4d6d11a2dc24f7cf834a486991f38833285049486611558565b604080516001600160a01b039290921682526020820192909252a2005b606460405162461bcd60e51b815260206004820152600c60248201527f616d6f756e74206572726f7200000000000000000000000000000000000000006044820152fd5b9150506020813d6020116102b7575b816102a6602093836112ad565b8101031261014157819051856101f6565b3d9150610299565b6040513d5f823e3d90fd5b34610141575f366003190112610141576020600154604051908152f35b34610141576020366003190112610141576001600160a01b036103086111d0565b165f525f602052602060405f2054604051908152f35b34610141575f366003190112610141576020600254604051908152f35b34610141576040366003190112610141576103546111d0565b6001600160a01b03602435911690815f525f60205260405f2054808210156105b457600a8201808311610546578110156105ac57610392828261134c565b925b61039d846113dc565b6103a6856113dc565b916103b0866113dc565b956103ba816113dc565b946103c4826113dc565b96600154936103d56002544261134c565b801515806105a1575b61055a575b505f1983019283115f5b858110610459575061041d8a6104558b6104478f6104398e61042b8f604051998a9960a08b5260a08b0190611213565b9089820360208b0152611213565b908782036040890152611213565b908582036060870152611213565b908382036080850152611213565b0390f35b816105465780670de0b6b3a7640000806105338f948f958e8e60019861049561048d8f8f886104879161136c565b9061134c565b95869261140e565b528a5f525f6020526104b6886104ae8660405f206111e6565b50549261140e565b52895f525f6020526104d987896104d08660405f206111e6565b5001549261140e565b52885f525f6020526104f48660026104d08560405f206111e6565b52875f525f60205261052d60036105246105118460405f206111e6565b5054938b5f525f60205260405f206111e6565b5001548d61134c565b90611359565b040461053f828d61140e565b52016103ed565b634e487b7160e01b5f52601160045260245ffd5b60035491959161056991611359565b90670de0b6b3a7640000820291808304670de0b6b3a76400001490151715610546576201518061059a92049061136c565b938a6103e3565b5060035415156103de565b600a92610394565b606460405162461bcd60e51b815260206004820152601360248201527f496e76616c696420737461727420696e646578000000000000000000000000006044820152fd5b34610141576020366003190112610141576106116111d0565b7ff0c57e16840df040f15088dc2f81fe391c3923bec73e23a9662efc9c229c6a005460ff8160401c16159167ffffffffffffffff821680159081610800575b60011490816107f6575b1590816107ed575b506107c55767ffffffffffffffff1982166001177ff0c57e16840df040f15088dc2f81fe391c3923bec73e23a9662efc9c229c6a00556001600160a01b039183610786575b506106b061167b565b6106b861167b565b6106c133611422565b1673ffffffffffffffffffffffffffffffffffffffff19600654161760065566038d7ea4c680006003554260025562278d0060055568056bc75e2d6310000060045561070957005b68ff0000000000000000197ff0c57e16840df040f15088dc2f81fe391c3923bec73e23a9662efc9c229c6a0054167ff0c57e16840df040f15088dc2f81fe391c3923bec73e23a9662efc9c229c6a00557fc7f505b2f371ae2175ee4913f4499e1f2633a7b5936321eed1cdaeb6115181d2602060405160018152a1005b68ffffffffffffffffff191668010000000000000001177ff0c57e16840df040f15088dc2f81fe391c3923bec73e23a9662efc9c229c6a0055836106a7565b7ff92ee8a9000000000000000000000000000000000000000000000000000000005f5260045ffd5b90501584610662565b303b15915061065a565b849150610650565b346101415760203660031901126101415760043560ff60065460a01c166109f35760045481106109895761083a6114ea565b6108996001600160a01b0360065416604051907f23b872dd000000000000000000000000000000000000000000000000000000006020830152336024830152306044830152836064830152606482526108946084836112ad565b61160e565b335f525f60205260405f206108b06005544261136c565b600154604051916108c083611291565b84835260208301934285526040840191825260608401928352805468010000000000000000811015610975576108fb916001820181556111e6565b9490946109625760039351855551600185015551600284015551910155335f525f60205260405f20545f1981019081116105465760405191825260208201527f1449c6dd7851abc30abf37f57715f492010519147cc2652fbc38202c18a6ee9060403392a2005b634e487b7160e01b5f525f60045260245ffd5b634e487b7160e01b5f52604160045260245ffd5b608460405162461bcd60e51b815260206004820152602360248201527f5374616b6520616d6f756e74206d75737420626520677265617465722074686160448201527f6e203000000000000000000000000000000000000000000000000000000000006064820152fd5b606460405162461bcd60e51b815260206004820152600760248201527f73746f70706564000000000000000000000000000000000000000000000000006044820152fd5b3461014157602036600319011261014157600435335f525f602052610a6160405f20548210611246565b335f525f602052610a7e610a788260405f206111e6565b506112cf565b60408101514210610b7157670de0b6b3a7640000610abf82610aa38394511515611301565b610aab6114ea565b61052d81519160606001549101519061134c565b0404908115610b2d57610ade82336001600160a01b0360065416611558565b600154335f525f6020526003610af78360405f206111e6565b50015560405191825260208201527ff01da32686223933d8a18a391060918c7f11a3648639edd87ae013e2e273174360403392a2005b606460405162461bcd60e51b815260206004820152601260248201527f4e6f2072657761726420746f20636c61696d00000000000000000000000000006044820152fd5b606460405162461bcd60e51b815260206004820152601560248201527f5374616b65206973207374696c6c206c6f636b656400000000000000000000006044820152fd5b34610141576020366003190112610141577f41d466ebd06fb97e7786086ac8b69b7eb7da798592036251291d34e9791cde016020600435610bf46115af565b610bfc6114ea565b80600355604051908152a1005b34610141575f3660031901126101415760206001600160a01b037f9016d09d72d40fdae2fd8ceac6b6234c7706214fd39c1cd1e609a0528c1993005416604051908152f35b34610141575f366003190112610141576020600454604051908152f35b3461014157602036600319011261014157600435610c876115af565b7f5dd7b309b7bc5010d9c96159ee535a428121d6803cb847792402fffccaf1569a60206005549280600555604051908152a2005b34610141575f36600319011261014157610cd36115af565b5f6001600160a01b037f9016d09d72d40fdae2fd8ceac6b6234c7706214fd39c1cd1e609a0528c1993005473ffffffffffffffffffffffffffffffffffffffff1981167f9016d09d72d40fdae2fd8ceac6b6234c7706214fd39c1cd1e609a0528c19930055167f8be0079c531659141344cd1fd0a4f28419497f9722a3daafe3b4186f6b6457e08280a3005b34610141576020366003190112610141576004358015158091036101415760ff90610d886115af565b7fffffffffffffffffffffff00ffffffffffffffffffffffffffffffffffffffff74ff00000000000000000000000000000000000000006006549260a01b169116178060065560a01c1615157f76f505c1fd073fad1cb2a7c8c7520aefc63d16d8d25b14a916a8ee558aacb2985f80a2005b3461014157602036600319011261014157600435610e166115af565b7fca3a537495e180ddcfcea635aa3e062f752fdd762ce1d30b451efd1c60a1c06160206004549280600455604051908152a2005b3461014157604036600319011261014157610e636111d0565b6001600160a01b0360243591165f525f60205260405f20805482101561014157608091610e8f916111e6565b508054906001810154906003600282015491015491604051938452602084015260408301526060820152f35b3461014157602036600319011261014157600435335f525f602052610ee560405f20548210611246565b335f525f602052610efc610a788260405f206111e6565b610f0881511515611379565b5190335f525f6020525f610f1f82604083206111e6565b5055610f3782336001600160a01b0360065416611558565b60405191825260208201527f7fc4727e062e336010f2c282598ef5f14facb3de68cf8195c2f23e1454b2b74e60403392a2005b3461014157602036600319011261014157600435335f525f602052610f9460405f20548210611246565b335f525f602052610fab610a788260405f206111e6565b610fb781511515611379565b610fbf6114ea565b6040810151421015610fe2575190335f525f6020525f610f1f82604083206111e6565b670de0b6b3a764000080611002835161052d60015460608701519061134c565b040480611010575b50610f08565b61102681336001600160a01b0360065416611558565b6040519081528260208201527ff01da32686223933d8a18a391060918c7f11a3648639edd87ae013e2e273174360403392a28261100a565b34610141576040366003190112610141576110af610a7861107d6111d0565b6001600160a01b036024359116805f525f6020526110a060405f20548310611246565b5f525f60205260405f206111e6565b6110bb81511515611301565b600154906110cb6002544261134c565b80151580611160575b611104575b6020670de0b6b3a7640000806110fa8561052d88606083519301519061134c565b0404604051908152f35b60035461111091611359565b91670de0b6b3a7640000830292808404670de0b6b3a76400001490151715610546576110fa670de0b6b3a76400009261052d611155859462015180602098049061136c565b9550509250506110d9565b5060035415156110d4565b34610141575f366003190112610141576020600554604051908152f35b34610141575f3660031901126101415760206001600160a01b0360065416604051908152f35b34610141575f3660031901126101415760209060ff60065460a01c1615158152f35b600435906001600160a01b038216820361014157565b80548210156111ff575f5260205f209060021b01905f90565b634e487b7160e01b5f52603260045260245ffd5b90602080835192838152019201905f5b8181106112305750505090565b8251845260209384019390920191600101611223565b1561124d57565b606460405162461bcd60e51b815260206004820152601360248201527f496e76616c6964207374616b6520696e646578000000000000000000000000006044820152fd5b6080810190811067ffffffffffffffff82111761097557604052565b90601f8019910116810190811067ffffffffffffffff82111761097557604052565b906040516112dc81611291565b6060600382948054845260018101546020850152600281015460408501520154910152565b1561130857565b606460405162461bcd60e51b815260206004820152601d60248201527f4e6f20616374697665207374616b65206174207468697320696e6465780000006044820152fd5b9190820391821161054657565b8181029291811591840414171561054657565b9190820180921161054657565b1561138057565b606460405162461bcd60e51b815260206004820152601760248201527f5374616b6520616c72656164792077697468647261776e0000000000000000006044820152fd5b67ffffffffffffffff81116109755760051b60200190565b906113e6826113c4565b6113f360405191826112ad565b8281528092611404601f19916113c4565b0190602036910137565b80518210156111ff5760209160051b010190565b6001600160a01b031680156114be576001600160a01b037f9016d09d72d40fdae2fd8ceac6b6234c7706214fd39c1cd1e609a0528c199300548273ffffffffffffffffffffffffffffffffffffffff198216177f9016d09d72d40fdae2fd8ceac6b6234c7706214fd39c1cd1e609a0528c19930055167f8be0079c531659141344cd1fd0a4f28419497f9722a3daafe3b4186f6b6457e05f80a3565b7f1e4fbdf7000000000000000000000000000000000000000000000000000000005f525f60045260245ffd5b6114f66002544261134c565b8015158061154d575b6115065750565b60035461151291611359565b670de0b6b3a7640000810290808204670de0b6b3a764000014901517156105465762015180611544910460015461136c565b60015542600255565b5060035415156114ff565b6040517fa9059cbb0000000000000000000000000000000000000000000000000000000060208201526001600160a01b039290921660248301526044808301939093529181526115ad916108946064836112ad565b565b6001600160a01b037f9016d09d72d40fdae2fd8ceac6b6234c7706214fd39c1cd1e609a0528c199300541633036115e257565b7f118cdaa7000000000000000000000000000000000000000000000000000000005f523360045260245ffd5b905f602091828151910182855af1156102bf575f513d61167257506001600160a01b0381163b155b61163d5750565b6001600160a01b03907f5274afe7000000000000000000000000000000000000000000000000000000005f521660045260245ffd5b60011415611636565b60ff7ff0c57e16840df040f15088dc2f81fe391c3923bec73e23a9662efc9c229c6a005460401c16156116aa57565b7fd7e6bcf8000000000000000000000000000000000000000000000000000000005f5260045ffdfea264697066735822122026f70de9b2fc99fe9491f2689d049e603bc35a59cd3c6a79fad3869375644d0764736f6c634300081e0033",
  "linkReferences": {},
  "deployedLinkReferences": {},
  "immutableReferences": {},
  "inputSourceName": "project/contracts/ghke-mining-pool/GHKEMiningPool.sol",
  "buildInfoId": "solc-0_8_30-5239ca842f0266fb57e8443af2249fc2c07ad5dc"
}