{
  "_format": "hh3-artifact-1",
  "contractName": "GHKESwapPool",
  "sourceName": "contracts/ghke-buy/GHKESwapPool.sol",
  "abi": [
    {
      "inputs": [],
      "name": "InvalidInitialization",
      "type": "error"
    },
    {
      "inputs": [],
      "name": "NotInitializing",
      "type": "error"
    },
    {
      "inputs": [
        {
          "internalType": "address",
          "name": "owner",
          "type": "address"
        }
      ],
      "name": "OwnableInvalidOwner",
      "type": "error"
    },
    {
      "inputs": [
        {
          "internalType": "address",
          "name": "account",
          "type": "address"
        }
      ],
      "name": "OwnableUnauthorizedAccount",
      "type": "error"
    },
    {
      "inputs": [
        {
          "internalType": "address",
          "name": "token",
          "type": "address"
        }
      ],
      "name": "SafeERC20FailedOperation",
      "type": "error"
    },
    {
      "anonymous": false,
      "inputs": [
        {
          "indexed": true,
          "internalType": "address",
          "name": "account",
          "type": "address"
        }
      ],
      "name": "AddedToBlacklist",
      "type": "event"
    },
    {
      "anonymous": false,
      "inputs": [
        {
          "indexed": true,
          "internalType": "address",
          "name": "coin",
          "type": "address"
        },
        {
          "indexed": false,
          "internalType": "address",
          "name": "to",
          "type": "address"
        },
        {
          "indexed": false,
          "internalType": "uint256",
          "name": "amount",
          "type": "uint256"
        }
      ],
      "name": "EmergencyWithdraw",
      "type": "event"
    },
    {
      "anonymous": false,
      "inputs": [
        {
          "indexed": true,
          "internalType": "uint256",
          "name": "oldValue",
          "type": "uint256"
        },
        {
          "indexed": false,
          "internalType": "uint256",
          "name": "newValue",
          "type": "uint256"
        }
      ],
      "name": "GHKE_USDT_PriceUpdated",
      "type": "event"
    },
    {
      "anonymous": false,
      "inputs": [
        {
          "indexed": false,
          "internalType": "uint64",
          "name": "version",
          "type": "uint64"
        }
      ],
      "name": "Initialized",
      "type": "event"
    },
    {
      "anonymous": false,
      "inputs": [
        {
          "indexed": true,
          "internalType": "address",
          "name": "previousOwner",
          "type": "address"
        },
        {
          "indexed": true,
          "internalType": "address",
          "name": "newOwner",
          "type": "address"
        }
      ],
      "name": "OwnershipTransferred",
      "type": "event"
    },
    {
      "anonymous": false,
      "inputs": [
        {
          "indexed": true,
          "internalType": "address",
          "name": "account",
          "type": "address"
        }
      ],
      "name": "RemovedFromBlacklist",
      "type": "event"
    },
    {
      "anonymous": false,
      "inputs": [
        {
          "indexed": true,
          "internalType": "bool",
          "name": "stop",
          "type": "bool"
        }
      ],
      "name": "StopStatusChanged",
      "type": "event"
    },
    {
      "anonymous": false,
      "inputs": [
        {
          "indexed": true,
          "internalType": "address",
          "name": "user",
          "type": "address"
        },
        {
          "indexed": false,
          "internalType": "uint256",
          "name": "amount",
          "type": "uint256"
        },
        {
          "indexed": false,
          "internalType": "uint256",
          "name": "price",
          "type": "uint256"
        },
        {
          "indexed": false,
          "internalType": "uint256",
          "name": "usdtAmount",
          "type": "uint256"
        },
        {
          "indexed": false,
          "internalType": "uint256",
          "name": "feePercentage",
          "type": "uint256"
        },
        {
          "indexed": false,
          "internalType": "uint256",
          "name": "fee",
          "type": "uint256"
        }
      ],
      "name": "Swap",
      "type": "event"
    },
    {
      "anonymous": false,
      "inputs": [
        {
          "indexed": true,
          "internalType": "uint256",
          "name": "oldValue",
          "type": "uint256"
        },
        {
          "indexed": false,
          "internalType": "uint256",
          "name": "newValue",
          "type": "uint256"
        }
      ],
      "name": "SwapGHKEAmountMinUpdated",
      "type": "event"
    },
    {
      "anonymous": false,
      "inputs": [
        {
          "indexed": true,
          "internalType": "uint256",
          "name": "oldValue",
          "type": "uint256"
        },
        {
          "indexed": false,
          "internalType": "uint256",
          "name": "newValue",
          "type": "uint256"
        }
      ],
      "name": "SwapGHKFeePercentageUpdated",
      "type": "event"
    },
    {
      "anonymous": false,
      "inputs": [
        {
          "indexed": false,
          "internalType": "address",
          "name": "oldTo",
          "type": "address"
        },
        {
          "indexed": false,
          "internalType": "address",
          "name": "newTo",
          "type": "address"
        }
      ],
      "name": "USDToAddressUpdated",
      "type": "event"
    },
    {
      "inputs": [],
      "name": "GHKE",
      "outputs": [
        {
          "internalType": "contract IERC20",
          "name": "",
          "type": "address"
        }
      ],
      "stateMutability": "view",
      "type": "function"
    },
    {
      "inputs": [],
      "name": "GHKE_USDT_PRICE",
      "outputs": [
        {
          "internalType": "uint256",
          "name": "",
          "type": "uint256"
        }
      ],
      "stateMutability": "view",
      "type": "function"
    },
    {
      "inputs": [],
      "name": "GHK_BUY_POOL_ADDRESS",
      "outputs": [
        {
          "internalType": "address",
          "name": "",
          "type": "address"
        }
      ],
      "stateMutability": "view",
      "type": "function"
    },
    {
      "inputs": [],
      "name": "SWAP_GHKE_AMOUNT_MIN",
      "outputs": [
        {
          "internalType": "uint256",
          "name": "",
          "type": "uint256"
        }
      ],
      "stateMutability": "view",
      "type": "function"
    },
    {
      "inputs": [],
      "name": "SWAP_GHK_FEE_PERCENTAGE",
      "outputs": [
        {
          "internalType": "uint256",
          "name": "",
          "type": "uint256"
        }
      ],
      "stateMutability": "view",
      "type": "function"
    },
    {
      "inputs": [],
      "name": "USDT",
      "outputs": [
        {
          "internalType": "contract IERC20",
          "name": "",
          "type": "address"
        }
      ],
      "stateMutability": "view",
      "type": "function"
    },
    {
      "inputs": [],
      "name": "USD_TO_ADDRESS",
      "outputs": [
        {
          "internalType": "address",
          "name": "",
          "type": "address"
        }
      ],
      "stateMutability": "view",
      "type": "function"
    },
    {
      "inputs": [
        {
          "internalType": "address",
          "name": "account",
          "type": "address"
        }
      ],
      "name": "addToBlacklist",
      "outputs": [],
      "stateMutability": "nonpayable",
      "type": "function"
    },
    {
      "inputs": [
        {
          "internalType": "address",
          "name": "coin",
          "type": "address"
        },
        {
          "internalType": "address",
          "name": "to",
          "type": "address"
        },
        {
          "internalType": "uint256",
          "name": "amount",
          "type": "uint256"
        }
      ],
      "name": "emergencyWithdraw",
      "outputs": [],
      "stateMutability": "nonpayable",
      "type": "function"
    },
    {
      "inputs": [
        {
          "internalType": "uint256",
          "name": "amountIn",
          "type": "uint256"
        },
        {
          "internalType": "uint256",
          "name": "offchainXAUPrice",
          "type": "uint256"
        }
      ],
      "name": "getAmountOutAndFee",
      "outputs": [
        {
          "internalType": "uint256",
          "name": "ghkAmount",
          "type": "uint256"
        },
        {
          "internalType": "uint256",
          "name": "fee",
          "type": "uint256"
        }
      ],
      "stateMutability": "view",
      "type": "function"
    },
    {
      "inputs": [
        {
          "internalType": "uint256",
          "name": "offchainXAUPrice",
          "type": "uint256"
        }
      ],
      "name": "getPrice",
      "outputs": [
        {
          "internalType": "uint256",
          "name": "",
          "type": "uint256"
        }
      ],
      "stateMutability": "view",
      "type": "function"
    },
    {
      "inputs": [],
      "name": "getUsdtPrice",
      "outputs": [
        {
          "internalType": "uint256",
          "name": "",
          "type": "uint256"
        }
      ],
      "stateMutability": "view",
      "type": "function"
    },
    {
      "inputs": [
        {
          "internalType": "address",
          "name": "_usdToAddress",
          "type": "address"
        },
        {
          "internalType": "address",
          "name": "_GHKE",
          "type": "address"
        },
        {
          "internalType": "address",
          "name": "_USDT",
          "type": "address"
        },
        {
          "internalType": "address",
          "name": "_dataFeedUSDT",
          "type": "address"
        },
        {
          "internalType": "address",
          "name": "_GHK_BUY_POOL_ADDRESS",
          "type": "address"
        }
      ],
      "name": "initialize",
      "outputs": [],
      "stateMutability": "nonpayable",
      "type": "function"
    },
    {
      "inputs": [
        {
          "internalType": "address",
          "name": "account",
          "type": "address"
        }
      ],
      "name": "isBlacklisted",
      "outputs": [
        {
          "internalType": "bool",
          "name": "",
          "type": "bool"
        }
      ],
      "stateMutability": "view",
      "type": "function"
    },
    {
      "inputs": [],
      "name": "owner",
      "outputs": [
        {
          "internalType": "address",
          "name": "",
          "type": "address"
        }
      ],
      "stateMutability": "view",
      "type": "function"
    },
    {
      "inputs": [
        {
          "internalType": "address",
          "name": "account",
          "type": "address"
        }
      ],
      "name": "removeFromBlacklist",
      "outputs": [],
      "stateMutability": "nonpayable",
      "type": "function"
    },
    {
      "inputs": [],
      "name": "renounceOwnership",
      "outputs": [],
      "stateMutability": "nonpayable",
      "type": "function"
    },
    {
      "inputs": [
        {
          "internalType": "address",
          "name": "_dataFeedUSDT",
          "type": "address"
        }
      ],
      "name": "setDataFeedUSDT",
      "outputs": [],
      "stateMutability": "nonpayable",
      "type": "function"
    },
    {
      "inputs": [
        {
          "internalType": "uint256",
          "name": "newPrice",
          "type": "uint256"
        }
      ],
      "name": "setGHKE_USDT_Price",
      "outputs": [],
      "stateMutability": "nonpayable",
      "type": "function"
    },
    {
      "inputs": [
        {
          "internalType": "bool",
          "name": "isStop",
          "type": "bool"
        }
      ],
      "name": "setStop",
      "outputs": [],
      "stateMutability": "nonpayable",
      "type": "function"
    },
    {
      "inputs": [
        {
          "internalType": "uint256",
          "name": "_newMin",
          "type": "uint256"
        }
      ],
      "name": "setSwapGHKEAmountMin",
      "outputs": [],
      "stateMutability": "nonpayable",
      "type": "function"
    },
    {
      "inputs": [
        {
          "internalType": "uint256",
          "name": "_newFeePercentage",
          "type": "uint256"
        }
      ],
      "name": "setSwapGHKFeePercentage",
      "outputs": [],
      "stateMutability": "nonpayable",
      "type": "function"
    },
    {
      "inputs": [
        {
          "internalType": "address",
          "name": "_usdToAddress",
          "type": "address"
        }
      ],
      "name": "setUsdToAddress",
      "outputs": [],
      "stateMutability": "nonpayable",
      "type": "function"
    },
    {
      "inputs": [],
      "name": "stop",
      "outputs": [
        {
          "internalType": "bool",
          "name": "",
          "type": "bool"
        }
      ],
      "stateMutability": "view",
      "type": "function"
    },
    {
      "inputs": [
        {
          "internalType": "uint256",
          "name": "amount",
          "type": "uint256"
        },
        {
          "internalType": "uint256",
          "name": "offchainXAUPrice",
          "type": "uint256"
        },
        {
          "internalType": "uint256",
          "name": "deadline",
          "type": "uint256"
        },
        {
          "internalType": "bytes",
          "name": "sig",
          "type": "bytes"
        }
      ],
      "name": "swap",
      "outputs": [],
      "stateMutability": "nonpayable",
      "type": "function"
    },
    {
      "inputs": [
        {
          "internalType": "address",
          "name": "newOwner",
          "type": "address"
        }
      ],
      "name": "transferOwnership",
      "outputs": [],
      "stateMutability": "nonpayable",
      "type": "function"
    }
  ],
  "bytecode": "0x608080604052346015576116b9908161001a8239f35b5f80fdfe6080806040526004361015610012575f80fd5b5f3560e01c908163026feb9e1461127a5750806307da68f5146112555780630b8c875f146112385780631459457a14610fa457806328f32d1a14610f8757806336aa2dc714610f615780633ae0340314610f3b57806344337ea114610e4b578063537df3b614610d835780635c4c791514610cda578063641657cb14610c3f5780636ae6a1be146107cf578063715018a614610738578063717c0638146107125780637889507a1461067857806381be4cf11461063b5780638da5cb5b146105f6578063961bdfbf146105dc5780639e2af34a14610519578063b140a14114610459578063c54e44eb14610433578063e63ea4081461028e578063e757223014610268578063f04da742146101a6578063f2fde38b1461017b5763fe575a871461013a575f80fd5b34610177576020366003190112610177576001600160a01b0361015b611294565b165f526009602052602060ff60405f2054166040519015158152f35b5f80fd5b34610177576020366003190112610177576101a4610197611294565b61019f611560565b6114a5565b005b34610177576020366003190112610177576001600160a01b036101c7611294565b6101cf611560565b1680156102245760407f624ff6db49070a5fbc16b55ef6c8227f8f377a7b9eff06a948cd8d167b6648829160085490806001600160a01b03198316176008556001600160a01b038351921682526020820152a1005b606460405162461bcd60e51b815260206004820152600f60248201527f496e76616c6964206164647265737300000000000000000000000000000000006044820152fd5b34610177576020366003190112610177576020610286600435611442565b604051908152f35b34610177576060366003190112610177576102a7611294565b6102af6112aa565b6001600160a01b03604435926102c3611560565b16916040517f70a08231000000000000000000000000000000000000000000000000000000008152306004820152602081602481875afa80156104285782915f916103f3575b50106103af576040517fa9059cbb0000000000000000000000000000000000000000000000000000000060208201526001600160a01b0383166024820152604481018290527ff24ef89f38eadc1bde50701ad6e4d6d11a2dc24f7cf834a486991f388332850492906103929061038c81606481015b03601f19810183528261133c565b85611616565b604080516001600160a01b039290921682526020820192909252a2005b606460405162461bcd60e51b815260206004820152600c60248201527f616d6f756e74206572726f7200000000000000000000000000000000000000006044820152fd5b9150506020813d602011610420575b8161040f6020938361133c565b810103126101775781905185610309565b3d9150610402565b6040513d5f823e3d90fd5b34610177575f3660031901126101775760206001600160a01b0360035416604051908152f35b3461017757602036600319011261017757600435610475611560565b80156104af577f65431d46de2e6801eef897180da1a59c39042ca34836a63f377caf6b4f6c8fa560206001549280600155604051908152a2005b608460405162461bcd60e51b815260206004820152602960248201527f4d696e696d756d2062757920616d6f756e74206d75737420626520677265617460448201527f6572207468616e203000000000000000000000000000000000000000000000006064820152fd5b3461017757602036600319011261017757600435610535611560565b6127108111610572577fee3ffb254625bb57bdb224d5cb9d923e5fe13611b88f50dceb1e580ddb8c56bb60206007549280600755604051908152a2005b608460405162461bcd60e51b815260206004820152602160248201527f4665652070657263656e746167652063616e6e6f74206578636565642031303060448201527f25000000000000000000000000000000000000000000000000000000000000006064820152fd5b34610177575f36600319011261017757602061028661138d565b34610177575f3660031901126101775760206001600160a01b037f9016d09d72d40fdae2fd8ceac6b6234c7706214fd39c1cd1e609a0528c1993005416604051908152f35b34610177576020366003190112610177576001600160a01b0361065c611294565b610664611560565b166001600160a01b03195f5416175f555f80f35b3461017757602036600319011261017757600435610694611560565b80156106ce577ffbf1c61f941bd26587ffaaf15669d2ef6feacd7412fe4bff20a7295bceebe82060206006549280600655604051908152a2005b606460405162461bcd60e51b815260206004820152601c60248201527f5072696365206d7573742062652067726561746572207468616e2030000000006044820152fd5b34610177575f3660031901126101775760206001600160a01b0360025416604051908152f35b34610177575f36600319011261017757610750611560565b5f6001600160a01b037f9016d09d72d40fdae2fd8ceac6b6234c7706214fd39c1cd1e609a0528c199300546001600160a01b031981167f9016d09d72d40fdae2fd8ceac6b6234c7706214fd39c1cd1e609a0528c19930055167f8be0079c531659141344cd1fd0a4f28419497f9722a3daafe3b4186f6b6457e08280a3005b346101775760803660031901126101775760043560643567ffffffffffffffff8111610177573660238201121561017757806004013567ffffffffffffffff81116101775736602482840101116101775760ff60085460a01c16610bfb57335f52600960205260ff60405f205416610bb7576001548310610b7357670de0b6b3a764000061085f6006548561130b565b04906127106108706007548461130b565b04925f806001600160a01b03600254166040518260208201917f79cc67900000000000000000000000000000000000000000000000000000000083526108d48161037e8d3360248401602090939291936001600160a01b0360408201951681520152565b51925af13d15610b6e573d67ffffffffffffffff8111610b5a5760405190610906601f8201601f19166020018361133c565b81525f60203d92013e5b15610b16576003546005546040517f095ea7b30000000000000000000000000000000000000000000000000000000081526001600160a01b039182166004820152602481018690529291602091849160449183915f91165af190811561042857602092602492610afb575b506001600160a01b0360055416905f60e46001600160a01b036003541687604051988997889687947fff68c98a000000000000000000000000000000000000000000000000000000008652336004870152828601528c604486015281356064860152604435608486015260c060a48601528260c486015201848401378181018301849052601f01601f191681010301925af1801561042857610ace575b50610a846001600160a01b03600354166001600160a01b036008541690604051917f23b872dd000000000000000000000000000000000000000000000000000000006020840152336024840152604483015284606483015260648252610a7f60848361133c565b611616565b600654906007549160405194855260208501526040840152606083015260808201527f6d2535bccee43630e01014525de773080b47e1a82c56ef6a30802933a48c9e3460a03392a2005b610aef9060203d602011610af4575b610ae7818361133c565b81019061135e565b610a18565b503d610add565b610b1190843d8611610af457610ae7818361133c565b61097b565b606460405162461bcd60e51b815260206004820152600b60248201527f4275726e206661696c65640000000000000000000000000000000000000000006044820152fd5b634e487b7160e01b5f52604160045260245ffd5b610910565b606460405162461bcd60e51b815260206004820152601460248201527f616d6f756e74206c657373207468616e206d696e0000000000000000000000006044820152fd5b606460405162461bcd60e51b815260206004820152601e60248201527f426c61636b6c6973743a207573657220697320626c61636b6c697374656400006044820152fd5b606460405162461bcd60e51b815260206004820152600760248201527f73746f70706564000000000000000000000000000000000000000000000000006044820152fd5b34610177576020366003190112610177576004358015158091036101775760ff90610c68611560565b7fffffffffffffffffffffff00ffffffffffffffffffffffffffffffffffffffff74ff00000000000000000000000000000000000000006008549260a01b169116178060085560a01c1615157f76f505c1fd073fad1cb2a7c8c7520aefc63d16d8d25b14a916a8ee558aacb2985f80a2005b3461017757604036600319011261017757670de0b6b3a7640000610d0260065460043561130b565b04670de0b6b3a7640000610d1d610d1761138d565b8361130b565b0490610d2a602435611442565b916402540be4008102908082046402540be4001490151715610d6f57610d62610d586040946127109361131e565b926007549061130b565b0482519182526020820152f35b634e487b7160e01b5f52601160045260245ffd5b34610177576020366003190112610177576001600160a01b03610da4611294565b610dac611560565b16610db88115156112c0565b805f52600960205260ff60405f20541615610e0757805f52600960205260405f2060ff1981541690557f2b6bf71b58b3583add364b3d9060ebf8019650f65f5be35f5464b9cb3e4ba2d45f80a2005b606460405162461bcd60e51b815260206004820152601f60248201527f426c61636b6c697374546f6b656e3a204e6f7420626c61636b6c6973746564006044820152fd5b34610177576020366003190112610177576001600160a01b03610e6c611294565b610e74611560565b16610e808115156112c0565b805f52600960205260ff60405f205416610ed157805f52600960205260405f20600160ff198254161790557ff9b68063b051b82957fa193585681240904fed808db8b30fc5a2d2202c6ed6275f80a2005b608460405162461bcd60e51b815260206004820152602360248201527f426c61636b6c697374546f6b656e3a20416c726561647920626c61636b6c697360448201527f74656400000000000000000000000000000000000000000000000000000000006064820152fd5b34610177575f3660031901126101775760206001600160a01b0360085416604051908152f35b34610177575f3660031901126101775760206001600160a01b0360055416604051908152f35b34610177575f366003190112610177576020600654604051908152f35b346101775760a036600319011261017757610fbd611294565b610fc56112aa565b906044356001600160a01b03811680910361017757606435906001600160a01b03821680920361017757608435926001600160a01b038416809403610177577ff0c57e16840df040f15088dc2f81fe391c3923bec73e23a9662efc9c229c6a00549460ff8660401c16159567ffffffffffffffff811680159081611230575b6001149081611226575b15908161121d575b506111f55767ffffffffffffffff1981166001177ff0c57e16840df040f15088dc2f81fe391c3923bec73e23a9662efc9c229c6a00556001600160a01b03928391886111b6575b506110a66115bf565b6110ae6115bf565b6110b7336114a5565b166001600160a01b03196008541617600855166001600160a01b031960025416176002556001600160a01b031960035416176003556001600160a01b03195f5416175f556001600160a01b0319600554161760055568056bc75e2d6310000060015567016345785d8a0000600655601960075564486b1dea8060045561113957005b68ff0000000000000000197ff0c57e16840df040f15088dc2f81fe391c3923bec73e23a9662efc9c229c6a0054167ff0c57e16840df040f15088dc2f81fe391c3923bec73e23a9662efc9c229c6a00557fc7f505b2f371ae2175ee4913f4499e1f2633a7b5936321eed1cdaeb6115181d2602060405160018152a1005b68ffffffffffffffffff191668010000000000000001177ff0c57e16840df040f15088dc2f81fe391c3923bec73e23a9662efc9c229c6a00558861109d565b7ff92ee8a9000000000000000000000000000000000000000000000000000000005f5260045ffd5b90501588611056565b303b15915061104e565b889150611044565b34610177575f366003190112610177576020600154604051908152f35b34610177575f36600319011261017757602060ff60085460a01c166040519015158152f35b34610177575f366003190112610177576020906007548152f35b600435906001600160a01b038216820361017757565b602435906001600160a01b038216820361017757565b156112c757565b606460405162461bcd60e51b815260206004820152601c60248201527f426c61636b6c697374546f6b656e3a205a65726f2061646472657373000000006044820152fd5b81810292918115918404141715610d6f57565b8115611328570490565b634e487b7160e01b5f52601260045260245ffd5b90601f8019910116810190811067ffffffffffffffff821117610b5a57604052565b90816020910312610177575180151581036101775790565b519069ffffffffffffffffffff8216820361017757565b600460a06001600160a01b035f5416604051928380927ffeaf968c0000000000000000000000000000000000000000000000000000000082525afa908115610428575f916113f5575b506402540be4008102908082046402540be4001490151715610d6f5790565b905060a0813d60a01161143a575b8161141060a0938361133c565b810103126101775761142181611376565b50611433608060208301519201611376565b505f6113d6565b3d9150611403565b6402540be4008102908082046402540be4001490151715610d6f5761146f6305f5e100916004549061131e565b0461147861138d565b670de0b6b3a7640000820291808304670de0b6b3a76400001490151715610d6f576114a29161131e565b90565b6001600160a01b03168015611534576001600160a01b037f9016d09d72d40fdae2fd8ceac6b6234c7706214fd39c1cd1e609a0528c19930054826001600160a01b03198216177f9016d09d72d40fdae2fd8ceac6b6234c7706214fd39c1cd1e609a0528c19930055167f8be0079c531659141344cd1fd0a4f28419497f9722a3daafe3b4186f6b6457e05f80a3565b7f1e4fbdf7000000000000000000000000000000000000000000000000000000005f525f60045260245ffd5b6001600160a01b037f9016d09d72d40fdae2fd8ceac6b6234c7706214fd39c1cd1e609a0528c1993005416330361159357565b7f118cdaa7000000000000000000000000000000000000000000000000000000005f523360045260245ffd5b60ff7ff0c57e16840df040f15088dc2f81fe391c3923bec73e23a9662efc9c229c6a005460401c16156115ee57565b7fd7e6bcf8000000000000000000000000000000000000000000000000000000005f5260045ffd5b905f602091828151910182855af115610428575f513d61167a57506001600160a01b0381163b155b6116455750565b6001600160a01b03907f5274afe7000000000000000000000000000000000000000000000000000000005f521660045260245ffd5b6001141561163e56fea264697066735822122099bda1331a21dfc77993eec7414c77f1a1821bd1857336efac492e992c77449e64736f6c634300081e0033",
  "linkReferences": {},
  "deployedLinkReferences": {},
  "immutableReferences": {},
  "inputSourceName": "project/contracts/ghke-buy/GHKESwapPool.sol",
  "buildInfoId": "solc-0_8_30-5239ca842f0266fb57e8443af2249fc2c07ad5dc"
}