{
  "_format": "hh3-artifact-1",
  "contractName": "GHKEToken",
  "sourceName": "contracts/ghke/GHKEToken.sol",
  "abi": [
    {
      "inputs": [],
      "name": "ECDSAInvalidSignature",
      "type": "error"
    },
    {
      "inputs": [
        {
          "internalType": "uint256",
          "name": "length",
          "type": "uint256"
        }
      ],
      "name": "ECDSAInvalidSignatureLength",
      "type": "error"
    },
    {
      "inputs": [
        {
          "internalType": "bytes32",
          "name": "s",
          "type": "bytes32"
        }
      ],
      "name": "ECDSAInvalidSignatureS",
      "type": "error"
    },
    {
      "inputs": [
        {
          "internalType": "address",
          "name": "spender",
          "type": "address"
        },
        {
          "internalType": "uint256",
          "name": "allowance",
          "type": "uint256"
        },
        {
          "internalType": "uint256",
          "name": "needed",
          "type": "uint256"
        }
      ],
      "name": "ERC20InsufficientAllowance",
      "type": "error"
    },
    {
      "inputs": [
        {
          "internalType": "address",
          "name": "sender",
          "type": "address"
        },
        {
          "internalType": "uint256",
          "name": "balance",
          "type": "uint256"
        },
        {
          "internalType": "uint256",
          "name": "needed",
          "type": "uint256"
        }
      ],
      "name": "ERC20InsufficientBalance",
      "type": "error"
    },
    {
      "inputs": [
        {
          "internalType": "address",
          "name": "approver",
          "type": "address"
        }
      ],
      "name": "ERC20InvalidApprover",
      "type": "error"
    },
    {
      "inputs": [
        {
          "internalType": "address",
          "name": "receiver",
          "type": "address"
        }
      ],
      "name": "ERC20InvalidReceiver",
      "type": "error"
    },
    {
      "inputs": [
        {
          "internalType": "address",
          "name": "sender",
          "type": "address"
        }
      ],
      "name": "ERC20InvalidSender",
      "type": "error"
    },
    {
      "inputs": [
        {
          "internalType": "address",
          "name": "spender",
          "type": "address"
        }
      ],
      "name": "ERC20InvalidSpender",
      "type": "error"
    },
    {
      "inputs": [
        {
          "internalType": "uint256",
          "name": "deadline",
          "type": "uint256"
        }
      ],
      "name": "ERC2612ExpiredSignature",
      "type": "error"
    },
    {
      "inputs": [
        {
          "internalType": "address",
          "name": "signer",
          "type": "address"
        },
        {
          "internalType": "address",
          "name": "owner",
          "type": "address"
        }
      ],
      "name": "ERC2612InvalidSigner",
      "type": "error"
    },
    {
      "inputs": [],
      "name": "EnforcedPause",
      "type": "error"
    },
    {
      "inputs": [],
      "name": "ExpectedPause",
      "type": "error"
    },
    {
      "inputs": [
        {
          "internalType": "address",
          "name": "account",
          "type": "address"
        },
        {
          "internalType": "uint256",
          "name": "currentNonce",
          "type": "uint256"
        }
      ],
      "name": "InvalidAccountNonce",
      "type": "error"
    },
    {
      "inputs": [],
      "name": "InvalidInitialization",
      "type": "error"
    },
    {
      "inputs": [],
      "name": "NotInitializing",
      "type": "error"
    },
    {
      "inputs": [
        {
          "internalType": "address",
          "name": "owner",
          "type": "address"
        }
      ],
      "name": "OwnableInvalidOwner",
      "type": "error"
    },
    {
      "inputs": [
        {
          "internalType": "address",
          "name": "account",
          "type": "address"
        }
      ],
      "name": "OwnableUnauthorizedAccount",
      "type": "error"
    },
    {
      "anonymous": false,
      "inputs": [
        {
          "indexed": true,
          "internalType": "address",
          "name": "account",
          "type": "address"
        }
      ],
      "name": "AddedToBlacklist",
      "type": "event"
    },
    {
      "anonymous": false,
      "inputs": [
        {
          "indexed": true,
          "internalType": "address",
          "name": "owner",
          "type": "address"
        },
        {
          "indexed": true,
          "internalType": "address",
          "name": "spender",
          "type": "address"
        },
        {
          "indexed": false,
          "internalType": "uint256",
          "name": "value",
          "type": "uint256"
        }
      ],
      "name": "Approval",
      "type": "event"
    },
    {
      "anonymous": false,
      "inputs": [],
      "name": "EIP712DomainChanged",
      "type": "event"
    },
    {
      "anonymous": false,
      "inputs": [
        {
          "indexed": false,
          "internalType": "uint64",
          "name": "version",
          "type": "uint64"
        }
      ],
      "name": "Initialized",
      "type": "event"
    },
    {
      "anonymous": false,
      "inputs": [
        {
          "indexed": true,
          "internalType": "address",
          "name": "previousOwner",
          "type": "address"
        },
        {
          "indexed": true,
          "internalType": "address",
          "name": "newOwner",
          "type": "address"
        }
      ],
      "name": "OwnershipTransferred",
      "type": "event"
    },
    {
      "anonymous": false,
      "inputs": [
        {
          "indexed": false,
          "internalType": "address",
          "name": "account",
          "type": "address"
        }
      ],
      "name": "Paused",
      "type": "event"
    },
    {
      "anonymous": false,
      "inputs": [
        {
          "indexed": true,
          "internalType": "address",
          "name": "account",
          "type": "address"
        }
      ],
      "name": "RemovedFromBlacklist",
      "type": "event"
    },
    {
      "anonymous": false,
      "inputs": [
        {
          "indexed": true,
          "internalType": "address",
          "name": "from",
          "type": "address"
        },
        {
          "indexed": true,
          "internalType": "address",
          "name": "to",
          "type": "address"
        },
        {
          "indexed": false,
          "internalType": "uint256",
          "name": "value",
          "type": "uint256"
        }
      ],
      "name": "Transfer",
      "type": "event"
    },
    {
      "anonymous": false,
      "inputs": [
        {
          "indexed": false,
          "internalType": "address",
          "name": "account",
          "type": "address"
        }
      ],
      "name": "Unpaused",
      "type": "event"
    },
    {
      "inputs": [],
      "name": "DOMAIN_SEPARATOR",
      "outputs": [
        {
          "internalType": "bytes32",
          "name": "",
          "type": "bytes32"
        }
      ],
      "stateMutability": "view",
      "type": "function"
    },
    {
      "inputs": [
        {
          "internalType": "address",
          "name": "account",
          "type": "address"
        }
      ],
      "name": "addToBlacklist",
      "outputs": [],
      "stateMutability": "nonpayable",
      "type": "function"
    },
    {
      "inputs": [
        {
          "internalType": "address",
          "name": "owner",
          "type": "address"
        },
        {
          "internalType": "address",
          "name": "spender",
          "type": "address"
        }
      ],
      "name": "allowance",
      "outputs": [
        {
          "internalType": "uint256",
          "name": "",
          "type": "uint256"
        }
      ],
      "stateMutability": "view",
      "type": "function"
    },
    {
      "inputs": [
        {
          "internalType": "address",
          "name": "spender",
          "type": "address"
        },
        {
          "internalType": "uint256",
          "name": "value",
          "type": "uint256"
        }
      ],
      "name": "approve",
      "outputs": [
        {
          "internalType": "bool",
          "name": "",
          "type": "bool"
        }
      ],
      "stateMutability": "nonpayable",
      "type": "function"
    },
    {
      "inputs": [
        {
          "internalType": "address",
          "name": "account",
          "type": "address"
        }
      ],
      "name": "balanceOf",
      "outputs": [
        {
          "internalType": "uint256",
          "name": "",
          "type": "uint256"
        }
      ],
      "stateMutability": "view",
      "type": "function"
    },
    {
      "inputs": [
        {
          "internalType": "uint256",
          "name": "value",
          "type": "uint256"
        }
      ],
      "name": "burn",
      "outputs": [],
      "stateMutability": "nonpayable",
      "type": "function"
    },
    {
      "inputs": [
        {
          "internalType": "address",
          "name": "account",
          "type": "address"
        },
        {
          "internalType": "uint256",
          "name": "value",
          "type": "uint256"
        }
      ],
      "name": "burnFrom",
      "outputs": [],
      "stateMutability": "nonpayable",
      "type": "function"
    },
    {
      "inputs": [],
      "name": "decimals",
      "outputs": [
        {
          "internalType": "uint8",
          "name": "",
          "type": "uint8"
        }
      ],
      "stateMutability": "view",
      "type": "function"
    },
    {
      "inputs": [],
      "name": "eip712Domain",
      "outputs": [
        {
          "internalType": "bytes1",
          "name": "fields",
          "type": "bytes1"
        },
        {
          "internalType": "string",
          "name": "name",
          "type": "string"
        },
        {
          "internalType": "string",
          "name": "version",
          "type": "string"
        },
        {
          "internalType": "uint256",
          "name": "chainId",
          "type": "uint256"
        },
        {
          "internalType": "address",
          "name": "verifyingContract",
          "type": "address"
        },
        {
          "internalType": "bytes32",
          "name": "salt",
          "type": "bytes32"
        },
        {
          "internalType": "uint256[]",
          "name": "extensions",
          "type": "uint256[]"
        }
      ],
      "stateMutability": "view",
      "type": "function"
    },
    {
      "inputs": [],
      "name": "initialize",
      "outputs": [],
      "stateMutability": "nonpayable",
      "type": "function"
    },
    {
      "inputs": [
        {
          "internalType": "address",
          "name": "account",
          "type": "address"
        }
      ],
      "name": "isBlacklisted",
      "outputs": [
        {
          "internalType": "bool",
          "name": "",
          "type": "bool"
        }
      ],
      "stateMutability": "view",
      "type": "function"
    },
    {
      "inputs": [],
      "name": "name",
      "outputs": [
        {
          "internalType": "string",
          "name": "",
          "type": "string"
        }
      ],
      "stateMutability": "view",
      "type": "function"
    },
    {
      "inputs": [
        {
          "internalType": "address",
          "name": "owner",
          "type": "address"
        }
      ],
      "name": "nonces",
      "outputs": [
        {
          "internalType": "uint256",
          "name": "",
          "type": "uint256"
        }
      ],
      "stateMutability": "view",
      "type": "function"
    },
    {
      "inputs": [],
      "name": "owner",
      "outputs": [
        {
          "internalType": "address",
          "name": "",
          "type": "address"
        }
      ],
      "stateMutability": "view",
      "type": "function"
    },
    {
      "inputs": [],
      "name": "pause",
      "outputs": [],
      "stateMutability": "nonpayable",
      "type": "function"
    },
    {
      "inputs": [],
      "name": "paused",
      "outputs": [
        {
          "internalType": "bool",
          "name": "",
          "type": "bool"
        }
      ],
      "stateMutability": "view",
      "type": "function"
    },
    {
      "inputs": [
        {
          "internalType": "address",
          "name": "owner",
          "type": "address"
        },
        {
          "internalType": "address",
          "name": "spender",
          "type": "address"
        },
        {
          "internalType": "uint256",
          "name": "value",
          "type": "uint256"
        },
        {
          "internalType": "uint256",
          "name": "deadline",
          "type": "uint256"
        },
        {
          "internalType": "uint8",
          "name": "v",
          "type": "uint8"
        },
        {
          "internalType": "bytes32",
          "name": "r",
          "type": "bytes32"
        },
        {
          "internalType": "bytes32",
          "name": "s",
          "type": "bytes32"
        }
      ],
      "name": "permit",
      "outputs": [],
      "stateMutability": "nonpayable",
      "type": "function"
    },
    {
      "inputs": [
        {
          "internalType": "address",
          "name": "account",
          "type": "address"
        }
      ],
      "name": "removeFromBlacklist",
      "outputs": [],
      "stateMutability": "nonpayable",
      "type": "function"
    },
    {
      "inputs": [],
      "name": "renounceOwnership",
      "outputs": [],
      "stateMutability": "nonpayable",
      "type": "function"
    },
    {
      "inputs": [],
      "name": "symbol",
      "outputs": [
        {
          "internalType": "string",
          "name": "",
          "type": "string"
        }
      ],
      "stateMutability": "view",
      "type": "function"
    },
    {
      "inputs": [],
      "name": "totalSupply",
      "outputs": [
        {
          "internalType": "uint256",
          "name": "",
          "type": "uint256"
        }
      ],
      "stateMutability": "view",
      "type": "function"
    },
    {
      "inputs": [
        {
          "internalType": "address",
          "name": "to",
          "type": "address"
        },
        {
          "internalType": "uint256",
          "name": "value",
          "type": "uint256"
        }
      ],
      "name": "transfer",
      "outputs": [
        {
          "internalType": "bool",
          "name": "",
          "type": "bool"
        }
      ],
      "stateMutability": "nonpayable",
      "type": "function"
    },
    {
      "inputs": [
        {
          "internalType": "address",
          "name": "from",
          "type": "address"
        },
        {
          "internalType": "address",
          "name": "to",
          "type": "address"
        },
        {
          "internalType": "uint256",
          "name": "value",
          "type": "uint256"
        }
      ],
      "name": "transferFrom",
      "outputs": [
        {
          "internalType": "bool",
          "name": "",
          "type": "bool"
        }
      ],
      "stateMutability": "nonpayable",
      "type": "function"
    },
    {
      "inputs": [
        {
          "internalType": "address",
          "name": "newOwner",
          "type": "address"
        }
      ],
      "name": "transferOwnership",
      "outputs": [],
      "stateMutability": "nonpayable",
      "type": "function"
    },
    {
      "inputs": [],
      "name": "unpause",
      "outputs": [],
      "stateMutability": "nonpayable",
      "type": "function"
    }
  ],
  "bytecode": "0x60808060405234601557612551908161001a8239f35b5f80fdfe60806040526004361015610011575f80fd5b5f3560e01c806306fdde03146118a2578063095ea7b31461187c57806318160ddd1461184057806323b872dd14611808578063313ce567146117ed5780633644e515146117cb5780633f4ba83a1461170e57806342966c68146116f157806344337ea114611603578063537df3b61461153d5780635c975abb146114fc57806370a08231146114a5578063715018a61461140157806379cc6790146113d15780637ecebe001461137a5780638129fc1c1461074d5780638456cb59146106b657806384b0196e146105495780638da5cb5b1461050457806395d89b41146103e4578063a9059cbb146103b3578063d505accf14610210578063dd62ed3e14610197578063f2fde38b1461016c5763fe575a871461012c575f80fd5b34610168576020366003190112610168576001600160a01b0361014d6119a9565b165f525f602052602060ff60405f2054166040519015158152f35b5f80fd5b34610168576020366003190112610168576101956101886119a9565b610190611fcf565b611c42565b005b34610168576040366003190112610168576101b06119a9565b6001600160a01b036101fa6101c36119bf565b926001600160a01b03165f527f52c63247e1f47db19d5ce0460030c497f067ca4cebf71ba98eeadabe20bace0160205260405f2090565b91165f52602052602060405f2054604051908152f35b346101685760e0366003190112610168576102296119a9565b6102316119bf565b604435906064359260843560ff81168103610168578442116103875761034461033b6001600160a01b039283851697885f527f5ab42ced628888259c08ac98db1eb0cf702fc1501344311d8b100cd1bfe4bb0060205260405f20908154916001830190556040519060208201927f6e71edae12b1b97f4d1f60370fef10105fa2faae0126114a169c64845d6126c984528b6040840152878a1660608401528a608084015260a083015260c082015260c081526102ee60e082611a0d565b5190206102f961220f565b90604051917f190100000000000000000000000000000000000000000000000000000000000083526002830152602282015260c43591604260a4359220612320565b909291926123ad565b168481036103575750610195935061217b565b84907f4b800e46000000000000000000000000000000000000000000000000000000005f5260045260245260445ffd5b847f62791302000000000000000000000000000000000000000000000000000000005f5260045260245ffd5b34610168576040366003190112610168576103d96103cf6119a9565b6024359033611e7e565b602060405160018152f35b34610168575f366003190112610168576040515f7f52c63247e1f47db19d5ce0460030c497f067ca4cebf71ba98eeadabe20bace0454610423816119d5565b80845290600181169081156104e05750600114610463575b61045f8361044b81850382611a0d565b604051918291602083526020830190611985565b0390f35b7f52c63247e1f47db19d5ce0460030c497f067ca4cebf71ba98eeadabe20bace045f9081527f46a2803e59a4de4e7a4c574b1243f25977ac4c77d5a1a4a609b5394cebb4a2aa939250905b8082106104c65750909150810160200161044b61043b565b9192600181602092548385880101520191019092916104ae565b60ff191660208086019190915291151560051b8401909101915061044b905061043b565b34610168575f3660031901126101685760206001600160a01b037f9016d09d72d40fdae2fd8ceac6b6234c7706214fd39c1cd1e609a0528c1993005416604051908152f35b34610168575f366003190112610168577fa16a46d94261c7517cc8ff89f61c0ce93598e3c849801011dee649a6a557d10054158061068d575b15610649576105ed610592611a2f565b61059a611b24565b60206105fb604051926105ad8385611a0d565b5f84525f3681376040519586957f0f00000000000000000000000000000000000000000000000000000000000000875260e08588015260e0870190611985565b908582036040870152611985565b4660608501523060808501525f60a085015283810360c08501528180845192838152019301915f5b82811061063257505050500390f35b835185528695509381019392810192600101610623565b606460405162461bcd60e51b815260206004820152601560248201527f4549503731323a20556e696e697469616c697a656400000000000000000000006044820152fd5b507fa16a46d94261c7517cc8ff89f61c0ce93598e3c849801011dee649a6a557d1015415610582565b34610168575f366003190112610168576106ce611fcf565b6106d66122cd565b600160ff197fcd5ed15c6e187e77e9aee88184c21f4f2182ab5827cb3b7e07fbedcd63f033005416177fcd5ed15c6e187e77e9aee88184c21f4f2182ab5827cb3b7e07fbedcd63f03300557f62e78cea01bee320cd4e420270b5ea74000d11b0c9f74754ebdbfc544b05a2586020604051338152a1005b34610168575f366003190112610168577ff0c57e16840df040f15088dc2f81fe391c3923bec73e23a9662efc9c229c6a005460ff8160401c16159067ffffffffffffffff811680159081611372575b6001149081611368575b15908161135f575b506113375767ffffffffffffffff1981166001177ff0c57e16840df040f15088dc2f81fe391c3923bec73e23a9662efc9c229c6a0055816112f8575b50604051906107fa604083611a0d565b6007825266476f6c64484b4560c81b60208301526040519061081d604083611a0d565b600482527f47484b4500000000000000000000000000000000000000000000000000000000602083015261084f612276565b610857612276565b825167ffffffffffffffff8111610f5c576108927f52c63247e1f47db19d5ce0460030c497f067ca4cebf71ba98eeadabe20bace03546119d5565b601f8111611276575b506020601f82116001146111d557819293945f926111ca575b50508160011b915f199060031b1c1916177f52c63247e1f47db19d5ce0460030c497f067ca4cebf71ba98eeadabe20bace03555b815167ffffffffffffffff8111610f5c576109237f52c63247e1f47db19d5ce0460030c497f067ca4cebf71ba98eeadabe20bace04546119d5565b601f8111611148575b50602092601f82116001146110a957928192935f9261109e575b50508160011b915f199060031b1c1916177f52c63247e1f47db19d5ce0460030c497f067ca4cebf71ba98eeadabe20bace04555b610982612276565b61098a612276565b610992612276565b61099a612276565b6109a333611c42565b604051906109b2604083611a0d565b6007825266476f6c64484b4560c81b60208301526109ce612276565b604051906109dd604083611a0d565b600182527f31000000000000000000000000000000000000000000000000000000000000006020830152610a0f612276565b825167ffffffffffffffff8111610f5c57610a4a7fa16a46d94261c7517cc8ff89f61c0ce93598e3c849801011dee649a6a557d102546119d5565b601f811161101c575b506020601f8211600114610f7b57819293945f92610f70575b50508160011b915f199060031b1c1916177fa16a46d94261c7517cc8ff89f61c0ce93598e3c849801011dee649a6a557d102555b815167ffffffffffffffff8111610f5c57610adb7fa16a46d94261c7517cc8ff89f61c0ce93598e3c849801011dee649a6a557d103546119d5565b601f8111610eda575b50602092601f8211600114610e3b57928192935f92610e30575b50508160011b915f199060031b1c1916177fa16a46d94261c7517cc8ff89f61c0ce93598e3c849801011dee649a6a557d103555b5f7fa16a46d94261c7517cc8ff89f61c0ce93598e3c849801011dee649a6a557d100555f7fa16a46d94261c7517cc8ff89f61c0ce93598e3c849801011dee649a6a557d101553315610e04575f8080526020527fad3228b676f7d3cd4284a5443f17f1962b36e491b30a40b2405849e597ba5fb55460ff16610d9a57335f525f60205260ff60405f205416610d3057610bc96122cd565b7f52c63247e1f47db19d5ce0460030c497f067ca4cebf71ba98eeadabe20bace02546b033b2e3c9fd0803ce80000008101809111610d1c577f52c63247e1f47db19d5ce0460030c497f067ca4cebf71ba98eeadabe20bace0255335f527f52c63247e1f47db19d5ce0460030c497f067ca4cebf71ba98eeadabe20bace0060205260405f206b033b2e3c9fd0803ce800000081540190556040516b033b2e3c9fd0803ce800000081525f7fddf252ad1be2c89b69c2b068fc378daa952ba7f163c4a11628f55a4df523b3ef60203393a3610c9f57005b68ff0000000000000000197ff0c57e16840df040f15088dc2f81fe391c3923bec73e23a9662efc9c229c6a0054167ff0c57e16840df040f15088dc2f81fe391c3923bec73e23a9662efc9c229c6a00557fc7f505b2f371ae2175ee4913f4499e1f2633a7b5936321eed1cdaeb6115181d2602060405160018152a1005b634e487b7160e01b5f52601160045260245ffd5b608460405162461bcd60e51b815260206004820152602860248201527f426c61636b6c697374546f6b656e3a20526563697069656e7420697320626c6160448201527f636b6c69737465640000000000000000000000000000000000000000000000006064820152fd5b608460405162461bcd60e51b815260206004820152602560248201527f426c61636b6c697374546f6b656e3a2053656e64657220697320626c61636b6c60448201527f69737465640000000000000000000000000000000000000000000000000000006064820152fd5b7fec442f05000000000000000000000000000000000000000000000000000000005f525f60045260245ffd5b015190508380610afe565b601f198216937fa16a46d94261c7517cc8ff89f61c0ce93598e3c849801011dee649a6a557d1035f52805f20915f5b868110610ec25750836001959610610eaa575b505050811b017fa16a46d94261c7517cc8ff89f61c0ce93598e3c849801011dee649a6a557d10355610b32565b01515f1960f88460031b161c19169055838080610e7d565b91926020600181928685015181550194019201610e6a565b7fa16a46d94261c7517cc8ff89f61c0ce93598e3c849801011dee649a6a557d1035f527f5f9ce34815f8e11431c7bb75a8e6886a91478f7ffc1dbb0a98dc240fddd76b75601f830160051c81019160208410610f52575b601f0160051c01905b818110610f475750610ae4565b5f8155600101610f3a565b9091508190610f31565b634e487b7160e01b5f52604160045260245ffd5b015190508480610a6c565b601f198216907fa16a46d94261c7517cc8ff89f61c0ce93598e3c849801011dee649a6a557d1025f52805f20915f5b81811061100457509583600195969710610fec575b505050811b017fa16a46d94261c7517cc8ff89f61c0ce93598e3c849801011dee649a6a557d10255610aa0565b01515f1960f88460031b161c19169055848080610fbf565b9192602060018192868b015181550194019201610faa565b7fa16a46d94261c7517cc8ff89f61c0ce93598e3c849801011dee649a6a557d1025f527f42ad5d3e1f2e6e70edcf6d991b8a3023d3fca8047a131592f9edb9fd9b89d57d601f830160051c81019160208410611094575b601f0160051c01905b8181106110895750610a53565b5f815560010161107c565b9091508190611073565b015190508380610946565b601f198216937f52c63247e1f47db19d5ce0460030c497f067ca4cebf71ba98eeadabe20bace045f52805f20915f5b8681106111305750836001959610611118575b505050811b017f52c63247e1f47db19d5ce0460030c497f067ca4cebf71ba98eeadabe20bace045561097a565b01515f1960f88460031b161c191690558380806110eb565b919260206001819286850151815501940192016110d8565b7f52c63247e1f47db19d5ce0460030c497f067ca4cebf71ba98eeadabe20bace045f527f46a2803e59a4de4e7a4c574b1243f25977ac4c77d5a1a4a609b5394cebb4a2aa601f830160051c810191602084106111c0575b601f0160051c01905b8181106111b5575061092c565b5f81556001016111a8565b909150819061119f565b0151905084806108b4565b601f198216907f52c63247e1f47db19d5ce0460030c497f067ca4cebf71ba98eeadabe20bace035f52805f20915f5b81811061125e57509583600195969710611246575b505050811b017f52c63247e1f47db19d5ce0460030c497f067ca4cebf71ba98eeadabe20bace03556108e8565b01515f1960f88460031b161c19169055848080611219565b9192602060018192868b015181550194019201611204565b7f52c63247e1f47db19d5ce0460030c497f067ca4cebf71ba98eeadabe20bace035f527f2ae08a8e29253f69ac5d979a101956ab8f8d9d7ded63fa7a83b16fc47648eab0601f830160051c810191602084106112ee575b601f0160051c01905b8181106112e3575061089b565b5f81556001016112d6565b90915081906112cd565b68ffffffffffffffffff191668010000000000000001177ff0c57e16840df040f15088dc2f81fe391c3923bec73e23a9662efc9c229c6a0055816107ea565b7ff92ee8a9000000000000000000000000000000000000000000000000000000005f5260045ffd5b905015836107ae565b303b1591506107a6565b83915061079c565b34610168576020366003190112610168576001600160a01b0361139b6119a9565b165f527f5ab42ced628888259c08ac98db1eb0cf702fc1501344311d8b100cd1bfe4bb00602052602060405f2054604051908152f35b34610168576040366003190112610168576101956113ed6119a9565b602435906113fc823383611d0a565b61202e565b34610168575f36600319011261016857611419611fcf565b5f6001600160a01b037f9016d09d72d40fdae2fd8ceac6b6234c7706214fd39c1cd1e609a0528c1993005473ffffffffffffffffffffffffffffffffffffffff1981167f9016d09d72d40fdae2fd8ceac6b6234c7706214fd39c1cd1e609a0528c19930055167f8be0079c531659141344cd1fd0a4f28419497f9722a3daafe3b4186f6b6457e08280a3005b34610168576020366003190112610168576001600160a01b036114c66119a9565b165f527f52c63247e1f47db19d5ce0460030c497f067ca4cebf71ba98eeadabe20bace00602052602060405f2054604051908152f35b34610168575f36600319011261016857602060ff7fcd5ed15c6e187e77e9aee88184c21f4f2182ab5827cb3b7e07fbedcd63f0330054166040519015158152f35b34610168576020366003190112610168576001600160a01b0361155e6119a9565b611566611fcf565b16611572811515611bf7565b805f525f60205260ff60405f205416156115bf57805f525f60205260405f2060ff1981541690557f2b6bf71b58b3583add364b3d9060ebf8019650f65f5be35f5464b9cb3e4ba2d45f80a2005b606460405162461bcd60e51b815260206004820152601f60248201527f426c61636b6c697374546f6b656e3a204e6f7420626c61636b6c6973746564006044820152fd5b34610168576020366003190112610168576001600160a01b036116246119a9565b61162c611fcf565b16611638811515611bf7565b805f525f60205260ff60405f20541661168757805f525f60205260405f20600160ff198254161790557ff9b68063b051b82957fa193585681240904fed808db8b30fc5a2d2202c6ed6275f80a2005b608460405162461bcd60e51b815260206004820152602360248201527f426c61636b6c697374546f6b656e3a20416c726561647920626c61636b6c697360448201527f74656400000000000000000000000000000000000000000000000000000000006064820152fd5b34610168576020366003190112610168576101956004353361202e565b34610168575f36600319011261016857611726611fcf565b7fcd5ed15c6e187e77e9aee88184c21f4f2182ab5827cb3b7e07fbedcd63f033005460ff8116156117a35760ff19167fcd5ed15c6e187e77e9aee88184c21f4f2182ab5827cb3b7e07fbedcd63f03300557f5db9ee0a495bf2e6ff9c91a7834c1ba4fdd244a5e8aa4e537bd38aeae4b073aa6020604051338152a1005b7f8dfc202b000000000000000000000000000000000000000000000000000000005f5260045ffd5b34610168575f3660031901126101685760206117e561220f565b604051908152f35b34610168575f36600319011261016857602060405160128152f35b34610168576060366003190112610168576103d96118246119a9565b61182c6119bf565b6044359161183b833383611d0a565b611e7e565b34610168575f3660031901126101685760207f52c63247e1f47db19d5ce0460030c497f067ca4cebf71ba98eeadabe20bace0254604051908152f35b34610168576040366003190112610168576103d96118986119a9565b602435903361217b565b34610168575f366003190112610168576040515f7f52c63247e1f47db19d5ce0460030c497f067ca4cebf71ba98eeadabe20bace03546118e1816119d5565b80845290600181169081156104e057506001146119085761045f8361044b81850382611a0d565b7f52c63247e1f47db19d5ce0460030c497f067ca4cebf71ba98eeadabe20bace035f9081527f2ae08a8e29253f69ac5d979a101956ab8f8d9d7ded63fa7a83b16fc47648eab0939250905b80821061196b5750909150810160200161044b61043b565b919260018160209254838588010152019101909291611953565b805180835260209291819084018484015e5f828201840152601f01601f1916010190565b600435906001600160a01b038216820361016857565b602435906001600160a01b038216820361016857565b90600182811c92168015611a03575b60208310146119ef57565b634e487b7160e01b5f52602260045260245ffd5b91607f16916119e4565b90601f8019910116810190811067ffffffffffffffff821117610f5c57604052565b604051905f827fa16a46d94261c7517cc8ff89f61c0ce93598e3c849801011dee649a6a557d1025491611a61836119d5565b8083529260018116908115611b055750600114611a87575b611a8592500383611a0d565b565b507fa16a46d94261c7517cc8ff89f61c0ce93598e3c849801011dee649a6a557d1025f90815290917f42ad5d3e1f2e6e70edcf6d991b8a3023d3fca8047a131592f9edb9fd9b89d57d5b818310611ae9575050906020611a8592820101611a79565b6020919350806001915483858901015201910190918492611ad1565b60209250611a8594915060ff191682840152151560051b820101611a79565b604051905f827fa16a46d94261c7517cc8ff89f61c0ce93598e3c849801011dee649a6a557d1035491611b56836119d5565b8083529260018116908115611b055750600114611b7957611a8592500383611a0d565b507fa16a46d94261c7517cc8ff89f61c0ce93598e3c849801011dee649a6a557d1035f90815290917f5f9ce34815f8e11431c7bb75a8e6886a91478f7ffc1dbb0a98dc240fddd76b755b818310611bdb575050906020611a8592820101611a79565b6020919350806001915483858901015201910190918492611bc3565b15611bfe57565b606460405162461bcd60e51b815260206004820152601c60248201527f426c61636b6c697374546f6b656e3a205a65726f2061646472657373000000006044820152fd5b6001600160a01b03168015611cde576001600160a01b037f9016d09d72d40fdae2fd8ceac6b6234c7706214fd39c1cd1e609a0528c199300548273ffffffffffffffffffffffffffffffffffffffff198216177f9016d09d72d40fdae2fd8ceac6b6234c7706214fd39c1cd1e609a0528c19930055167f8be0079c531659141344cd1fd0a4f28419497f9722a3daafe3b4186f6b6457e05f80a3565b7f1e4fbdf7000000000000000000000000000000000000000000000000000000005f525f60045260245ffd5b9190611d46836001600160a01b03165f527f52c63247e1f47db19d5ce0460030c497f067ca4cebf71ba98eeadabe20bace0160205260405f2090565b6001600160a01b0382165f5260205260405f2054925f198410611d6a575b50505050565b828410611e41576001600160a01b03811615611e15576001600160a01b03821615611de957611dd16001600160a01b03916001600160a01b03165f527f52c63247e1f47db19d5ce0460030c497f067ca4cebf71ba98eeadabe20bace0160205260405f2090565b91165f5260205260405f20910390555f808080611d64565b7f94280d62000000000000000000000000000000000000000000000000000000005f525f60045260245ffd5b7fe602df05000000000000000000000000000000000000000000000000000000005f525f60045260245ffd5b506001600160a01b0383917ffb8f41b2000000000000000000000000000000000000000000000000000000005f521660045260245260445260645ffd5b6001600160a01b0316908115611fa3576001600160a01b0316918215610e0457815f525f60205260ff60405f205416610d9a57825f525f60205260ff60405f205416610d3057611ecc6122cd565b815f527f52c63247e1f47db19d5ce0460030c497f067ca4cebf71ba98eeadabe20bace0060205260405f2054818110611f8a57817fddf252ad1be2c89b69c2b068fc378daa952ba7f163c4a11628f55a4df523b3ef92602092855f527f52c63247e1f47db19d5ce0460030c497f067ca4cebf71ba98eeadabe20bace0084520360405f2055845f527f52c63247e1f47db19d5ce0460030c497f067ca4cebf71ba98eeadabe20bace00825260405f20818154019055604051908152a3565b8263391434e360e21b5f5260045260245260445260645ffd5b7f96c6fd1e000000000000000000000000000000000000000000000000000000005f525f60045260245ffd5b6001600160a01b037f9016d09d72d40fdae2fd8ceac6b6234c7706214fd39c1cd1e609a0528c1993005416330361200257565b7f118cdaa7000000000000000000000000000000000000000000000000000000005f523360045260245ffd5b9091906001600160a01b03168015611fa357805f525f60205260ff60405f205416610d9a575f8080526020527fad3228b676f7d3cd4284a5443f17f1962b36e491b30a40b2405849e597ba5fb55460ff16610d305761208b6122cd565b805f527f52c63247e1f47db19d5ce0460030c497f067ca4cebf71ba98eeadabe20bace0060205260405f2054838110612161576020845f94957fddf252ad1be2c89b69c2b068fc378daa952ba7f163c4a11628f55a4df523b3ef938587527f52c63247e1f47db19d5ce0460030c497f067ca4cebf71ba98eeadabe20bace008452036040862055807f52c63247e1f47db19d5ce0460030c497f067ca4cebf71ba98eeadabe20bace0254037f52c63247e1f47db19d5ce0460030c497f067ca4cebf71ba98eeadabe20bace0255604051908152a3565b915063391434e360e21b5f5260045260245260445260645ffd5b916001600160a01b038316918215611e15576001600160a01b0316928315611de9577f8c5be1e5ebec7d5bd14f71427d1e84f3dd0314c0f7b2291e5b200ac8c7c3b925916121fb6020926001600160a01b03165f527f52c63247e1f47db19d5ce0460030c497f067ca4cebf71ba98eeadabe20bace0160205260405f2090565b855f5282528060405f2055604051908152a3565b61221761246c565b61221f6124d6565b6040519060208201927f8b73c3c69bb8fe3d512ecc4cf759cc79239f7b179b0ffacaa9a75d522b39400f8452604083015260608201524660808201523060a082015260a0815261227060c082611a0d565b51902090565b60ff7ff0c57e16840df040f15088dc2f81fe391c3923bec73e23a9662efc9c229c6a005460401c16156122a557565b7fd7e6bcf8000000000000000000000000000000000000000000000000000000005f5260045ffd5b60ff7fcd5ed15c6e187e77e9aee88184c21f4f2182ab5827cb3b7e07fbedcd63f0330054166122f857565b7fd93c0665000000000000000000000000000000000000000000000000000000005f5260045ffd5b91907f7fffffffffffffffffffffffffffffff5d576e7357a4501ddfe92f46681b20a084116123a2579160209360809260ff5f9560405194855216868401526040830152606082015282805260015afa15612397575f516001600160a01b0381161561238d57905f905f90565b505f906001905f90565b6040513d5f823e3d90fd5b5050505f9160039190565b600481101561245857806123bf575050565b600181036123ef577ff645eedf000000000000000000000000000000000000000000000000000000005f5260045ffd5b6002810361242357507ffce698f7000000000000000000000000000000000000000000000000000000005f5260045260245ffd5b60031461242d5750565b7fd78bce0c000000000000000000000000000000000000000000000000000000005f5260045260245ffd5b634e487b7160e01b5f52602160045260245ffd5b612474611a2f565b8051908115612484576020012090565b50507fa16a46d94261c7517cc8ff89f61c0ce93598e3c849801011dee649a6a557d1005480156124b15790565b507fc5d2460186f7233c927e7db2dcc703c0e500b653ca82273b7bfad8045d85a47090565b6124de611b24565b80519081156124ee576020012090565b50507fa16a46d94261c7517cc8ff89f61c0ce93598e3c849801011dee649a6a557d1015480156124b1579056fea264697066735822122060a83f3347b36fca64cd6cbf7a9dac2732d592f5fb4d0f49f0e6318af0f5ac1d64736f6c634300081e0033",
  "linkReferences": {},
  "deployedLinkReferences": {},
  "immutableReferences": {},
  "inputSourceName": "project/contracts/ghke/GHKEToken.sol",
  "buildInfoId": "solc-0_8_30-5239ca842f0266fb57e8443af2249fc2c07ad5dc"
}