{
  "_format": "hh3-artifact-1",
  "contractName": "GHKMiningPool",
  "sourceName": "contracts/ghk-mining-pool/GHKMiningPool.sol",
  "abi": [
    {
      "inputs": [],
      "name": "InvalidInitialization",
      "type": "error"
    },
    {
      "inputs": [],
      "name": "NotInitializing",
      "type": "error"
    },
    {
      "inputs": [
        {
          "internalType": "address",
          "name": "owner",
          "type": "address"
        }
      ],
      "name": "OwnableInvalidOwner",
      "type": "error"
    },
    {
      "inputs": [
        {
          "internalType": "address",
          "name": "account",
          "type": "address"
        }
      ],
      "name": "OwnableUnauthorizedAccount",
      "type": "error"
    },
    {
      "inputs": [
        {
          "internalType": "address",
          "name": "token",
          "type": "address"
        }
      ],
      "name": "SafeERC20FailedOperation",
      "type": "error"
    },
    {
      "anonymous": false,
      "inputs": [
        {
          "indexed": true,
          "internalType": "address",
          "name": "coin",
          "type": "address"
        },
        {
          "indexed": false,
          "internalType": "address",
          "name": "to",
          "type": "address"
        },
        {
          "indexed": false,
          "internalType": "uint256",
          "name": "amount",
          "type": "uint256"
        }
      ],
      "name": "EmergencyWithdraw",
      "type": "event"
    },
    {
      "anonymous": false,
      "inputs": [
        {
          "indexed": false,
          "internalType": "uint64",
          "name": "version",
          "type": "uint64"
        }
      ],
      "name": "Initialized",
      "type": "event"
    },
    {
      "anonymous": false,
      "inputs": [
        {
          "indexed": true,
          "internalType": "uint256",
          "name": "oldVal",
          "type": "uint256"
        },
        {
          "indexed": false,
          "internalType": "uint256",
          "name": "newVal",
          "type": "uint256"
        }
      ],
      "name": "LockPeriodUpdated",
      "type": "event"
    },
    {
      "anonymous": false,
      "inputs": [
        {
          "indexed": true,
          "internalType": "uint256",
          "name": "oldVal",
          "type": "uint256"
        },
        {
          "indexed": false,
          "internalType": "uint256",
          "name": "newVal",
          "type": "uint256"
        }
      ],
      "name": "MinStakeGhkAmountUpdated",
      "type": "event"
    },
    {
      "anonymous": false,
      "inputs": [
        {
          "indexed": true,
          "internalType": "address",
          "name": "previousOwner",
          "type": "address"
        },
        {
          "indexed": true,
          "internalType": "address",
          "name": "newOwner",
          "type": "address"
        }
      ],
      "name": "OwnershipTransferred",
      "type": "event"
    },
    {
      "anonymous": false,
      "inputs": [
        {
          "indexed": true,
          "internalType": "address",
          "name": "user",
          "type": "address"
        },
        {
          "indexed": false,
          "internalType": "uint256",
          "name": "reward",
          "type": "uint256"
        },
        {
          "indexed": false,
          "internalType": "uint256",
          "name": "index",
          "type": "uint256"
        }
      ],
      "name": "RewardClaimed",
      "type": "event"
    },
    {
      "anonymous": false,
      "inputs": [
        {
          "indexed": false,
          "internalType": "uint256",
          "name": "newRate",
          "type": "uint256"
        }
      ],
      "name": "RewardRateUpdated",
      "type": "event"
    },
    {
      "anonymous": false,
      "inputs": [
        {
          "indexed": true,
          "internalType": "address",
          "name": "user",
          "type": "address"
        },
        {
          "indexed": false,
          "internalType": "uint256",
          "name": "amount",
          "type": "uint256"
        },
        {
          "indexed": false,
          "internalType": "uint256",
          "name": "index",
          "type": "uint256"
        }
      ],
      "name": "Staked",
      "type": "event"
    },
    {
      "anonymous": false,
      "inputs": [
        {
          "indexed": true,
          "internalType": "bool",
          "name": "stop",
          "type": "bool"
        }
      ],
      "name": "StopStatusChanged",
      "type": "event"
    },
    {
      "anonymous": false,
      "inputs": [
        {
          "indexed": true,
          "internalType": "address",
          "name": "user",
          "type": "address"
        },
        {
          "indexed": false,
          "internalType": "uint256",
          "name": "amount",
          "type": "uint256"
        },
        {
          "indexed": false,
          "internalType": "uint256",
          "name": "index",
          "type": "uint256"
        }
      ],
      "name": "Unstaked",
      "type": "event"
    },
    {
      "inputs": [],
      "name": "LOCK_PERIOD",
      "outputs": [
        {
          "internalType": "uint256",
          "name": "",
          "type": "uint256"
        }
      ],
      "stateMutability": "view",
      "type": "function"
    },
    {
      "inputs": [],
      "name": "MIN_STAKE_GHK_AMOUNT",
      "outputs": [
        {
          "internalType": "uint256",
          "name": "",
          "type": "uint256"
        }
      ],
      "stateMutability": "view",
      "type": "function"
    },
    {
      "inputs": [
        {
          "internalType": "address",
          "name": "user",
          "type": "address"
        },
        {
          "internalType": "uint256",
          "name": "index",
          "type": "uint256"
        }
      ],
      "name": "calculateReward",
      "outputs": [
        {
          "internalType": "uint256",
          "name": "",
          "type": "uint256"
        }
      ],
      "stateMutability": "view",
      "type": "function"
    },
    {
      "inputs": [
        {
          "internalType": "uint256",
          "name": "index",
          "type": "uint256"
        }
      ],
      "name": "claimReward",
      "outputs": [],
      "stateMutability": "nonpayable",
      "type": "function"
    },
    {
      "inputs": [],
      "name": "cumulativeRewardRate",
      "outputs": [
        {
          "internalType": "uint256",
          "name": "",
          "type": "uint256"
        }
      ],
      "stateMutability": "view",
      "type": "function"
    },
    {
      "inputs": [],
      "name": "currentRewardPerDay",
      "outputs": [
        {
          "internalType": "uint256",
          "name": "",
          "type": "uint256"
        }
      ],
      "stateMutability": "view",
      "type": "function"
    },
    {
      "inputs": [
        {
          "internalType": "uint256",
          "name": "amount",
          "type": "uint256"
        }
      ],
      "name": "deposit",
      "outputs": [],
      "stateMutability": "nonpayable",
      "type": "function"
    },
    {
      "inputs": [
        {
          "internalType": "uint256",
          "name": "index",
          "type": "uint256"
        }
      ],
      "name": "emergencyWithdraw",
      "outputs": [],
      "stateMutability": "nonpayable",
      "type": "function"
    },
    {
      "inputs": [
        {
          "internalType": "address",
          "name": "coin",
          "type": "address"
        },
        {
          "internalType": "address",
          "name": "to",
          "type": "address"
        },
        {
          "internalType": "uint256",
          "name": "amount",
          "type": "uint256"
        }
      ],
      "name": "emergencyWithdraw",
      "outputs": [],
      "stateMutability": "nonpayable",
      "type": "function"
    },
    {
      "inputs": [
        {
          "internalType": "address",
          "name": "user",
          "type": "address"
        }
      ],
      "name": "getStakeCount",
      "outputs": [
        {
          "internalType": "uint256",
          "name": "",
          "type": "uint256"
        }
      ],
      "stateMutability": "view",
      "type": "function"
    },
    {
      "inputs": [
        {
          "internalType": "address",
          "name": "user",
          "type": "address"
        },
        {
          "internalType": "uint256",
          "name": "startIndex",
          "type": "uint256"
        }
      ],
      "name": "getStakesPage",
      "outputs": [
        {
          "internalType": "uint256[]",
          "name": "ids",
          "type": "uint256[]"
        },
        {
          "internalType": "uint256[]",
          "name": "amounts",
          "type": "uint256[]"
        },
        {
          "internalType": "uint256[]",
          "name": "startTimes",
          "type": "uint256[]"
        },
        {
          "internalType": "uint256[]",
          "name": "unlockTimes",
          "type": "uint256[]"
        },
        {
          "internalType": "uint256[]",
          "name": "rewards",
          "type": "uint256[]"
        }
      ],
      "stateMutability": "view",
      "type": "function"
    },
    {
      "inputs": [],
      "name": "ghkToken",
      "outputs": [
        {
          "internalType": "contract IERC20",
          "name": "",
          "type": "address"
        }
      ],
      "stateMutability": "view",
      "type": "function"
    },
    {
      "inputs": [],
      "name": "ghkeToken",
      "outputs": [
        {
          "internalType": "contract IERC20",
          "name": "",
          "type": "address"
        }
      ],
      "stateMutability": "view",
      "type": "function"
    },
    {
      "inputs": [
        {
          "internalType": "address",
          "name": "_ghkToken",
          "type": "address"
        },
        {
          "internalType": "address",
          "name": "_ghkeToken",
          "type": "address"
        }
      ],
      "name": "initialize",
      "outputs": [],
      "stateMutability": "nonpayable",
      "type": "function"
    },
    {
      "inputs": [],
      "name": "lastUpdateTime",
      "outputs": [
        {
          "internalType": "uint256",
          "name": "",
          "type": "uint256"
        }
      ],
      "stateMutability": "view",
      "type": "function"
    },
    {
      "inputs": [],
      "name": "owner",
      "outputs": [
        {
          "internalType": "address",
          "name": "",
          "type": "address"
        }
      ],
      "stateMutability": "view",
      "type": "function"
    },
    {
      "inputs": [],
      "name": "renounceOwnership",
      "outputs": [],
      "stateMutability": "nonpayable",
      "type": "function"
    },
    {
      "inputs": [
        {
          "internalType": "uint256",
          "name": "_newVal",
          "type": "uint256"
        }
      ],
      "name": "setLockPeriod",
      "outputs": [],
      "stateMutability": "nonpayable",
      "type": "function"
    },
    {
      "inputs": [
        {
          "internalType": "uint256",
          "name": "_newVal",
          "type": "uint256"
        }
      ],
      "name": "setMinStakeGhkAmount",
      "outputs": [],
      "stateMutability": "nonpayable",
      "type": "function"
    },
    {
      "inputs": [
        {
          "internalType": "bool",
          "name": "isStop",
          "type": "bool"
        }
      ],
      "name": "setStop",
      "outputs": [],
      "stateMutability": "nonpayable",
      "type": "function"
    },
    {
      "inputs": [
        {
          "internalType": "address",
          "name": "",
          "type": "address"
        },
        {
          "internalType": "uint256",
          "name": "",
          "type": "uint256"
        }
      ],
      "name": "stakes",
      "outputs": [
        {
          "internalType": "uint256",
          "name": "amount",
          "type": "uint256"
        },
        {
          "internalType": "uint256",
          "name": "startTime",
          "type": "uint256"
        },
        {
          "internalType": "uint256",
          "name": "unlockTime",
          "type": "uint256"
        },
        {
          "internalType": "uint256",
          "name": "userRewardRate",
          "type": "uint256"
        }
      ],
      "stateMutability": "view",
      "type": "function"
    },
    {
      "inputs": [],
      "name": "stop",
      "outputs": [
        {
          "internalType": "bool",
          "name": "",
          "type": "bool"
        }
      ],
      "stateMutability": "view",
      "type": "function"
    },
    {
      "inputs": [
        {
          "internalType": "address",
          "name": "newOwner",
          "type": "address"
        }
      ],
      "name": "transferOwnership",
      "outputs": [],
      "stateMutability": "nonpayable",
      "type": "function"
    },
    {
      "inputs": [
        {
          "internalType": "uint256",
          "name": "newRate",
          "type": "uint256"
        }
      ],
      "name": "updateRewardRate",
      "outputs": [],
      "stateMutability": "nonpayable",
      "type": "function"
    },
    {
      "inputs": [
        {
          "internalType": "uint256",
          "name": "index",
          "type": "uint256"
        }
      ],
      "name": "withdraw",
      "outputs": [],
      "stateMutability": "nonpayable",
      "type": "function"
    }
  ],
  "bytecode": "0x6080806040523460155761176f908161001a8239f35b5f80fdfe6080806040526004361015610012575f80fd5b5f3560e01c90816307da68f5146111ff575080630dfa21d7146111d95780631820cabb146111bc5780631852e8d9146110af5780632e1a7d4d14610fbb578063485cc95514610d805780635312ea8e14610cd1578063584b62a114610c605780635be3511d14610c10578063641657cb14610b75578063715018a614610ad1578063779972da14610a815780638bf18b2e14610a645780638da5cb5b14610a1f5780639ef3a261146109cb578063ae169a501461084d578063af3a2e1114610827578063b6b55f25146105f8578063c8cb09341461033b578063c8f33c911461031e578063cf57ee69146102e7578063df631bd4146102ca578063e63ea4081461017b578063f2fde38b146101505763fb9936cb1461012f575f80fd5b3461014c575f36600319011261014c576020600354604051908152f35b5f80fd5b3461014c57602036600319011261014c5761017961016c611221565b610174611616565b611489565b005b3461014c57606036600319011261014c57610194611221565b61019c611237565b6001600160a01b03604435926101b0611616565b16916040517f70a08231000000000000000000000000000000000000000000000000000000008152306004820152602081602481875afa80156102bf5782915f9161028a575b50106102465781610229827ff24ef89f38eadc1bde50701ad6e4d6d11a2dc24f7cf834a486991f388332850494866115bf565b604080516001600160a01b039290921682526020820192909252a2005b606460405162461bcd60e51b815260206004820152600c60248201527f616d6f756e74206572726f7200000000000000000000000000000000000000006044820152fd5b9150506020813d6020116102b7575b816102a660209383611314565b8101031261014c57819051856101f6565b3d9150610299565b6040513d5f823e3d90fd5b3461014c575f36600319011261014c576020600154604051908152f35b3461014c57602036600319011261014c576001600160a01b03610308611221565b165f525f602052602060405f2054604051908152f35b3461014c575f36600319011261014c576020600254604051908152f35b3461014c57604036600319011261014c57610354611221565b6001600160a01b03602435911690815f525f60205260405f2054808210156105b457600a8201808311610546578110156105ac5761039282826113b3565b925b61039d84611443565b6103a685611443565b916103b086611443565b956103ba81611443565b946103c482611443565b96600154936103d5600254426113b3565b801515806105a1575b61055a575b505f1983019283115f5b858110610459575061041d8a6104558b6104478f6104398e61042b8f604051998a9960a08b5260a08b019061127a565b9089820360208b015261127a565b90878203604089015261127a565b90858203606087015261127a565b90838203608085015261127a565b0390f35b816105465780670de0b6b3a7640000806105338f948f958e8e60019861049561048d8f8f88610487916113d3565b906113b3565b958692611475565b528a5f525f6020526104b6886104ae8660405f2061124d565b505492611475565b52895f525f6020526104d987896104d08660405f2061124d565b50015492611475565b52885f525f6020526104f48660026104d08560405f2061124d565b52875f525f60205261052d60036105246105118460405f2061124d565b5054938b5f525f60205260405f2061124d565b5001548d6113b3565b906113c0565b040461053f828d611475565b52016103ed565b634e487b7160e01b5f52601160045260245ffd5b600354919591610569916113c0565b90670de0b6b3a7640000820291808304670de0b6b3a76400001490151715610546576201518061059a9204906113d3565b938a6103e3565b5060035415156103de565b600a92610394565b606460405162461bcd60e51b815260206004820152601360248201527f496e76616c696420737461727420696e646578000000000000000000000000006044820152fd5b3461014c57602036600319011261014c5760043560ff60075460a01c166107e35760045481106107795761062a611551565b6106896001600160a01b0360065416604051907f23b872dd00000000000000000000000000000000000000000000000000000000602083015233602483015230604483015283606483015260648252610684608483611314565b611675565b335f525f60205260405f206106a0600554426113d3565b600154604051916106b0836112f8565b84835260208301934285526040840191825260608401928352805468010000000000000000811015610765576106eb9160018201815561124d565b9490946107525760039351855551600185015551600284015551910155335f525f60205260405f20545f1981019081116105465760405191825260208201527f1449c6dd7851abc30abf37f57715f492010519147cc2652fbc38202c18a6ee9060403392a2005b634e487b7160e01b5f525f60045260245ffd5b634e487b7160e01b5f52604160045260245ffd5b608460405162461bcd60e51b815260206004820152602360248201527f5374616b6520616d6f756e74206d75737420626520677265617465722074686160448201527f6e203000000000000000000000000000000000000000000000000000000000006064820152fd5b606460405162461bcd60e51b815260206004820152600760248201527f73746f70706564000000000000000000000000000000000000000000000000006044820152fd5b3461014c575f36600319011261014c5760206001600160a01b0360065416604051908152f35b3461014c57602036600319011261014c57600435335f525f60205261087760405f205482106112ad565b335f525f60205261089461088e8260405f2061124d565b50611336565b6040810151421061098757670de0b6b3a76400006108d5826108b98394511515611368565b6108c1611551565b61052d8151916060600154910151906113b3565b0404908115610943576108f482336001600160a01b03600754166115bf565b600154335f525f602052600361090d8360405f2061124d565b50015560405191825260208201527ff01da32686223933d8a18a391060918c7f11a3648639edd87ae013e2e273174360403392a2005b606460405162461bcd60e51b815260206004820152601260248201527f4e6f2072657761726420746f20636c61696d00000000000000000000000000006044820152fd5b606460405162461bcd60e51b815260206004820152601560248201527f5374616b65206973207374696c6c206c6f636b656400000000000000000000006044820152fd5b3461014c57602036600319011261014c577f41d466ebd06fb97e7786086ac8b69b7eb7da798592036251291d34e9791cde016020600435610a0a611616565b610a12611551565b80600355604051908152a1005b3461014c575f36600319011261014c5760206001600160a01b037f9016d09d72d40fdae2fd8ceac6b6234c7706214fd39c1cd1e609a0528c1993005416604051908152f35b3461014c575f36600319011261014c576020600454604051908152f35b3461014c57602036600319011261014c57600435610a9d611616565b7f5dd7b309b7bc5010d9c96159ee535a428121d6803cb847792402fffccaf1569a60206005549280600555604051908152a2005b3461014c575f36600319011261014c57610ae9611616565b5f6001600160a01b037f9016d09d72d40fdae2fd8ceac6b6234c7706214fd39c1cd1e609a0528c1993005473ffffffffffffffffffffffffffffffffffffffff1981167f9016d09d72d40fdae2fd8ceac6b6234c7706214fd39c1cd1e609a0528c19930055167f8be0079c531659141344cd1fd0a4f28419497f9722a3daafe3b4186f6b6457e08280a3005b3461014c57602036600319011261014c5760043580151580910361014c5760ff90610b9e611616565b7fffffffffffffffffffffff00ffffffffffffffffffffffffffffffffffffffff74ff00000000000000000000000000000000000000006007549260a01b169116178060075560a01c1615157f76f505c1fd073fad1cb2a7c8c7520aefc63d16d8d25b14a916a8ee558aacb2985f80a2005b3461014c57602036600319011261014c57600435610c2c611616565b7fca3a537495e180ddcfcea635aa3e062f752fdd762ce1d30b451efd1c60a1c06160206004549280600455604051908152a2005b3461014c57604036600319011261014c57610c79611221565b6001600160a01b0360243591165f525f60205260405f20805482101561014c57608091610ca59161124d565b508054906001810154906003600282015491015491604051938452602084015260408301526060820152f35b3461014c57602036600319011261014c57600435335f525f602052610cfb60405f205482106112ad565b335f525f602052610d1261088e8260405f2061124d565b610d1e815115156113e0565b5190335f525f6020525f610d35826040832061124d565b5055610d4d82336001600160a01b03600654166115bf565b60405191825260208201527f7fc4727e062e336010f2c282598ef5f14facb3de68cf8195c2f23e1454b2b74e60403392a2005b3461014c57604036600319011261014c57610d99611221565b610da1611237565b907ff0c57e16840df040f15088dc2f81fe391c3923bec73e23a9662efc9c229c6a00549160ff8360401c16159267ffffffffffffffff811680159081610fb3575b6001149081610fa9575b159081610fa0575b50610f785767ffffffffffffffff1981166001177ff0c57e16840df040f15088dc2f81fe391c3923bec73e23a9662efc9c229c6a00556001600160a01b0392839185610f39575b50610e446116e2565b610e4c6116e2565b610e5533611489565b1673ffffffffffffffffffffffffffffffffffffffff1960065416176006551673ffffffffffffffffffffffffffffffffffffffff19600754161760075567016345785d8a0000600355426002556276a700600555670de0b6b3a7640000600455610ebc57005b68ff0000000000000000197ff0c57e16840df040f15088dc2f81fe391c3923bec73e23a9662efc9c229c6a0054167ff0c57e16840df040f15088dc2f81fe391c3923bec73e23a9662efc9c229c6a00557fc7f505b2f371ae2175ee4913f4499e1f2633a7b5936321eed1cdaeb6115181d2602060405160018152a1005b68ffffffffffffffffff191668010000000000000001177ff0c57e16840df040f15088dc2f81fe391c3923bec73e23a9662efc9c229c6a005585610e3b565b7ff92ee8a9000000000000000000000000000000000000000000000000000000005f5260045ffd5b90501585610df4565b303b159150610dec565b859150610de2565b3461014c57602036600319011261014c57600435335f525f602052610fe560405f205482106112ad565b335f525f602052610ffc61088e8260405f2061124d565b611008815115156113e0565b611010611551565b6040810151421015611033575190335f525f6020525f610d35826040832061124d565b670de0b6b3a764000080611053835161052d6001546060870151906113b3565b040480611061575b50610d1e565b61107781336001600160a01b03600754166115bf565b6040519081528260208201527ff01da32686223933d8a18a391060918c7f11a3648639edd87ae013e2e273174360403392a28261105b565b3461014c57604036600319011261014c5761110061088e6110ce611221565b6001600160a01b036024359116805f525f6020526110f160405f205483106112ad565b5f525f60205260405f2061124d565b61110c81511515611368565b6001549061111c600254426113b3565b801515806111b1575b611155575b6020670de0b6b3a76400008061114b8561052d8860608351930151906113b3565b0404604051908152f35b600354611161916113c0565b91670de0b6b3a7640000830292808404670de0b6b3a764000014901517156105465761114b670de0b6b3a76400009261052d6111a685946201518060209804906113d3565b95505092505061112a565b506003541515611125565b3461014c575f36600319011261014c576020600554604051908152f35b3461014c575f36600319011261014c5760206001600160a01b0360075416604051908152f35b3461014c575f36600319011261014c5760209060ff60075460a01c1615158152f35b600435906001600160a01b038216820361014c57565b602435906001600160a01b038216820361014c57565b8054821015611266575f5260205f209060021b01905f90565b634e487b7160e01b5f52603260045260245ffd5b90602080835192838152019201905f5b8181106112975750505090565b825184526020938401939092019160010161128a565b156112b457565b606460405162461bcd60e51b815260206004820152601360248201527f496e76616c6964207374616b6520696e646578000000000000000000000000006044820152fd5b6080810190811067ffffffffffffffff82111761076557604052565b90601f8019910116810190811067ffffffffffffffff82111761076557604052565b90604051611343816112f8565b6060600382948054845260018101546020850152600281015460408501520154910152565b1561136f57565b606460405162461bcd60e51b815260206004820152601d60248201527f4e6f20616374697665207374616b65206174207468697320696e6465780000006044820152fd5b9190820391821161054657565b8181029291811591840414171561054657565b9190820180921161054657565b156113e757565b606460405162461bcd60e51b815260206004820152601760248201527f5374616b6520616c72656164792077697468647261776e0000000000000000006044820152fd5b67ffffffffffffffff81116107655760051b60200190565b9061144d8261142b565b61145a6040519182611314565b828152809261146b601f199161142b565b0190602036910137565b80518210156112665760209160051b010190565b6001600160a01b03168015611525576001600160a01b037f9016d09d72d40fdae2fd8ceac6b6234c7706214fd39c1cd1e609a0528c199300548273ffffffffffffffffffffffffffffffffffffffff198216177f9016d09d72d40fdae2fd8ceac6b6234c7706214fd39c1cd1e609a0528c19930055167f8be0079c531659141344cd1fd0a4f28419497f9722a3daafe3b4186f6b6457e05f80a3565b7f1e4fbdf7000000000000000000000000000000000000000000000000000000005f525f60045260245ffd5b61155d600254426113b3565b801515806115b4575b61156d5750565b600354611579916113c0565b670de0b6b3a7640000810290808204670de0b6b3a7640000149015171561054657620151806115ab91046001546113d3565b60015542600255565b506003541515611566565b6040517fa9059cbb0000000000000000000000000000000000000000000000000000000060208201526001600160a01b0392909216602483015260448083019390935291815261161491610684606483611314565b565b6001600160a01b037f9016d09d72d40fdae2fd8ceac6b6234c7706214fd39c1cd1e609a0528c1993005416330361164957565b7f118cdaa7000000000000000000000000000000000000000000000000000000005f523360045260245ffd5b905f602091828151910182855af1156102bf575f513d6116d957506001600160a01b0381163b155b6116a45750565b6001600160a01b03907f5274afe7000000000000000000000000000000000000000000000000000000005f521660045260245ffd5b6001141561169d565b60ff7ff0c57e16840df040f15088dc2f81fe391c3923bec73e23a9662efc9c229c6a005460401c161561171157565b7fd7e6bcf8000000000000000000000000000000000000000000000000000000005f5260045ffdfea264697066735822122083d54451315612b688085a26e1a39cd797ed757c1b80f77f64763644c943dd9664736f6c634300081e0033",
  "linkReferences": {},
  "deployedLinkReferences": {},
  "immutableReferences": {},
  "inputSourceName": "project/contracts/ghk-mining-pool/GHKMiningPool.sol",
  "buildInfoId": "solc-0_8_30-5239ca842f0266fb57e8443af2249fc2c07ad5dc"
}