{
  "_format": "hh3-artifact-1",
  "contractName": "GHKSellPool",
  "sourceName": "contracts/ghk-sell/GHKSellPool.sol",
  "abi": [
    {
      "inputs": [],
      "name": "ECDSAInvalidSignature",
      "type": "error"
    },
    {
      "inputs": [
        {
          "internalType": "uint256",
          "name": "length",
          "type": "uint256"
        }
      ],
      "name": "ECDSAInvalidSignatureLength",
      "type": "error"
    },
    {
      "inputs": [
        {
          "internalType": "bytes32",
          "name": "s",
          "type": "bytes32"
        }
      ],
      "name": "ECDSAInvalidSignatureS",
      "type": "error"
    },
    {
      "inputs": [
        {
          "internalType": "address",
          "name": "account",
          "type": "address"
        },
        {
          "internalType": "uint256",
          "name": "currentNonce",
          "type": "uint256"
        }
      ],
      "name": "InvalidAccountNonce",
      "type": "error"
    },
    {
      "inputs": [],
      "name": "InvalidInitialization",
      "type": "error"
    },
    {
      "inputs": [],
      "name": "NotInitializing",
      "type": "error"
    },
    {
      "inputs": [
        {
          "internalType": "address",
          "name": "owner",
          "type": "address"
        }
      ],
      "name": "OwnableInvalidOwner",
      "type": "error"
    },
    {
      "inputs": [
        {
          "internalType": "address",
          "name": "account",
          "type": "address"
        }
      ],
      "name": "OwnableUnauthorizedAccount",
      "type": "error"
    },
    {
      "inputs": [
        {
          "internalType": "address",
          "name": "token",
          "type": "address"
        }
      ],
      "name": "SafeERC20FailedOperation",
      "type": "error"
    },
    {
      "anonymous": false,
      "inputs": [
        {
          "indexed": true,
          "internalType": "address",
          "name": "account",
          "type": "address"
        }
      ],
      "name": "AddedToBlacklist",
      "type": "event"
    },
    {
      "anonymous": false,
      "inputs": [
        {
          "indexed": true,
          "internalType": "address",
          "name": "coin",
          "type": "address"
        },
        {
          "indexed": false,
          "internalType": "address",
          "name": "to",
          "type": "address"
        },
        {
          "indexed": false,
          "internalType": "uint256",
          "name": "amount",
          "type": "uint256"
        }
      ],
      "name": "EmergencyWithdraw",
      "type": "event"
    },
    {
      "anonymous": false,
      "inputs": [
        {
          "indexed": false,
          "internalType": "uint64",
          "name": "version",
          "type": "uint64"
        }
      ],
      "name": "Initialized",
      "type": "event"
    },
    {
      "anonymous": false,
      "inputs": [
        {
          "indexed": false,
          "internalType": "uint256",
          "name": "newPrice",
          "type": "uint256"
        }
      ],
      "name": "LatestXAUPriceUpdated",
      "type": "event"
    },
    {
      "anonymous": false,
      "inputs": [
        {
          "indexed": false,
          "internalType": "uint256",
          "name": "oldVal",
          "type": "uint256"
        },
        {
          "indexed": false,
          "internalType": "uint256",
          "name": "newVal",
          "type": "uint256"
        }
      ],
      "name": "MaxLatestPriceDeviationUpdated",
      "type": "event"
    },
    {
      "anonymous": false,
      "inputs": [
        {
          "indexed": false,
          "internalType": "uint256",
          "name": "oldVal",
          "type": "uint256"
        },
        {
          "indexed": false,
          "internalType": "uint256",
          "name": "newVal",
          "type": "uint256"
        }
      ],
      "name": "MaxOraclePriceDeviationUpdated",
      "type": "event"
    },
    {
      "anonymous": false,
      "inputs": [
        {
          "indexed": true,
          "internalType": "address",
          "name": "previousOwner",
          "type": "address"
        },
        {
          "indexed": true,
          "internalType": "address",
          "name": "newOwner",
          "type": "address"
        }
      ],
      "name": "OwnershipTransferred",
      "type": "event"
    },
    {
      "anonymous": false,
      "inputs": [
        {
          "indexed": true,
          "internalType": "address",
          "name": "account",
          "type": "address"
        }
      ],
      "name": "RemovedFromBlacklist",
      "type": "event"
    },
    {
      "anonymous": false,
      "inputs": [
        {
          "indexed": true,
          "internalType": "address",
          "name": "from",
          "type": "address"
        },
        {
          "indexed": false,
          "internalType": "uint256",
          "name": "ghkValue",
          "type": "uint256"
        },
        {
          "indexed": false,
          "internalType": "address",
          "name": "tradeToken",
          "type": "address"
        },
        {
          "indexed": false,
          "internalType": "uint256",
          "name": "price",
          "type": "uint256"
        },
        {
          "indexed": false,
          "internalType": "uint256",
          "name": "usdValue",
          "type": "uint256"
        },
        {
          "indexed": false,
          "internalType": "uint256",
          "name": "feePercentage",
          "type": "uint256"
        }
      ],
      "name": "Sell",
      "type": "event"
    },
    {
      "anonymous": false,
      "inputs": [
        {
          "indexed": true,
          "internalType": "address",
          "name": "from",
          "type": "address"
        },
        {
          "indexed": false,
          "internalType": "uint256",
          "name": "ghkValue",
          "type": "uint256"
        },
        {
          "indexed": false,
          "internalType": "address",
          "name": "tradeToken",
          "type": "address"
        },
        {
          "indexed": false,
          "internalType": "uint256",
          "name": "price",
          "type": "uint256"
        },
        {
          "indexed": false,
          "internalType": "uint256",
          "name": "usdValue",
          "type": "uint256"
        },
        {
          "indexed": false,
          "internalType": "uint256",
          "name": "feePercentage",
          "type": "uint256"
        }
      ],
      "name": "SellByAdmin",
      "type": "event"
    },
    {
      "anonymous": false,
      "inputs": [
        {
          "indexed": true,
          "internalType": "uint256",
          "name": "oldVal",
          "type": "uint256"
        },
        {
          "indexed": false,
          "internalType": "uint256",
          "name": "newVal",
          "type": "uint256"
        }
      ],
      "name": "SellGHKAmountMaxUpdated",
      "type": "event"
    },
    {
      "anonymous": false,
      "inputs": [
        {
          "indexed": true,
          "internalType": "uint256",
          "name": "oldVal",
          "type": "uint256"
        },
        {
          "indexed": false,
          "internalType": "uint256",
          "name": "newVal",
          "type": "uint256"
        }
      ],
      "name": "SellGHKAmountMinUpdated",
      "type": "event"
    },
    {
      "anonymous": false,
      "inputs": [
        {
          "indexed": true,
          "internalType": "uint256",
          "name": "oldVal",
          "type": "uint256"
        },
        {
          "indexed": false,
          "internalType": "uint256",
          "name": "newVal",
          "type": "uint256"
        }
      ],
      "name": "SellGHKFeePercentageUpdated",
      "type": "event"
    },
    {
      "anonymous": false,
      "inputs": [
        {
          "indexed": true,
          "internalType": "address",
          "name": "from",
          "type": "address"
        },
        {
          "indexed": false,
          "internalType": "uint256",
          "name": "ghkValue",
          "type": "uint256"
        },
        {
          "indexed": false,
          "internalType": "uint256",
          "name": "feePercentage",
          "type": "uint256"
        }
      ],
      "name": "SellOffline",
      "type": "event"
    },
    {
      "anonymous": false,
      "inputs": [
        {
          "indexed": true,
          "internalType": "uint256",
          "name": "oldVal",
          "type": "uint256"
        },
        {
          "indexed": false,
          "internalType": "uint256",
          "name": "newVal",
          "type": "uint256"
        }
      ],
      "name": "SellOfflineGHKAmountMaxUpdated",
      "type": "event"
    },
    {
      "anonymous": false,
      "inputs": [
        {
          "indexed": true,
          "internalType": "uint256",
          "name": "oldVal",
          "type": "uint256"
        },
        {
          "indexed": false,
          "internalType": "uint256",
          "name": "newVal",
          "type": "uint256"
        }
      ],
      "name": "SellOfflineGHKAmountMinUpdated",
      "type": "event"
    },
    {
      "anonymous": false,
      "inputs": [
        {
          "indexed": true,
          "internalType": "uint256",
          "name": "oldVal",
          "type": "uint256"
        },
        {
          "indexed": false,
          "internalType": "uint256",
          "name": "newVal",
          "type": "uint256"
        }
      ],
      "name": "SellOfflineGHKFeePercentageUpdated",
      "type": "event"
    },
    {
      "anonymous": false,
      "inputs": [
        {
          "indexed": false,
          "internalType": "address",
          "name": "oldSigner",
          "type": "address"
        },
        {
          "indexed": false,
          "internalType": "address",
          "name": "newSigner",
          "type": "address"
        }
      ],
      "name": "SignerUpdated",
      "type": "event"
    },
    {
      "inputs": [],
      "name": "GHK",
      "outputs": [
        {
          "internalType": "contract IERC20",
          "name": "",
          "type": "address"
        }
      ],
      "stateMutability": "view",
      "type": "function"
    },
    {
      "inputs": [],
      "name": "SELL_GHK_AMOUNT_MAX",
      "outputs": [
        {
          "internalType": "uint256",
          "name": "",
          "type": "uint256"
        }
      ],
      "stateMutability": "view",
      "type": "function"
    },
    {
      "inputs": [],
      "name": "SELL_GHK_AMOUNT_MIN",
      "outputs": [
        {
          "internalType": "uint256",
          "name": "",
          "type": "uint256"
        }
      ],
      "stateMutability": "view",
      "type": "function"
    },
    {
      "inputs": [],
      "name": "SELL_GHK_FEE_PERCENTAGE",
      "outputs": [
        {
          "internalType": "uint256",
          "name": "",
          "type": "uint256"
        }
      ],
      "stateMutability": "view",
      "type": "function"
    },
    {
      "inputs": [],
      "name": "SELL_OFFLINE_GHK_AMOUNT_MAX",
      "outputs": [
        {
          "internalType": "uint256",
          "name": "",
          "type": "uint256"
        }
      ],
      "stateMutability": "view",
      "type": "function"
    },
    {
      "inputs": [],
      "name": "SELL_OFFLINE_GHK_AMOUNT_MIN",
      "outputs": [
        {
          "internalType": "uint256",
          "name": "",
          "type": "uint256"
        }
      ],
      "stateMutability": "view",
      "type": "function"
    },
    {
      "inputs": [],
      "name": "SELL_OFFLINE_GHK_FEE_PERCENTAGE",
      "outputs": [
        {
          "internalType": "uint256",
          "name": "",
          "type": "uint256"
        }
      ],
      "stateMutability": "view",
      "type": "function"
    },
    {
      "inputs": [
        {
          "internalType": "address",
          "name": "account",
          "type": "address"
        }
      ],
      "name": "addToBlacklist",
      "outputs": [],
      "stateMutability": "nonpayable",
      "type": "function"
    },
    {
      "inputs": [
        {
          "internalType": "address",
          "name": "coin",
          "type": "address"
        },
        {
          "internalType": "address",
          "name": "to",
          "type": "address"
        },
        {
          "internalType": "uint256",
          "name": "amount",
          "type": "uint256"
        }
      ],
      "name": "emergencyWithdraw",
      "outputs": [],
      "stateMutability": "nonpayable",
      "type": "function"
    },
    {
      "inputs": [
        {
          "internalType": "uint256",
          "name": "offchainXAUPrice",
          "type": "uint256"
        }
      ],
      "name": "getPrice",
      "outputs": [
        {
          "internalType": "uint256",
          "name": "",
          "type": "uint256"
        }
      ],
      "stateMutability": "view",
      "type": "function"
    },
    {
      "inputs": [],
      "name": "getUsdtPrice",
      "outputs": [
        {
          "internalType": "uint256",
          "name": "",
          "type": "uint256"
        }
      ],
      "stateMutability": "view",
      "type": "function"
    },
    {
      "inputs": [
        {
          "internalType": "address",
          "name": "_GHK",
          "type": "address"
        },
        {
          "internalType": "address",
          "name": "_USDT",
          "type": "address"
        },
        {
          "internalType": "address",
          "name": "_dataFeedXAU",
          "type": "address"
        },
        {
          "internalType": "address",
          "name": "_dataFeedUSDT",
          "type": "address"
        },
        {
          "internalType": "uint256",
          "name": "_initialXAUPrice",
          "type": "uint256"
        },
        {
          "internalType": "address",
          "name": "_signer",
          "type": "address"
        }
      ],
      "name": "initialize",
      "outputs": [],
      "stateMutability": "nonpayable",
      "type": "function"
    },
    {
      "inputs": [
        {
          "internalType": "address",
          "name": "account",
          "type": "address"
        }
      ],
      "name": "isBlacklisted",
      "outputs": [
        {
          "internalType": "bool",
          "name": "",
          "type": "bool"
        }
      ],
      "stateMutability": "view",
      "type": "function"
    },
    {
      "inputs": [],
      "name": "latestXAUPrice",
      "outputs": [
        {
          "internalType": "uint256",
          "name": "",
          "type": "uint256"
        }
      ],
      "stateMutability": "view",
      "type": "function"
    },
    {
      "inputs": [],
      "name": "maxLatestPriceDeviation",
      "outputs": [
        {
          "internalType": "uint256",
          "name": "",
          "type": "uint256"
        }
      ],
      "stateMutability": "view",
      "type": "function"
    },
    {
      "inputs": [],
      "name": "maxOraclePriceDeviation",
      "outputs": [
        {
          "internalType": "uint256",
          "name": "",
          "type": "uint256"
        }
      ],
      "stateMutability": "view",
      "type": "function"
    },
    {
      "inputs": [
        {
          "internalType": "address",
          "name": "owner",
          "type": "address"
        }
      ],
      "name": "nonces",
      "outputs": [
        {
          "internalType": "uint256",
          "name": "",
          "type": "uint256"
        }
      ],
      "stateMutability": "view",
      "type": "function"
    },
    {
      "inputs": [],
      "name": "owner",
      "outputs": [
        {
          "internalType": "address",
          "name": "",
          "type": "address"
        }
      ],
      "stateMutability": "view",
      "type": "function"
    },
    {
      "inputs": [
        {
          "internalType": "address",
          "name": "account",
          "type": "address"
        }
      ],
      "name": "removeFromBlacklist",
      "outputs": [],
      "stateMutability": "nonpayable",
      "type": "function"
    },
    {
      "inputs": [],
      "name": "renounceOwnership",
      "outputs": [],
      "stateMutability": "nonpayable",
      "type": "function"
    },
    {
      "inputs": [
        {
          "internalType": "uint256",
          "name": "amount",
          "type": "uint256"
        },
        {
          "internalType": "address",
          "name": "tradeToken",
          "type": "address"
        },
        {
          "internalType": "uint256",
          "name": "offchainXAUPrice",
          "type": "uint256"
        },
        {
          "internalType": "uint256",
          "name": "deadline",
          "type": "uint256"
        },
        {
          "internalType": "bytes",
          "name": "sig",
          "type": "bytes"
        }
      ],
      "name": "sell",
      "outputs": [],
      "stateMutability": "nonpayable",
      "type": "function"
    },
    {
      "inputs": [
        {
          "internalType": "uint256",
          "name": "amount",
          "type": "uint256"
        }
      ],
      "name": "sellOffline",
      "outputs": [],
      "stateMutability": "nonpayable",
      "type": "function"
    },
    {
      "inputs": [
        {
          "internalType": "address",
          "name": "_dataFeedUSDT",
          "type": "address"
        }
      ],
      "name": "setDataFeedUSDT",
      "outputs": [],
      "stateMutability": "nonpayable",
      "type": "function"
    },
    {
      "inputs": [
        {
          "internalType": "address",
          "name": "_dataFeedXAU",
          "type": "address"
        }
      ],
      "name": "setDataFeedXAU",
      "outputs": [],
      "stateMutability": "nonpayable",
      "type": "function"
    },
    {
      "inputs": [
        {
          "internalType": "uint256",
          "name": "price",
          "type": "uint256"
        }
      ],
      "name": "setLatestXAUPrice",
      "outputs": [],
      "stateMutability": "nonpayable",
      "type": "function"
    },
    {
      "inputs": [
        {
          "internalType": "uint256",
          "name": "deviation",
          "type": "uint256"
        }
      ],
      "name": "setMaxLatestPriceDeviation",
      "outputs": [],
      "stateMutability": "nonpayable",
      "type": "function"
    },
    {
      "inputs": [
        {
          "internalType": "uint256",
          "name": "deviation",
          "type": "uint256"
        }
      ],
      "name": "setMaxOraclePriceDeviation",
      "outputs": [],
      "stateMutability": "nonpayable",
      "type": "function"
    },
    {
      "inputs": [
        {
          "internalType": "uint256",
          "name": "_newMax",
          "type": "uint256"
        }
      ],
      "name": "setSellGHKAmountMax",
      "outputs": [],
      "stateMutability": "nonpayable",
      "type": "function"
    },
    {
      "inputs": [
        {
          "internalType": "uint256",
          "name": "_newMin",
          "type": "uint256"
        }
      ],
      "name": "setSellGHKAmountMin",
      "outputs": [],
      "stateMutability": "nonpayable",
      "type": "function"
    },
    {
      "inputs": [
        {
          "internalType": "uint256",
          "name": "_newFeePercentage",
          "type": "uint256"
        }
      ],
      "name": "setSellGHKFeePercentage",
      "outputs": [],
      "stateMutability": "nonpayable",
      "type": "function"
    },
    {
      "inputs": [
        {
          "internalType": "uint256",
          "name": "_newMax",
          "type": "uint256"
        }
      ],
      "name": "setSellOfflineGHKAmountMax",
      "outputs": [],
      "stateMutability": "nonpayable",
      "type": "function"
    },
    {
      "inputs": [
        {
          "internalType": "uint256",
          "name": "_newMin",
          "type": "uint256"
        }
      ],
      "name": "setSellOfflineGHKAmountMin",
      "outputs": [],
      "stateMutability": "nonpayable",
      "type": "function"
    },
    {
      "inputs": [
        {
          "internalType": "uint256",
          "name": "_newFeePercentage",
          "type": "uint256"
        }
      ],
      "name": "setSellOfflineGHKFeePercentage",
      "outputs": [],
      "stateMutability": "nonpayable",
      "type": "function"
    },
    {
      "inputs": [
        {
          "internalType": "address",
          "name": "_signer",
          "type": "address"
        }
      ],
      "name": "setSigner",
      "outputs": [],
      "stateMutability": "nonpayable",
      "type": "function"
    },
    {
      "inputs": [],
      "name": "signer",
      "outputs": [
        {
          "internalType": "address",
          "name": "",
          "type": "address"
        }
      ],
      "stateMutability": "view",
      "type": "function"
    },
    {
      "inputs": [
        {
          "internalType": "address",
          "name": "",
          "type": "address"
        }
      ],
      "name": "tradeTokens",
      "outputs": [
        {
          "internalType": "bool",
          "name": "",
          "type": "bool"
        }
      ],
      "stateMutability": "view",
      "type": "function"
    },
    {
      "inputs": [
        {
          "internalType": "address",
          "name": "newOwner",
          "type": "address"
        }
      ],
      "name": "transferOwnership",
      "outputs": [],
      "stateMutability": "nonpayable",
      "type": "function"
    }
  ],
  "bytecode": "0x60808060405234601557611ff6908161001a8239f35b5f80fdfe60806040526004361015610011575f80fd5b5f3560e01c8063089bdcf7146115ed578063138b7598146115d0578063179af607146115b357806317e99844146114e35780631d993c6c146113b0578063238ac9331461138a57806323ac0362146112c75780632c7f3a25146112aa57806334463a681461128d5780633eb5234f1461127057806344337ea11461118057806351b2e30f14611163578063521d745214611146578063537df3b61461107e57806353c425c114610dac578063558e224814610d8f5780636c19e78314610d18578063715018a614610c815780637ecebe0014610c2a57806381be4cf114610beb5780638da5cb5b14610ba6578063942f81c814610b48578063961bdfbf14610b2e5780639ca14bb714610ada578063a407db2314610ab4578063aca8d9a414610a56578063b4e5ffab14610a02578063b67a1f15146108cf578063c853012114610892578063e53f002e14610846578063e63ea40814610734578063e75722301461070e578063eb3f0970146106f1578063efc3b80b146106b4578063f2fde38b14610689578063fa807ecf146101f15763fe575a87146101b0575f80fd5b346101ed5760203660031901126101ed576001600160a01b036101d16116b0565b165f52600f602052602060ff60405f2054166040519015158152f35b5f80fd5b346101ed5760a03660031901126101ed5760043561020d6116c6565b60443591906084359060643567ffffffffffffffff83116101ed57366023840112156101ed57826004013567ffffffffffffffff81116101ed5736602482860101116101ed57335f52600f60205261026c60ff60405f205416156116dc565b6001600160a01b03831693845f52600e60205260ff60405f205416156106455761029a600254871015611727565b335f527f5ab42ced628888259c08ac98db1eb0cf702fc1501344311d8b100cd1bfe4bb0060205260405f2091825492600184019055834210156106015761038193610378936040519060208201928b845260408301523060601b60608301523360601b607483015260888201524660a882015260a8815261031c60c882611772565b5190207f19457468657265756d205369676e6564204d6573736167653a0a3332000000005f52601c525f6020603c822092806024610359826117a8565b966103676040519889611772565b828852018387013784010152611e45565b90929192611e7f565b6001600160a01b0380600d54169116036105bd5761039e846119fb565b908115610579576402540be4006103b58386611946565b048015610535576006546127100390612710821161052157612710916103da91611946565b04926104485f806001600160a01b0360085416888260405161043681610428602082019563079cc67960e41b87523360248401602090939291936001600160a01b0360408201951681520152565b03601f198101835282611772565b51925af16104426117c4565b506117f3565b60035485116104c457836104827f1a9644a9d940d759c9439535401d24ab24ada3bf0a95fabdfbf2f2c4ccbbc920956104bc933390611d34565b6006549060405194859433988691926001600160a01b03608094979695929760a08501988552166020840152604083015260608201520152565b0390a2600a55005b50600654604080519586526001600160a01b03929092166020860152908401919091526060830191909152608082015233907f4fb92378f8f5fd637b2ad7943d3023da684cf1d4ba984733673d69e1a1a8a5f19060a090a2600a55005b634e487b7160e01b5f52601160045260245ffd5b606460405162461bcd60e51b815260206004820152601160248201527f496e76616c696420757364416d6f756e740000000000000000000000000000006044820152fd5b606460405162461bcd60e51b815260206004820152601260248201527f496e76616c696420676f6c6420707269636500000000000000000000000000006044820152fd5b606460405162461bcd60e51b815260206004820152601160248201527f496e76616c6964207369676e61747572650000000000000000000000000000006044820152fd5b606460405162461bcd60e51b815260206004820152601160248201527f5369676e617475726520657870697265640000000000000000000000000000006044820152fd5b606460405162461bcd60e51b815260206004820152601260248201527f496e76616c6964207472616465546f6b656e00000000000000000000000000006044820152fd5b346101ed5760203660031901126101ed576106b26106a56116b0565b6106ad611cd5565b611c1a565b005b346101ed5760203660031901126101ed576001600160a01b036106d56116b0565b6106dd611cd5565b166001600160a01b03195f5416175f555f80f35b346101ed575f3660031901126101ed576020600654604051908152f35b346101ed5760203660031901126101ed57602061072c6004356119fb565b604051908152f35b346101ed5760603660031901126101ed5761074d6116b0565b6107556116c6565b6001600160a01b0360443592610769611cd5565b1691604051917f70a08231000000000000000000000000000000000000000000000000000000008352306004840152602083602481875afa92831561083b575f93610805575b506107dd827ff24ef89f38eadc1bde50701ad6e4d6d11a2dc24f7cf834a486991f3883328504941015611727565b6107e8828286611d34565b604080516001600160a01b039290921682526020820192909252a2005b92506020833d602011610833575b8161082060209383611772565b810103126101ed579151916107dd6107af565b3d9150610813565b6040513d5f823e3d90fd5b346101ed5760203660031901126101ed577fd5cc76d68d08ffa62a4dc5391bfc63c18b9670139a132ce8274cdb7e86de28b46020600435610885611cd5565b80600a55604051908152a1005b346101ed5760203660031901126101ed576001600160a01b036108b36116b0565b165f52600e602052602060ff60405f2054166040519015158152f35b346101ed5760203660031901126101ed576004356108eb611cd5565b801561099857600554811161092e577f1510c4d8713bb6141138ec914ca103bf0d14a6736710a227e51e01638314933060206004549280600455604051908152a2005b608460405162461bcd60e51b815260206004820152603360248201527f4d696e696d756d206f66666c696e652073656c6c20616d6f756e74206d75737460448201527f206e6f7420657863656564206d6178696d756d000000000000000000000000006064820152fd5b608460405162461bcd60e51b815260206004820152603260248201527f4d696e696d756d206f66666c696e652073656c6c20616d6f756e74206d75737460448201527f2062652067726561746572207468616e203000000000000000000000000000006064820152fd5b346101ed5760203660031901126101ed577fb5865171012deafb77c058c28d5b93945e289aebebd7d750320334b2c6e1c40e6040600435610a41611cd5565b600b549080600b5582519182526020820152a1005b346101ed5760203660031901126101ed57600435610a72611cd5565b610a80612710821115611889565b7fe220365b431c9f11bbfeba0642f929b864d84d959055d4b1b3c1219e8411561f60206006549280600655604051908152a2005b346101ed575f3660031901126101ed5760206001600160a01b0360085416604051908152f35b346101ed5760203660031901126101ed577f31484c1c833eee86681a714ea664c32f985033093c9ee252a8189209ce7bdc1d6040600435610b19611cd5565b600c549080600c5582519182526020820152a1005b346101ed575f3660031901126101ed57602061072c611959565b346101ed5760203660031901126101ed57600435610b64611cd5565b610b72612710821115611889565b7f3f487d8bcb67c03c5e5cd6a6690179cd2b755a817f2813919d2074db25d6841b60206007549280600755604051908152a2005b346101ed575f3660031901126101ed5760206001600160a01b037f9016d09d72d40fdae2fd8ceac6b6234c7706214fd39c1cd1e609a0528c1993005416604051908152f35b346101ed5760203660031901126101ed576001600160a01b03610c0c6116b0565b610c14611cd5565b166001600160a01b031960015416176001555f80f35b346101ed5760203660031901126101ed576001600160a01b03610c4b6116b0565b165f527f5ab42ced628888259c08ac98db1eb0cf702fc1501344311d8b100cd1bfe4bb00602052602060405f2054604051908152f35b346101ed575f3660031901126101ed57610c99611cd5565b5f6001600160a01b037f9016d09d72d40fdae2fd8ceac6b6234c7706214fd39c1cd1e609a0528c199300546001600160a01b031981167f9016d09d72d40fdae2fd8ceac6b6234c7706214fd39c1cd1e609a0528c19930055167f8be0079c531659141344cd1fd0a4f28419497f9722a3daafe3b4186f6b6457e08280a3005b346101ed5760203660031901126101ed577f2d025324f0a785e8c12d0a0d91a9caa49df4ef20ff87e0df7213a1d4f3157beb6040610d546116b0565b610d5c611cd5565b6001600160a01b03600d549116806001600160a01b0319831617600d556001600160a01b038351921682526020820152a1005b346101ed575f3660031901126101ed576020600254604051908152f35b346101ed5760c03660031901126101ed57610dc56116b0565b610dcd6116c6565b906044356001600160a01b0381168091036101ed57606435906001600160a01b0382168092036101ed5760a435926001600160a01b0384168094036101ed577ff0c57e16840df040f15088dc2f81fe391c3923bec73e23a9662efc9c229c6a00549460ff8660401c16159567ffffffffffffffff811680159081611076575b600114908161106c575b159081611063575b5061103b5767ffffffffffffffff1981166001177ff0c57e16840df040f15088dc2f81fe391c3923bec73e23a9662efc9c229c6a00556001600160a01b0392839188610ffc575b50610eae611dee565b610eb6611dee565b610ebe611dee565b610ec733611c1a565b166001600160a01b03196008541617600855165f52600e60205260405f20600160ff198254161790556001600160a01b03195f5416175f556001600160a01b0319600154161760015564486b1dea80600955678ac7230489e800006002556801158e460913d00000600355683635c9adc5dea0000060045569152d02c7e14af680000060055560196006556032600755608435600a556050600b556103e8600c556001600160a01b0319600d541617600d55610f7f57005b68ff0000000000000000197ff0c57e16840df040f15088dc2f81fe391c3923bec73e23a9662efc9c229c6a0054167ff0c57e16840df040f15088dc2f81fe391c3923bec73e23a9662efc9c229c6a00557fc7f505b2f371ae2175ee4913f4499e1f2633a7b5936321eed1cdaeb6115181d2602060405160018152a1005b68ffffffffffffffffff191668010000000000000001177ff0c57e16840df040f15088dc2f81fe391c3923bec73e23a9662efc9c229c6a005588610ea5565b7ff92ee8a9000000000000000000000000000000000000000000000000000000005f5260045ffd5b90501588610e5e565b303b159150610e56565b889150610e4c565b346101ed5760203660031901126101ed576001600160a01b0361109f6116b0565b6110a7611cd5565b166110b381151561183e565b805f52600f60205260ff60405f2054161561110257805f52600f60205260405f2060ff1981541690557f2b6bf71b58b3583add364b3d9060ebf8019650f65f5be35f5464b9cb3e4ba2d45f80a2005b606460405162461bcd60e51b815260206004820152601f60248201527f426c61636b6c697374546f6b656e3a204e6f7420626c61636b6c6973746564006044820152fd5b346101ed575f3660031901126101ed576020600454604051908152f35b346101ed575f3660031901126101ed576020600354604051908152f35b346101ed5760203660031901126101ed576001600160a01b036111a16116b0565b6111a9611cd5565b166111b581151561183e565b805f52600f60205260ff60405f20541661120657805f52600f60205260405f20600160ff198254161790557ff9b68063b051b82957fa193585681240904fed808db8b30fc5a2d2202c6ed6275f80a2005b608460405162461bcd60e51b815260206004820152602360248201527f426c61636b6c697374546f6b656e3a20416c726561647920626c61636b6c697360448201527f74656400000000000000000000000000000000000000000000000000000000006064820152fd5b346101ed575f3660031901126101ed576020600554604051908152f35b346101ed575f3660031901126101ed576020600a54604051908152f35b346101ed575f3660031901126101ed576020600754604051908152f35b346101ed5760203660031901126101ed576004356112e3611cd5565b6004548110611320577fd8a95468d73aeb61e77d294fc5c4db88f1ea149330fa510789628deb2205f5df60206005549280600555604051908152a2005b608460405162461bcd60e51b815260206004820152603960248201527f4d6178696d756d206f66666c696e652073656c6c20616d6f756e74206d75737460448201527f206e6f74206265206c657373207468616e206d696e696d756d000000000000006064820152fd5b346101ed575f3660031901126101ed5760206001600160a01b03600d5416604051908152f35b346101ed5760203660031901126101ed576004356113cc611cd5565b801561147957600354811161140f577fd468d2cd8df36292f71e76031dccd8dc46407b2e8c4469832c1cd36915261c0f60206002549280600255604051908152a2005b608460405162461bcd60e51b815260206004820152602b60248201527f4d696e696d756d2073656c6c20616d6f756e74206d757374206e6f742065786360448201527f656564206d6178696d756d0000000000000000000000000000000000000000006064820152fd5b608460405162461bcd60e51b815260206004820152602a60248201527f4d696e696d756d2073656c6c20616d6f756e74206d757374206265206772656160448201527f746572207468616e2030000000000000000000000000000000000000000000006064820152fd5b346101ed5760203660031901126101ed57600435335f52600f60205261151060ff60405f205416156116dc565b600454811015806115a7575b61152590611727565b6115715f806001600160a01b036008541660405182602082019163079cc67960e41b8352610436816104288a3360248401602090939291936001600160a01b0360408201951681520152565b60075460405191825260208201527f45600b7af74a18b1066c7e7ec71baaac81c033cd895835315cc5d609fb95b32a60403392a2005b5060055481111561151c565b346101ed575f3660031901126101ed576020600b54604051908152f35b346101ed575f3660031901126101ed576020600c54604051908152f35b346101ed5760203660031901126101ed57600435611609611cd5565b6002548110611646577f385606c1e6eb8dc3351d9eacc1e4fe9f6658e2384e181cf29b56371d1bde12f360206003549280600355604051908152a2005b608460405162461bcd60e51b815260206004820152603160248201527f4d6178696d756d2073656c6c20616d6f756e74206d757374206e6f742062652060448201527f6c657373207468616e206d696e696d756d0000000000000000000000000000006064820152fd5b600435906001600160a01b03821682036101ed57565b602435906001600160a01b03821682036101ed57565b156116e357565b606460405162461bcd60e51b815260206004820152601e60248201527f426c61636b6c6973743a207573657220697320626c61636b6c697374656400006044820152fd5b1561172e57565b606460405162461bcd60e51b815260206004820152600c60248201527f616d6f756e74206572726f7200000000000000000000000000000000000000006044820152fd5b90601f8019910116810190811067ffffffffffffffff82111761179457604052565b634e487b7160e01b5f52604160045260245ffd5b67ffffffffffffffff811161179457601f01601f191660200190565b3d156117ee573d906117d5826117a8565b916117e36040519384611772565b82523d5f602084013e565b606090565b156117fa57565b606460405162461bcd60e51b815260206004820152600b60248201527f4275726e206661696c65640000000000000000000000000000000000000000006044820152fd5b1561184557565b606460405162461bcd60e51b815260206004820152601c60248201527f426c61636b6c697374546f6b656e3a205a65726f2061646472657373000000006044820152fd5b1561189057565b608460405162461bcd60e51b815260206004820152602160248201527f4665652070657263656e746167652063616e6e6f74206578636565642031303060448201527f25000000000000000000000000000000000000000000000000000000000000006064820152fd5b519069ffffffffffffffffffff821682036101ed57565b908160a09103126101ed57611925816118fa565b916020820151916040810151916119436080606084015193016118fa565b90565b8181029291811591840414171561052157565b600460a06001600160a01b036001541660405192838092633fabe5a360e21b82525afa90811561083b575f916119a9575b506402540be4008102908082046402540be40014901517156105215790565b6119cb915060a03d60a0116119d6575b6119c38183611772565b810190611911565b50505090505f61198a565b503d6119b9565b81156119e7570490565b634e487b7160e01b5f52601260045260245ffd5b600460a06001600160a01b035f541660405192838092633fabe5a360e21b82525afa90811561083b575f91611bf6575b506402540be4008102908082056402540be40014901517156105215780821090811591611bcc575b5015611b6257600a5480821090811591611b38575b5015611ace576402540be4008102908082046402540be400149015171561052157611a9b6305f5e10091600954906119dd565b04611aa4611959565b670de0b6b3a7640000820291808304670de0b6b3a7640000149015171561052157611943916119dd565b608460405162461bcd60e51b815260206004820152603260248201527f4f6666636861696e2070726963652064657669617465732066726f6d206c617460448201527f65737420707269636520746f6f206d75636800000000000000000000000000006064820152fd5b9050600c54612710039061271082116105215761271091611b5891611946565b048110155f611a68565b608460405162461bcd60e51b815260206004820152603260248201527f4f6666636861696e2070726963652064657669617465732066726f6d206f726160448201527f636c6520707269636520746f6f206d75636800000000000000000000000000006064820152fd5b9050600b54612710039061271082116105215761271091611bec91611946565b048110155f611a53565b611c0f915060a03d60a0116119d6576119c38183611772565b50505090505f611a2b565b6001600160a01b03168015611ca9576001600160a01b037f9016d09d72d40fdae2fd8ceac6b6234c7706214fd39c1cd1e609a0528c19930054826001600160a01b03198216177f9016d09d72d40fdae2fd8ceac6b6234c7706214fd39c1cd1e609a0528c19930055167f8be0079c531659141344cd1fd0a4f28419497f9722a3daafe3b4186f6b6457e05f80a3565b7f1e4fbdf7000000000000000000000000000000000000000000000000000000005f525f60045260245ffd5b6001600160a01b037f9016d09d72d40fdae2fd8ceac6b6234c7706214fd39c1cd1e609a0528c19930054163303611d0857565b7f118cdaa7000000000000000000000000000000000000000000000000000000005f523360045260245ffd5b6040517fa9059cbb0000000000000000000000000000000000000000000000000000000060208281019182526001600160a01b039094166024830152604482019490945290925f91611d898160648101610428565b519082855af11561083b575f513d611de557506001600160a01b0381163b155b611db05750565b6001600160a01b03907f5274afe7000000000000000000000000000000000000000000000000000000005f521660045260245ffd5b60011415611da9565b60ff7ff0c57e16840df040f15088dc2f81fe391c3923bec73e23a9662efc9c229c6a005460401c1615611e1d57565b7fd7e6bcf8000000000000000000000000000000000000000000000000000000005f5260045ffd5b8151919060418303611e7557611e6e9250602082015190606060408401519301515f1a90611f3e565b9192909190565b50505f9160029190565b6004811015611f2a5780611e91575050565b60018103611ec1577ff645eedf000000000000000000000000000000000000000000000000000000005f5260045ffd5b60028103611ef557507ffce698f7000000000000000000000000000000000000000000000000000000005f5260045260245ffd5b600314611eff5750565b7fd78bce0c000000000000000000000000000000000000000000000000000000005f5260045260245ffd5b634e487b7160e01b5f52602160045260245ffd5b91907f7fffffffffffffffffffffffffffffff5d576e7357a4501ddfe92f46681b20a08411611fb5579160209360809260ff5f9560405194855216868401526040830152606082015282805260015afa1561083b575f516001600160a01b03811615611fab57905f905f90565b505f906001905f90565b5050505f916003919056fea2646970667358221220834e0b657b0ce81b1fee9317041f4bf4964c1419b6a092d0f429da15a449638764736f6c634300081e0033",
  "linkReferences": {},
  "deployedLinkReferences": {},
  "immutableReferences": {},
  "inputSourceName": "project/contracts/ghk-sell/GHKSellPool.sol",
  "buildInfoId": "solc-0_8_30-5239ca842f0266fb57e8443af2249fc2c07ad5dc"
}