{
  "_format": "hh3-artifact-1",
  "contractName": "GHKBuyPool",
  "sourceName": "contracts/ghk-buy/GHKBuyPool.sol",
  "abi": [
    {
      "inputs": [],
      "name": "ECDSAInvalidSignature",
      "type": "error"
    },
    {
      "inputs": [
        {
          "internalType": "uint256",
          "name": "length",
          "type": "uint256"
        }
      ],
      "name": "ECDSAInvalidSignatureLength",
      "type": "error"
    },
    {
      "inputs": [
        {
          "internalType": "bytes32",
          "name": "s",
          "type": "bytes32"
        }
      ],
      "name": "ECDSAInvalidSignatureS",
      "type": "error"
    },
    {
      "inputs": [],
      "name": "InvalidInitialization",
      "type": "error"
    },
    {
      "inputs": [],
      "name": "NotInitializing",
      "type": "error"
    },
    {
      "inputs": [
        {
          "internalType": "address",
          "name": "owner",
          "type": "address"
        }
      ],
      "name": "OwnableInvalidOwner",
      "type": "error"
    },
    {
      "inputs": [
        {
          "internalType": "address",
          "name": "account",
          "type": "address"
        }
      ],
      "name": "OwnableUnauthorizedAccount",
      "type": "error"
    },
    {
      "inputs": [
        {
          "internalType": "address",
          "name": "token",
          "type": "address"
        }
      ],
      "name": "SafeERC20FailedOperation",
      "type": "error"
    },
    {
      "anonymous": false,
      "inputs": [
        {
          "indexed": true,
          "internalType": "address",
          "name": "account",
          "type": "address"
        }
      ],
      "name": "AddedToBlacklist",
      "type": "event"
    },
    {
      "anonymous": false,
      "inputs": [
        {
          "indexed": true,
          "internalType": "address",
          "name": "to",
          "type": "address"
        },
        {
          "indexed": false,
          "internalType": "address",
          "name": "inviter",
          "type": "address"
        }
      ],
      "name": "BindInviter",
      "type": "event"
    },
    {
      "anonymous": false,
      "inputs": [
        {
          "indexed": true,
          "internalType": "address",
          "name": "to",
          "type": "address"
        },
        {
          "indexed": false,
          "internalType": "address",
          "name": "inviter",
          "type": "address"
        },
        {
          "indexed": false,
          "internalType": "uint256",
          "name": "ghkValue",
          "type": "uint256"
        },
        {
          "indexed": false,
          "internalType": "address",
          "name": "tradeToken",
          "type": "address"
        },
        {
          "indexed": false,
          "internalType": "uint256",
          "name": "price",
          "type": "uint256"
        },
        {
          "indexed": false,
          "internalType": "uint256",
          "name": "usdValue",
          "type": "uint256"
        }
      ],
      "name": "BuyEvent",
      "type": "event"
    },
    {
      "anonymous": false,
      "inputs": [
        {
          "indexed": true,
          "internalType": "uint256",
          "name": "oldVal",
          "type": "uint256"
        },
        {
          "indexed": false,
          "internalType": "uint256",
          "name": "newVal",
          "type": "uint256"
        }
      ],
      "name": "BuyGHKAmountMaxUpdated",
      "type": "event"
    },
    {
      "anonymous": false,
      "inputs": [
        {
          "indexed": true,
          "internalType": "uint256",
          "name": "oldVal",
          "type": "uint256"
        },
        {
          "indexed": false,
          "internalType": "uint256",
          "name": "newVal",
          "type": "uint256"
        }
      ],
      "name": "BuyGHKAmountMinUpdated",
      "type": "event"
    },
    {
      "anonymous": false,
      "inputs": [
        {
          "indexed": true,
          "internalType": "address",
          "name": "to",
          "type": "address"
        },
        {
          "indexed": false,
          "internalType": "uint256",
          "name": "ghkValue",
          "type": "uint256"
        }
      ],
      "name": "BuyOffline",
      "type": "event"
    },
    {
      "anonymous": false,
      "inputs": [
        {
          "indexed": true,
          "internalType": "address",
          "name": "coin",
          "type": "address"
        },
        {
          "indexed": false,
          "internalType": "address",
          "name": "to",
          "type": "address"
        },
        {
          "indexed": false,
          "internalType": "uint256",
          "name": "amount",
          "type": "uint256"
        }
      ],
      "name": "EmergencyWithdraw",
      "type": "event"
    },
    {
      "anonymous": false,
      "inputs": [
        {
          "indexed": false,
          "internalType": "uint256",
          "name": "newPrice",
          "type": "uint256"
        }
      ],
      "name": "GHK_GHKE_PriceUpdated",
      "type": "event"
    },
    {
      "anonymous": false,
      "inputs": [
        {
          "indexed": false,
          "internalType": "uint64",
          "name": "version",
          "type": "uint64"
        }
      ],
      "name": "Initialized",
      "type": "event"
    },
    {
      "anonymous": false,
      "inputs": [
        {
          "indexed": true,
          "internalType": "address",
          "name": "user",
          "type": "address"
        },
        {
          "indexed": false,
          "internalType": "uint256",
          "name": "level",
          "type": "uint256"
        },
        {
          "indexed": false,
          "internalType": "address",
          "name": "inviter",
          "type": "address"
        },
        {
          "indexed": false,
          "internalType": "uint256",
          "name": "inviterReward",
          "type": "uint256"
        },
        {
          "indexed": false,
          "internalType": "uint256",
          "name": "ghkAmount",
          "type": "uint256"
        },
        {
          "indexed": false,
          "internalType": "uint256",
          "name": "rate",
          "type": "uint256"
        },
        {
          "indexed": false,
          "internalType": "uint256",
          "name": "price",
          "type": "uint256"
        }
      ],
      "name": "InviterReward",
      "type": "event"
    },
    {
      "anonymous": false,
      "inputs": [
        {
          "indexed": false,
          "internalType": "uint256",
          "name": "rate",
          "type": "uint256"
        }
      ],
      "name": "InviterRewardLevel1Updated",
      "type": "event"
    },
    {
      "anonymous": false,
      "inputs": [
        {
          "indexed": false,
          "internalType": "uint256",
          "name": "rate",
          "type": "uint256"
        }
      ],
      "name": "InviterRewardLevel2Updated",
      "type": "event"
    },
    {
      "anonymous": false,
      "inputs": [
        {
          "indexed": true,
          "internalType": "address",
          "name": "previousOwner",
          "type": "address"
        },
        {
          "indexed": true,
          "internalType": "address",
          "name": "newOwner",
          "type": "address"
        }
      ],
      "name": "OwnershipTransferred",
      "type": "event"
    },
    {
      "anonymous": false,
      "inputs": [
        {
          "indexed": true,
          "internalType": "address",
          "name": "account",
          "type": "address"
        }
      ],
      "name": "RemovedFromBlacklist",
      "type": "event"
    },
    {
      "anonymous": false,
      "inputs": [
        {
          "indexed": true,
          "internalType": "address",
          "name": "to",
          "type": "address"
        },
        {
          "indexed": false,
          "internalType": "uint256",
          "name": "ghkValue",
          "type": "uint256"
        },
        {
          "indexed": false,
          "internalType": "address",
          "name": "tradeToken",
          "type": "address"
        },
        {
          "indexed": false,
          "internalType": "uint256",
          "name": "gPrice",
          "type": "uint256"
        },
        {
          "indexed": false,
          "internalType": "uint256",
          "name": "usdValue",
          "type": "uint256"
        },
        {
          "indexed": false,
          "internalType": "uint256",
          "name": "tokenPrice",
          "type": "uint256"
        },
        {
          "indexed": false,
          "internalType": "uint256",
          "name": "tokenValue",
          "type": "uint256"
        }
      ],
      "name": "TokenBuyEvent",
      "type": "event"
    },
    {
      "anonymous": false,
      "inputs": [
        {
          "indexed": true,
          "internalType": "address",
          "name": "token",
          "type": "address"
        },
        {
          "indexed": false,
          "internalType": "bool",
          "name": "enabled",
          "type": "bool"
        }
      ],
      "name": "TradeTokenUpdated",
      "type": "event"
    },
    {
      "inputs": [],
      "name": "BUY_GHK_AMOUNT_MAX",
      "outputs": [
        {
          "internalType": "uint256",
          "name": "",
          "type": "uint256"
        }
      ],
      "stateMutability": "view",
      "type": "function"
    },
    {
      "inputs": [],
      "name": "BUY_GHK_AMOUNT_MIN",
      "outputs": [
        {
          "internalType": "uint256",
          "name": "",
          "type": "uint256"
        }
      ],
      "stateMutability": "view",
      "type": "function"
    },
    {
      "inputs": [],
      "name": "GHK",
      "outputs": [
        {
          "internalType": "contract IERC20",
          "name": "",
          "type": "address"
        }
      ],
      "stateMutability": "view",
      "type": "function"
    },
    {
      "inputs": [],
      "name": "GHKE",
      "outputs": [
        {
          "internalType": "contract IERC20",
          "name": "",
          "type": "address"
        }
      ],
      "stateMutability": "view",
      "type": "function"
    },
    {
      "inputs": [],
      "name": "GHKE_BUY_POOL",
      "outputs": [
        {
          "internalType": "address",
          "name": "",
          "type": "address"
        }
      ],
      "stateMutability": "view",
      "type": "function"
    },
    {
      "inputs": [],
      "name": "GHK_GHKE_PRICE",
      "outputs": [
        {
          "internalType": "uint256",
          "name": "",
          "type": "uint256"
        }
      ],
      "stateMutability": "view",
      "type": "function"
    },
    {
      "inputs": [],
      "name": "INVITER_REWARD_LEVEL_1",
      "outputs": [
        {
          "internalType": "uint256",
          "name": "",
          "type": "uint256"
        }
      ],
      "stateMutability": "view",
      "type": "function"
    },
    {
      "inputs": [],
      "name": "INVITER_REWARD_LEVEL_2",
      "outputs": [
        {
          "internalType": "uint256",
          "name": "",
          "type": "uint256"
        }
      ],
      "stateMutability": "view",
      "type": "function"
    },
    {
      "inputs": [],
      "name": "USDC",
      "outputs": [
        {
          "internalType": "address",
          "name": "",
          "type": "address"
        }
      ],
      "stateMutability": "view",
      "type": "function"
    },
    {
      "inputs": [],
      "name": "USDT",
      "outputs": [
        {
          "internalType": "address",
          "name": "",
          "type": "address"
        }
      ],
      "stateMutability": "view",
      "type": "function"
    },
    {
      "inputs": [],
      "name": "USD_TO_ADDRESS",
      "outputs": [
        {
          "internalType": "address",
          "name": "",
          "type": "address"
        }
      ],
      "stateMutability": "view",
      "type": "function"
    },
    {
      "inputs": [
        {
          "internalType": "address",
          "name": "account",
          "type": "address"
        }
      ],
      "name": "addToBlacklist",
      "outputs": [],
      "stateMutability": "nonpayable",
      "type": "function"
    },
    {
      "inputs": [
        {
          "internalType": "uint256",
          "name": "amount",
          "type": "uint256"
        },
        {
          "internalType": "address",
          "name": "tradeToken",
          "type": "address"
        },
        {
          "internalType": "address",
          "name": "inviter",
          "type": "address"
        },
        {
          "internalType": "uint256",
          "name": "offchainXAUPrice",
          "type": "uint256"
        },
        {
          "internalType": "uint256",
          "name": "deadline",
          "type": "uint256"
        },
        {
          "internalType": "bytes",
          "name": "sig",
          "type": "bytes"
        }
      ],
      "name": "buy",
      "outputs": [],
      "stateMutability": "nonpayable",
      "type": "function"
    },
    {
      "inputs": [
        {
          "internalType": "uint256",
          "name": "amount",
          "type": "uint256"
        },
        {
          "internalType": "address",
          "name": "to",
          "type": "address"
        }
      ],
      "name": "buyOffline",
      "outputs": [],
      "stateMutability": "nonpayable",
      "type": "function"
    },
    {
      "inputs": [
        {
          "internalType": "address",
          "name": "user",
          "type": "address"
        },
        {
          "internalType": "address",
          "name": "coin",
          "type": "address"
        },
        {
          "internalType": "uint256",
          "name": "usdtAmount",
          "type": "uint256"
        },
        {
          "internalType": "uint256",
          "name": "offchainXAUPrice",
          "type": "uint256"
        },
        {
          "internalType": "uint256",
          "name": "deadline",
          "type": "uint256"
        },
        {
          "internalType": "bytes",
          "name": "sig",
          "type": "bytes"
        }
      ],
      "name": "buyTo",
      "outputs": [
        {
          "internalType": "bool",
          "name": "",
          "type": "bool"
        }
      ],
      "stateMutability": "nonpayable",
      "type": "function"
    },
    {
      "inputs": [
        {
          "internalType": "address",
          "name": "coin",
          "type": "address"
        },
        {
          "internalType": "address",
          "name": "to",
          "type": "address"
        },
        {
          "internalType": "uint256",
          "name": "amount",
          "type": "uint256"
        }
      ],
      "name": "emergencyWithdraw",
      "outputs": [],
      "stateMutability": "nonpayable",
      "type": "function"
    },
    {
      "inputs": [
        {
          "internalType": "uint256",
          "name": "offchainXAUPrice",
          "type": "uint256"
        }
      ],
      "name": "getPrice",
      "outputs": [
        {
          "internalType": "uint256",
          "name": "",
          "type": "uint256"
        }
      ],
      "stateMutability": "view",
      "type": "function"
    },
    {
      "inputs": [],
      "name": "getUsdcPrice",
      "outputs": [
        {
          "internalType": "uint256",
          "name": "",
          "type": "uint256"
        }
      ],
      "stateMutability": "view",
      "type": "function"
    },
    {
      "inputs": [],
      "name": "getUsdtPrice",
      "outputs": [
        {
          "internalType": "uint256",
          "name": "",
          "type": "uint256"
        }
      ],
      "stateMutability": "view",
      "type": "function"
    },
    {
      "inputs": [
        {
          "internalType": "address",
          "name": "_GHK",
          "type": "address"
        },
        {
          "internalType": "address",
          "name": "_GHKE",
          "type": "address"
        },
        {
          "internalType": "address",
          "name": "_USDT",
          "type": "address"
        },
        {
          "internalType": "address",
          "name": "_USDC",
          "type": "address"
        },
        {
          "internalType": "address",
          "name": "_dataFeedXAU",
          "type": "address"
        },
        {
          "internalType": "address",
          "name": "_dataFeedUSDT",
          "type": "address"
        },
        {
          "internalType": "address",
          "name": "_dataFeedUSDC",
          "type": "address"
        },
        {
          "internalType": "uint256",
          "name": "_initialXAUPrice",
          "type": "uint256"
        },
        {
          "internalType": "address",
          "name": "_signer",
          "type": "address"
        }
      ],
      "name": "initialize",
      "outputs": [],
      "stateMutability": "nonpayable",
      "type": "function"
    },
    {
      "inputs": [
        {
          "internalType": "address",
          "name": "",
          "type": "address"
        }
      ],
      "name": "inviterStatus",
      "outputs": [
        {
          "internalType": "bool",
          "name": "",
          "type": "bool"
        }
      ],
      "stateMutability": "view",
      "type": "function"
    },
    {
      "inputs": [
        {
          "internalType": "address",
          "name": "",
          "type": "address"
        }
      ],
      "name": "inviters",
      "outputs": [
        {
          "internalType": "address",
          "name": "",
          "type": "address"
        }
      ],
      "stateMutability": "view",
      "type": "function"
    },
    {
      "inputs": [
        {
          "internalType": "address",
          "name": "account",
          "type": "address"
        }
      ],
      "name": "isBlacklisted",
      "outputs": [
        {
          "internalType": "bool",
          "name": "",
          "type": "bool"
        }
      ],
      "stateMutability": "view",
      "type": "function"
    },
    {
      "inputs": [],
      "name": "latestXAUPrice",
      "outputs": [
        {
          "internalType": "uint256",
          "name": "",
          "type": "uint256"
        }
      ],
      "stateMutability": "view",
      "type": "function"
    },
    {
      "inputs": [],
      "name": "maxLatestPriceDeviation",
      "outputs": [
        {
          "internalType": "uint256",
          "name": "",
          "type": "uint256"
        }
      ],
      "stateMutability": "view",
      "type": "function"
    },
    {
      "inputs": [],
      "name": "maxOraclePriceDeviation",
      "outputs": [
        {
          "internalType": "uint256",
          "name": "",
          "type": "uint256"
        }
      ],
      "stateMutability": "view",
      "type": "function"
    },
    {
      "inputs": [],
      "name": "owner",
      "outputs": [
        {
          "internalType": "address",
          "name": "",
          "type": "address"
        }
      ],
      "stateMutability": "view",
      "type": "function"
    },
    {
      "inputs": [
        {
          "internalType": "address",
          "name": "account",
          "type": "address"
        }
      ],
      "name": "removeFromBlacklist",
      "outputs": [],
      "stateMutability": "nonpayable",
      "type": "function"
    },
    {
      "inputs": [],
      "name": "renounceOwnership",
      "outputs": [],
      "stateMutability": "nonpayable",
      "type": "function"
    },
    {
      "inputs": [
        {
          "internalType": "uint256",
          "name": "_newMax",
          "type": "uint256"
        }
      ],
      "name": "setBuyGHKAmountMax",
      "outputs": [],
      "stateMutability": "nonpayable",
      "type": "function"
    },
    {
      "inputs": [
        {
          "internalType": "uint256",
          "name": "_newMin",
          "type": "uint256"
        }
      ],
      "name": "setBuyGHKAmountMin",
      "outputs": [],
      "stateMutability": "nonpayable",
      "type": "function"
    },
    {
      "inputs": [
        {
          "internalType": "address",
          "name": "_priceDataFeed",
          "type": "address"
        }
      ],
      "name": "setDataFeed",
      "outputs": [],
      "stateMutability": "nonpayable",
      "type": "function"
    },
    {
      "inputs": [
        {
          "internalType": "address",
          "name": "_priceDataFeed",
          "type": "address"
        }
      ],
      "name": "setDataFeedUSDC_USD",
      "outputs": [],
      "stateMutability": "nonpayable",
      "type": "function"
    },
    {
      "inputs": [
        {
          "internalType": "address",
          "name": "_priceDataFeed",
          "type": "address"
        }
      ],
      "name": "setDataFeedUSDT_USD",
      "outputs": [],
      "stateMutability": "nonpayable",
      "type": "function"
    },
    {
      "inputs": [
        {
          "internalType": "address",
          "name": "pool",
          "type": "address"
        }
      ],
      "name": "setGHKE_BUY_POOL",
      "outputs": [],
      "stateMutability": "nonpayable",
      "type": "function"
    },
    {
      "inputs": [
        {
          "internalType": "uint256",
          "name": "newPrice",
          "type": "uint256"
        }
      ],
      "name": "setGHK_GHKE_Price",
      "outputs": [],
      "stateMutability": "nonpayable",
      "type": "function"
    },
    {
      "inputs": [
        {
          "internalType": "uint256",
          "name": "rate",
          "type": "uint256"
        }
      ],
      "name": "setInviterRewardLevel1",
      "outputs": [],
      "stateMutability": "nonpayable",
      "type": "function"
    },
    {
      "inputs": [
        {
          "internalType": "uint256",
          "name": "rate",
          "type": "uint256"
        }
      ],
      "name": "setInviterRewardLevel2",
      "outputs": [],
      "stateMutability": "nonpayable",
      "type": "function"
    },
    {
      "inputs": [
        {
          "internalType": "uint256",
          "name": "price",
          "type": "uint256"
        }
      ],
      "name": "setLatestXAUPrice",
      "outputs": [],
      "stateMutability": "nonpayable",
      "type": "function"
    },
    {
      "inputs": [
        {
          "internalType": "uint256",
          "name": "deviation",
          "type": "uint256"
        }
      ],
      "name": "setMaxLatestPriceDeviation",
      "outputs": [],
      "stateMutability": "nonpayable",
      "type": "function"
    },
    {
      "inputs": [
        {
          "internalType": "uint256",
          "name": "deviation",
          "type": "uint256"
        }
      ],
      "name": "setMaxOraclePriceDeviation",
      "outputs": [],
      "stateMutability": "nonpayable",
      "type": "function"
    },
    {
      "inputs": [
        {
          "internalType": "address",
          "name": "_signer",
          "type": "address"
        }
      ],
      "name": "setSigner",
      "outputs": [],
      "stateMutability": "nonpayable",
      "type": "function"
    },
    {
      "inputs": [
        {
          "internalType": "address",
          "name": "tokenAddress",
          "type": "address"
        },
        {
          "internalType": "bool",
          "name": "enabled",
          "type": "bool"
        }
      ],
      "name": "setTradeToken",
      "outputs": [],
      "stateMutability": "nonpayable",
      "type": "function"
    },
    {
      "inputs": [
        {
          "internalType": "address",
          "name": "_USDC",
          "type": "address"
        }
      ],
      "name": "setUSDC",
      "outputs": [],
      "stateMutability": "nonpayable",
      "type": "function"
    },
    {
      "inputs": [
        {
          "internalType": "address",
          "name": "_USDT",
          "type": "address"
        }
      ],
      "name": "setUSDT",
      "outputs": [],
      "stateMutability": "nonpayable",
      "type": "function"
    },
    {
      "inputs": [],
      "name": "signer",
      "outputs": [
        {
          "internalType": "address",
          "name": "",
          "type": "address"
        }
      ],
      "stateMutability": "view",
      "type": "function"
    },
    {
      "inputs": [
        {
          "internalType": "address",
          "name": "",
          "type": "address"
        }
      ],
      "name": "tradeTokens",
      "outputs": [
        {
          "internalType": "bool",
          "name": "",
          "type": "bool"
        }
      ],
      "stateMutability": "view",
      "type": "function"
    },
    {
      "inputs": [
        {
          "internalType": "address",
          "name": "newOwner",
          "type": "address"
        }
      ],
      "name": "transferOwnership",
      "outputs": [],
      "stateMutability": "nonpayable",
      "type": "function"
    }
  ],
  "bytecode": "0x60808060405234601f57603260085560c8600955612b1d90816100248239f35b5f80fdfe60806040526004361015610011575f80fd5b5f3560e01c80630e3063af1461167a57806311c57e2e146115ce5780631203117f146115a8578063138b75981461158b578063162eefb51461150d578063179af607146114f0578063238ac933146114ca57806325a2b41a1461148b578063260373ae1461146e57806334463a68146114515780633ae034031461142b5780633c68f689146113945780633d64d789146113555780634038e4531461131657806344337ea11461122657806350c1b923146111e757806351c2eeb5146111aa578063537df3b6146110e257806360c42688146110c857806367e15f1b1461108b5780636a42dcf01461106e5780636c19e7831461102f578063709b90a814610fd5578063715018a614610f3e578063717c063814610f1857806375f2c9a414610efb57806389a3027114610ed55780638da5cb5b14610e90578063961bdfbf14610e7657806398ae4b4914610e1c5780639ca14bb714610dfb5780639d7a6ba414610dde578063a407db2314610db8578063a97f982414610a24578063b3e089a2146109e5578063b4e5ffab146109c4578063c50d52101461086d578063c54e44eb14610847578063c85301211461080a578063e24f2adb146107ed578063e53f002e146107cc578063e63ea408146106a1578063e75722301461067b578063ed72d07f1461063a578063f2fde38b1461060f578063f94853f814610563578063fe575a87146105265763ff68c98a14610229575f80fd5b346104b75760c03660031901126104b757610242611eb5565b61024a611e89565b6044356064359260a43567ffffffffffffffff81116104b757610271903690600401611ecb565b6001600160a01b036012939293541633036104e2576001600160a01b03821695865f5260116020526102aa60ff60405f20541615611ef9565b6102b2612288565b91670de0b6b3a76400008602868104670de0b6b3a764000014871517156104ce576102f3916102e4856102ee93612104565b96608435856125e0565b61205b565b6102fc816122d7565b926103088415156120a6565b6402540be40085028581046402540be40014861517156104ce578461032c91612104565b9561033b600154881015611f44565b610349600254881115611f8f565b602460206001600160a01b0360035416604051928380926370a0823160e01b82523060048301525afa9081156104c3575f9161046b575b50917f937b79465a35358c2ce08d16690f890791030847dfa46901e5a038b99e4d12ff987fe20a4cd1eae74b8e20ee62beb1d2d5f3939091eac36b644a3140fc7fc89f17e389936103d661043d96861115612010565b6001600160a01b038316976103f8826001600160a01b0360055416338c612793565b604080518781526001600160a01b0395909516602086015284018a9052606084018b9052608084015260a0830152339160c090a26001600160a01b03600354166127f4565b600755604080515f815260208101959095528401526060830152608082015260a090a2602060405160018152f35b9290506020833d6020116104bb575b8161048760209383611fda565b810103126104b75791517f937b79465a35358c2ce08d16690f890791030847dfa46901e5a038b99e4d12ff610380565b5f80fd5b3d915061047a565b6040513d5f823e3d90fd5b634e487b7160e01b5f52601160045260245ffd5b606460405162461bcd60e51b815260206004820152601160248201527f7065726d697373696f6e2064656e6965640000000000000000000000000000006044820152fd5b346104b75760203660031901126104b7576001600160a01b03610547611eb5565b165f526011602052602060ff60405f2054166040519015158152f35b346104b75760203660031901126104b75760043561057f612849565b80156105b9577f6da9b5c0b274236b1aa0a633b646ab28ed3c19c54f91542c4852917558cb06ba60206001549280600155604051908152a2005b608460405162461bcd60e51b815260206004820152602960248201527f4d696e696d756d2062757920616d6f756e74206d75737420626520677265617460448201526806572207468616e20360bc1b6064820152fd5b346104b75760203660031901126104b75761063861062b611eb5565b610633612849565b612525565b005b346104b75760203660031901126104b7576001600160a01b0361065b611eb5565b165f52600d60205260206001600160a01b0360405f205416604051908152f35b346104b75760203660031901126104b75760206106996004356122d7565b604051908152f35b346104b75760603660031901126104b7576106ba611eb5565b6106c2611e89565b6001600160a01b03604435926106d6612849565b16916040516370a0823160e01b8152306004820152602081602481875afa80156104c35782915f91610797575b50106107535781610736827ff24ef89f38eadc1bde50701ad6e4d6d11a2dc24f7cf834a486991f388332850494866127f4565b604080516001600160a01b039290921682526020820192909252a2005b606460405162461bcd60e51b815260206004820152600c60248201527f616d6f756e74206572726f7200000000000000000000000000000000000000006044820152fd5b9150506020813d6020116107c4575b816107b360209383611fda565b810103126104b75781905185610703565b3d91506107a6565b346104b75760203660031901126104b7576107e5612849565b600435600755005b346104b7575f3660031901126104b7576020600e54604051908152f35b346104b75760203660031901126104b7576001600160a01b0361082b611eb5565b165f52600b602052602060ff60405f2054166040519015158152f35b346104b7575f3660031901126104b75760206001600160a01b0360165416604051908152f35b346104b75760403660031901126104b757600435610889611e89565b90610892612849565b6001600160a01b03821691825f52601160205260ff60405f205416610980576108bf600154831015611f44565b6108cd600254831115611f8f565b6001600160a01b03600354166040516370a0823160e01b8152306004820152602081602481855afa9081156104c3575f91610948575b5083602093819361093a61093f947f74ebc01d304ee2020e987f00ff465e30fb250f36c9e46eb8470759b08ce895db981115612010565b6127f4565b604051908152a2005b939190506020843d602011610978575b8161096560209383611fda565b810103126104b757925190929083610903565b3d9150610958565b606460405162461bcd60e51b815260206004820152601c60248201527f426c61636b6c6973743a20746f20697320626c61636b6c6973746564000000006044820152fd5b346104b75760203660031901126104b7576109dd612849565b600435600855005b346104b75760203660031901126104b7576001600160a01b03610a06611eb5565b610a0e612849565b166001600160a01b031960145416176014555f80f35b346104b7576101203660031901126104b757610a3e611eb5565b610a46611e89565b90610a4f611e9f565b906064356001600160a01b0381168091036104b7576084356001600160a01b0381168091036104b75760a435916001600160a01b0383168093036104b75760c435936001600160a01b0385168095036104b75761010435956001600160a01b0387168097036104b7577ff0c57e16840df040f15088dc2f81fe391c3923bec73e23a9662efc9c229c6a00549160ff8360401c16159867ffffffffffffffff841680159081610db0575b6001149081610da6575b159081610d9d575b50610d755767ffffffffffffffff1984166001177ff0c57e16840df040f15088dc2f81fe391c3923bec73e23a9662efc9c229c6a00556001600160a01b0393849283918c610d36575b50610b5c612915565b610b64612915565b610b6d33612525565b166001600160a01b03196003541617600355166001600160a01b0319600454161760045516806001600160a01b03196016541617601655816001600160a01b031960145416176014555f52600b60205260405f20600160ff198254161790555f52600b60205260405f20600160ff198254161790556001600160a01b03195f5416175f556001600160a01b031960155416176015556001600160a01b03196013541617601355662386f26fc1000060015569010f0cf064dd5920000060025564e8d4a51000600e556064600f55603260105564486b1dea80600655336001600160a01b03196005541617600555335f52600c60205260405f20600160ff19825416179055738626f6940e2eb28930efb4cef49b2d1f2c9c11995f52600c60205260405f20600160ff1982541617905560e4356007556001600160a01b0319600a541617600a55610cb957005b68ff0000000000000000197ff0c57e16840df040f15088dc2f81fe391c3923bec73e23a9662efc9c229c6a0054167ff0c57e16840df040f15088dc2f81fe391c3923bec73e23a9662efc9c229c6a00557fc7f505b2f371ae2175ee4913f4499e1f2633a7b5936321eed1cdaeb6115181d2602060405160018152a1005b68ffffffffffffffffff191668010000000000000001177ff0c57e16840df040f15088dc2f81fe391c3923bec73e23a9662efc9c229c6a00558c610b53565b7ff92ee8a9000000000000000000000000000000000000000000000000000000005f5260045ffd5b9050158b610b0a565b303b159150610b02565b8b9150610af8565b346104b7575f3660031901126104b75760206001600160a01b0360035416604051908152f35b346104b7575f3660031901126104b7576020600f54604051908152f35b346104b75760203660031901126104b757610e14612849565b600435600955005b346104b75760203660031901126104b7577f9be4c2a4a6ec357a97e3dd84470216bd98df5049471fc0f84e07514619c203956020600435610e5b612849565b610e6961271082111561223d565b80601055604051908152a1005b346104b7575f3660031901126104b7576020610699612288565b346104b7575f3660031901126104b75760206001600160a01b037f9016d09d72d40fdae2fd8ceac6b6234c7706214fd39c1cd1e609a0528c1993005416604051908152f35b346104b7575f3660031901126104b75760206001600160a01b0360145416604051908152f35b346104b7575f3660031901126104b7576020601054604051908152f35b346104b7575f3660031901126104b75760206001600160a01b0360045416604051908152f35b346104b7575f3660031901126104b757610f56612849565b5f6001600160a01b037f9016d09d72d40fdae2fd8ceac6b6234c7706214fd39c1cd1e609a0528c199300546001600160a01b031981167f9016d09d72d40fdae2fd8ceac6b6234c7706214fd39c1cd1e609a0528c19930055167f8be0079c531659141344cd1fd0a4f28419497f9722a3daafe3b4186f6b6457e08280a3005b346104b75760203660031901126104b7577f877eb8e50ade0ca8e7577f085d16acbccbae2aa624994be43415b6a66e565b026020600435611014612849565b61102261271082111561223d565b80600f55604051908152a1005b346104b75760203660031901126104b7576001600160a01b03611050611eb5565b611058612849565b166001600160a01b0319600a541617600a555f80f35b346104b7575f3660031901126104b7576020600154604051908152f35b346104b75760203660031901126104b7576001600160a01b036110ac611eb5565b6110b4612849565b166001600160a01b03195f5416175f555f80f35b346104b7575f3660031901126104b75760206106996121b9565b346104b75760203660031901126104b7576001600160a01b03611103611eb5565b61110b612849565b16611117811515612122565b805f52601160205260ff60405f2054161561116657805f52601160205260405f2060ff1981541690557f2b6bf71b58b3583add364b3d9060ebf8019650f65f5be35f5464b9cb3e4ba2d45f80a2005b606460405162461bcd60e51b815260206004820152601f60248201527f426c61636b6c697374546f6b656e3a204e6f7420626c61636b6c6973746564006044820152fd5b346104b75760203660031901126104b7576001600160a01b036111cb611eb5565b165f52600c602052602060ff60405f2054166040519015158152f35b346104b75760203660031901126104b7576001600160a01b03611208611eb5565b611210612849565b166001600160a01b031960165416176016555f80f35b346104b75760203660031901126104b7576001600160a01b03611247611eb5565b61124f612849565b1661125b811515612122565b805f52601160205260ff60405f2054166112ac57805f52601160205260405f20600160ff198254161790557ff9b68063b051b82957fa193585681240904fed808db8b30fc5a2d2202c6ed6275f80a2005b608460405162461bcd60e51b815260206004820152602360248201527f426c61636b6c697374546f6b656e3a20416c726561647920626c61636b6c697360448201527f74656400000000000000000000000000000000000000000000000000000000006064820152fd5b346104b75760203660031901126104b7576001600160a01b03611337611eb5565b61133f612849565b166001600160a01b031960135416176013555f80f35b346104b75760203660031901126104b7576001600160a01b03611376611eb5565b61137e612849565b166001600160a01b031960125416176012555f80f35b346104b75760203660031901126104b7576004356113b0612849565b80156113e7576020817fedc0c63da22d77f24aab5cf375dc00652205b8ae2aa6aec9b29c62446cb8b43392600e55604051908152a1005b606460405162461bcd60e51b815260206004820152601c60248201527f5072696365206d7573742062652067726561746572207468616e2030000000006044820152fd5b346104b7575f3660031901126104b75760206001600160a01b0360055416604051908152f35b346104b7575f3660031901126104b7576020600754604051908152f35b346104b7575f3660031901126104b7576020600254604051908152f35b346104b75760203660031901126104b7576001600160a01b036114ac611eb5565b6114b4612849565b166001600160a01b031960155416176015555f80f35b346104b7575f3660031901126104b75760206001600160a01b03600a5416604051908152f35b346104b7575f3660031901126104b7576020600854604051908152f35b346104b75760403660031901126104b757611526611eb5565b602435908115158092036104b75760206001600160a01b037f1996274124fd3418649ced8b48aa3f3076c5eef885125806d703a482989e51eb92611568612849565b1692835f52600b825260405f2060ff1981541660ff8316179055604051908152a2005b346104b7575f3660031901126104b7576020600954604051908152f35b346104b7575f3660031901126104b75760206001600160a01b0360125416604051908152f35b346104b75760203660031901126104b7576004356115ea612849565b8015611624577f48666edaf6cb2437ec76d3dfb3d1736f9912fa847528f73de7c0fbc216df307860206002549280600255604051908152a2005b608460405162461bcd60e51b815260206004820152602960248201527f4d6178696d756d2062757920616d6f756e74206d75737420626520677265617460448201526806572207468616e20360bc1b6064820152fd5b346104b75760c03660031901126104b757600435611696611e89565b61169e611e9f565b916064359260a4359167ffffffffffffffff83116104b7576116cc6001600160a01b03933690600401611ecb565b939092335f5260116020526116e860ff60405f20541615611ef9565b168015159384611e21575b611701600154841015611f44565b61170f600254841115611f8f565b602460206001600160a01b0360035416604051928380926370a0823160e01b82523060048301525afa80156104c3575f90611ded575b6117529150841115612010565b6001600160a01b03861693845f52600b60205260ff60405f20541615611da957611783916102ee916084358a6125e0565b61178c866122d7565b936117988515156120a6565b6402540be4006117a886856120f1565b04958615611d65576118198787866040516117c4606082611fda565b602381527f616d6f756e743d25732c206750726963653d25732c2075736474416d6f756e7460208201527f3a257300000000000000000000000000000000000000000000000000000000006040820152612700565b6014546001600160a01b03168503611c4b576118336121b9565b8015611c0757670de0b6b3a7640000880290888204670de0b6b3a7640000036104ce57611881817fe20a4cd1eae74b8e20ee62beb1d2d5f3939091eac36b644a3140fc7fc89f17e393612104565b90611899826001600160a01b0360055416338b612793565b604080518881526001600160a01b039590951660208601528401899052606084018a9052608084015260a0830152339160c090a25b6118e483336001600160a01b03600354166127f4565b80611bea575b611b9c575b50335f52600d6020526001600160a01b0360405f205416946305f5e10061271061192761191e600f54866120f1565b600e54906120f1565b040486151580611b26575b611aba575b50855f52600d6020526001600160a01b0360405f2054166305f5e10061271061196561191e601054876120f1565b040481151580611a44575b6119d8575b5050335f52600c60205260405f20600160ff1982541617905560075560405194855260208501526040840152606083015260808201527f937b79465a35358c2ce08d16690f890791030847dfa46901e5a038b99e4d12ff339160a08180030190a2005b6119ee81836001600160a01b03600454166127f4565b601054600e5491604051936002855260208501526040840152846060840152608083015260a08201527f8aaee62c43541bf39b4bbf418da51ad0c0b13a92159bc917dd41aafca9f2f2e360c03392a28680611975565b50602460206001600160a01b0360045416604051928380926370a0823160e01b82523060048301525afa80156104c35782915f91611a85575b501015611970565b9150506020813d602011611ab2575b81611aa160209383611fda565b810103126104b7578190518a611a7d565b3d9150611a94565b611ad081886001600160a01b03600454166127f4565b600f54600e549060405192600184528960208501526040840152846060840152608083015260a08201527f8aaee62c43541bf39b4bbf418da51ad0c0b13a92159bc917dd41aafca9f2f2e360c03392a286611937565b50602460206001600160a01b0360045416604051928380926370a0823160e01b82523060048301525afa80156104c35782915f91611b67575b501015611932565b9150506020813d602011611b94575b81611b8360209383611fda565b810103126104b75781905189611b5f565b3d9150611b76565b335f52600d60205260405f20816001600160a01b03198254161790556040519081527faedcbe757d0af5671d08686487d4ddf9c86e82687daf8fd291edfe54b7e9707c60203392a2856118ef565b50335f52600d6020526001600160a01b0360405f205416156118ea565b606460405162461bcd60e51b815260206004820152601260248201527f496e76616c6964207573646320707269636500000000000000000000000000006044820152fd5b6016546001600160a01b03168503611d4857611c65612288565b8015611d0457670de0b6b3a7640000880290888204670de0b6b3a7640000036104ce57611cb3817fe20a4cd1eae74b8e20ee62beb1d2d5f3939091eac36b644a3140fc7fc89f17e393612104565b90611ccb826001600160a01b0360055416338b612793565b604080518881526001600160a01b039590951660208601528401899052606084018a9052608084015260a0830152339160c090a26118ce565b606460405162461bcd60e51b815260206004820152601260248201527f496e76616c6964207573647420707269636500000000000000000000000000006044820152fd5b50611d60866001600160a01b03600554163387612793565b6118ce565b606460405162461bcd60e51b815260206004820152601160248201527f496e76616c696420757364416d6f756e740000000000000000000000000000006044820152fd5b606460405162461bcd60e51b815260206004820152601260248201527f496e76616c6964207472616465546f6b656e00000000000000000000000000006044820152fd5b506020813d602011611e19575b81611e0760209383611fda565b810103126104b7576117529051611745565b3d9150611dfa565b3382141580611e73575b6116f357606460405162461bcd60e51b815260206004820152600f60248201527f496e76616c696420696e766974657200000000000000000000000000000000006044820152fd5b50815f52600c60205260ff60405f205416611e2b565b602435906001600160a01b03821682036104b757565b604435906001600160a01b03821682036104b757565b600435906001600160a01b03821682036104b757565b9181601f840112156104b75782359167ffffffffffffffff83116104b757602083818601950101116104b757565b15611f0057565b606460405162461bcd60e51b815260206004820152601e60248201527f426c61636b6c6973743a207573657220697320626c61636b6c697374656400006044820152fd5b15611f4b57565b606460405162461bcd60e51b815260206004820152601460248201527f616d6f756e74206c657373207468616e206d696e0000000000000000000000006044820152fd5b15611f9657565b606460405162461bcd60e51b815260206004820152601460248201527f616d6f756e74206d6f7265207468616e206d61780000000000000000000000006044820152fd5b90601f8019910116810190811067ffffffffffffffff821117611ffc57604052565b634e487b7160e01b5f52604160045260245ffd5b1561201757565b606460405162461bcd60e51b815260206004820152601560248201527f616d6f756e74206578636565642062616c616e636500000000000000000000006044820152fd5b1561206257565b606460405162461bcd60e51b815260206004820152601160248201527f496e76616c6964207369676e61747572650000000000000000000000000000006044820152fd5b156120ad57565b606460405162461bcd60e51b815260206004820152601260248201527f496e76616c696420676f6c6420707269636500000000000000000000000000006044820152fd5b818102929181159184041417156104ce57565b811561210e570490565b634e487b7160e01b5f52601260045260245ffd5b1561212957565b606460405162461bcd60e51b815260206004820152601c60248201527f426c61636b6c697374546f6b656e3a205a65726f2061646472657373000000006044820152fd5b519069ffffffffffffffffffff821682036104b757565b908160a09103126104b7576121988161216d565b916020820151916040810151916121b660806060840151930161216d565b90565b600460a06001600160a01b036013541660405192838092633fabe5a360e21b82525afa9081156104c3575f91612209575b506402540be4008102908082046402540be40014901517156104ce5790565b61222b915060a03d60a011612236575b6122238183611fda565b810190612184565b50505090505f6121ea565b503d612219565b1561224457565b606460405162461bcd60e51b815260206004820152601760248201527f526174652063616e6e6f742065786365656420313030250000000000000000006044820152fd5b600460a06001600160a01b036015541660405192838092633fabe5a360e21b82525afa9081156104c3575f9161220957506402540be4008102908082046402540be40014901517156104ce5790565b600460a06001600160a01b035f541660405192838092633fabe5a360e21b82525afa9081156104c3575f91612501575b506402540be4008102908082056402540be40014901517156104ce578082108015906124da575b1561247057600754808310801590612449575b156123df576123ae9183604051612359606082611fda565b603781527f6f6666636861696e58415550726963653d2573206f7261636c6558415550726960208201527f63653d2573206c617465737458415550726963653d25730000000000000000006040820152612700565b6402540be4008102908082046402540be40014901517156104ce576123db6305f5e1009160065490612104565b0490565b608460405162461bcd60e51b815260206004820152603260248201527f4f6666636861696e2070726963652064657669617465732066726f6d206c617460448201527f65737420707269636520746f6f206d75636800000000000000000000000000006064820152fd5b506009546127100361271081116104ce5761246761271091836120f1565b04831015612341565b608460405162461bcd60e51b815260206004820152603260248201527f4f6666636861696e2070726963652064657669617465732066726f6d206f726160448201527f636c6520707269636520746f6f206d75636800000000000000000000000000006064820152fd5b506008546127100361271081116104ce576124f861271091836120f1565b0482101561232e565b61251a915060a03d60a011612236576122238183611fda565b50505090505f612307565b6001600160a01b031680156125b4576001600160a01b037f9016d09d72d40fdae2fd8ceac6b6234c7706214fd39c1cd1e609a0528c19930054826001600160a01b03198216177f9016d09d72d40fdae2fd8ceac6b6234c7706214fd39c1cd1e609a0528c19930055167f8be0079c531659141344cd1fd0a4f28419497f9722a3daafe3b4186f6b6457e05f80a3565b7f1e4fbdf7000000000000000000000000000000000000000000000000000000005f525f60045260245ffd5b92909192824210156126bc57600a5492604051906020820192835260408201526bffffffffffffffffffffffff198460601b16606082015260548152612627607482611fda565b5190207f19457468657265756d205369676e6564204d6573736167653a0a3332000000005f52601c52603c5f209167ffffffffffffffff8211611ffc576040519361267c601f8401601f191660200186611fda565b82855236838201116104b757846001600160a01b03945f60208688976126ac96836126b59c01378401015261296c565b909591956129a6565b1691161490565b606460405162461bcd60e51b815260206004820152601160248201527f5369676e617475726520657870697265640000000000000000000000000000006044820152fd5b909161278060c45f959460208796604051958693838501987fa7a87853000000000000000000000000000000000000000000000000000000008a526080602487015280519485918260a4890152018787015e89868587010152604485015260648401526084830152601f801991011681010301601f198101835282611fda565b51906a636f6e736f6c652e6c6f675afa50565b9091926001600160a01b036127f29481604051957f23b872dd0000000000000000000000000000000000000000000000000000000060208801521660248601521660448401526064830152606482526127ed608483611fda565b6128a8565b565b6040517fa9059cbb0000000000000000000000000000000000000000000000000000000060208201526001600160a01b039290921660248301526044808301939093529181526127f2916127ed606483611fda565b6001600160a01b037f9016d09d72d40fdae2fd8ceac6b6234c7706214fd39c1cd1e609a0528c1993005416330361287c57565b7f118cdaa7000000000000000000000000000000000000000000000000000000005f523360045260245ffd5b905f602091828151910182855af1156104c3575f513d61290c57506001600160a01b0381163b155b6128d75750565b6001600160a01b03907f5274afe7000000000000000000000000000000000000000000000000000000005f521660045260245ffd5b600114156128d0565b60ff7ff0c57e16840df040f15088dc2f81fe391c3923bec73e23a9662efc9c229c6a005460401c161561294457565b7fd7e6bcf8000000000000000000000000000000000000000000000000000000005f5260045ffd5b815191906041830361299c576129959250602082015190606060408401519301515f1a90612a65565b9192909190565b50505f9160029190565b6004811015612a5157806129b8575050565b600181036129e8577ff645eedf000000000000000000000000000000000000000000000000000000005f5260045ffd5b60028103612a1c57507ffce698f7000000000000000000000000000000000000000000000000000000005f5260045260245ffd5b600314612a265750565b7fd78bce0c000000000000000000000000000000000000000000000000000000005f5260045260245ffd5b634e487b7160e01b5f52602160045260245ffd5b91907f7fffffffffffffffffffffffffffffff5d576e7357a4501ddfe92f46681b20a08411612adc579160209360809260ff5f9560405194855216868401526040830152606082015282805260015afa156104c3575f516001600160a01b03811615612ad257905f905f90565b505f906001905f90565b5050505f916003919056fea2646970667358221220ad6fa190c703d6ac806fbec4653e8745a0e83f23273b992f46b2323de3d1c84764736f6c634300081e0033",
  "linkReferences": {},
  "deployedLinkReferences": {},
  "immutableReferences": {},
  "inputSourceName": "project/contracts/ghk-buy/GHKBuyPool.sol",
  "buildInfoId": "solc-0_8_30-6be4495cef73dbfa739318ea28b69a37ffc2abe0"
}