{
  "_format": "hh3-artifact-1",
  "contractName": "GHKBuyPool",
  "sourceName": "contracts/ghk-buy/GHKBuyPool.sol",
  "abi": [
    {
      "inputs": [],
      "name": "ECDSAInvalidSignature",
      "type": "error"
    },
    {
      "inputs": [
        {
          "internalType": "uint256",
          "name": "length",
          "type": "uint256"
        }
      ],
      "name": "ECDSAInvalidSignatureLength",
      "type": "error"
    },
    {
      "inputs": [
        {
          "internalType": "bytes32",
          "name": "s",
          "type": "bytes32"
        }
      ],
      "name": "ECDSAInvalidSignatureS",
      "type": "error"
    },
    {
      "inputs": [],
      "name": "InvalidInitialization",
      "type": "error"
    },
    {
      "inputs": [],
      "name": "NotInitializing",
      "type": "error"
    },
    {
      "inputs": [
        {
          "internalType": "address",
          "name": "owner",
          "type": "address"
        }
      ],
      "name": "OwnableInvalidOwner",
      "type": "error"
    },
    {
      "inputs": [
        {
          "internalType": "address",
          "name": "account",
          "type": "address"
        }
      ],
      "name": "OwnableUnauthorizedAccount",
      "type": "error"
    },
    {
      "inputs": [
        {
          "internalType": "address",
          "name": "token",
          "type": "address"
        }
      ],
      "name": "SafeERC20FailedOperation",
      "type": "error"
    },
    {
      "anonymous": false,
      "inputs": [
        {
          "indexed": true,
          "internalType": "address",
          "name": "account",
          "type": "address"
        }
      ],
      "name": "AddedToBlacklist",
      "type": "event"
    },
    {
      "anonymous": false,
      "inputs": [
        {
          "indexed": true,
          "internalType": "address",
          "name": "to",
          "type": "address"
        },
        {
          "indexed": false,
          "internalType": "address",
          "name": "inviter",
          "type": "address"
        }
      ],
      "name": "BindInviter",
      "type": "event"
    },
    {
      "anonymous": false,
      "inputs": [
        {
          "indexed": true,
          "internalType": "address",
          "name": "to",
          "type": "address"
        },
        {
          "indexed": false,
          "internalType": "address",
          "name": "inviter",
          "type": "address"
        },
        {
          "indexed": false,
          "internalType": "uint256",
          "name": "ghkValue",
          "type": "uint256"
        },
        {
          "indexed": false,
          "internalType": "address",
          "name": "tradeToken",
          "type": "address"
        },
        {
          "indexed": false,
          "internalType": "uint256",
          "name": "price",
          "type": "uint256"
        },
        {
          "indexed": false,
          "internalType": "uint256",
          "name": "usdValue",
          "type": "uint256"
        }
      ],
      "name": "BuyEvent",
      "type": "event"
    },
    {
      "anonymous": false,
      "inputs": [
        {
          "indexed": true,
          "internalType": "uint256",
          "name": "oldVal",
          "type": "uint256"
        },
        {
          "indexed": false,
          "internalType": "uint256",
          "name": "newVal",
          "type": "uint256"
        }
      ],
      "name": "BuyGHKAmountMaxUpdated",
      "type": "event"
    },
    {
      "anonymous": false,
      "inputs": [
        {
          "indexed": true,
          "internalType": "uint256",
          "name": "oldVal",
          "type": "uint256"
        },
        {
          "indexed": false,
          "internalType": "uint256",
          "name": "newVal",
          "type": "uint256"
        }
      ],
      "name": "BuyGHKAmountMinUpdated",
      "type": "event"
    },
    {
      "anonymous": false,
      "inputs": [
        {
          "indexed": true,
          "internalType": "uint256",
          "name": "oldVal",
          "type": "uint256"
        },
        {
          "indexed": false,
          "internalType": "uint256",
          "name": "newVal",
          "type": "uint256"
        }
      ],
      "name": "BuyGHKFeePercentageUpdated",
      "type": "event"
    },
    {
      "anonymous": false,
      "inputs": [
        {
          "indexed": true,
          "internalType": "address",
          "name": "to",
          "type": "address"
        },
        {
          "indexed": false,
          "internalType": "uint256",
          "name": "ghkValue",
          "type": "uint256"
        }
      ],
      "name": "BuyOffline",
      "type": "event"
    },
    {
      "anonymous": false,
      "inputs": [
        {
          "indexed": true,
          "internalType": "address",
          "name": "coin",
          "type": "address"
        },
        {
          "indexed": false,
          "internalType": "address",
          "name": "to",
          "type": "address"
        },
        {
          "indexed": false,
          "internalType": "uint256",
          "name": "amount",
          "type": "uint256"
        }
      ],
      "name": "EmergencyWithdraw",
      "type": "event"
    },
    {
      "anonymous": false,
      "inputs": [
        {
          "indexed": false,
          "internalType": "uint256",
          "name": "newPrice",
          "type": "uint256"
        }
      ],
      "name": "GHK_GHKE_PriceUpdated",
      "type": "event"
    },
    {
      "anonymous": false,
      "inputs": [
        {
          "indexed": false,
          "internalType": "uint64",
          "name": "version",
          "type": "uint64"
        }
      ],
      "name": "Initialized",
      "type": "event"
    },
    {
      "anonymous": false,
      "inputs": [
        {
          "indexed": true,
          "internalType": "address",
          "name": "user",
          "type": "address"
        },
        {
          "indexed": false,
          "internalType": "uint256",
          "name": "level",
          "type": "uint256"
        },
        {
          "indexed": false,
          "internalType": "address",
          "name": "inviter",
          "type": "address"
        },
        {
          "indexed": false,
          "internalType": "uint256",
          "name": "inviterReward",
          "type": "uint256"
        },
        {
          "indexed": false,
          "internalType": "uint256",
          "name": "ghkAmount",
          "type": "uint256"
        },
        {
          "indexed": false,
          "internalType": "uint256",
          "name": "rate",
          "type": "uint256"
        },
        {
          "indexed": false,
          "internalType": "uint256",
          "name": "price",
          "type": "uint256"
        }
      ],
      "name": "InviterReward",
      "type": "event"
    },
    {
      "anonymous": false,
      "inputs": [
        {
          "indexed": false,
          "internalType": "uint256",
          "name": "rate",
          "type": "uint256"
        }
      ],
      "name": "InviterRewardLevel1Updated",
      "type": "event"
    },
    {
      "anonymous": false,
      "inputs": [
        {
          "indexed": false,
          "internalType": "uint256",
          "name": "rate",
          "type": "uint256"
        }
      ],
      "name": "InviterRewardLevel2Updated",
      "type": "event"
    },
    {
      "anonymous": false,
      "inputs": [
        {
          "indexed": true,
          "internalType": "address",
          "name": "previousOwner",
          "type": "address"
        },
        {
          "indexed": true,
          "internalType": "address",
          "name": "newOwner",
          "type": "address"
        }
      ],
      "name": "OwnershipTransferred",
      "type": "event"
    },
    {
      "anonymous": false,
      "inputs": [
        {
          "indexed": true,
          "internalType": "address",
          "name": "account",
          "type": "address"
        }
      ],
      "name": "RemovedFromBlacklist",
      "type": "event"
    },
    {
      "anonymous": false,
      "inputs": [
        {
          "indexed": true,
          "internalType": "address",
          "name": "to",
          "type": "address"
        },
        {
          "indexed": false,
          "internalType": "uint256",
          "name": "ghkValue",
          "type": "uint256"
        },
        {
          "indexed": false,
          "internalType": "address",
          "name": "tradeToken",
          "type": "address"
        },
        {
          "indexed": false,
          "internalType": "uint256",
          "name": "gPrice",
          "type": "uint256"
        },
        {
          "indexed": false,
          "internalType": "uint256",
          "name": "usdValue",
          "type": "uint256"
        },
        {
          "indexed": false,
          "internalType": "uint256",
          "name": "tokenPrice",
          "type": "uint256"
        },
        {
          "indexed": false,
          "internalType": "uint256",
          "name": "tokenValue",
          "type": "uint256"
        }
      ],
      "name": "TokenBuyEvent",
      "type": "event"
    },
    {
      "anonymous": false,
      "inputs": [
        {
          "indexed": true,
          "internalType": "address",
          "name": "token",
          "type": "address"
        },
        {
          "indexed": false,
          "internalType": "bool",
          "name": "enabled",
          "type": "bool"
        }
      ],
      "name": "TradeTokenUpdated",
      "type": "event"
    },
    {
      "anonymous": false,
      "inputs": [
        {
          "indexed": false,
          "internalType": "address",
          "name": "oldTo",
          "type": "address"
        },
        {
          "indexed": false,
          "internalType": "address",
          "name": "newTo",
          "type": "address"
        }
      ],
      "name": "USDToAddressUpdated",
      "type": "event"
    },
    {
      "inputs": [],
      "name": "BUY_GHK_AMOUNT_MAX",
      "outputs": [
        {
          "internalType": "uint256",
          "name": "",
          "type": "uint256"
        }
      ],
      "stateMutability": "view",
      "type": "function"
    },
    {
      "inputs": [],
      "name": "BUY_GHK_AMOUNT_MIN",
      "outputs": [
        {
          "internalType": "uint256",
          "name": "",
          "type": "uint256"
        }
      ],
      "stateMutability": "view",
      "type": "function"
    },
    {
      "inputs": [],
      "name": "BUY_GHK_FEE_PERCENTAGE",
      "outputs": [
        {
          "internalType": "uint256",
          "name": "",
          "type": "uint256"
        }
      ],
      "stateMutability": "view",
      "type": "function"
    },
    {
      "inputs": [],
      "name": "GHK",
      "outputs": [
        {
          "internalType": "contract IERC20",
          "name": "",
          "type": "address"
        }
      ],
      "stateMutability": "view",
      "type": "function"
    },
    {
      "inputs": [],
      "name": "GHKE",
      "outputs": [
        {
          "internalType": "contract IERC20",
          "name": "",
          "type": "address"
        }
      ],
      "stateMutability": "view",
      "type": "function"
    },
    {
      "inputs": [],
      "name": "GHKE_BUY_POOL",
      "outputs": [
        {
          "internalType": "address",
          "name": "",
          "type": "address"
        }
      ],
      "stateMutability": "view",
      "type": "function"
    },
    {
      "inputs": [],
      "name": "GHK_GHKE_PRICE",
      "outputs": [
        {
          "internalType": "uint256",
          "name": "",
          "type": "uint256"
        }
      ],
      "stateMutability": "view",
      "type": "function"
    },
    {
      "inputs": [],
      "name": "INVITER_REWARD_LEVEL_1",
      "outputs": [
        {
          "internalType": "uint256",
          "name": "",
          "type": "uint256"
        }
      ],
      "stateMutability": "view",
      "type": "function"
    },
    {
      "inputs": [],
      "name": "INVITER_REWARD_LEVEL_2",
      "outputs": [
        {
          "internalType": "uint256",
          "name": "",
          "type": "uint256"
        }
      ],
      "stateMutability": "view",
      "type": "function"
    },
    {
      "inputs": [],
      "name": "USDC",
      "outputs": [
        {
          "internalType": "address",
          "name": "",
          "type": "address"
        }
      ],
      "stateMutability": "view",
      "type": "function"
    },
    {
      "inputs": [],
      "name": "USDT",
      "outputs": [
        {
          "internalType": "address",
          "name": "",
          "type": "address"
        }
      ],
      "stateMutability": "view",
      "type": "function"
    },
    {
      "inputs": [],
      "name": "USD_TO_ADDRESS",
      "outputs": [
        {
          "internalType": "address",
          "name": "",
          "type": "address"
        }
      ],
      "stateMutability": "view",
      "type": "function"
    },
    {
      "inputs": [
        {
          "internalType": "address",
          "name": "account",
          "type": "address"
        }
      ],
      "name": "addToBlacklist",
      "outputs": [],
      "stateMutability": "nonpayable",
      "type": "function"
    },
    {
      "inputs": [
        {
          "internalType": "uint256",
          "name": "amount",
          "type": "uint256"
        },
        {
          "internalType": "address",
          "name": "tradeToken",
          "type": "address"
        },
        {
          "internalType": "address",
          "name": "inviter",
          "type": "address"
        },
        {
          "internalType": "uint256",
          "name": "offchainXAUPrice",
          "type": "uint256"
        },
        {
          "internalType": "uint256",
          "name": "deadline",
          "type": "uint256"
        },
        {
          "internalType": "bytes",
          "name": "sig",
          "type": "bytes"
        }
      ],
      "name": "buy",
      "outputs": [],
      "stateMutability": "nonpayable",
      "type": "function"
    },
    {
      "inputs": [
        {
          "internalType": "uint256",
          "name": "amount",
          "type": "uint256"
        },
        {
          "internalType": "address",
          "name": "to",
          "type": "address"
        }
      ],
      "name": "buyOffline",
      "outputs": [],
      "stateMutability": "nonpayable",
      "type": "function"
    },
    {
      "inputs": [
        {
          "internalType": "address",
          "name": "user",
          "type": "address"
        },
        {
          "internalType": "address",
          "name": "coin",
          "type": "address"
        },
        {
          "internalType": "uint256",
          "name": "usdtAmount",
          "type": "uint256"
        },
        {
          "internalType": "uint256",
          "name": "offchainXAUPrice",
          "type": "uint256"
        },
        {
          "internalType": "uint256",
          "name": "deadline",
          "type": "uint256"
        },
        {
          "internalType": "bytes",
          "name": "sig",
          "type": "bytes"
        }
      ],
      "name": "buyTo",
      "outputs": [
        {
          "internalType": "bool",
          "name": "",
          "type": "bool"
        }
      ],
      "stateMutability": "nonpayable",
      "type": "function"
    },
    {
      "inputs": [
        {
          "internalType": "address",
          "name": "coin",
          "type": "address"
        },
        {
          "internalType": "address",
          "name": "to",
          "type": "address"
        },
        {
          "internalType": "uint256",
          "name": "amount",
          "type": "uint256"
        }
      ],
      "name": "emergencyWithdraw",
      "outputs": [],
      "stateMutability": "nonpayable",
      "type": "function"
    },
    {
      "inputs": [
        {
          "internalType": "uint256",
          "name": "offchainXAUPrice",
          "type": "uint256"
        }
      ],
      "name": "getPrice",
      "outputs": [
        {
          "internalType": "uint256",
          "name": "",
          "type": "uint256"
        }
      ],
      "stateMutability": "view",
      "type": "function"
    },
    {
      "inputs": [],
      "name": "getUsdcPrice",
      "outputs": [
        {
          "internalType": "uint256",
          "name": "",
          "type": "uint256"
        }
      ],
      "stateMutability": "view",
      "type": "function"
    },
    {
      "inputs": [],
      "name": "getUsdtPrice",
      "outputs": [
        {
          "internalType": "uint256",
          "name": "",
          "type": "uint256"
        }
      ],
      "stateMutability": "view",
      "type": "function"
    },
    {
      "inputs": [
        {
          "internalType": "address",
          "name": "_usdToAddress",
          "type": "address"
        },
        {
          "internalType": "address",
          "name": "_GHK",
          "type": "address"
        },
        {
          "internalType": "address",
          "name": "_GHKE",
          "type": "address"
        },
        {
          "internalType": "address",
          "name": "_USDT",
          "type": "address"
        },
        {
          "internalType": "address",
          "name": "_USDC",
          "type": "address"
        },
        {
          "internalType": "address",
          "name": "_dataFeedXAU",
          "type": "address"
        },
        {
          "internalType": "address",
          "name": "_dataFeedUSDT",
          "type": "address"
        },
        {
          "internalType": "address",
          "name": "_dataFeedUSDC",
          "type": "address"
        },
        {
          "internalType": "uint256",
          "name": "_initialXAUPrice",
          "type": "uint256"
        },
        {
          "internalType": "address",
          "name": "_signer",
          "type": "address"
        }
      ],
      "name": "initialize",
      "outputs": [],
      "stateMutability": "nonpayable",
      "type": "function"
    },
    {
      "inputs": [
        {
          "internalType": "address",
          "name": "",
          "type": "address"
        }
      ],
      "name": "inviterStatus",
      "outputs": [
        {
          "internalType": "bool",
          "name": "",
          "type": "bool"
        }
      ],
      "stateMutability": "view",
      "type": "function"
    },
    {
      "inputs": [
        {
          "internalType": "address",
          "name": "",
          "type": "address"
        }
      ],
      "name": "inviters",
      "outputs": [
        {
          "internalType": "address",
          "name": "",
          "type": "address"
        }
      ],
      "stateMutability": "view",
      "type": "function"
    },
    {
      "inputs": [
        {
          "internalType": "address",
          "name": "account",
          "type": "address"
        }
      ],
      "name": "isBlacklisted",
      "outputs": [
        {
          "internalType": "bool",
          "name": "",
          "type": "bool"
        }
      ],
      "stateMutability": "view",
      "type": "function"
    },
    {
      "inputs": [],
      "name": "latestXAUPrice",
      "outputs": [
        {
          "internalType": "uint256",
          "name": "",
          "type": "uint256"
        }
      ],
      "stateMutability": "view",
      "type": "function"
    },
    {
      "inputs": [],
      "name": "maxLatestPriceDeviation",
      "outputs": [
        {
          "internalType": "uint256",
          "name": "",
          "type": "uint256"
        }
      ],
      "stateMutability": "view",
      "type": "function"
    },
    {
      "inputs": [],
      "name": "maxOraclePriceDeviation",
      "outputs": [
        {
          "internalType": "uint256",
          "name": "",
          "type": "uint256"
        }
      ],
      "stateMutability": "view",
      "type": "function"
    },
    {
      "inputs": [],
      "name": "owner",
      "outputs": [
        {
          "internalType": "address",
          "name": "",
          "type": "address"
        }
      ],
      "stateMutability": "view",
      "type": "function"
    },
    {
      "inputs": [
        {
          "internalType": "address",
          "name": "account",
          "type": "address"
        }
      ],
      "name": "removeFromBlacklist",
      "outputs": [],
      "stateMutability": "nonpayable",
      "type": "function"
    },
    {
      "inputs": [],
      "name": "renounceOwnership",
      "outputs": [],
      "stateMutability": "nonpayable",
      "type": "function"
    },
    {
      "inputs": [
        {
          "internalType": "uint256",
          "name": "_newMax",
          "type": "uint256"
        }
      ],
      "name": "setBuyGHKAmountMax",
      "outputs": [],
      "stateMutability": "nonpayable",
      "type": "function"
    },
    {
      "inputs": [
        {
          "internalType": "uint256",
          "name": "_newMin",
          "type": "uint256"
        }
      ],
      "name": "setBuyGHKAmountMin",
      "outputs": [],
      "stateMutability": "nonpayable",
      "type": "function"
    },
    {
      "inputs": [
        {
          "internalType": "uint256",
          "name": "_newFeePercentage",
          "type": "uint256"
        }
      ],
      "name": "setBuyGHKFeePercentage",
      "outputs": [],
      "stateMutability": "nonpayable",
      "type": "function"
    },
    {
      "inputs": [
        {
          "internalType": "address",
          "name": "_dataFeedUSDC",
          "type": "address"
        }
      ],
      "name": "setDataFeedUSDC",
      "outputs": [],
      "stateMutability": "nonpayable",
      "type": "function"
    },
    {
      "inputs": [
        {
          "internalType": "address",
          "name": "_dataFeedUSDT",
          "type": "address"
        }
      ],
      "name": "setDataFeedUSDT",
      "outputs": [],
      "stateMutability": "nonpayable",
      "type": "function"
    },
    {
      "inputs": [
        {
          "internalType": "address",
          "name": "_dataFeedXAU",
          "type": "address"
        }
      ],
      "name": "setDataFeedXAU",
      "outputs": [],
      "stateMutability": "nonpayable",
      "type": "function"
    },
    {
      "inputs": [
        {
          "internalType": "address",
          "name": "pool",
          "type": "address"
        }
      ],
      "name": "setGHKE_BUY_POOL",
      "outputs": [],
      "stateMutability": "nonpayable",
      "type": "function"
    },
    {
      "inputs": [
        {
          "internalType": "uint256",
          "name": "newPrice",
          "type": "uint256"
        }
      ],
      "name": "setGHK_GHKE_Price",
      "outputs": [],
      "stateMutability": "nonpayable",
      "type": "function"
    },
    {
      "inputs": [
        {
          "internalType": "uint256",
          "name": "rate",
          "type": "uint256"
        }
      ],
      "name": "setInviterRewardLevel1",
      "outputs": [],
      "stateMutability": "nonpayable",
      "type": "function"
    },
    {
      "inputs": [
        {
          "internalType": "uint256",
          "name": "rate",
          "type": "uint256"
        }
      ],
      "name": "setInviterRewardLevel2",
      "outputs": [],
      "stateMutability": "nonpayable",
      "type": "function"
    },
    {
      "inputs": [
        {
          "internalType": "uint256",
          "name": "price",
          "type": "uint256"
        }
      ],
      "name": "setLatestXAUPrice",
      "outputs": [],
      "stateMutability": "nonpayable",
      "type": "function"
    },
    {
      "inputs": [
        {
          "internalType": "uint256",
          "name": "deviation",
          "type": "uint256"
        }
      ],
      "name": "setMaxLatestPriceDeviation",
      "outputs": [],
      "stateMutability": "nonpayable",
      "type": "function"
    },
    {
      "inputs": [
        {
          "internalType": "uint256",
          "name": "deviation",
          "type": "uint256"
        }
      ],
      "name": "setMaxOraclePriceDeviation",
      "outputs": [],
      "stateMutability": "nonpayable",
      "type": "function"
    },
    {
      "inputs": [
        {
          "internalType": "address",
          "name": "_signer",
          "type": "address"
        }
      ],
      "name": "setSigner",
      "outputs": [],
      "stateMutability": "nonpayable",
      "type": "function"
    },
    {
      "inputs": [
        {
          "internalType": "address",
          "name": "tokenAddress",
          "type": "address"
        },
        {
          "internalType": "bool",
          "name": "enabled",
          "type": "bool"
        }
      ],
      "name": "setTradeToken",
      "outputs": [],
      "stateMutability": "nonpayable",
      "type": "function"
    },
    {
      "inputs": [
        {
          "internalType": "address",
          "name": "_USDC",
          "type": "address"
        }
      ],
      "name": "setUSDC",
      "outputs": [],
      "stateMutability": "nonpayable",
      "type": "function"
    },
    {
      "inputs": [
        {
          "internalType": "address",
          "name": "_USDT",
          "type": "address"
        }
      ],
      "name": "setUSDT",
      "outputs": [],
      "stateMutability": "nonpayable",
      "type": "function"
    },
    {
      "inputs": [
        {
          "internalType": "address",
          "name": "_usdToAddress",
          "type": "address"
        }
      ],
      "name": "setUsdToAddress",
      "outputs": [],
      "stateMutability": "nonpayable",
      "type": "function"
    },
    {
      "inputs": [],
      "name": "signer",
      "outputs": [
        {
          "internalType": "address",
          "name": "",
          "type": "address"
        }
      ],
      "stateMutability": "view",
      "type": "function"
    },
    {
      "inputs": [
        {
          "internalType": "address",
          "name": "",
          "type": "address"
        }
      ],
      "name": "tradeTokens",
      "outputs": [
        {
          "internalType": "bool",
          "name": "",
          "type": "bool"
        }
      ],
      "stateMutability": "view",
      "type": "function"
    },
    {
      "inputs": [
        {
          "internalType": "address",
          "name": "newOwner",
          "type": "address"
        }
      ],
      "name": "transferOwnership",
      "outputs": [],
      "stateMutability": "nonpayable",
      "type": "function"
    }
  ],
  "bytecode": "0x60808060405234601557612b7f908161001a8239f35b5f80fdfe60806040526004361015610011575f80fd5b5f3560e01c80630e3063af1461183957806311c57e2e1461178d5780631203117f14611767578063138b75981461174a578063162eefb5146116cc578063179af607146116af578063238ac93314611689578063260373ae1461166c578063327841af146115a957806334463a681461158c578063365deb891461154d5780633ae03403146115275780633c68f689146114905780633d64d7891461145157806344337ea11461136157806350c1b9231461132257806351c2eeb5146112e5578063537df3b61461121d57806360c42688146112035780636a42dcf0146111e65780636c19e783146111a7578063709b90a81461114d578063715018a6146110b6578063717c06381461109057806375f2c9a41461107357806381be4cf11461103457806389a302711461100e5780638da5cb5b14610fc95780639473304114610c3a578063961bdfbf14610c2057806398ae4b4914610bc65780639ca14bb714610ba55780639d7a6ba414610b88578063a407db2314610b62578063b3e089a214610b23578063b4e5ffab14610b02578063c50d5210146109ab578063c54e44eb14610985578063c562c7ec14610968578063c85301211461092b578063e24f2adb1461090e578063e53f002e146108ed578063e63ea408146107c2578063e75722301461079c578063ed72d07f1461075b578063efc3b80b1461071e578063f04da7421461065c578063f2fde38b14610631578063f94853f814610585578063fe575a87146105485763ff68c98a1461024a575f80fd5b346104d95760c03660031901126104d957610263612028565b61026b611ffc565b6044356064359260a43567ffffffffffffffff81116104d95761029290369060040161203e565b6001600160a01b03601793929354163303610504576001600160a01b03821695865f5260166020526102cb60ff60405f2054161561206c565b6102d36123fb565b91670de0b6b3a76400008602868104670de0b6b3a764000014871517156104f057610315916103058561031093612277565b9660843585886126da565b6121ce565b61031e8161244a565b9261032a841515612219565b6402540be40085028581046402540be40014861517156104f0578461034e91612277565b9561035d6005548810156120b7565b61036b600654881115612102565b602460206001600160a01b0360085416604051928380926370a0823160e01b82523060048301525afa9081156104e5575f9161048d575b50917f937b79465a35358c2ce08d16690f890791030847dfa46901e5a038b99e4d12ff987fe20a4cd1eae74b8e20ee62beb1d2d5f3939091eac36b644a3140fc7fc89f17e389936103f861045f96861115612183565b6001600160a01b0383169761041a826001600160a01b03600a5416338c6127f5565b604080518781526001600160a01b0395909516602086015284018a9052606084018b9052608084015260a0830152339160c090a26001600160a01b0360085416612856565b600c55604080515f815260208101959095528401526060830152608082015260a090a2602060405160018152f35b9290506020833d6020116104dd575b816104a96020938361214d565b810103126104d95791517f937b79465a35358c2ce08d16690f890791030847dfa46901e5a038b99e4d12ff6103a2565b5f80fd5b3d915061049c565b6040513d5f823e3d90fd5b634e487b7160e01b5f52601160045260245ffd5b606460405162461bcd60e51b815260206004820152601160248201527f7065726d697373696f6e2064656e6965640000000000000000000000000000006044820152fd5b346104d95760203660031901126104d9576001600160a01b03610569612028565b165f526016602052602060ff60405f2054166040519015158152f35b346104d95760203660031901126104d9576004356105a16128ab565b80156105db577f6da9b5c0b274236b1aa0a633b646ab28ed3c19c54f91542c4852917558cb06ba60206005549280600555604051908152a2005b608460405162461bcd60e51b815260206004820152602960248201527f4d696e696d756d2062757920616d6f756e74206d75737420626520677265617460448201526806572207468616e20360bc1b6064820152fd5b346104d95760203660031901126104d95761065a61064d612028565b6106556128ab565b61261f565b005b346104d95760203660031901126104d9576001600160a01b0361067d612028565b6106856128ab565b1680156106da5760407f624ff6db49070a5fbc16b55ef6c8227f8f377a7b9eff06a948cd8d167b66488291600a5490806001600160a01b0319831617600a556001600160a01b038351921682526020820152a1005b606460405162461bcd60e51b815260206004820152600f60248201527f496e76616c6964206164647265737300000000000000000000000000000000006044820152fd5b346104d95760203660031901126104d9576001600160a01b0361073f612028565b6107476128ab565b166001600160a01b03195f5416175f555f80f35b346104d95760203660031901126104d9576001600160a01b0361077c612028565b165f52601260205260206001600160a01b0360405f205416604051908152f35b346104d95760203660031901126104d95760206107ba60043561244a565b604051908152f35b346104d95760603660031901126104d9576107db612028565b6107e3611ffc565b6001600160a01b03604435926107f76128ab565b16916040516370a0823160e01b8152306004820152602081602481875afa80156104e55782915f916108b8575b50106108745781610857827ff24ef89f38eadc1bde50701ad6e4d6d11a2dc24f7cf834a486991f38833285049486612856565b604080516001600160a01b039290921682526020820192909252a2005b606460405162461bcd60e51b815260206004820152600c60248201527f616d6f756e74206572726f7200000000000000000000000000000000000000006044820152fd5b9150506020813d6020116108e5575b816108d46020938361214d565b810103126104d95781905185610824565b3d91506108c7565b346104d95760203660031901126104d9576109066128ab565b600435600c55005b346104d9575f3660031901126104d9576020601354604051908152f35b346104d95760203660031901126104d9576001600160a01b0361094c612028565b165f526010602052602060ff60405f2054166040519015158152f35b346104d9575f3660031901126104d9576020600754604051908152f35b346104d9575f3660031901126104d95760206001600160a01b0360035416604051908152f35b346104d95760403660031901126104d9576004356109c7611ffc565b906109d06128ab565b6001600160a01b03821691825f52601660205260ff60405f205416610abe576109fd6005548310156120b7565b610a0b600654831115612102565b6001600160a01b03600854166040516370a0823160e01b8152306004820152602081602481855afa9081156104e5575f91610a86575b50836020938193610a78610a7d947f74ebc01d304ee2020e987f00ff465e30fb250f36c9e46eb8470759b08ce895db981115612183565b612856565b604051908152a2005b939190506020843d602011610ab6575b81610aa36020938361214d565b810103126104d957925190929083610a41565b3d9150610a96565b606460405162461bcd60e51b815260206004820152601c60248201527f426c61636b6c6973743a20746f20697320626c61636b6c6973746564000000006044820152fd5b346104d95760203660031901126104d957610b1b6128ab565b600435600d55005b346104d95760203660031901126104d9576001600160a01b03610b44612028565b610b4c6128ab565b166001600160a01b031960045416176004555f80f35b346104d9575f3660031901126104d95760206001600160a01b0360085416604051908152f35b346104d9575f3660031901126104d9576020601454604051908152f35b346104d95760203660031901126104d957610bbe6128ab565b600435600e55005b346104d95760203660031901126104d9577f9be4c2a4a6ec357a97e3dd84470216bd98df5049471fc0f84e07514619c203956020600435610c056128ab565b610c136127108211156123b0565b80601555604051908152a1005b346104d9575f3660031901126104d95760206107ba6123fb565b346104d9576101403660031901126104d957610c54612028565b610c5c611ffc565b90610c65612012565b91606435916001600160a01b0383168093036104d9576084356001600160a01b0381168091036104d95760a4356001600160a01b0381168091036104d95760c435906001600160a01b0382168092036104d95760e435926001600160a01b0384168094036104d95761012435966001600160a01b0388168098036104d9577ff0c57e16840df040f15088dc2f81fe391c3923bec73e23a9662efc9c229c6a00549660ff8860401c16159967ffffffffffffffff891680159081610fc1575b6001149081610fb7575b159081610fae575b50610f865767ffffffffffffffff1989166001177ff0c57e16840df040f15088dc2f81fe391c3923bec73e23a9662efc9c229c6a00556001600160a01b0398899283918d610f47575b50610d87612977565b610d8f612977565b610d983361261f565b166001600160a01b03196008541617600855166001600160a01b03196009541617600955806001600160a01b03196003541617600355816001600160a01b031960045416176004555f52601060205260405f20600160ff198254161790555f52601060205260405f20600160ff198254161790556001600160a01b03195f5416175f556001600160a01b031960015416176001556001600160a01b03196002541617600255678ac7230489e8000060055569010f0cf064dd5920000060065560196007556402540be4006013556064601455603260155564486b1dea80600b5516806001600160a01b0319600a541617600a555f52601160205260405f20600160ff1982541617905561010435600c556050600d556103e8600e556001600160a01b0319600f541617600f55610eca57005b68ff0000000000000000197ff0c57e16840df040f15088dc2f81fe391c3923bec73e23a9662efc9c229c6a0054167ff0c57e16840df040f15088dc2f81fe391c3923bec73e23a9662efc9c229c6a00557fc7f505b2f371ae2175ee4913f4499e1f2633a7b5936321eed1cdaeb6115181d2602060405160018152a1005b68ffffffffffffffffff191668010000000000000001177ff0c57e16840df040f15088dc2f81fe391c3923bec73e23a9662efc9c229c6a00558d610d7e565b7ff92ee8a9000000000000000000000000000000000000000000000000000000005f5260045ffd5b9050158c610d35565b303b159150610d2d565b8c9150610d23565b346104d9575f3660031901126104d95760206001600160a01b037f9016d09d72d40fdae2fd8ceac6b6234c7706214fd39c1cd1e609a0528c1993005416604051908152f35b346104d9575f3660031901126104d95760206001600160a01b0360045416604051908152f35b346104d95760203660031901126104d9576001600160a01b03611055612028565b61105d6128ab565b166001600160a01b031960015416176001555f80f35b346104d9575f3660031901126104d9576020601554604051908152f35b346104d9575f3660031901126104d95760206001600160a01b0360095416604051908152f35b346104d9575f3660031901126104d9576110ce6128ab565b5f6001600160a01b037f9016d09d72d40fdae2fd8ceac6b6234c7706214fd39c1cd1e609a0528c199300546001600160a01b031981167f9016d09d72d40fdae2fd8ceac6b6234c7706214fd39c1cd1e609a0528c19930055167f8be0079c531659141344cd1fd0a4f28419497f9722a3daafe3b4186f6b6457e08280a3005b346104d95760203660031901126104d9577f877eb8e50ade0ca8e7577f085d16acbccbae2aa624994be43415b6a66e565b02602060043561118c6128ab565b61119a6127108211156123b0565b80601455604051908152a1005b346104d95760203660031901126104d9576001600160a01b036111c8612028565b6111d06128ab565b166001600160a01b0319600f541617600f555f80f35b346104d9575f3660031901126104d9576020600554604051908152f35b346104d9575f3660031901126104d95760206107ba61232c565b346104d95760203660031901126104d9576001600160a01b0361123e612028565b6112466128ab565b16611252811515612295565b805f52601660205260ff60405f205416156112a157805f52601660205260405f2060ff1981541690557f2b6bf71b58b3583add364b3d9060ebf8019650f65f5be35f5464b9cb3e4ba2d45f80a2005b606460405162461bcd60e51b815260206004820152601f60248201527f426c61636b6c697374546f6b656e3a204e6f7420626c61636b6c6973746564006044820152fd5b346104d95760203660031901126104d9576001600160a01b03611306612028565b165f526011602052602060ff60405f2054166040519015158152f35b346104d95760203660031901126104d9576001600160a01b03611343612028565b61134b6128ab565b166001600160a01b031960035416176003555f80f35b346104d95760203660031901126104d9576001600160a01b03611382612028565b61138a6128ab565b16611396811515612295565b805f52601660205260ff60405f2054166113e757805f52601660205260405f20600160ff198254161790557ff9b68063b051b82957fa193585681240904fed808db8b30fc5a2d2202c6ed6275f80a2005b608460405162461bcd60e51b815260206004820152602360248201527f426c61636b6c697374546f6b656e3a20416c726561647920626c61636b6c697360448201527f74656400000000000000000000000000000000000000000000000000000000006064820152fd5b346104d95760203660031901126104d9576001600160a01b03611472612028565b61147a6128ab565b166001600160a01b031960175416176017555f80f35b346104d95760203660031901126104d9576004356114ac6128ab565b80156114e3576020817fedc0c63da22d77f24aab5cf375dc00652205b8ae2aa6aec9b29c62446cb8b43392601355604051908152a1005b606460405162461bcd60e51b815260206004820152601c60248201527f5072696365206d7573742062652067726561746572207468616e2030000000006044820152fd5b346104d9575f3660031901126104d95760206001600160a01b03600a5416604051908152f35b346104d95760203660031901126104d9576001600160a01b0361156e612028565b6115766128ab565b166001600160a01b031960025416176002555f80f35b346104d9575f3660031901126104d9576020600c54604051908152f35b346104d95760203660031901126104d9576004356115c56128ab565b6127108111611602577f244852cd05ca459924e91572c84674f3374b806dacc0378e01f0283c14912d5160206007549280600755604051908152a2005b608460405162461bcd60e51b815260206004820152602160248201527f4665652070657263656e746167652063616e6e6f74206578636565642031303060448201527f25000000000000000000000000000000000000000000000000000000000000006064820152fd5b346104d9575f3660031901126104d9576020600654604051908152f35b346104d9575f3660031901126104d95760206001600160a01b03600f5416604051908152f35b346104d9575f3660031901126104d9576020600d54604051908152f35b346104d95760403660031901126104d9576116e5612028565b602435908115158092036104d95760206001600160a01b037f1996274124fd3418649ced8b48aa3f3076c5eef885125806d703a482989e51eb926117276128ab565b1692835f526010825260405f2060ff1981541660ff8316179055604051908152a2005b346104d9575f3660031901126104d9576020600e54604051908152f35b346104d9575f3660031901126104d95760206001600160a01b0360175416604051908152f35b346104d95760203660031901126104d9576004356117a96128ab565b80156117e3577f48666edaf6cb2437ec76d3dfb3d1736f9912fa847528f73de7c0fbc216df307860206006549280600655604051908152a2005b608460405162461bcd60e51b815260206004820152602960248201527f4d6178696d756d2062757920616d6f756e74206d75737420626520677265617460448201526806572207468616e20360bc1b6064820152fd5b346104d95760c03660031901126104d957600435611855611ffc565b61185d612012565b916064359260a4359167ffffffffffffffff83116104d95761188b6001600160a01b0393369060040161203e565b939092335f5260166020526118a760ff60405f2054161561206c565b168015159384611f94575b6118c06005548410156120b7565b6118ce600654841115612102565b602460206001600160a01b0360085416604051928380926370a0823160e01b82523060048301525afa80156104e5575f90611f60575b6119119150841115612183565b6001600160a01b03861693845f52601060205260ff60405f20541615611f1c5761194391610310916084358a336126da565b61194c8661244a565b93611958851515612219565b60075461271081018091116104f0576127106119838761197e6402540be4009488612264565b612264565b0404958615611ed8576004546001600160a01b03168503611dbe576119a661232c565b8015611d7a57670de0b6b3a7640000880290888204670de0b6b3a7640000036104f0576119f4817fe20a4cd1eae74b8e20ee62beb1d2d5f3939091eac36b644a3140fc7fc89f17e393612277565b90611a0c826001600160a01b03600a5416338b6127f5565b604080518881526001600160a01b039590951660208601528401899052606084018a9052608084015260a0830152339160c090a25b611a5783336001600160a01b0360085416612856565b80611d5d575b611d0f575b50335f5260126020526001600160a01b0360405f205416946305f5e100612710611a9a611a9160145486612264565b60135490612264565b040486151580611c99575b611c2d575b50855f5260126020526001600160a01b0360405f2054166305f5e100612710611ad8611a9160155487612264565b040481151580611bb7575b611b4b575b5050335f52601160205260405f20600160ff19825416179055600c5560405194855260208501526040840152606083015260808201527f937b79465a35358c2ce08d16690f890791030847dfa46901e5a038b99e4d12ff339160a08180030190a2005b611b6181836001600160a01b0360095416612856565b60155460135491604051936002855260208501526040840152846060840152608083015260a08201527f8aaee62c43541bf39b4bbf418da51ad0c0b13a92159bc917dd41aafca9f2f2e360c03392a28680611ae8565b50602460206001600160a01b0360095416604051928380926370a0823160e01b82523060048301525afa80156104e55782915f91611bf8575b501015611ae3565b9150506020813d602011611c25575b81611c146020938361214d565b810103126104d9578190518a611bf0565b3d9150611c07565b611c4381886001600160a01b0360095416612856565b6014546013549060405192600184528960208501526040840152846060840152608083015260a08201527f8aaee62c43541bf39b4bbf418da51ad0c0b13a92159bc917dd41aafca9f2f2e360c03392a286611aaa565b50602460206001600160a01b0360095416604051928380926370a0823160e01b82523060048301525afa80156104e55782915f91611cda575b501015611aa5565b9150506020813d602011611d07575b81611cf66020938361214d565b810103126104d95781905189611cd2565b3d9150611ce9565b335f52601260205260405f20816001600160a01b03198254161790556040519081527faedcbe757d0af5671d08686487d4ddf9c86e82687daf8fd291edfe54b7e9707c60203392a285611a62565b50335f5260126020526001600160a01b0360405f20541615611a5d565b606460405162461bcd60e51b815260206004820152601260248201527f496e76616c6964207573646320707269636500000000000000000000000000006044820152fd5b6003546001600160a01b03168503611ebb57611dd86123fb565b8015611e7757670de0b6b3a7640000880290888204670de0b6b3a7640000036104f057611e26817fe20a4cd1eae74b8e20ee62beb1d2d5f3939091eac36b644a3140fc7fc89f17e393612277565b90611e3e826001600160a01b03600a5416338b6127f5565b604080518881526001600160a01b039590951660208601528401899052606084018a9052608084015260a0830152339160c090a2611a41565b606460405162461bcd60e51b815260206004820152601260248201527f496e76616c6964207573647420707269636500000000000000000000000000006044820152fd5b50611ed3866001600160a01b03600a541633876127f5565b611a41565b606460405162461bcd60e51b815260206004820152601160248201527f496e76616c696420757364416d6f756e740000000000000000000000000000006044820152fd5b606460405162461bcd60e51b815260206004820152601260248201527f496e76616c6964207472616465546f6b656e00000000000000000000000000006044820152fd5b506020813d602011611f8c575b81611f7a6020938361214d565b810103126104d9576119119051611904565b3d9150611f6d565b3382141580611fe6575b6118b257606460405162461bcd60e51b815260206004820152600f60248201527f496e76616c696420696e766974657200000000000000000000000000000000006044820152fd5b50815f52601160205260ff60405f205416611f9e565b602435906001600160a01b03821682036104d957565b604435906001600160a01b03821682036104d957565b600435906001600160a01b03821682036104d957565b9181601f840112156104d95782359167ffffffffffffffff83116104d957602083818601950101116104d957565b1561207357565b606460405162461bcd60e51b815260206004820152601e60248201527f426c61636b6c6973743a207573657220697320626c61636b6c697374656400006044820152fd5b156120be57565b606460405162461bcd60e51b815260206004820152601460248201527f616d6f756e74206c657373207468616e206d696e0000000000000000000000006044820152fd5b1561210957565b606460405162461bcd60e51b815260206004820152601460248201527f616d6f756e74206d6f7265207468616e206d61780000000000000000000000006044820152fd5b90601f8019910116810190811067ffffffffffffffff82111761216f57604052565b634e487b7160e01b5f52604160045260245ffd5b1561218a57565b606460405162461bcd60e51b815260206004820152601560248201527f616d6f756e74206578636565642062616c616e636500000000000000000000006044820152fd5b156121d557565b606460405162461bcd60e51b815260206004820152601160248201527f496e76616c6964207369676e61747572650000000000000000000000000000006044820152fd5b1561222057565b606460405162461bcd60e51b815260206004820152601260248201527f496e76616c696420676f6c6420707269636500000000000000000000000000006044820152fd5b818102929181159184041417156104f057565b8115612281570490565b634e487b7160e01b5f52601260045260245ffd5b1561229c57565b606460405162461bcd60e51b815260206004820152601c60248201527f426c61636b6c697374546f6b656e3a205a65726f2061646472657373000000006044820152fd5b519069ffffffffffffffffffff821682036104d957565b908160a09103126104d95761230b816122e0565b916020820151916040810151916123296080606084015193016122e0565b90565b600460a06001600160a01b036002541660405192838092633fabe5a360e21b82525afa9081156104e5575f9161237c575b506402540be4008102908082046402540be40014901517156104f05790565b61239e915060a03d60a0116123a9575b612396818361214d565b8101906122f7565b50505090505f61235d565b503d61238c565b156123b757565b606460405162461bcd60e51b815260206004820152601760248201527f526174652063616e6e6f742065786365656420313030250000000000000000006044820152fd5b600460a06001600160a01b036001541660405192838092633fabe5a360e21b82525afa9081156104e5575f9161237c57506402540be4008102908082046402540be40014901517156104f05790565b600460a06001600160a01b035f541660405192838092633fabe5a360e21b82525afa9081156104e5575f916125fb575b50808210908115916125d1575b501561256757600c548082109081159161253d575b50156124d3576402540be4008102908082046402540be40014901517156104f0576124cf6305f5e10091600b5490612277565b0490565b608460405162461bcd60e51b815260206004820152603260248201527f4f6666636861696e2070726963652064657669617465732066726f6d206c617460448201527f65737420707269636520746f6f206d75636800000000000000000000000000006064820152fd5b9050600e54612710039061271082116104f0576127109161255d91612264565b048110155f61249c565b608460405162461bcd60e51b815260206004820152603260248201527f4f6666636861696e2070726963652064657669617465732066726f6d206f726160448201527f636c6520707269636520746f6f206d75636800000000000000000000000000006064820152fd5b9050600d54612710039061271082116104f057612710916125f191612264565b048110155f612487565b612614915060a03d60a0116123a957612396818361214d565b50505090505f61247a565b6001600160a01b031680156126ae576001600160a01b037f9016d09d72d40fdae2fd8ceac6b6234c7706214fd39c1cd1e609a0528c19930054826001600160a01b03198216177f9016d09d72d40fdae2fd8ceac6b6234c7706214fd39c1cd1e609a0528c19930055167f8be0079c531659141344cd1fd0a4f28419497f9722a3daafe3b4186f6b6457e05f80a3565b7f1e4fbdf7000000000000000000000000000000000000000000000000000000005f525f60045260245ffd5b919091814210156127b157604051916020830193845260408301526bffffffffffffffffffffffff199060601b1660608201526054815261271c60748261214d565b5190207f19457468657265756d205369676e6564204d6573736167653a0a3332000000005f52601c52603c5f2067ffffffffffffffff831161216f5760405190612770601f8501601f19166020018361214d565b83825236848401116104d9575f60208561279e966127959683870137840101526129ce565b90929192612a08565b6001600160a01b0380600f541691161490565b606460405162461bcd60e51b815260206004820152601160248201527f5369676e617475726520657870697265640000000000000000000000000000006044820152fd5b9091926001600160a01b036128549481604051957f23b872dd00000000000000000000000000000000000000000000000000000000602088015216602486015216604484015260648301526064825261284f60848361214d565b61290a565b565b6040517fa9059cbb0000000000000000000000000000000000000000000000000000000060208201526001600160a01b039290921660248301526044808301939093529181526128549161284f60648361214d565b6001600160a01b037f9016d09d72d40fdae2fd8ceac6b6234c7706214fd39c1cd1e609a0528c199300541633036128de57565b7f118cdaa7000000000000000000000000000000000000000000000000000000005f523360045260245ffd5b905f602091828151910182855af1156104e5575f513d61296e57506001600160a01b0381163b155b6129395750565b6001600160a01b03907f5274afe7000000000000000000000000000000000000000000000000000000005f521660045260245ffd5b60011415612932565b60ff7ff0c57e16840df040f15088dc2f81fe391c3923bec73e23a9662efc9c229c6a005460401c16156129a657565b7fd7e6bcf8000000000000000000000000000000000000000000000000000000005f5260045ffd5b81519190604183036129fe576129f79250602082015190606060408401519301515f1a90612ac7565b9192909190565b50505f9160029190565b6004811015612ab35780612a1a575050565b60018103612a4a577ff645eedf000000000000000000000000000000000000000000000000000000005f5260045ffd5b60028103612a7e57507ffce698f7000000000000000000000000000000000000000000000000000000005f5260045260245ffd5b600314612a885750565b7fd78bce0c000000000000000000000000000000000000000000000000000000005f5260045260245ffd5b634e487b7160e01b5f52602160045260245ffd5b91907f7fffffffffffffffffffffffffffffff5d576e7357a4501ddfe92f46681b20a08411612b3e579160209360809260ff5f9560405194855216868401526040830152606082015282805260015afa156104e5575f516001600160a01b03811615612b3457905f905f90565b505f906001905f90565b5050505f916003919056fea264697066735822122048e2d09ad6d16204f7cbc2abf5f1169d8c4f47f4a41f57a7bcc4cbae6d0fb1f464736f6c634300081e0033",
  "linkReferences": {},
  "deployedLinkReferences": {},
  "immutableReferences": {},
  "inputSourceName": "project/contracts/ghk-buy/GHKBuyPool.sol",
  "buildInfoId": "solc-0_8_30-b5a2da7b832a14d859010e43fc98931459f628dc"
}