{
  "_format": "hh3-artifact-1",
  "contractName": "GHKESwapPool",
  "sourceName": "contracts/ghke-buy/GHKESwapPool.sol",
  "abi": [
    {
      "inputs": [],
      "name": "InvalidInitialization",
      "type": "error"
    },
    {
      "inputs": [],
      "name": "NotInitializing",
      "type": "error"
    },
    {
      "inputs": [
        {
          "internalType": "address",
          "name": "owner",
          "type": "address"
        }
      ],
      "name": "OwnableInvalidOwner",
      "type": "error"
    },
    {
      "inputs": [
        {
          "internalType": "address",
          "name": "account",
          "type": "address"
        }
      ],
      "name": "OwnableUnauthorizedAccount",
      "type": "error"
    },
    {
      "inputs": [
        {
          "internalType": "address",
          "name": "token",
          "type": "address"
        }
      ],
      "name": "SafeERC20FailedOperation",
      "type": "error"
    },
    {
      "anonymous": false,
      "inputs": [
        {
          "indexed": true,
          "internalType": "address",
          "name": "account",
          "type": "address"
        }
      ],
      "name": "AddedToBlacklist",
      "type": "event"
    },
    {
      "anonymous": false,
      "inputs": [
        {
          "indexed": true,
          "internalType": "address",
          "name": "coin",
          "type": "address"
        },
        {
          "indexed": false,
          "internalType": "address",
          "name": "to",
          "type": "address"
        },
        {
          "indexed": false,
          "internalType": "uint256",
          "name": "amount",
          "type": "uint256"
        }
      ],
      "name": "EmergencyWithdraw",
      "type": "event"
    },
    {
      "anonymous": false,
      "inputs": [
        {
          "indexed": true,
          "internalType": "uint256",
          "name": "oldValue",
          "type": "uint256"
        },
        {
          "indexed": false,
          "internalType": "uint256",
          "name": "newValue",
          "type": "uint256"
        }
      ],
      "name": "GHKE_USDT_PriceUpdated",
      "type": "event"
    },
    {
      "anonymous": false,
      "inputs": [
        {
          "indexed": false,
          "internalType": "uint64",
          "name": "version",
          "type": "uint64"
        }
      ],
      "name": "Initialized",
      "type": "event"
    },
    {
      "anonymous": false,
      "inputs": [
        {
          "indexed": true,
          "internalType": "address",
          "name": "previousOwner",
          "type": "address"
        },
        {
          "indexed": true,
          "internalType": "address",
          "name": "newOwner",
          "type": "address"
        }
      ],
      "name": "OwnershipTransferred",
      "type": "event"
    },
    {
      "anonymous": false,
      "inputs": [
        {
          "indexed": true,
          "internalType": "address",
          "name": "account",
          "type": "address"
        }
      ],
      "name": "RemovedFromBlacklist",
      "type": "event"
    },
    {
      "anonymous": false,
      "inputs": [
        {
          "indexed": true,
          "internalType": "bool",
          "name": "stop",
          "type": "bool"
        }
      ],
      "name": "StopStatusChanged",
      "type": "event"
    },
    {
      "anonymous": false,
      "inputs": [
        {
          "indexed": true,
          "internalType": "address",
          "name": "user",
          "type": "address"
        },
        {
          "indexed": false,
          "internalType": "uint256",
          "name": "amount",
          "type": "uint256"
        },
        {
          "indexed": false,
          "internalType": "uint256",
          "name": "price",
          "type": "uint256"
        },
        {
          "indexed": false,
          "internalType": "uint256",
          "name": "usdAmount",
          "type": "uint256"
        }
      ],
      "name": "Swap",
      "type": "event"
    },
    {
      "anonymous": false,
      "inputs": [
        {
          "indexed": true,
          "internalType": "uint256",
          "name": "oldValue",
          "type": "uint256"
        },
        {
          "indexed": false,
          "internalType": "uint256",
          "name": "newValue",
          "type": "uint256"
        }
      ],
      "name": "SwapGHKEAmountMinUpdated",
      "type": "event"
    },
    {
      "inputs": [],
      "name": "GHKE",
      "outputs": [
        {
          "internalType": "contract IERC20",
          "name": "",
          "type": "address"
        }
      ],
      "stateMutability": "view",
      "type": "function"
    },
    {
      "inputs": [],
      "name": "GHKE_USDT_PRICE",
      "outputs": [
        {
          "internalType": "uint256",
          "name": "",
          "type": "uint256"
        }
      ],
      "stateMutability": "view",
      "type": "function"
    },
    {
      "inputs": [],
      "name": "GHK_BUY_POOL_ADDRESS",
      "outputs": [
        {
          "internalType": "address",
          "name": "",
          "type": "address"
        }
      ],
      "stateMutability": "view",
      "type": "function"
    },
    {
      "inputs": [],
      "name": "SWAP_GHKE_AMOUNT_MIN",
      "outputs": [
        {
          "internalType": "uint256",
          "name": "",
          "type": "uint256"
        }
      ],
      "stateMutability": "view",
      "type": "function"
    },
    {
      "inputs": [],
      "name": "USDT",
      "outputs": [
        {
          "internalType": "contract IERC20",
          "name": "",
          "type": "address"
        }
      ],
      "stateMutability": "view",
      "type": "function"
    },
    {
      "inputs": [
        {
          "internalType": "address",
          "name": "account",
          "type": "address"
        }
      ],
      "name": "addToBlacklist",
      "outputs": [],
      "stateMutability": "nonpayable",
      "type": "function"
    },
    {
      "inputs": [
        {
          "internalType": "address",
          "name": "coin",
          "type": "address"
        },
        {
          "internalType": "address",
          "name": "to",
          "type": "address"
        },
        {
          "internalType": "uint256",
          "name": "amount",
          "type": "uint256"
        }
      ],
      "name": "emergencyWithdraw",
      "outputs": [],
      "stateMutability": "nonpayable",
      "type": "function"
    },
    {
      "inputs": [
        {
          "internalType": "uint256",
          "name": "amountIn",
          "type": "uint256"
        },
        {
          "internalType": "uint256",
          "name": "offchainXAUPrice",
          "type": "uint256"
        }
      ],
      "name": "getAmountOut",
      "outputs": [
        {
          "internalType": "uint256",
          "name": "",
          "type": "uint256"
        }
      ],
      "stateMutability": "view",
      "type": "function"
    },
    {
      "inputs": [
        {
          "internalType": "uint256",
          "name": "offchainXAUPrice",
          "type": "uint256"
        }
      ],
      "name": "getPrice",
      "outputs": [
        {
          "internalType": "uint256",
          "name": "",
          "type": "uint256"
        }
      ],
      "stateMutability": "view",
      "type": "function"
    },
    {
      "inputs": [],
      "name": "getUsdtPrice",
      "outputs": [
        {
          "internalType": "uint256",
          "name": "",
          "type": "uint256"
        }
      ],
      "stateMutability": "view",
      "type": "function"
    },
    {
      "inputs": [
        {
          "internalType": "address",
          "name": "_GHKE",
          "type": "address"
        },
        {
          "internalType": "address",
          "name": "_USDT",
          "type": "address"
        },
        {
          "internalType": "address",
          "name": "_dataFeedUSDT",
          "type": "address"
        },
        {
          "internalType": "address",
          "name": "_GHK_BUY_POOL_ADDRESS",
          "type": "address"
        }
      ],
      "name": "initialize",
      "outputs": [],
      "stateMutability": "nonpayable",
      "type": "function"
    },
    {
      "inputs": [
        {
          "internalType": "address",
          "name": "account",
          "type": "address"
        }
      ],
      "name": "isBlacklisted",
      "outputs": [
        {
          "internalType": "bool",
          "name": "",
          "type": "bool"
        }
      ],
      "stateMutability": "view",
      "type": "function"
    },
    {
      "inputs": [],
      "name": "owner",
      "outputs": [
        {
          "internalType": "address",
          "name": "",
          "type": "address"
        }
      ],
      "stateMutability": "view",
      "type": "function"
    },
    {
      "inputs": [
        {
          "internalType": "address",
          "name": "account",
          "type": "address"
        }
      ],
      "name": "removeFromBlacklist",
      "outputs": [],
      "stateMutability": "nonpayable",
      "type": "function"
    },
    {
      "inputs": [],
      "name": "renounceOwnership",
      "outputs": [],
      "stateMutability": "nonpayable",
      "type": "function"
    },
    {
      "inputs": [
        {
          "internalType": "address",
          "name": "_priceDataFeed",
          "type": "address"
        }
      ],
      "name": "setDataFeedUSDT_USD",
      "outputs": [],
      "stateMutability": "nonpayable",
      "type": "function"
    },
    {
      "inputs": [
        {
          "internalType": "uint256",
          "name": "newPrice",
          "type": "uint256"
        }
      ],
      "name": "setGHKE_USDT_Price",
      "outputs": [],
      "stateMutability": "nonpayable",
      "type": "function"
    },
    {
      "inputs": [
        {
          "internalType": "bool",
          "name": "isStop",
          "type": "bool"
        }
      ],
      "name": "setStop",
      "outputs": [],
      "stateMutability": "nonpayable",
      "type": "function"
    },
    {
      "inputs": [
        {
          "internalType": "uint256",
          "name": "_newMin",
          "type": "uint256"
        }
      ],
      "name": "setSwapGHKEAmountMin",
      "outputs": [],
      "stateMutability": "nonpayable",
      "type": "function"
    },
    {
      "inputs": [],
      "name": "stop",
      "outputs": [
        {
          "internalType": "bool",
          "name": "",
          "type": "bool"
        }
      ],
      "stateMutability": "view",
      "type": "function"
    },
    {
      "inputs": [
        {
          "internalType": "uint256",
          "name": "amount",
          "type": "uint256"
        },
        {
          "internalType": "uint256",
          "name": "offchainXAUPrice",
          "type": "uint256"
        },
        {
          "internalType": "uint256",
          "name": "deadline",
          "type": "uint256"
        },
        {
          "internalType": "bytes",
          "name": "sig",
          "type": "bytes"
        }
      ],
      "name": "swap",
      "outputs": [],
      "stateMutability": "nonpayable",
      "type": "function"
    },
    {
      "inputs": [
        {
          "internalType": "address",
          "name": "newOwner",
          "type": "address"
        }
      ],
      "name": "transferOwnership",
      "outputs": [],
      "stateMutability": "nonpayable",
      "type": "function"
    }
  ],
  "bytecode": "0x60808060405234601557611618908161001a8239f35b5f80fdfe6080806040526004361015610012575f80fd5b5f3560e01c90816307da68f51461119b575080630b8c875f1461117f57806325a2b41a1461114057806328f32d1a1461112357806336aa2dc7146110fd57806344337ea11461100d578063537df3b614610f45578063641657cb14610ee75780636ae6a1be146108e2578063715018a61461084b578063717c0638146108255780637889507a1461078b5780637cabb7cf146106e95780638da5cb5b146106a4578063961bdfbf1461068a578063b140a141146105cc578063c54e44eb146105a6578063e63ea4081461040a578063e7572230146103e4578063f2fde38b146103b9578063f8c8765e1461014f5763fe575a871461010e575f80fd5b3461014b57602036600319011261014b576001600160a01b0361012f6111ba565b165f526007602052602060ff60405f2054166040519015158152f35b5f80fd5b3461014b57608036600319011261014b576101686111ba565b6101706111d0565b906044356001600160a01b03811680910361014b57606435916001600160a01b03831680930361014b577ff0c57e16840df040f15088dc2f81fe391c3923bec73e23a9662efc9c229c6a00549360ff8560401c16159467ffffffffffffffff8116801590816103b1575b60011490816103a7575b15908161039e575b506103765767ffffffffffffffff1981166001177ff0c57e16840df040f15088dc2f81fe391c3923bec73e23a9662efc9c229c6a00556001600160a01b0392839187610337575b5061023c61158b565b61024461158b565b61024d336113e0565b166001600160a01b03196001541617600155166001600160a01b031960025416176002556001600160a01b031960085416176008556001600160a01b0319600454161760045568056bc75e2d631000005f556702c68af0bb14000060055564486b1dea806003556102ba57005b68ff0000000000000000197ff0c57e16840df040f15088dc2f81fe391c3923bec73e23a9662efc9c229c6a0054167ff0c57e16840df040f15088dc2f81fe391c3923bec73e23a9662efc9c229c6a00557fc7f505b2f371ae2175ee4913f4499e1f2633a7b5936321eed1cdaeb6115181d2602060405160018152a1005b68ffffffffffffffffff191668010000000000000001177ff0c57e16840df040f15088dc2f81fe391c3923bec73e23a9662efc9c229c6a005587610233565b7ff92ee8a9000000000000000000000000000000000000000000000000000000005f5260045ffd5b905015876101ec565b303b1591506101e4565b8791506101da565b3461014b57602036600319011261014b576103e26103d56111ba565b6103dd61149b565b6113e0565b005b3461014b57602036600319011261014b57602061040260043561137d565b604051908152f35b3461014b57606036600319011261014b576104236111ba565b61042b6111d0565b6001600160a01b036044359261043f61149b565b16916040517f70a08231000000000000000000000000000000000000000000000000000000008152306004820152602081602481875afa801561059b5782915f91610566575b5010610522576040517fa9059cbb0000000000000000000000000000000000000000000000000000000060208201526001600160a01b0383166024820152604480820183905281527ff24ef89f38eadc1bde50701ad6e4d6d11a2dc24f7cf834a486991f38833285049290610505906104ff606482611262565b8561151e565b604080516001600160a01b039290921682526020820192909252a2005b606460405162461bcd60e51b815260206004820152600c60248201527f616d6f756e74206572726f7200000000000000000000000000000000000000006044820152fd5b9150506020813d602011610593575b8161058260209383611262565b8101031261014b5781905185610485565b3d9150610575565b6040513d5f823e3d90fd5b3461014b575f36600319011261014b5760206001600160a01b0360025416604051908152f35b3461014b57602036600319011261014b576004356105e861149b565b8015610620577f65431d46de2e6801eef897180da1a59c39042ca34836a63f377caf6b4f6c8fa560205f5492805f55604051908152a2005b608460405162461bcd60e51b815260206004820152602960248201527f4d696e696d756d2062757920616d6f756e74206d75737420626520677265617460448201527f6572207468616e203000000000000000000000000000000000000000000000006064820152fd5b3461014b575f36600319011261014b5760206104026112c7565b3461014b575f36600319011261014b5760206001600160a01b037f9016d09d72d40fdae2fd8ceac6b6234c7706214fd39c1cd1e609a0528c1993005416604051908152f35b3461014b57604036600319011261014b57670de0b6b3a7640000610711600554600435611231565b0461071a6112c7565b670de0b6b3a7640000820291808304670de0b6b3a764000014901517156107775761074491611244565b61074f60243561137d565b906402540be4008102908082046402540be40014901517156107775760209161040291611244565b634e487b7160e01b5f52601160045260245ffd5b3461014b57602036600319011261014b576004356107a761149b565b80156107e1577ffbf1c61f941bd26587ffaaf15669d2ef6feacd7412fe4bff20a7295bceebe82060206005549280600555604051908152a2005b606460405162461bcd60e51b815260206004820152601c60248201527f5072696365206d7573742062652067726561746572207468616e2030000000006044820152fd5b3461014b575f36600319011261014b5760206001600160a01b0360015416604051908152f35b3461014b575f36600319011261014b5761086361149b565b5f6001600160a01b037f9016d09d72d40fdae2fd8ceac6b6234c7706214fd39c1cd1e609a0528c199300546001600160a01b031981167f9016d09d72d40fdae2fd8ceac6b6234c7706214fd39c1cd1e609a0528c19930055167f8be0079c531659141344cd1fd0a4f28419497f9722a3daafe3b4186f6b6457e08280a3005b3461014b57608036600319011261014b5760043560643567ffffffffffffffff811161014b573660238201121561014b57806004013567ffffffffffffffff811161014b57366024828401011161014b5760ff60065416610ea357335f52600760205260ff60405f205416610e5f575f548310610e1b57670de0b6b3a764000061096e60055485611231565b600154604051636eb1769f60e11b815233600482015230602482015292909104936001600160a01b0390911691602081604481865afa90811561059b575f91610de9575b505f610a7e610a9e8293604051906109cb608083611262565b604282527f47484b452d3e555344542d3e47484b20737761702063616c6c65643a20616d6f60208301527f756e743d25732c20757364416d6f756e743d25732c20616c6c6f77616e63653d60408301527f257300000000000000000000000000000000000000000000000000000000000060608301526040519384927fa7a878530000000000000000000000000000000000000000000000000000000060208501526080602485015260a48401906114fa565b908b60448401528a6064840152608483015203601f198101835282611262565b6020815191016a636f6e736f6c652e6c6f675afa50604051636eb1769f60e11b8152336004820152306024820152602081604481865afa90811561059b575f91610db5575b50610c7e925f80610b90610bb0610c179560405190610b03606083611262565b602482527f6d73672e73656e6465723d25732c20746869733d25732c20616c6c6f77616e6360208301527f653d25730000000000000000000000000000000000000000000000000000000060408301526040519384927f8ef3f3990000000000000000000000000000000000000000000000000000000060208501526080602485015260a48401906114fa565b90336044840152306064840152608483015203601f198101835282611262565b6020815191016a636f6e736f6c652e6c6f675afa50604051907f23b872dd00000000000000000000000000000000000000000000000000000000602083015233602483015261dead604483015287606483015260648252610c12608483611262565b61151e565b6020846001600160a01b03600254166001600160a01b03600454165f6040518097819582947f095ea7b300000000000000000000000000000000000000000000000000000000845260048401602090939291936001600160a01b0360408201951681520152565b03925af190811561059b57602092602492610d9a575b506001600160a01b0360045416905f60e46001600160a01b036002541687604051988997889687947fff68c98a000000000000000000000000000000000000000000000000000000008652336004870152828601528c604486015281356064860152604435608486015260c060a48601528260c486015201848401378181018301849052601f01601f191681010301925af1801561059b57610d6d575b50600554604051928352602083015260408201527f5620e542b9ce6a03dbe5af2c6483e766af6c96439562b26a0dcd2edd7099524b60603392a2005b610d8e9060203d602011610d93575b610d868183611262565b810190611298565b610d31565b503d610d7c565b610db090843d8611610d9357610d868183611262565b610c94565b90506020813d602011610de1575b81610dd060209383611262565b8101031261014b5751610c7e610ae3565b3d9150610dc3565b90506020813d602011610e13575b81610e0460209383611262565b8101031261014b57515f6109b2565b3d9150610df7565b606460405162461bcd60e51b815260206004820152601460248201527f616d6f756e74206c657373207468616e206d696e0000000000000000000000006044820152fd5b606460405162461bcd60e51b815260206004820152601e60248201527f426c61636b6c6973743a207573657220697320626c61636b6c697374656400006044820152fd5b606460405162461bcd60e51b815260206004820152600760248201527f73746f70706564000000000000000000000000000000000000000000000000006044820152fd5b3461014b57602036600319011261014b5760043580151580910361014b57610f0d61149b565b60ff801960065416911680911760065515157f76f505c1fd073fad1cb2a7c8c7520aefc63d16d8d25b14a916a8ee558aacb2985f80a2005b3461014b57602036600319011261014b576001600160a01b03610f666111ba565b610f6e61149b565b16610f7a8115156111e6565b805f52600760205260ff60405f20541615610fc957805f52600760205260405f2060ff1981541690557f2b6bf71b58b3583add364b3d9060ebf8019650f65f5be35f5464b9cb3e4ba2d45f80a2005b606460405162461bcd60e51b815260206004820152601f60248201527f426c61636b6c697374546f6b656e3a204e6f7420626c61636b6c6973746564006044820152fd5b3461014b57602036600319011261014b576001600160a01b0361102e6111ba565b61103661149b565b166110428115156111e6565b805f52600760205260ff60405f20541661109357805f52600760205260405f20600160ff198254161790557ff9b68063b051b82957fa193585681240904fed808db8b30fc5a2d2202c6ed6275f80a2005b608460405162461bcd60e51b815260206004820152602360248201527f426c61636b6c697374546f6b656e3a20416c726561647920626c61636b6c697360448201527f74656400000000000000000000000000000000000000000000000000000000006064820152fd5b3461014b575f36600319011261014b5760206001600160a01b0360045416604051908152f35b3461014b575f36600319011261014b576020600554604051908152f35b3461014b57602036600319011261014b576001600160a01b036111616111ba565b61116961149b565b166001600160a01b031960085416176008555f80f35b3461014b575f36600319011261014b5760205f54604051908152f35b3461014b575f36600319011261014b5760209060ff6006541615158152f35b600435906001600160a01b038216820361014b57565b602435906001600160a01b038216820361014b57565b156111ed57565b606460405162461bcd60e51b815260206004820152601c60248201527f426c61636b6c697374546f6b656e3a205a65726f2061646472657373000000006044820152fd5b8181029291811591840414171561077757565b811561124e570490565b634e487b7160e01b5f52601260045260245ffd5b90601f8019910116810190811067ffffffffffffffff82111761128457604052565b634e487b7160e01b5f52604160045260245ffd5b9081602091031261014b5751801515810361014b5790565b519069ffffffffffffffffffff8216820361014b57565b600460a06001600160a01b0360085416604051928380927ffeaf968c0000000000000000000000000000000000000000000000000000000082525afa90811561059b575f91611330575b506402540be4008102908082046402540be40014901517156107775790565b905060a0813d60a011611375575b8161134b60a09383611262565b8101031261014b5761135c816112b0565b5061136e6080602083015192016112b0565b505f611311565b3d915061133e565b6402540be4008102908082046402540be4001490151715610777576113aa6305f5e1009160035490611244565b046113b36112c7565b670de0b6b3a7640000820291808304670de0b6b3a76400001490151715610777576113dd91611244565b90565b6001600160a01b0316801561146f576001600160a01b037f9016d09d72d40fdae2fd8ceac6b6234c7706214fd39c1cd1e609a0528c19930054826001600160a01b03198216177f9016d09d72d40fdae2fd8ceac6b6234c7706214fd39c1cd1e609a0528c19930055167f8be0079c531659141344cd1fd0a4f28419497f9722a3daafe3b4186f6b6457e05f80a3565b7f1e4fbdf7000000000000000000000000000000000000000000000000000000005f525f60045260245ffd5b6001600160a01b037f9016d09d72d40fdae2fd8ceac6b6234c7706214fd39c1cd1e609a0528c199300541633036114ce57565b7f118cdaa7000000000000000000000000000000000000000000000000000000005f523360045260245ffd5b805180835260209291819084018484015e5f828201840152601f01601f1916010190565b905f602091828151910182855af11561059b575f513d61158257506001600160a01b0381163b155b61154d5750565b6001600160a01b03907f5274afe7000000000000000000000000000000000000000000000000000000005f521660045260245ffd5b60011415611546565b60ff7ff0c57e16840df040f15088dc2f81fe391c3923bec73e23a9662efc9c229c6a005460401c16156115ba57565b7fd7e6bcf8000000000000000000000000000000000000000000000000000000005f5260045ffdfea26469706673582212204667b365fb4fda8621b67427751391352810be1b52309705a353c597b705c59f64736f6c634300081e0033",
  "linkReferences": {},
  "deployedLinkReferences": {},
  "immutableReferences": {},
  "inputSourceName": "project/contracts/ghke-buy/GHKESwapPool.sol",
  "buildInfoId": "solc-0_8_30-2175cdea221231af4fe56d7a0fd135c57589bbc5"
}