{
  "_format": "hh3-artifact-1",
  "contractName": "GHKESwapPool",
  "sourceName": "contracts/ghke-buy/GHKESwapPool.sol",
  "abi": [
    {
      "inputs": [],
      "name": "InvalidInitialization",
      "type": "error"
    },
    {
      "inputs": [],
      "name": "NotInitializing",
      "type": "error"
    },
    {
      "inputs": [
        {
          "internalType": "address",
          "name": "owner",
          "type": "address"
        }
      ],
      "name": "OwnableInvalidOwner",
      "type": "error"
    },
    {
      "inputs": [
        {
          "internalType": "address",
          "name": "account",
          "type": "address"
        }
      ],
      "name": "OwnableUnauthorizedAccount",
      "type": "error"
    },
    {
      "inputs": [
        {
          "internalType": "address",
          "name": "token",
          "type": "address"
        }
      ],
      "name": "SafeERC20FailedOperation",
      "type": "error"
    },
    {
      "anonymous": false,
      "inputs": [
        {
          "indexed": true,
          "internalType": "address",
          "name": "account",
          "type": "address"
        }
      ],
      "name": "AddedToBlacklist",
      "type": "event"
    },
    {
      "anonymous": false,
      "inputs": [
        {
          "indexed": true,
          "internalType": "address",
          "name": "coin",
          "type": "address"
        },
        {
          "indexed": false,
          "internalType": "address",
          "name": "to",
          "type": "address"
        },
        {
          "indexed": false,
          "internalType": "uint256",
          "name": "amount",
          "type": "uint256"
        }
      ],
      "name": "EmergencyWithdraw",
      "type": "event"
    },
    {
      "anonymous": false,
      "inputs": [
        {
          "indexed": true,
          "internalType": "uint256",
          "name": "oldValue",
          "type": "uint256"
        },
        {
          "indexed": false,
          "internalType": "uint256",
          "name": "newValue",
          "type": "uint256"
        }
      ],
      "name": "GHKE_USDT_PriceUpdated",
      "type": "event"
    },
    {
      "anonymous": false,
      "inputs": [
        {
          "indexed": false,
          "internalType": "uint64",
          "name": "version",
          "type": "uint64"
        }
      ],
      "name": "Initialized",
      "type": "event"
    },
    {
      "anonymous": false,
      "inputs": [
        {
          "indexed": true,
          "internalType": "address",
          "name": "previousOwner",
          "type": "address"
        },
        {
          "indexed": true,
          "internalType": "address",
          "name": "newOwner",
          "type": "address"
        }
      ],
      "name": "OwnershipTransferred",
      "type": "event"
    },
    {
      "anonymous": false,
      "inputs": [
        {
          "indexed": true,
          "internalType": "address",
          "name": "account",
          "type": "address"
        }
      ],
      "name": "RemovedFromBlacklist",
      "type": "event"
    },
    {
      "anonymous": false,
      "inputs": [
        {
          "indexed": true,
          "internalType": "bool",
          "name": "stop",
          "type": "bool"
        }
      ],
      "name": "StopStatusChanged",
      "type": "event"
    },
    {
      "anonymous": false,
      "inputs": [
        {
          "indexed": true,
          "internalType": "address",
          "name": "user",
          "type": "address"
        },
        {
          "indexed": false,
          "internalType": "uint256",
          "name": "amount",
          "type": "uint256"
        },
        {
          "indexed": false,
          "internalType": "uint256",
          "name": "price",
          "type": "uint256"
        },
        {
          "indexed": false,
          "internalType": "uint256",
          "name": "usdAmount",
          "type": "uint256"
        }
      ],
      "name": "Swap",
      "type": "event"
    },
    {
      "anonymous": false,
      "inputs": [
        {
          "indexed": true,
          "internalType": "uint256",
          "name": "oldValue",
          "type": "uint256"
        },
        {
          "indexed": false,
          "internalType": "uint256",
          "name": "newValue",
          "type": "uint256"
        }
      ],
      "name": "SwapGHKEAmountMinUpdated",
      "type": "event"
    },
    {
      "inputs": [],
      "name": "GHKE",
      "outputs": [
        {
          "internalType": "contract IERC20",
          "name": "",
          "type": "address"
        }
      ],
      "stateMutability": "view",
      "type": "function"
    },
    {
      "inputs": [],
      "name": "GHKE_USDT_PRICE",
      "outputs": [
        {
          "internalType": "uint256",
          "name": "",
          "type": "uint256"
        }
      ],
      "stateMutability": "view",
      "type": "function"
    },
    {
      "inputs": [],
      "name": "GHK_BUY_POOL_ADDRESS",
      "outputs": [
        {
          "internalType": "address",
          "name": "",
          "type": "address"
        }
      ],
      "stateMutability": "view",
      "type": "function"
    },
    {
      "inputs": [],
      "name": "SWAP_GHKE_AMOUNT_MIN",
      "outputs": [
        {
          "internalType": "uint256",
          "name": "",
          "type": "uint256"
        }
      ],
      "stateMutability": "view",
      "type": "function"
    },
    {
      "inputs": [],
      "name": "USDT",
      "outputs": [
        {
          "internalType": "contract IERC20",
          "name": "",
          "type": "address"
        }
      ],
      "stateMutability": "view",
      "type": "function"
    },
    {
      "inputs": [
        {
          "internalType": "address",
          "name": "account",
          "type": "address"
        }
      ],
      "name": "addToBlacklist",
      "outputs": [],
      "stateMutability": "nonpayable",
      "type": "function"
    },
    {
      "inputs": [
        {
          "internalType": "address",
          "name": "coin",
          "type": "address"
        },
        {
          "internalType": "address",
          "name": "to",
          "type": "address"
        },
        {
          "internalType": "uint256",
          "name": "amount",
          "type": "uint256"
        }
      ],
      "name": "emergencyWithdraw",
      "outputs": [],
      "stateMutability": "nonpayable",
      "type": "function"
    },
    {
      "inputs": [
        {
          "internalType": "uint256",
          "name": "amountIn",
          "type": "uint256"
        },
        {
          "internalType": "uint256",
          "name": "offchainXAUPrice",
          "type": "uint256"
        }
      ],
      "name": "getAmountOut",
      "outputs": [
        {
          "internalType": "uint256",
          "name": "",
          "type": "uint256"
        }
      ],
      "stateMutability": "view",
      "type": "function"
    },
    {
      "inputs": [
        {
          "internalType": "uint256",
          "name": "offchainXAUPrice",
          "type": "uint256"
        }
      ],
      "name": "getPrice",
      "outputs": [
        {
          "internalType": "uint256",
          "name": "",
          "type": "uint256"
        }
      ],
      "stateMutability": "view",
      "type": "function"
    },
    {
      "inputs": [],
      "name": "getUsdtPrice",
      "outputs": [
        {
          "internalType": "uint256",
          "name": "",
          "type": "uint256"
        }
      ],
      "stateMutability": "view",
      "type": "function"
    },
    {
      "inputs": [
        {
          "internalType": "address",
          "name": "_GHKE",
          "type": "address"
        },
        {
          "internalType": "address",
          "name": "_USDT",
          "type": "address"
        },
        {
          "internalType": "address",
          "name": "_dataFeedUSDT",
          "type": "address"
        },
        {
          "internalType": "address",
          "name": "_GHK_BUY_POOL_ADDRESS",
          "type": "address"
        }
      ],
      "name": "initialize",
      "outputs": [],
      "stateMutability": "nonpayable",
      "type": "function"
    },
    {
      "inputs": [
        {
          "internalType": "address",
          "name": "account",
          "type": "address"
        }
      ],
      "name": "isBlacklisted",
      "outputs": [
        {
          "internalType": "bool",
          "name": "",
          "type": "bool"
        }
      ],
      "stateMutability": "view",
      "type": "function"
    },
    {
      "inputs": [],
      "name": "owner",
      "outputs": [
        {
          "internalType": "address",
          "name": "",
          "type": "address"
        }
      ],
      "stateMutability": "view",
      "type": "function"
    },
    {
      "inputs": [
        {
          "internalType": "address",
          "name": "account",
          "type": "address"
        }
      ],
      "name": "removeFromBlacklist",
      "outputs": [],
      "stateMutability": "nonpayable",
      "type": "function"
    },
    {
      "inputs": [],
      "name": "renounceOwnership",
      "outputs": [],
      "stateMutability": "nonpayable",
      "type": "function"
    },
    {
      "inputs": [
        {
          "internalType": "address",
          "name": "_dataFeedUSDT",
          "type": "address"
        }
      ],
      "name": "setDataFeedUSDT",
      "outputs": [],
      "stateMutability": "nonpayable",
      "type": "function"
    },
    {
      "inputs": [
        {
          "internalType": "uint256",
          "name": "newPrice",
          "type": "uint256"
        }
      ],
      "name": "setGHKE_USDT_Price",
      "outputs": [],
      "stateMutability": "nonpayable",
      "type": "function"
    },
    {
      "inputs": [
        {
          "internalType": "bool",
          "name": "isStop",
          "type": "bool"
        }
      ],
      "name": "setStop",
      "outputs": [],
      "stateMutability": "nonpayable",
      "type": "function"
    },
    {
      "inputs": [
        {
          "internalType": "uint256",
          "name": "_newMin",
          "type": "uint256"
        }
      ],
      "name": "setSwapGHKEAmountMin",
      "outputs": [],
      "stateMutability": "nonpayable",
      "type": "function"
    },
    {
      "inputs": [],
      "name": "stop",
      "outputs": [
        {
          "internalType": "bool",
          "name": "",
          "type": "bool"
        }
      ],
      "stateMutability": "view",
      "type": "function"
    },
    {
      "inputs": [
        {
          "internalType": "uint256",
          "name": "amount",
          "type": "uint256"
        },
        {
          "internalType": "uint256",
          "name": "offchainXAUPrice",
          "type": "uint256"
        },
        {
          "internalType": "uint256",
          "name": "deadline",
          "type": "uint256"
        },
        {
          "internalType": "bytes",
          "name": "sig",
          "type": "bytes"
        }
      ],
      "name": "swap",
      "outputs": [],
      "stateMutability": "nonpayable",
      "type": "function"
    },
    {
      "inputs": [
        {
          "internalType": "address",
          "name": "newOwner",
          "type": "address"
        }
      ],
      "name": "transferOwnership",
      "outputs": [],
      "stateMutability": "nonpayable",
      "type": "function"
    }
  ],
  "bytecode": "0x6080806040523460155761133c908161001a8239f35b5f80fdfe6080806040526004361015610012575f80fd5b5f3560e01c90816307da68f514610ee4575080630b8c875f14610ec757806328f32d1a14610eaa57806336aa2dc714610e8457806344337ea114610d94578063537df3b614610ccc578063641657cb14610c6e5780636ae6a1be14610920578063715018a614610889578063717c0638146108635780637889507a146107c95780637cabb7cf1461072757806381be4cf1146106ea5780638da5cb5b146106a5578063961bdfbf1461068b578063b140a141146105cb578063c54e44eb146105a5578063e63ea40814610409578063e7572230146103e3578063f2fde38b146103b8578063f8c8765e1461014f5763fe575a871461010e575f80fd5b3461014b57602036600319011261014b576001600160a01b0361012f610f03565b165f526008602052602060ff60405f2054166040519015158152f35b5f80fd5b3461014b57608036600319011261014b57610168610f03565b610170610f19565b906044356001600160a01b03811680910361014b57606435916001600160a01b03831680930361014b577ff0c57e16840df040f15088dc2f81fe391c3923bec73e23a9662efc9c229c6a00549360ff8560401c16159467ffffffffffffffff8116801590816103b0575b60011490816103a6575b15908161039d575b506103755767ffffffffffffffff1981166001177ff0c57e16840df040f15088dc2f81fe391c3923bec73e23a9662efc9c229c6a00556001600160a01b0392839187610336575b5061023c6112af565b6102446112af565b61024d33611128565b166001600160a01b03196002541617600255166001600160a01b031960035416176003556001600160a01b03195f5416175f556001600160a01b0319600554161760055568056bc75e2d6310000060015567016345785d8a000060065564486b1dea806004556102b957005b68ff0000000000000000197ff0c57e16840df040f15088dc2f81fe391c3923bec73e23a9662efc9c229c6a0054167ff0c57e16840df040f15088dc2f81fe391c3923bec73e23a9662efc9c229c6a00557fc7f505b2f371ae2175ee4913f4499e1f2633a7b5936321eed1cdaeb6115181d2602060405160018152a1005b68ffffffffffffffffff191668010000000000000001177ff0c57e16840df040f15088dc2f81fe391c3923bec73e23a9662efc9c229c6a005587610233565b7ff92ee8a9000000000000000000000000000000000000000000000000000000005f5260045ffd5b905015876101ec565b303b1591506101e4565b8791506101da565b3461014b57602036600319011261014b576103e16103d4610f03565b6103dc6111e3565b611128565b005b3461014b57602036600319011261014b5760206104016004356110c5565b604051908152f35b3461014b57606036600319011261014b57610422610f03565b61042a610f19565b6001600160a01b036044359261043e6111e3565b16916040517f70a08231000000000000000000000000000000000000000000000000000000008152306004820152602081602481875afa801561059a5782915f91610565575b5010610521576040517fa9059cbb0000000000000000000000000000000000000000000000000000000060208201526001600160a01b0383166024820152604480820183905281527ff24ef89f38eadc1bde50701ad6e4d6d11a2dc24f7cf834a486991f38833285049290610504906104fe606482610fab565b85611242565b604080516001600160a01b039290921682526020820192909252a2005b606460405162461bcd60e51b815260206004820152600c60248201527f616d6f756e74206572726f7200000000000000000000000000000000000000006044820152fd5b9150506020813d602011610592575b8161058160209383610fab565b8101031261014b5781905185610484565b3d9150610574565b6040513d5f823e3d90fd5b3461014b575f36600319011261014b5760206001600160a01b0360035416604051908152f35b3461014b57602036600319011261014b576004356105e76111e3565b8015610621577f65431d46de2e6801eef897180da1a59c39042ca34836a63f377caf6b4f6c8fa560206001549280600155604051908152a2005b608460405162461bcd60e51b815260206004820152602960248201527f4d696e696d756d2062757920616d6f756e74206d75737420626520677265617460448201527f6572207468616e203000000000000000000000000000000000000000000000006064820152fd5b3461014b575f36600319011261014b576020610401611010565b3461014b575f36600319011261014b5760206001600160a01b037f9016d09d72d40fdae2fd8ceac6b6234c7706214fd39c1cd1e609a0528c1993005416604051908152f35b3461014b57602036600319011261014b576001600160a01b0361070b610f03565b6107136111e3565b166001600160a01b03195f5416175f555f80f35b3461014b57604036600319011261014b57670de0b6b3a764000061074f600654600435610f7a565b04610758611010565b670de0b6b3a7640000820291808304670de0b6b3a764000014901517156107b55761078291610f8d565b61078d6024356110c5565b906402540be4008102908082046402540be40014901517156107b55760209161040191610f8d565b634e487b7160e01b5f52601160045260245ffd5b3461014b57602036600319011261014b576004356107e56111e3565b801561081f577ffbf1c61f941bd26587ffaaf15669d2ef6feacd7412fe4bff20a7295bceebe82060206006549280600655604051908152a2005b606460405162461bcd60e51b815260206004820152601c60248201527f5072696365206d7573742062652067726561746572207468616e2030000000006044820152fd5b3461014b575f36600319011261014b5760206001600160a01b0360025416604051908152f35b3461014b575f36600319011261014b576108a16111e3565b5f6001600160a01b037f9016d09d72d40fdae2fd8ceac6b6234c7706214fd39c1cd1e609a0528c199300546001600160a01b031981167f9016d09d72d40fdae2fd8ceac6b6234c7706214fd39c1cd1e609a0528c19930055167f8be0079c531659141344cd1fd0a4f28419497f9722a3daafe3b4186f6b6457e08280a3005b3461014b57608036600319011261014b5760043560643567ffffffffffffffff811161014b573660238201121561014b57806004013567ffffffffffffffff811161014b57366024828401011161014b5760ff60075416610c2a57335f52600860205260ff60405f205416610be6576001548310610ba257610a6b670de0b6b3a76400006109b060065486610f7a565b0492610a136001600160a01b0360025416604051907f23b872dd00000000000000000000000000000000000000000000000000000000602083015233602483015261dead604483015287606483015260648252610a0e608483610fab565b611242565b6003546005546040517f095ea7b30000000000000000000000000000000000000000000000000000000081526001600160a01b03918216600482015260248101879052936020928592169082905f9082906044820190565b03925af190811561059a57602092602492610b87575b506001600160a01b0360055416905f60e46001600160a01b036003541687604051988997889687947fff68c98a000000000000000000000000000000000000000000000000000000008652336004870152828601528c604486015281356064860152604435608486015260c060a48601528260c486015201848401378181018301849052601f01601f191681010301925af1801561059a57610b5a575b50600654604051928352602083015260408201527f5620e542b9ce6a03dbe5af2c6483e766af6c96439562b26a0dcd2edd7099524b60603392a2005b610b7b9060203d602011610b80575b610b738183610fab565b810190610fe1565b610b1e565b503d610b69565b610b9d90843d8611610b8057610b738183610fab565b610a81565b606460405162461bcd60e51b815260206004820152601460248201527f616d6f756e74206c657373207468616e206d696e0000000000000000000000006044820152fd5b606460405162461bcd60e51b815260206004820152601e60248201527f426c61636b6c6973743a207573657220697320626c61636b6c697374656400006044820152fd5b606460405162461bcd60e51b815260206004820152600760248201527f73746f70706564000000000000000000000000000000000000000000000000006044820152fd5b3461014b57602036600319011261014b5760043580151580910361014b57610c946111e3565b60ff801960075416911680911760075515157f76f505c1fd073fad1cb2a7c8c7520aefc63d16d8d25b14a916a8ee558aacb2985f80a2005b3461014b57602036600319011261014b576001600160a01b03610ced610f03565b610cf56111e3565b16610d01811515610f2f565b805f52600860205260ff60405f20541615610d5057805f52600860205260405f2060ff1981541690557f2b6bf71b58b3583add364b3d9060ebf8019650f65f5be35f5464b9cb3e4ba2d45f80a2005b606460405162461bcd60e51b815260206004820152601f60248201527f426c61636b6c697374546f6b656e3a204e6f7420626c61636b6c6973746564006044820152fd5b3461014b57602036600319011261014b576001600160a01b03610db5610f03565b610dbd6111e3565b16610dc9811515610f2f565b805f52600860205260ff60405f205416610e1a57805f52600860205260405f20600160ff198254161790557ff9b68063b051b82957fa193585681240904fed808db8b30fc5a2d2202c6ed6275f80a2005b608460405162461bcd60e51b815260206004820152602360248201527f426c61636b6c697374546f6b656e3a20416c726561647920626c61636b6c697360448201527f74656400000000000000000000000000000000000000000000000000000000006064820152fd5b3461014b575f36600319011261014b5760206001600160a01b0360055416604051908152f35b3461014b575f36600319011261014b576020600654604051908152f35b3461014b575f36600319011261014b576020600154604051908152f35b3461014b575f36600319011261014b5760209060ff6007541615158152f35b600435906001600160a01b038216820361014b57565b602435906001600160a01b038216820361014b57565b15610f3657565b606460405162461bcd60e51b815260206004820152601c60248201527f426c61636b6c697374546f6b656e3a205a65726f2061646472657373000000006044820152fd5b818102929181159184041417156107b557565b8115610f97570490565b634e487b7160e01b5f52601260045260245ffd5b90601f8019910116810190811067ffffffffffffffff821117610fcd57604052565b634e487b7160e01b5f52604160045260245ffd5b9081602091031261014b5751801515810361014b5790565b519069ffffffffffffffffffff8216820361014b57565b600460a06001600160a01b035f5416604051928380927ffeaf968c0000000000000000000000000000000000000000000000000000000082525afa90811561059a575f91611078575b506402540be4008102908082046402540be40014901517156107b55790565b905060a0813d60a0116110bd575b8161109360a09383610fab565b8101031261014b576110a481610ff9565b506110b6608060208301519201610ff9565b505f611059565b3d9150611086565b6402540be4008102908082046402540be40014901517156107b5576110f26305f5e1009160045490610f8d565b046110fb611010565b670de0b6b3a7640000820291808304670de0b6b3a764000014901517156107b55761112591610f8d565b90565b6001600160a01b031680156111b7576001600160a01b037f9016d09d72d40fdae2fd8ceac6b6234c7706214fd39c1cd1e609a0528c19930054826001600160a01b03198216177f9016d09d72d40fdae2fd8ceac6b6234c7706214fd39c1cd1e609a0528c19930055167f8be0079c531659141344cd1fd0a4f28419497f9722a3daafe3b4186f6b6457e05f80a3565b7f1e4fbdf7000000000000000000000000000000000000000000000000000000005f525f60045260245ffd5b6001600160a01b037f9016d09d72d40fdae2fd8ceac6b6234c7706214fd39c1cd1e609a0528c1993005416330361121657565b7f118cdaa7000000000000000000000000000000000000000000000000000000005f523360045260245ffd5b905f602091828151910182855af11561059a575f513d6112a657506001600160a01b0381163b155b6112715750565b6001600160a01b03907f5274afe7000000000000000000000000000000000000000000000000000000005f521660045260245ffd5b6001141561126a565b60ff7ff0c57e16840df040f15088dc2f81fe391c3923bec73e23a9662efc9c229c6a005460401c16156112de57565b7fd7e6bcf8000000000000000000000000000000000000000000000000000000005f5260045ffdfea26469706673582212205e44570dfd89cd790372f78491085666e11a5480841ea826053450f23dcdacc364736f6c634300081e0033",
  "linkReferences": {},
  "deployedLinkReferences": {},
  "immutableReferences": {},
  "inputSourceName": "project/contracts/ghke-buy/GHKESwapPool.sol",
  "buildInfoId": "solc-0_8_30-b5a2da7b832a14d859010e43fc98931459f628dc"
}