{
  "_format": "hh3-artifact-1",
  "contractName": "GHKEMiningPool",
  "sourceName": "contracts/ghke-mining-pool/GHKEMiningPool.sol",
  "abi": [
    {
      "inputs": [],
      "name": "InvalidInitialization",
      "type": "error"
    },
    {
      "inputs": [],
      "name": "NotInitializing",
      "type": "error"
    },
    {
      "inputs": [
        {
          "internalType": "address",
          "name": "owner",
          "type": "address"
        }
      ],
      "name": "OwnableInvalidOwner",
      "type": "error"
    },
    {
      "inputs": [
        {
          "internalType": "address",
          "name": "account",
          "type": "address"
        }
      ],
      "name": "OwnableUnauthorizedAccount",
      "type": "error"
    },
    {
      "inputs": [
        {
          "internalType": "address",
          "name": "token",
          "type": "address"
        }
      ],
      "name": "SafeERC20FailedOperation",
      "type": "error"
    },
    {
      "anonymous": false,
      "inputs": [
        {
          "indexed": false,
          "internalType": "uint64",
          "name": "version",
          "type": "uint64"
        }
      ],
      "name": "Initialized",
      "type": "event"
    },
    {
      "anonymous": false,
      "inputs": [
        {
          "indexed": true,
          "internalType": "uint256",
          "name": "oldVal",
          "type": "uint256"
        },
        {
          "indexed": false,
          "internalType": "uint256",
          "name": "newVal",
          "type": "uint256"
        }
      ],
      "name": "LockPeriodUpdated",
      "type": "event"
    },
    {
      "anonymous": false,
      "inputs": [
        {
          "indexed": true,
          "internalType": "uint256",
          "name": "oldVal",
          "type": "uint256"
        },
        {
          "indexed": false,
          "internalType": "uint256",
          "name": "newVal",
          "type": "uint256"
        }
      ],
      "name": "MinStakeGhkAmountUpdated",
      "type": "event"
    },
    {
      "anonymous": false,
      "inputs": [
        {
          "indexed": true,
          "internalType": "address",
          "name": "previousOwner",
          "type": "address"
        },
        {
          "indexed": true,
          "internalType": "address",
          "name": "newOwner",
          "type": "address"
        }
      ],
      "name": "OwnershipTransferred",
      "type": "event"
    },
    {
      "anonymous": false,
      "inputs": [
        {
          "indexed": true,
          "internalType": "address",
          "name": "user",
          "type": "address"
        },
        {
          "indexed": false,
          "internalType": "uint256",
          "name": "reward",
          "type": "uint256"
        }
      ],
      "name": "RewardClaimed",
      "type": "event"
    },
    {
      "anonymous": false,
      "inputs": [
        {
          "indexed": false,
          "internalType": "uint256",
          "name": "newRate",
          "type": "uint256"
        }
      ],
      "name": "RewardRateUpdated",
      "type": "event"
    },
    {
      "anonymous": false,
      "inputs": [
        {
          "indexed": true,
          "internalType": "address",
          "name": "user",
          "type": "address"
        },
        {
          "indexed": false,
          "internalType": "uint256",
          "name": "amount",
          "type": "uint256"
        },
        {
          "indexed": false,
          "internalType": "uint256",
          "name": "index",
          "type": "uint256"
        }
      ],
      "name": "Staked",
      "type": "event"
    },
    {
      "anonymous": false,
      "inputs": [
        {
          "indexed": true,
          "internalType": "address",
          "name": "user",
          "type": "address"
        },
        {
          "indexed": false,
          "internalType": "uint256",
          "name": "amount",
          "type": "uint256"
        },
        {
          "indexed": false,
          "internalType": "uint256",
          "name": "index",
          "type": "uint256"
        }
      ],
      "name": "Unstaked",
      "type": "event"
    },
    {
      "inputs": [],
      "name": "LOCK_PERIOD",
      "outputs": [
        {
          "internalType": "uint256",
          "name": "",
          "type": "uint256"
        }
      ],
      "stateMutability": "view",
      "type": "function"
    },
    {
      "inputs": [],
      "name": "MAX_STAKES",
      "outputs": [
        {
          "internalType": "uint256",
          "name": "",
          "type": "uint256"
        }
      ],
      "stateMutability": "view",
      "type": "function"
    },
    {
      "inputs": [],
      "name": "MIN_STAKE_GHK_AMOUNT",
      "outputs": [
        {
          "internalType": "uint256",
          "name": "",
          "type": "uint256"
        }
      ],
      "stateMutability": "view",
      "type": "function"
    },
    {
      "inputs": [
        {
          "internalType": "address",
          "name": "user",
          "type": "address"
        },
        {
          "internalType": "uint256",
          "name": "index",
          "type": "uint256"
        }
      ],
      "name": "calculateReward",
      "outputs": [
        {
          "internalType": "uint256",
          "name": "",
          "type": "uint256"
        }
      ],
      "stateMutability": "view",
      "type": "function"
    },
    {
      "inputs": [
        {
          "internalType": "uint256",
          "name": "index",
          "type": "uint256"
        }
      ],
      "name": "claimReward",
      "outputs": [],
      "stateMutability": "nonpayable",
      "type": "function"
    },
    {
      "inputs": [],
      "name": "cumulativeRewardRate",
      "outputs": [
        {
          "internalType": "uint256",
          "name": "",
          "type": "uint256"
        }
      ],
      "stateMutability": "view",
      "type": "function"
    },
    {
      "inputs": [],
      "name": "currentRewardPerDay",
      "outputs": [
        {
          "internalType": "uint256",
          "name": "",
          "type": "uint256"
        }
      ],
      "stateMutability": "view",
      "type": "function"
    },
    {
      "inputs": [
        {
          "internalType": "uint256",
          "name": "amount",
          "type": "uint256"
        }
      ],
      "name": "deposit",
      "outputs": [],
      "stateMutability": "nonpayable",
      "type": "function"
    },
    {
      "inputs": [
        {
          "internalType": "address",
          "name": "user",
          "type": "address"
        }
      ],
      "name": "getStakeCount",
      "outputs": [
        {
          "internalType": "uint256",
          "name": "",
          "type": "uint256"
        }
      ],
      "stateMutability": "view",
      "type": "function"
    },
    {
      "inputs": [
        {
          "internalType": "address",
          "name": "user",
          "type": "address"
        },
        {
          "internalType": "uint256",
          "name": "startIndex",
          "type": "uint256"
        }
      ],
      "name": "getStakesPage",
      "outputs": [
        {
          "internalType": "uint256[]",
          "name": "ids",
          "type": "uint256[]"
        },
        {
          "internalType": "uint256[]",
          "name": "amounts",
          "type": "uint256[]"
        },
        {
          "internalType": "uint256[]",
          "name": "startTimes",
          "type": "uint256[]"
        },
        {
          "internalType": "uint256[]",
          "name": "unlockTimes",
          "type": "uint256[]"
        },
        {
          "internalType": "uint256[]",
          "name": "rewards",
          "type": "uint256[]"
        }
      ],
      "stateMutability": "view",
      "type": "function"
    },
    {
      "inputs": [],
      "name": "ghkToken",
      "outputs": [
        {
          "internalType": "contract IERC20",
          "name": "",
          "type": "address"
        }
      ],
      "stateMutability": "view",
      "type": "function"
    },
    {
      "inputs": [],
      "name": "ghkeToken",
      "outputs": [
        {
          "internalType": "contract IERC20",
          "name": "",
          "type": "address"
        }
      ],
      "stateMutability": "view",
      "type": "function"
    },
    {
      "inputs": [
        {
          "internalType": "address",
          "name": "_ghkToken",
          "type": "address"
        },
        {
          "internalType": "address",
          "name": "_ghkeToken",
          "type": "address"
        }
      ],
      "name": "initialize",
      "outputs": [],
      "stateMutability": "nonpayable",
      "type": "function"
    },
    {
      "inputs": [],
      "name": "lastUpdateTime",
      "outputs": [
        {
          "internalType": "uint256",
          "name": "",
          "type": "uint256"
        }
      ],
      "stateMutability": "view",
      "type": "function"
    },
    {
      "inputs": [],
      "name": "owner",
      "outputs": [
        {
          "internalType": "address",
          "name": "",
          "type": "address"
        }
      ],
      "stateMutability": "view",
      "type": "function"
    },
    {
      "inputs": [],
      "name": "renounceOwnership",
      "outputs": [],
      "stateMutability": "nonpayable",
      "type": "function"
    },
    {
      "inputs": [
        {
          "internalType": "uint256",
          "name": "_newVal",
          "type": "uint256"
        }
      ],
      "name": "setLockPeriod",
      "outputs": [],
      "stateMutability": "nonpayable",
      "type": "function"
    },
    {
      "inputs": [
        {
          "internalType": "uint256",
          "name": "_newVal",
          "type": "uint256"
        }
      ],
      "name": "setMinStakeGhkAmount",
      "outputs": [],
      "stateMutability": "nonpayable",
      "type": "function"
    },
    {
      "inputs": [
        {
          "internalType": "address",
          "name": "",
          "type": "address"
        },
        {
          "internalType": "uint256",
          "name": "",
          "type": "uint256"
        }
      ],
      "name": "stakes",
      "outputs": [
        {
          "internalType": "uint256",
          "name": "amount",
          "type": "uint256"
        },
        {
          "internalType": "uint256",
          "name": "startTime",
          "type": "uint256"
        },
        {
          "internalType": "uint256",
          "name": "unlockTime",
          "type": "uint256"
        },
        {
          "internalType": "uint256",
          "name": "userRewardRate",
          "type": "uint256"
        }
      ],
      "stateMutability": "view",
      "type": "function"
    },
    {
      "inputs": [
        {
          "internalType": "address",
          "name": "newOwner",
          "type": "address"
        }
      ],
      "name": "transferOwnership",
      "outputs": [],
      "stateMutability": "nonpayable",
      "type": "function"
    },
    {
      "inputs": [
        {
          "internalType": "uint256",
          "name": "newRate",
          "type": "uint256"
        }
      ],
      "name": "updateRewardRate",
      "outputs": [],
      "stateMutability": "nonpayable",
      "type": "function"
    },
    {
      "inputs": [
        {
          "internalType": "uint256",
          "name": "index",
          "type": "uint256"
        }
      ],
      "name": "withdraw",
      "outputs": [],
      "stateMutability": "nonpayable",
      "type": "function"
    }
  ],
  "bytecode": "0x60808060405234601557611451908161001a8239f35b5f80fdfe6080806040526004361015610012575f80fd5b5f3560e01c9081630dfa21d714610f5c575080631820cabb14610f3f5780631852e8d914610e795780632e1a7d4d14610d02578063485cc95514610aba578063584b62a114610a495780635be3511d146109f9578063715018a614610955578063779972da146109055780638bf18b2e146108e85780638da5cb5b146108a35780639ef3a2611461084f578063ae169a50146106d8578063af3a2e11146106b2578063b6b55f251461047b578063c8cb0934146101e8578063c8f33c91146101cb578063cf57ee6914610194578063df631bd414610177578063ea6a779b1461015a578063f2fde38b1461012f5763fb9936cb1461010e575f80fd5b3461012b575f36600319011261012b576020600354604051908152f35b5f80fd5b3461012b57602036600319011261012b5761015861014b610f7f565b6101536112ed565b611186565b005b3461012b575f36600319011261012b576020600454604051908152f35b3461012b575f36600319011261012b576020600154604051908152f35b3461012b57602036600319011261012b576001600160a01b036101b5610f7f565b165f525f602052602060405f2054604051908152f35b3461012b575f36600319011261012b576020600254604051908152f35b3461012b57604036600319011261012b57610201610f7f565b6001600160a01b036024359116805f525f60205260405f2054918281101561043757600a81018082116103ee5783101561042f5761023f81846110fb565b925b61024a84611140565b9361025481611140565b9061025e81611140565b9261026882611140565b9461027283611140565b96600154610282600254426110fb565b80151580610424575b610402575b505f1984019384115f5b868110610306576102ca8b6103028c8f8d6102e68e6102d86102f494604051998a9960a08b5260a08b0190610fc2565b9089820360208b0152610fc2565b908782036040890152610fc2565b908582036060870152610fc2565b908382036080850152610fc2565b0390f35b816103ee5780670de0b6b3a76400006103dc828f8f61033c6103348d61032e60019a8f61111b565b906110fb565b938492611172565b52885f525f60205261035d856103558460405f20610f95565b505492611172565b52875f525f6020528b61038185876103788560405f20610f95565b50015492611172565b52875f525f6020528c61039d8560026103788560405f20610f95565b52875f525f6020526103d660036103cd6103ba8460405f20610f95565b5054938b5f525f60205260405f20610f95565b500154886110fb565b90611108565b046103e7828d611172565b520161029a565b634e487b7160e01b5f52601160045260245ffd5b906201518061041761041e9360035490611108565b049061111b565b8a610290565b50600354151561028b565b600a92610241565b606460405162461bcd60e51b815260206004820152601360248201527f496e76616c696420737461727420696e646578000000000000000000000000006044820152fd5b3461012b57602036600319011261012b57600435600554811061064857335f525f60205260405f20546004541115610604576104b561124e565b6105146001600160a01b0360075416604051907f23b872dd0000000000000000000000000000000000000000000000000000000060208301523360248301523060448301528360648301526064825261050f60848361105c565b61134c565b335f525f60205260405f2061052b6006544261111b565b6001546040519161053b83611040565b848352602083019342855260408401918252606084019283528054680100000000000000008110156105f05761057691600182018155610f95565b9490946105dd5760039351855551600185015551600284015551910155335f525f60205260405f20545f1981019081116103ee5760405191825260208201527f1449c6dd7851abc30abf37f57715f492010519147cc2652fbc38202c18a6ee9060403392a2005b634e487b7160e01b5f525f60045260245ffd5b634e487b7160e01b5f52604160045260245ffd5b606460405162461bcd60e51b815260206004820152601660248201527f546f6f206d616e79207374616b65207265636f726473000000000000000000006044820152fd5b608460405162461bcd60e51b815260206004820152602360248201527f5374616b6520616d6f756e74206d75737420626520677265617465722074686160448201527f6e203000000000000000000000000000000000000000000000000000000000006064820152fd5b3461012b575f36600319011261012b5760206001600160a01b0360075416604051908152f35b3461012b57602036600319011261012b57600435335f525f60205261070260405f20548210610ff5565b335f525f60205261071f6107198260405f20610f95565b5061107e565b6040810151421061080b5761075f81610743670de0b6b3a7640000935115156110b0565b61074b61124e565b6103d68151916060600154910151906110fb565b049081156107c75761077d82336001600160a01b036008541661129b565b600361079660015492335f525f60205260405f20610f95565b5001556040519081527f106f923f993c2149d49b4255ff723acafa1f2d94393f561d3eda32ae348f724160203392a2005b606460405162461bcd60e51b815260206004820152601260248201527f4e6f2072657761726420746f20636c61696d00000000000000000000000000006044820152fd5b606460405162461bcd60e51b815260206004820152601560248201527f5374616b65206973207374696c6c206c6f636b656400000000000000000000006044820152fd5b3461012b57602036600319011261012b577f41d466ebd06fb97e7786086ac8b69b7eb7da798592036251291d34e9791cde01602060043561088e6112ed565b61089661124e565b80600355604051908152a1005b3461012b575f36600319011261012b5760206001600160a01b037f9016d09d72d40fdae2fd8ceac6b6234c7706214fd39c1cd1e609a0528c1993005416604051908152f35b3461012b575f36600319011261012b576020600554604051908152f35b3461012b57602036600319011261012b576004356109216112ed565b7f5dd7b309b7bc5010d9c96159ee535a428121d6803cb847792402fffccaf1569a60206006549280600655604051908152a2005b3461012b575f36600319011261012b5761096d6112ed565b5f6001600160a01b037f9016d09d72d40fdae2fd8ceac6b6234c7706214fd39c1cd1e609a0528c1993005473ffffffffffffffffffffffffffffffffffffffff1981167f9016d09d72d40fdae2fd8ceac6b6234c7706214fd39c1cd1e609a0528c19930055167f8be0079c531659141344cd1fd0a4f28419497f9722a3daafe3b4186f6b6457e08280a3005b3461012b57602036600319011261012b57600435610a156112ed565b7fca3a537495e180ddcfcea635aa3e062f752fdd762ce1d30b451efd1c60a1c06160206005549280600555604051908152a2005b3461012b57604036600319011261012b57610a62610f7f565b6001600160a01b0360243591165f525f60205260405f20805482101561012b57608091610a8e91610f95565b508054906001810154906003600282015491015491604051938452602084015260408301526060820152f35b3461012b57604036600319011261012b57610ad3610f7f565b6024356001600160a01b03811680910361012b577ff0c57e16840df040f15088dc2f81fe391c3923bec73e23a9662efc9c229c6a005460ff8160401c16159267ffffffffffffffff821680159081610cfa575b6001149081610cf0575b159081610ce7575b50610cbf5767ffffffffffffffff1982166001177ff0c57e16840df040f15088dc2f81fe391c3923bec73e23a9662efc9c229c6a00556001600160a01b039184610c80575b50610b866113c4565b610b8e6113c4565b610b9733611186565b1673ffffffffffffffffffffffffffffffffffffffff19600754161760075573ffffffffffffffffffffffffffffffffffffffff19600854161760085566038d7ea4c68000600355426002556103e860045562278d0060065568056bc75e2d63100000600555610c0357005b68ff0000000000000000197ff0c57e16840df040f15088dc2f81fe391c3923bec73e23a9662efc9c229c6a0054167ff0c57e16840df040f15088dc2f81fe391c3923bec73e23a9662efc9c229c6a00557fc7f505b2f371ae2175ee4913f4499e1f2633a7b5936321eed1cdaeb6115181d2602060405160018152a1005b68ffffffffffffffffff191668010000000000000001177ff0c57e16840df040f15088dc2f81fe391c3923bec73e23a9662efc9c229c6a005584610b7d565b7ff92ee8a9000000000000000000000000000000000000000000000000000000005f5260045ffd5b90501585610b38565b303b159150610b30565b859150610b26565b3461012b57602036600319011261012b57600435335f525f602052610d2c60405f20548210610ff5565b335f525f602052610d436107198260405f20610f95565b805115610e3557610d5261124e565b6040810151421015610dc1575b5190335f525f6020525f610d768260408320610f95565b5055610d8e82336001600160a01b036007541661129b565b60405191825260208201527f7fc4727e062e336010f2c282598ef5f14facb3de68cf8195c2f23e1454b2b74e60403392a2005b670de0b6b3a7640000610de082516103d66001546060860151906110fb565b0480610ded575b50610d5f565b610e0381336001600160a01b036008541661129b565b6040519081527f106f923f993c2149d49b4255ff723acafa1f2d94393f561d3eda32ae348f724160203392a282610de7565b606460405162461bcd60e51b815260206004820152601760248201527f5374616b6520616c72656164792077697468647261776e0000000000000000006044820152fd5b3461012b57604036600319011261012b576020670de0b6b3a7640000610f10610ed6610719610ea6610f7f565b6001600160a01b036024359116805f525f8752610ec860405f20548310610ff5565b5f525f865260405f20610f95565b610ee2815115156110b0565b6103d6600154610ef4600254426110fb565b80151580610f34575b610f19575b5060608351930151906110fb565b04604051908152f35b9062015180610417610f2e9360035490611108565b86610f02565b506003541515610efd565b3461012b575f36600319011261012b576020600654604051908152f35b3461012b575f36600319011261012b576020906001600160a01b03600854168152f35b600435906001600160a01b038216820361012b57565b8054821015610fae575f5260205f209060021b01905f90565b634e487b7160e01b5f52603260045260245ffd5b90602080835192838152019201905f5b818110610fdf5750505090565b8251845260209384019390920191600101610fd2565b15610ffc57565b606460405162461bcd60e51b815260206004820152601360248201527f496e76616c6964207374616b6520696e646578000000000000000000000000006044820152fd5b6080810190811067ffffffffffffffff8211176105f057604052565b90601f8019910116810190811067ffffffffffffffff8211176105f057604052565b9060405161108b81611040565b6060600382948054845260018101546020850152600281015460408501520154910152565b156110b757565b606460405162461bcd60e51b815260206004820152601d60248201527f4e6f20616374697665207374616b65206174207468697320696e6465780000006044820152fd5b919082039182116103ee57565b818102929181159184041417156103ee57565b919082018092116103ee57565b67ffffffffffffffff81116105f05760051b60200190565b9061114a82611128565b611157604051918261105c565b8281528092611168601f1991611128565b0190602036910137565b8051821015610fae5760209160051b010190565b6001600160a01b03168015611222576001600160a01b037f9016d09d72d40fdae2fd8ceac6b6234c7706214fd39c1cd1e609a0528c199300548273ffffffffffffffffffffffffffffffffffffffff198216177f9016d09d72d40fdae2fd8ceac6b6234c7706214fd39c1cd1e609a0528c19930055167f8be0079c531659141344cd1fd0a4f28419497f9722a3daafe3b4186f6b6457e05f80a3565b7f1e4fbdf7000000000000000000000000000000000000000000000000000000005f525f60045260245ffd5b61125a600254426110fb565b80151580611290575b61126a5750565b6201518061127e6112879260035490611108565b0460015461111b565b60015542600255565b506003541515611263565b6112eb926001600160a01b03604051937fa9059cbb00000000000000000000000000000000000000000000000000000000602086015216602484015260448301526044825261050f60648361105c565b565b6001600160a01b037f9016d09d72d40fdae2fd8ceac6b6234c7706214fd39c1cd1e609a0528c1993005416330361132057565b7f118cdaa7000000000000000000000000000000000000000000000000000000005f523360045260245ffd5b905f602091828151910182855af1156113b9575f513d6113b057506001600160a01b0381163b155b61137b5750565b6001600160a01b03907f5274afe7000000000000000000000000000000000000000000000000000000005f521660045260245ffd5b60011415611374565b6040513d5f823e3d90fd5b60ff7ff0c57e16840df040f15088dc2f81fe391c3923bec73e23a9662efc9c229c6a005460401c16156113f357565b7fd7e6bcf8000000000000000000000000000000000000000000000000000000005f5260045ffdfea2646970667358221220820a0c42752e56875746226241b0b4877914a3f3c5d55e963526c6ca38b3c80664736f6c634300081e0033",
  "linkReferences": {},
  "deployedLinkReferences": {},
  "immutableReferences": {},
  "inputSourceName": "project/contracts/ghke-mining-pool/GHKEMiningPool.sol",
  "buildInfoId": "solc-0_8_30-b5a2da7b832a14d859010e43fc98931459f628dc"
}