{
  "_format": "hh3-artifact-1",
  "contractName": "GHKEToken",
  "sourceName": "contracts/ghke/GHKEToken.sol",
  "abi": [
    {
      "inputs": [
        {
          "internalType": "address",
          "name": "spender",
          "type": "address"
        },
        {
          "internalType": "uint256",
          "name": "allowance",
          "type": "uint256"
        },
        {
          "internalType": "uint256",
          "name": "needed",
          "type": "uint256"
        }
      ],
      "name": "ERC20InsufficientAllowance",
      "type": "error"
    },
    {
      "inputs": [
        {
          "internalType": "address",
          "name": "sender",
          "type": "address"
        },
        {
          "internalType": "uint256",
          "name": "balance",
          "type": "uint256"
        },
        {
          "internalType": "uint256",
          "name": "needed",
          "type": "uint256"
        }
      ],
      "name": "ERC20InsufficientBalance",
      "type": "error"
    },
    {
      "inputs": [
        {
          "internalType": "address",
          "name": "approver",
          "type": "address"
        }
      ],
      "name": "ERC20InvalidApprover",
      "type": "error"
    },
    {
      "inputs": [
        {
          "internalType": "address",
          "name": "receiver",
          "type": "address"
        }
      ],
      "name": "ERC20InvalidReceiver",
      "type": "error"
    },
    {
      "inputs": [
        {
          "internalType": "address",
          "name": "sender",
          "type": "address"
        }
      ],
      "name": "ERC20InvalidSender",
      "type": "error"
    },
    {
      "inputs": [
        {
          "internalType": "address",
          "name": "spender",
          "type": "address"
        }
      ],
      "name": "ERC20InvalidSpender",
      "type": "error"
    },
    {
      "inputs": [],
      "name": "EnforcedPause",
      "type": "error"
    },
    {
      "inputs": [],
      "name": "ExpectedPause",
      "type": "error"
    },
    {
      "inputs": [],
      "name": "InvalidInitialization",
      "type": "error"
    },
    {
      "inputs": [],
      "name": "NotInitializing",
      "type": "error"
    },
    {
      "inputs": [
        {
          "internalType": "address",
          "name": "owner",
          "type": "address"
        }
      ],
      "name": "OwnableInvalidOwner",
      "type": "error"
    },
    {
      "inputs": [
        {
          "internalType": "address",
          "name": "account",
          "type": "address"
        }
      ],
      "name": "OwnableUnauthorizedAccount",
      "type": "error"
    },
    {
      "anonymous": false,
      "inputs": [
        {
          "indexed": true,
          "internalType": "address",
          "name": "account",
          "type": "address"
        }
      ],
      "name": "AddedToBlacklist",
      "type": "event"
    },
    {
      "anonymous": false,
      "inputs": [
        {
          "indexed": true,
          "internalType": "address",
          "name": "owner",
          "type": "address"
        },
        {
          "indexed": true,
          "internalType": "address",
          "name": "spender",
          "type": "address"
        },
        {
          "indexed": false,
          "internalType": "uint256",
          "name": "value",
          "type": "uint256"
        }
      ],
      "name": "Approval",
      "type": "event"
    },
    {
      "anonymous": false,
      "inputs": [
        {
          "indexed": false,
          "internalType": "uint64",
          "name": "version",
          "type": "uint64"
        }
      ],
      "name": "Initialized",
      "type": "event"
    },
    {
      "anonymous": false,
      "inputs": [
        {
          "indexed": true,
          "internalType": "address",
          "name": "previousOwner",
          "type": "address"
        },
        {
          "indexed": true,
          "internalType": "address",
          "name": "newOwner",
          "type": "address"
        }
      ],
      "name": "OwnershipTransferred",
      "type": "event"
    },
    {
      "anonymous": false,
      "inputs": [
        {
          "indexed": false,
          "internalType": "address",
          "name": "account",
          "type": "address"
        }
      ],
      "name": "Paused",
      "type": "event"
    },
    {
      "anonymous": false,
      "inputs": [
        {
          "indexed": true,
          "internalType": "address",
          "name": "account",
          "type": "address"
        }
      ],
      "name": "RemovedFromBlacklist",
      "type": "event"
    },
    {
      "anonymous": false,
      "inputs": [
        {
          "indexed": true,
          "internalType": "address",
          "name": "from",
          "type": "address"
        },
        {
          "indexed": true,
          "internalType": "address",
          "name": "to",
          "type": "address"
        },
        {
          "indexed": false,
          "internalType": "uint256",
          "name": "value",
          "type": "uint256"
        }
      ],
      "name": "Transfer",
      "type": "event"
    },
    {
      "anonymous": false,
      "inputs": [
        {
          "indexed": false,
          "internalType": "address",
          "name": "account",
          "type": "address"
        }
      ],
      "name": "Unpaused",
      "type": "event"
    },
    {
      "inputs": [
        {
          "internalType": "address",
          "name": "account",
          "type": "address"
        }
      ],
      "name": "addToBlacklist",
      "outputs": [],
      "stateMutability": "nonpayable",
      "type": "function"
    },
    {
      "inputs": [
        {
          "internalType": "address",
          "name": "owner",
          "type": "address"
        },
        {
          "internalType": "address",
          "name": "spender",
          "type": "address"
        }
      ],
      "name": "allowance",
      "outputs": [
        {
          "internalType": "uint256",
          "name": "",
          "type": "uint256"
        }
      ],
      "stateMutability": "view",
      "type": "function"
    },
    {
      "inputs": [
        {
          "internalType": "address",
          "name": "spender",
          "type": "address"
        },
        {
          "internalType": "uint256",
          "name": "value",
          "type": "uint256"
        }
      ],
      "name": "approve",
      "outputs": [
        {
          "internalType": "bool",
          "name": "",
          "type": "bool"
        }
      ],
      "stateMutability": "nonpayable",
      "type": "function"
    },
    {
      "inputs": [
        {
          "internalType": "address",
          "name": "account",
          "type": "address"
        }
      ],
      "name": "balanceOf",
      "outputs": [
        {
          "internalType": "uint256",
          "name": "",
          "type": "uint256"
        }
      ],
      "stateMutability": "view",
      "type": "function"
    },
    {
      "inputs": [],
      "name": "decimals",
      "outputs": [
        {
          "internalType": "uint8",
          "name": "",
          "type": "uint8"
        }
      ],
      "stateMutability": "view",
      "type": "function"
    },
    {
      "inputs": [],
      "name": "initialize",
      "outputs": [],
      "stateMutability": "nonpayable",
      "type": "function"
    },
    {
      "inputs": [
        {
          "internalType": "address",
          "name": "account",
          "type": "address"
        }
      ],
      "name": "isBlacklisted",
      "outputs": [
        {
          "internalType": "bool",
          "name": "",
          "type": "bool"
        }
      ],
      "stateMutability": "view",
      "type": "function"
    },
    {
      "inputs": [],
      "name": "name",
      "outputs": [
        {
          "internalType": "string",
          "name": "",
          "type": "string"
        }
      ],
      "stateMutability": "view",
      "type": "function"
    },
    {
      "inputs": [],
      "name": "owner",
      "outputs": [
        {
          "internalType": "address",
          "name": "",
          "type": "address"
        }
      ],
      "stateMutability": "view",
      "type": "function"
    },
    {
      "inputs": [],
      "name": "pause",
      "outputs": [],
      "stateMutability": "nonpayable",
      "type": "function"
    },
    {
      "inputs": [],
      "name": "paused",
      "outputs": [
        {
          "internalType": "bool",
          "name": "",
          "type": "bool"
        }
      ],
      "stateMutability": "view",
      "type": "function"
    },
    {
      "inputs": [
        {
          "internalType": "address",
          "name": "account",
          "type": "address"
        }
      ],
      "name": "removeFromBlacklist",
      "outputs": [],
      "stateMutability": "nonpayable",
      "type": "function"
    },
    {
      "inputs": [],
      "name": "renounceOwnership",
      "outputs": [],
      "stateMutability": "nonpayable",
      "type": "function"
    },
    {
      "inputs": [],
      "name": "symbol",
      "outputs": [
        {
          "internalType": "string",
          "name": "",
          "type": "string"
        }
      ],
      "stateMutability": "view",
      "type": "function"
    },
    {
      "inputs": [],
      "name": "totalSupply",
      "outputs": [
        {
          "internalType": "uint256",
          "name": "",
          "type": "uint256"
        }
      ],
      "stateMutability": "view",
      "type": "function"
    },
    {
      "inputs": [
        {
          "internalType": "address",
          "name": "to",
          "type": "address"
        },
        {
          "internalType": "uint256",
          "name": "value",
          "type": "uint256"
        }
      ],
      "name": "transfer",
      "outputs": [
        {
          "internalType": "bool",
          "name": "",
          "type": "bool"
        }
      ],
      "stateMutability": "nonpayable",
      "type": "function"
    },
    {
      "inputs": [
        {
          "internalType": "address",
          "name": "from",
          "type": "address"
        },
        {
          "internalType": "address",
          "name": "to",
          "type": "address"
        },
        {
          "internalType": "uint256",
          "name": "value",
          "type": "uint256"
        }
      ],
      "name": "transferFrom",
      "outputs": [
        {
          "internalType": "bool",
          "name": "",
          "type": "bool"
        }
      ],
      "stateMutability": "nonpayable",
      "type": "function"
    },
    {
      "inputs": [
        {
          "internalType": "address",
          "name": "newOwner",
          "type": "address"
        }
      ],
      "name": "transferOwnership",
      "outputs": [],
      "stateMutability": "nonpayable",
      "type": "function"
    },
    {
      "inputs": [],
      "name": "unpause",
      "outputs": [],
      "stateMutability": "nonpayable",
      "type": "function"
    }
  ],
  "bytecode": "0x6080806040523460155761177f908161001a8239f35b5f80fdfe60806040526004361015610011575f80fd5b5f3560e01c806306fdde0314611230578063095ea7b31461118d57806318160ddd1461115157806323b872dd14610fc7578063313ce56714610fac5780633f4ba83a14610eef57806344337ea114610e01578063537df3b614610d3b5780635c975abb14610cfa57806370a0823114610ca3578063715018a614610bff5780638129fc1c146103f35780638456cb591461035c5780638da5cb5b1461031757806395d89b41146101ff578063a9059cbb146101ce578063dd62ed3e14610155578063f2fde38b1461012a5763fe575a87146100ea575f80fd5b34610126576020366003190112610126576001600160a01b0361010b61133d565b165f525f602052602060ff60405f2054166040519015158152f35b5f80fd5b346101265760203660031901126101265761015361014661133d565b61014e611640565b61140e565b005b346101265760403660031901126101265761016e61133d565b6001600160a01b036101b8610181611353565b926001600160a01b03165f527f52c63247e1f47db19d5ce0460030c497f067ca4cebf71ba98eeadabe20bace0160205260405f2090565b91165f52602052602060405f2054604051908152f35b34610126576040366003190112610126576101f46101ea61133d565b60243590336114d6565b602060405160018152f35b34610126575f366003190112610126576040515f7f52c63247e1f47db19d5ce0460030c497f067ca4cebf71ba98eeadabe20bace045461023e81611369565b80845290600181169081156102f35750600114610276575b61027283610266818503826113a1565b60405191829182611313565b0390f35b7f52c63247e1f47db19d5ce0460030c497f067ca4cebf71ba98eeadabe20bace045f9081527f46a2803e59a4de4e7a4c574b1243f25977ac4c77d5a1a4a609b5394cebb4a2aa939250905b8082106102d957509091508101602001610266610256565b9192600181602092548385880101520191019092916102c1565b60ff191660208086019190915291151560051b840190910191506102669050610256565b34610126575f3660031901126101265760206001600160a01b037f9016d09d72d40fdae2fd8ceac6b6234c7706214fd39c1cd1e609a0528c1993005416604051908152f35b34610126575f36600319011261012657610374611640565b61037c6116f6565b600160ff197fcd5ed15c6e187e77e9aee88184c21f4f2182ab5827cb3b7e07fbedcd63f033005416177fcd5ed15c6e187e77e9aee88184c21f4f2182ab5827cb3b7e07fbedcd63f03300557f62e78cea01bee320cd4e420270b5ea74000d11b0c9f74754ebdbfc544b05a2586020604051338152a1005b34610126575f366003190112610126577ff0c57e16840df040f15088dc2f81fe391c3923bec73e23a9662efc9c229c6a005460ff8160401c16159067ffffffffffffffff811680159081610bf7575b6001149081610bed575b159081610be4575b50610bbc5767ffffffffffffffff1981166001177ff0c57e16840df040f15088dc2f81fe391c3923bec73e23a9662efc9c229c6a005581610b7d575b50604051906104a06040836113a1565b600782527f476f6c64484b45000000000000000000000000000000000000000000000000006020830152604051906104d96040836113a1565b600482527f47484b4500000000000000000000000000000000000000000000000000000000602083015261050b61169f565b61051361169f565b825167ffffffffffffffff8111610a3b5761054e7f52c63247e1f47db19d5ce0460030c497f067ca4cebf71ba98eeadabe20bace0354611369565b601f8111610afb575b506020601f8211600114610a5a57819293945f92610a4f575b50508160011b915f199060031b1c1916177f52c63247e1f47db19d5ce0460030c497f067ca4cebf71ba98eeadabe20bace03555b815167ffffffffffffffff8111610a3b576105df7f52c63247e1f47db19d5ce0460030c497f067ca4cebf71ba98eeadabe20bace0454611369565b601f81116109b9575b50602092601f821160011461091a57928192935f9261090f575b50508160011b915f199060031b1c1916177f52c63247e1f47db19d5ce0460030c497f067ca4cebf71ba98eeadabe20bace04555b61063e61169f565b61064661169f565b61064e61169f565b6106573361140e565b33156108e3575f8080526020527fad3228b676f7d3cd4284a5443f17f1962b36e491b30a40b2405849e597ba5fb55460ff1661087957335f525f60205260ff60405f20541661080f576106a86116f6565b7f52c63247e1f47db19d5ce0460030c497f067ca4cebf71ba98eeadabe20bace02546b033b2e3c9fd0803ce800000081018091116107fb577f52c63247e1f47db19d5ce0460030c497f067ca4cebf71ba98eeadabe20bace0255335f527f52c63247e1f47db19d5ce0460030c497f067ca4cebf71ba98eeadabe20bace0060205260405f206b033b2e3c9fd0803ce800000081540190556040516b033b2e3c9fd0803ce800000081525f7fddf252ad1be2c89b69c2b068fc378daa952ba7f163c4a11628f55a4df523b3ef60203393a361077e57005b68ff0000000000000000197ff0c57e16840df040f15088dc2f81fe391c3923bec73e23a9662efc9c229c6a0054167ff0c57e16840df040f15088dc2f81fe391c3923bec73e23a9662efc9c229c6a00557fc7f505b2f371ae2175ee4913f4499e1f2633a7b5936321eed1cdaeb6115181d2602060405160018152a1005b634e487b7160e01b5f52601160045260245ffd5b608460405162461bcd60e51b815260206004820152602860248201527f426c61636b6c697374546f6b656e3a20526563697069656e7420697320626c6160448201527f636b6c69737465640000000000000000000000000000000000000000000000006064820152fd5b608460405162461bcd60e51b815260206004820152602560248201527f426c61636b6c697374546f6b656e3a2053656e64657220697320626c61636b6c60448201527f69737465640000000000000000000000000000000000000000000000000000006064820152fd5b7fec442f05000000000000000000000000000000000000000000000000000000005f525f60045260245ffd5b015190508380610602565b601f198216937f52c63247e1f47db19d5ce0460030c497f067ca4cebf71ba98eeadabe20bace045f52805f20915f5b8681106109a15750836001959610610989575b505050811b017f52c63247e1f47db19d5ce0460030c497f067ca4cebf71ba98eeadabe20bace0455610636565b01515f1960f88460031b161c1916905583808061095c565b91926020600181928685015181550194019201610949565b7f52c63247e1f47db19d5ce0460030c497f067ca4cebf71ba98eeadabe20bace045f527f46a2803e59a4de4e7a4c574b1243f25977ac4c77d5a1a4a609b5394cebb4a2aa601f830160051c81019160208410610a31575b601f0160051c01905b818110610a2657506105e8565b5f8155600101610a19565b9091508190610a10565b634e487b7160e01b5f52604160045260245ffd5b015190508480610570565b601f198216907f52c63247e1f47db19d5ce0460030c497f067ca4cebf71ba98eeadabe20bace035f52805f20915f5b818110610ae357509583600195969710610acb575b505050811b017f52c63247e1f47db19d5ce0460030c497f067ca4cebf71ba98eeadabe20bace03556105a4565b01515f1960f88460031b161c19169055848080610a9e565b9192602060018192868b015181550194019201610a89565b7f52c63247e1f47db19d5ce0460030c497f067ca4cebf71ba98eeadabe20bace035f527f2ae08a8e29253f69ac5d979a101956ab8f8d9d7ded63fa7a83b16fc47648eab0601f830160051c81019160208410610b73575b601f0160051c01905b818110610b685750610557565b5f8155600101610b5b565b9091508190610b52565b68ffffffffffffffffff191668010000000000000001177ff0c57e16840df040f15088dc2f81fe391c3923bec73e23a9662efc9c229c6a005581610490565b7ff92ee8a9000000000000000000000000000000000000000000000000000000005f5260045ffd5b90501583610454565b303b15915061044c565b839150610442565b34610126575f36600319011261012657610c17611640565b5f6001600160a01b037f9016d09d72d40fdae2fd8ceac6b6234c7706214fd39c1cd1e609a0528c1993005473ffffffffffffffffffffffffffffffffffffffff1981167f9016d09d72d40fdae2fd8ceac6b6234c7706214fd39c1cd1e609a0528c19930055167f8be0079c531659141344cd1fd0a4f28419497f9722a3daafe3b4186f6b6457e08280a3005b34610126576020366003190112610126576001600160a01b03610cc461133d565b165f527f52c63247e1f47db19d5ce0460030c497f067ca4cebf71ba98eeadabe20bace00602052602060405f2054604051908152f35b34610126575f36600319011261012657602060ff7fcd5ed15c6e187e77e9aee88184c21f4f2182ab5827cb3b7e07fbedcd63f0330054166040519015158152f35b34610126576020366003190112610126576001600160a01b03610d5c61133d565b610d64611640565b16610d708115156113c3565b805f525f60205260ff60405f20541615610dbd57805f525f60205260405f2060ff1981541690557f2b6bf71b58b3583add364b3d9060ebf8019650f65f5be35f5464b9cb3e4ba2d45f80a2005b606460405162461bcd60e51b815260206004820152601f60248201527f426c61636b6c697374546f6b656e3a204e6f7420626c61636b6c6973746564006044820152fd5b34610126576020366003190112610126576001600160a01b03610e2261133d565b610e2a611640565b16610e368115156113c3565b805f525f60205260ff60405f205416610e8557805f525f60205260405f20600160ff198254161790557ff9b68063b051b82957fa193585681240904fed808db8b30fc5a2d2202c6ed6275f80a2005b608460405162461bcd60e51b815260206004820152602360248201527f426c61636b6c697374546f6b656e3a20416c726561647920626c61636b6c697360448201527f74656400000000000000000000000000000000000000000000000000000000006064820152fd5b34610126575f36600319011261012657610f07611640565b7fcd5ed15c6e187e77e9aee88184c21f4f2182ab5827cb3b7e07fbedcd63f033005460ff811615610f845760ff19167fcd5ed15c6e187e77e9aee88184c21f4f2182ab5827cb3b7e07fbedcd63f03300557f5db9ee0a495bf2e6ff9c91a7834c1ba4fdd244a5e8aa4e537bd38aeae4b073aa6020604051338152a1005b7f8dfc202b000000000000000000000000000000000000000000000000000000005f5260045ffd5b34610126575f36600319011261012657602060405160128152f35b3461012657606036600319011261012657610fe061133d565b610fe8611353565b60443590611026836001600160a01b03165f527f52c63247e1f47db19d5ce0460030c497f067ca4cebf71ba98eeadabe20bace0160205260405f2090565b6001600160a01b0333165f5260205260405f2054925f19841061104e575b6101f493506114d6565b82841061111d576001600160a01b038116156110f15733156110c5576101f4936110a8826001600160a01b03165f527f52c63247e1f47db19d5ce0460030c497f067ca4cebf71ba98eeadabe20bace0160205260405f2090565b6001600160a01b0333165f526020528360405f2091039055611044565b7f94280d62000000000000000000000000000000000000000000000000000000005f525f60045260245ffd5b7fe602df05000000000000000000000000000000000000000000000000000000005f525f60045260245ffd5b82847ffb8f41b2000000000000000000000000000000000000000000000000000000005f523360045260245260445260645ffd5b34610126575f3660031901126101265760207f52c63247e1f47db19d5ce0460030c497f067ca4cebf71ba98eeadabe20bace0254604051908152f35b34610126576040366003190112610126576111a661133d565b6024359033156110f1576001600160a01b03169081156110c557335f9081527f52c63247e1f47db19d5ce0460030c497f067ca4cebf71ba98eeadabe20bace0160205260409020825f526020528060405f20556040519081527f8c5be1e5ebec7d5bd14f71427d1e84f3dd0314c0f7b2291e5b200ac8c7c3b92560203392a3602060405160018152f35b34610126575f366003190112610126576040515f7f52c63247e1f47db19d5ce0460030c497f067ca4cebf71ba98eeadabe20bace035461126f81611369565b80845290600181169081156102f357506001146112965761027283610266818503826113a1565b7f52c63247e1f47db19d5ce0460030c497f067ca4cebf71ba98eeadabe20bace035f9081527f2ae08a8e29253f69ac5d979a101956ab8f8d9d7ded63fa7a83b16fc47648eab0939250905b8082106112f957509091508101602001610266610256565b9192600181602092548385880101520191019092916112e1565b602060409281835280519182918282860152018484015e5f828201840152601f01601f1916010190565b600435906001600160a01b038216820361012657565b602435906001600160a01b038216820361012657565b90600182811c92168015611397575b602083101461138357565b634e487b7160e01b5f52602260045260245ffd5b91607f1691611378565b90601f8019910116810190811067ffffffffffffffff821117610a3b57604052565b156113ca57565b606460405162461bcd60e51b815260206004820152601c60248201527f426c61636b6c697374546f6b656e3a205a65726f2061646472657373000000006044820152fd5b6001600160a01b031680156114aa576001600160a01b037f9016d09d72d40fdae2fd8ceac6b6234c7706214fd39c1cd1e609a0528c199300548273ffffffffffffffffffffffffffffffffffffffff198216177f9016d09d72d40fdae2fd8ceac6b6234c7706214fd39c1cd1e609a0528c19930055167f8be0079c531659141344cd1fd0a4f28419497f9722a3daafe3b4186f6b6457e05f80a3565b7f1e4fbdf7000000000000000000000000000000000000000000000000000000005f525f60045260245ffd5b6001600160a01b0316908115611614576001600160a01b03169182156108e357815f525f60205260ff60405f20541661087957825f525f60205260ff60405f20541661080f576115246116f6565b815f527f52c63247e1f47db19d5ce0460030c497f067ca4cebf71ba98eeadabe20bace0060205260405f20548181106115e257817fddf252ad1be2c89b69c2b068fc378daa952ba7f163c4a11628f55a4df523b3ef92602092855f527f52c63247e1f47db19d5ce0460030c497f067ca4cebf71ba98eeadabe20bace0084520360405f2055845f527f52c63247e1f47db19d5ce0460030c497f067ca4cebf71ba98eeadabe20bace00825260405f20818154019055604051908152a3565b827fe450d38c000000000000000000000000000000000000000000000000000000005f5260045260245260445260645ffd5b7f96c6fd1e000000000000000000000000000000000000000000000000000000005f525f60045260245ffd5b6001600160a01b037f9016d09d72d40fdae2fd8ceac6b6234c7706214fd39c1cd1e609a0528c1993005416330361167357565b7f118cdaa7000000000000000000000000000000000000000000000000000000005f523360045260245ffd5b60ff7ff0c57e16840df040f15088dc2f81fe391c3923bec73e23a9662efc9c229c6a005460401c16156116ce57565b7fd7e6bcf8000000000000000000000000000000000000000000000000000000005f5260045ffd5b60ff7fcd5ed15c6e187e77e9aee88184c21f4f2182ab5827cb3b7e07fbedcd63f03300541661172157565b7fd93c0665000000000000000000000000000000000000000000000000000000005f5260045ffdfea2646970667358221220a4956aca0bdb2624562a5665ae8f35e764bc62d54a094ce21620b22aee3e8dfa64736f6c634300081e0033",
  "linkReferences": {},
  "deployedLinkReferences": {},
  "immutableReferences": {},
  "inputSourceName": "project/contracts/ghke/GHKEToken.sol",
  "buildInfoId": "solc-0_8_30-6be4495cef73dbfa739318ea28b69a37ffc2abe0"
}