{
  "_format": "hh3-artifact-1",
  "contractName": "GHKSellPool",
  "sourceName": "contracts/ghk-sell/GHKSellPool.sol",
  "abi": [
    {
      "inputs": [],
      "name": "ECDSAInvalidSignature",
      "type": "error"
    },
    {
      "inputs": [
        {
          "internalType": "uint256",
          "name": "length",
          "type": "uint256"
        }
      ],
      "name": "ECDSAInvalidSignatureLength",
      "type": "error"
    },
    {
      "inputs": [
        {
          "internalType": "bytes32",
          "name": "s",
          "type": "bytes32"
        }
      ],
      "name": "ECDSAInvalidSignatureS",
      "type": "error"
    },
    {
      "inputs": [],
      "name": "InvalidInitialization",
      "type": "error"
    },
    {
      "inputs": [],
      "name": "NotInitializing",
      "type": "error"
    },
    {
      "inputs": [
        {
          "internalType": "address",
          "name": "owner",
          "type": "address"
        }
      ],
      "name": "OwnableInvalidOwner",
      "type": "error"
    },
    {
      "inputs": [
        {
          "internalType": "address",
          "name": "account",
          "type": "address"
        }
      ],
      "name": "OwnableUnauthorizedAccount",
      "type": "error"
    },
    {
      "inputs": [
        {
          "internalType": "address",
          "name": "token",
          "type": "address"
        }
      ],
      "name": "SafeERC20FailedOperation",
      "type": "error"
    },
    {
      "anonymous": false,
      "inputs": [
        {
          "indexed": true,
          "internalType": "address",
          "name": "account",
          "type": "address"
        }
      ],
      "name": "AddedToBlacklist",
      "type": "event"
    },
    {
      "anonymous": false,
      "inputs": [
        {
          "indexed": false,
          "internalType": "uint64",
          "name": "version",
          "type": "uint64"
        }
      ],
      "name": "Initialized",
      "type": "event"
    },
    {
      "anonymous": false,
      "inputs": [
        {
          "indexed": true,
          "internalType": "address",
          "name": "previousOwner",
          "type": "address"
        },
        {
          "indexed": true,
          "internalType": "address",
          "name": "newOwner",
          "type": "address"
        }
      ],
      "name": "OwnershipTransferred",
      "type": "event"
    },
    {
      "anonymous": false,
      "inputs": [
        {
          "indexed": true,
          "internalType": "address",
          "name": "account",
          "type": "address"
        }
      ],
      "name": "RemovedFromBlacklist",
      "type": "event"
    },
    {
      "anonymous": false,
      "inputs": [
        {
          "indexed": true,
          "internalType": "address",
          "name": "from",
          "type": "address"
        },
        {
          "indexed": false,
          "internalType": "uint256",
          "name": "ghkValue",
          "type": "uint256"
        },
        {
          "indexed": false,
          "internalType": "address",
          "name": "tradeToken",
          "type": "address"
        },
        {
          "indexed": false,
          "internalType": "uint256",
          "name": "price",
          "type": "uint256"
        },
        {
          "indexed": false,
          "internalType": "uint256",
          "name": "usdValue",
          "type": "uint256"
        },
        {
          "indexed": false,
          "internalType": "uint256",
          "name": "feePercentage",
          "type": "uint256"
        }
      ],
      "name": "Sell",
      "type": "event"
    },
    {
      "anonymous": false,
      "inputs": [
        {
          "indexed": true,
          "internalType": "address",
          "name": "from",
          "type": "address"
        },
        {
          "indexed": false,
          "internalType": "uint256",
          "name": "ghkValue",
          "type": "uint256"
        },
        {
          "indexed": false,
          "internalType": "address",
          "name": "tradeToken",
          "type": "address"
        },
        {
          "indexed": false,
          "internalType": "uint256",
          "name": "price",
          "type": "uint256"
        },
        {
          "indexed": false,
          "internalType": "uint256",
          "name": "usdValue",
          "type": "uint256"
        },
        {
          "indexed": false,
          "internalType": "uint256",
          "name": "feePercentage",
          "type": "uint256"
        }
      ],
      "name": "SellByAdmin",
      "type": "event"
    },
    {
      "anonymous": false,
      "inputs": [
        {
          "indexed": true,
          "internalType": "uint256",
          "name": "oldVal",
          "type": "uint256"
        },
        {
          "indexed": false,
          "internalType": "uint256",
          "name": "newVal",
          "type": "uint256"
        }
      ],
      "name": "SellGHKAmountMaxUpdated",
      "type": "event"
    },
    {
      "anonymous": false,
      "inputs": [
        {
          "indexed": true,
          "internalType": "uint256",
          "name": "oldVal",
          "type": "uint256"
        },
        {
          "indexed": false,
          "internalType": "uint256",
          "name": "newVal",
          "type": "uint256"
        }
      ],
      "name": "SellGHKAmountMinUpdated",
      "type": "event"
    },
    {
      "anonymous": false,
      "inputs": [
        {
          "indexed": true,
          "internalType": "uint256",
          "name": "oldVal",
          "type": "uint256"
        },
        {
          "indexed": false,
          "internalType": "uint256",
          "name": "newVal",
          "type": "uint256"
        }
      ],
      "name": "SellGHKFeePercentageUpdated",
      "type": "event"
    },
    {
      "anonymous": false,
      "inputs": [
        {
          "indexed": true,
          "internalType": "address",
          "name": "from",
          "type": "address"
        },
        {
          "indexed": false,
          "internalType": "uint256",
          "name": "ghkValue",
          "type": "uint256"
        },
        {
          "indexed": false,
          "internalType": "uint256",
          "name": "feePercentage",
          "type": "uint256"
        }
      ],
      "name": "SellOffline",
      "type": "event"
    },
    {
      "anonymous": false,
      "inputs": [
        {
          "indexed": true,
          "internalType": "uint256",
          "name": "oldVal",
          "type": "uint256"
        },
        {
          "indexed": false,
          "internalType": "uint256",
          "name": "newVal",
          "type": "uint256"
        }
      ],
      "name": "SellOfflineGHKAmountMaxUpdated",
      "type": "event"
    },
    {
      "anonymous": false,
      "inputs": [
        {
          "indexed": true,
          "internalType": "uint256",
          "name": "oldVal",
          "type": "uint256"
        },
        {
          "indexed": false,
          "internalType": "uint256",
          "name": "newVal",
          "type": "uint256"
        }
      ],
      "name": "SellOfflineGHKAmountMinUpdated",
      "type": "event"
    },
    {
      "anonymous": false,
      "inputs": [
        {
          "indexed": true,
          "internalType": "uint256",
          "name": "oldVal",
          "type": "uint256"
        },
        {
          "indexed": false,
          "internalType": "uint256",
          "name": "newVal",
          "type": "uint256"
        }
      ],
      "name": "SellOfflineGHKFeePercentageUpdated",
      "type": "event"
    },
    {
      "inputs": [],
      "name": "GHK",
      "outputs": [
        {
          "internalType": "contract IERC20",
          "name": "",
          "type": "address"
        }
      ],
      "stateMutability": "view",
      "type": "function"
    },
    {
      "inputs": [],
      "name": "SELL_GHK_AMOUNT_MAX",
      "outputs": [
        {
          "internalType": "uint256",
          "name": "",
          "type": "uint256"
        }
      ],
      "stateMutability": "view",
      "type": "function"
    },
    {
      "inputs": [],
      "name": "SELL_GHK_AMOUNT_MIN",
      "outputs": [
        {
          "internalType": "uint256",
          "name": "",
          "type": "uint256"
        }
      ],
      "stateMutability": "view",
      "type": "function"
    },
    {
      "inputs": [],
      "name": "SELL_GHK_FEE_PERCENTAGE",
      "outputs": [
        {
          "internalType": "uint256",
          "name": "",
          "type": "uint256"
        }
      ],
      "stateMutability": "view",
      "type": "function"
    },
    {
      "inputs": [],
      "name": "SELL_OFFLINE_GHK_AMOUNT_MAX",
      "outputs": [
        {
          "internalType": "uint256",
          "name": "",
          "type": "uint256"
        }
      ],
      "stateMutability": "view",
      "type": "function"
    },
    {
      "inputs": [],
      "name": "SELL_OFFLINE_GHK_AMOUNT_MIN",
      "outputs": [
        {
          "internalType": "uint256",
          "name": "",
          "type": "uint256"
        }
      ],
      "stateMutability": "view",
      "type": "function"
    },
    {
      "inputs": [],
      "name": "SELL_OFFLINE_GHK_FEE_PERCENTAGE",
      "outputs": [
        {
          "internalType": "uint256",
          "name": "",
          "type": "uint256"
        }
      ],
      "stateMutability": "view",
      "type": "function"
    },
    {
      "inputs": [
        {
          "internalType": "address",
          "name": "account",
          "type": "address"
        }
      ],
      "name": "addToBlacklist",
      "outputs": [],
      "stateMutability": "nonpayable",
      "type": "function"
    },
    {
      "inputs": [
        {
          "internalType": "uint256",
          "name": "offchainXAUPrice",
          "type": "uint256"
        }
      ],
      "name": "getPrice",
      "outputs": [
        {
          "internalType": "uint256",
          "name": "",
          "type": "uint256"
        }
      ],
      "stateMutability": "view",
      "type": "function"
    },
    {
      "inputs": [],
      "name": "getUsdtPrice",
      "outputs": [
        {
          "internalType": "uint256",
          "name": "",
          "type": "uint256"
        }
      ],
      "stateMutability": "view",
      "type": "function"
    },
    {
      "inputs": [
        {
          "internalType": "address",
          "name": "_GHK",
          "type": "address"
        },
        {
          "internalType": "address",
          "name": "_USDT",
          "type": "address"
        },
        {
          "internalType": "address",
          "name": "_dataFeedXAU",
          "type": "address"
        },
        {
          "internalType": "address",
          "name": "_dataFeedUSDT",
          "type": "address"
        },
        {
          "internalType": "uint256",
          "name": "_initialXAUPrice",
          "type": "uint256"
        },
        {
          "internalType": "address",
          "name": "_signer",
          "type": "address"
        }
      ],
      "name": "initialize",
      "outputs": [],
      "stateMutability": "nonpayable",
      "type": "function"
    },
    {
      "inputs": [
        {
          "internalType": "address",
          "name": "account",
          "type": "address"
        }
      ],
      "name": "isBlacklisted",
      "outputs": [
        {
          "internalType": "bool",
          "name": "",
          "type": "bool"
        }
      ],
      "stateMutability": "view",
      "type": "function"
    },
    {
      "inputs": [],
      "name": "latestXAUPrice",
      "outputs": [
        {
          "internalType": "uint256",
          "name": "",
          "type": "uint256"
        }
      ],
      "stateMutability": "view",
      "type": "function"
    },
    {
      "inputs": [],
      "name": "maxLatestPriceDeviation",
      "outputs": [
        {
          "internalType": "uint256",
          "name": "",
          "type": "uint256"
        }
      ],
      "stateMutability": "view",
      "type": "function"
    },
    {
      "inputs": [],
      "name": "maxOraclePriceDeviation",
      "outputs": [
        {
          "internalType": "uint256",
          "name": "",
          "type": "uint256"
        }
      ],
      "stateMutability": "view",
      "type": "function"
    },
    {
      "inputs": [],
      "name": "owner",
      "outputs": [
        {
          "internalType": "address",
          "name": "",
          "type": "address"
        }
      ],
      "stateMutability": "view",
      "type": "function"
    },
    {
      "inputs": [
        {
          "internalType": "address",
          "name": "account",
          "type": "address"
        }
      ],
      "name": "removeFromBlacklist",
      "outputs": [],
      "stateMutability": "nonpayable",
      "type": "function"
    },
    {
      "inputs": [],
      "name": "renounceOwnership",
      "outputs": [],
      "stateMutability": "nonpayable",
      "type": "function"
    },
    {
      "inputs": [
        {
          "internalType": "uint256",
          "name": "amount",
          "type": "uint256"
        },
        {
          "internalType": "address",
          "name": "tradeToken",
          "type": "address"
        },
        {
          "internalType": "uint256",
          "name": "offchainXAUPrice",
          "type": "uint256"
        },
        {
          "internalType": "uint256",
          "name": "deadline",
          "type": "uint256"
        },
        {
          "internalType": "bytes",
          "name": "sig",
          "type": "bytes"
        }
      ],
      "name": "sell",
      "outputs": [],
      "stateMutability": "nonpayable",
      "type": "function"
    },
    {
      "inputs": [
        {
          "internalType": "uint256",
          "name": "amount",
          "type": "uint256"
        }
      ],
      "name": "sellOffline",
      "outputs": [],
      "stateMutability": "nonpayable",
      "type": "function"
    },
    {
      "inputs": [
        {
          "internalType": "address",
          "name": "_dataFeedUSDT",
          "type": "address"
        }
      ],
      "name": "setDataFeedUSDT",
      "outputs": [],
      "stateMutability": "nonpayable",
      "type": "function"
    },
    {
      "inputs": [
        {
          "internalType": "address",
          "name": "_dataFeedXAU",
          "type": "address"
        }
      ],
      "name": "setDataFeedXAU",
      "outputs": [],
      "stateMutability": "nonpayable",
      "type": "function"
    },
    {
      "inputs": [
        {
          "internalType": "uint256",
          "name": "price",
          "type": "uint256"
        }
      ],
      "name": "setLatestXAUPrice",
      "outputs": [],
      "stateMutability": "nonpayable",
      "type": "function"
    },
    {
      "inputs": [
        {
          "internalType": "uint256",
          "name": "deviation",
          "type": "uint256"
        }
      ],
      "name": "setMaxLatestPriceDeviation",
      "outputs": [],
      "stateMutability": "nonpayable",
      "type": "function"
    },
    {
      "inputs": [
        {
          "internalType": "uint256",
          "name": "deviation",
          "type": "uint256"
        }
      ],
      "name": "setMaxOraclePriceDeviation",
      "outputs": [],
      "stateMutability": "nonpayable",
      "type": "function"
    },
    {
      "inputs": [
        {
          "internalType": "uint256",
          "name": "_newMax",
          "type": "uint256"
        }
      ],
      "name": "setSellGHKAmountMax",
      "outputs": [],
      "stateMutability": "nonpayable",
      "type": "function"
    },
    {
      "inputs": [
        {
          "internalType": "uint256",
          "name": "_newMin",
          "type": "uint256"
        }
      ],
      "name": "setSellGHKAmountMin",
      "outputs": [],
      "stateMutability": "nonpayable",
      "type": "function"
    },
    {
      "inputs": [
        {
          "internalType": "uint256",
          "name": "_newFeePercentage",
          "type": "uint256"
        }
      ],
      "name": "setSellGHKFeePercentage",
      "outputs": [],
      "stateMutability": "nonpayable",
      "type": "function"
    },
    {
      "inputs": [
        {
          "internalType": "uint256",
          "name": "_newMax",
          "type": "uint256"
        }
      ],
      "name": "setSellOfflineGHKAmountMax",
      "outputs": [],
      "stateMutability": "nonpayable",
      "type": "function"
    },
    {
      "inputs": [
        {
          "internalType": "uint256",
          "name": "_newMin",
          "type": "uint256"
        }
      ],
      "name": "setSellOfflineGHKAmountMin",
      "outputs": [],
      "stateMutability": "nonpayable",
      "type": "function"
    },
    {
      "inputs": [
        {
          "internalType": "uint256",
          "name": "_newFeePercentage",
          "type": "uint256"
        }
      ],
      "name": "setSellOfflineGHKFeePercentage",
      "outputs": [],
      "stateMutability": "nonpayable",
      "type": "function"
    },
    {
      "inputs": [
        {
          "internalType": "address",
          "name": "_signer",
          "type": "address"
        }
      ],
      "name": "setSigner",
      "outputs": [],
      "stateMutability": "nonpayable",
      "type": "function"
    },
    {
      "inputs": [],
      "name": "signer",
      "outputs": [
        {
          "internalType": "address",
          "name": "",
          "type": "address"
        }
      ],
      "stateMutability": "view",
      "type": "function"
    },
    {
      "inputs": [
        {
          "internalType": "address",
          "name": "",
          "type": "address"
        }
      ],
      "name": "tradeTokens",
      "outputs": [
        {
          "internalType": "bool",
          "name": "",
          "type": "bool"
        }
      ],
      "stateMutability": "view",
      "type": "function"
    },
    {
      "inputs": [
        {
          "internalType": "address",
          "name": "newOwner",
          "type": "address"
        }
      ],
      "name": "transferOwnership",
      "outputs": [],
      "stateMutability": "nonpayable",
      "type": "function"
    }
  ],
  "bytecode": "0x60808060405234601557611d9c908161001a8239f35b5f80fdfe60806040526004361015610011575f80fd5b5f3560e01c8063089bdcf714611394578063138b759814611377578063179af6071461135a57806317e99844146112845780631d993c6c14611151578063238ac9331461112b57806323ac0362146110685780632c7f3a251461104b57806334463a681461102e5780633eb5234f1461101157806344337ea114610f2157806351b2e30f14610f04578063521d745214610ee7578063537df3b614610e1f57806353c425c114610b55578063558e224814610b385780636c19e78314610af9578063715018a614610a6257806381be4cf114610a235780638da5cb5b146109de578063942f81c814610980578063961bdfbf146109665780639ca14bb714610945578063a407db231461091f578063aca8d9a4146108c1578063b4e5ffab146108a0578063b67a1f151461076d578063c853012114610730578063e53f002e1461070f578063e7572230146106e9578063eb3f0970146106cc578063efc3b80b1461068f578063f2fde38b14610664578063fa807ecf146101db5763fe575a871461019a575f80fd5b346101d75760203660031901126101d7576001600160a01b036101bb611457565b165f52600f602052602060ff60405f2054166040519015158152f35b5f80fd5b346101d75760a03660031901126101d7576004356101f761146d565b60443591906084359060643567ffffffffffffffff83116101d757366023840112156101d75782600401359067ffffffffffffffff82116101d75736602483860101116101d757335f52600f60205261025760ff60405f20541615611483565b6001600160a01b03831693845f52600e60205260ff60405f20541615610620576102856002548710156114ce565b814210156105dc57610322926103199260405160208101918a835260408201523360601b6060820152605481526102bd607482611519565b5190207f19457468657265756d205369676e6564204d6573736167653a0a3332000000005f52601c525f6020603c8220928060246102fa8261154f565b966103086040519889611519565b828852018387013784010152611beb565b90929192611c25565b6001600160a01b0380600d54169116036105985761033f846117ad565b908115610554576402540be40061035683866116ed565b04801561051057600654612710039061271082116104fc576127109161037b916116ed565b0492610396856001600160a01b036008541630903390611acb565b6103e15f806001600160a01b0360085416604051826020820191630852cd8d60e31b83528b6024820152602481526103cf604482611519565b51925af16103db61156b565b5061159a565b600354851161049f577f1a9644a9d940d759c9439535401d24ab24ada3bf0a95fabdfbf2f2c4ccbbc9209361045d61049792604051907fa9059cbb00000000000000000000000000000000000000000000000000000000602083015233602483015283604483015260448252610458606483611519565b611b27565b6006549060405194859433988691926001600160a01b03608094979695929760a08501988552166020840152604083015260608201520152565b0390a2600a55005b50600654604080519586526001600160a01b03929092166020860152908401919091526060830191909152608082015233907f4fb92378f8f5fd637b2ad7943d3023da684cf1d4ba984733673d69e1a1a8a5f19060a090a2600a55005b634e487b7160e01b5f52601160045260245ffd5b606460405162461bcd60e51b815260206004820152601160248201527f496e76616c696420757364416d6f756e740000000000000000000000000000006044820152fd5b606460405162461bcd60e51b815260206004820152601260248201527f496e76616c696420676f6c6420707269636500000000000000000000000000006044820152fd5b606460405162461bcd60e51b815260206004820152601160248201527f496e76616c6964207369676e61747572650000000000000000000000000000006044820152fd5b606460405162461bcd60e51b815260206004820152601160248201527f5369676e617475726520657870697265640000000000000000000000000000006044820152fd5b606460405162461bcd60e51b815260206004820152601260248201527f496e76616c6964207472616465546f6b656e00000000000000000000000000006044820152fd5b346101d75760203660031901126101d75761068d610680611457565b610688611a6c565b6119b1565b005b346101d75760203660031901126101d7576001600160a01b036106b0611457565b6106b8611a6c565b166001600160a01b03195f5416175f555f80f35b346101d7575f3660031901126101d7576020600654604051908152f35b346101d75760203660031901126101d75760206107076004356117ad565b604051908152f35b346101d75760203660031901126101d757610728611a6c565b600435600a55005b346101d75760203660031901126101d7576001600160a01b03610751611457565b165f52600e602052602060ff60405f2054166040519015158152f35b346101d75760203660031901126101d757600435610789611a6c565b80156108365760055481116107cc577f1510c4d8713bb6141138ec914ca103bf0d14a6736710a227e51e01638314933060206004549280600455604051908152a2005b608460405162461bcd60e51b815260206004820152603360248201527f4d696e696d756d206f66666c696e652073656c6c20616d6f756e74206d75737460448201527f206e6f7420657863656564206d6178696d756d000000000000000000000000006064820152fd5b608460405162461bcd60e51b815260206004820152603260248201527f4d696e696d756d206f66666c696e652073656c6c20616d6f756e74206d75737460448201527f2062652067726561746572207468616e203000000000000000000000000000006064820152fd5b346101d75760203660031901126101d7576108b9611a6c565b600435600b55005b346101d75760203660031901126101d7576004356108dd611a6c565b6108eb612710821115611630565b7fe220365b431c9f11bbfeba0642f929b864d84d959055d4b1b3c1219e8411561f60206006549280600655604051908152a2005b346101d7575f3660031901126101d75760206001600160a01b0360085416604051908152f35b346101d75760203660031901126101d75761095e611a6c565b600435600c55005b346101d7575f3660031901126101d7576020610707611700565b346101d75760203660031901126101d75760043561099c611a6c565b6109aa612710821115611630565b7f3f487d8bcb67c03c5e5cd6a6690179cd2b755a817f2813919d2074db25d6841b60206007549280600755604051908152a2005b346101d7575f3660031901126101d75760206001600160a01b037f9016d09d72d40fdae2fd8ceac6b6234c7706214fd39c1cd1e609a0528c1993005416604051908152f35b346101d75760203660031901126101d7576001600160a01b03610a44611457565b610a4c611a6c565b166001600160a01b031960015416176001555f80f35b346101d7575f3660031901126101d757610a7a611a6c565b5f6001600160a01b037f9016d09d72d40fdae2fd8ceac6b6234c7706214fd39c1cd1e609a0528c199300546001600160a01b031981167f9016d09d72d40fdae2fd8ceac6b6234c7706214fd39c1cd1e609a0528c19930055167f8be0079c531659141344cd1fd0a4f28419497f9722a3daafe3b4186f6b6457e08280a3005b346101d75760203660031901126101d7576001600160a01b03610b1a611457565b610b22611a6c565b166001600160a01b0319600d541617600d555f80f35b346101d7575f3660031901126101d7576020600254604051908152f35b346101d75760c03660031901126101d757610b6e611457565b610b7661146d565b906044356001600160a01b0381168091036101d757606435906001600160a01b0382168092036101d75760a435926001600160a01b0384168094036101d7577ff0c57e16840df040f15088dc2f81fe391c3923bec73e23a9662efc9c229c6a00549460ff8660401c16159567ffffffffffffffff811680159081610e17575b6001149081610e0d575b159081610e04575b50610ddc5767ffffffffffffffff1981166001177ff0c57e16840df040f15088dc2f81fe391c3923bec73e23a9662efc9c229c6a00556001600160a01b0392839188610d9d575b50610c57611b94565b610c5f611b94565b610c68336119b1565b166001600160a01b03196008541617600855165f52600e60205260405f20600160ff198254161790556001600160a01b03195f5416175f556001600160a01b0319600154161760015564486b1dea80600955678ac7230489e800006002556801158e460913d00000600355683635c9adc5dea0000060045569152d02c7e14af680000060055560196006556032600755608435600a556050600b556103e8600c556001600160a01b0319600d541617600d55610d2057005b68ff0000000000000000197ff0c57e16840df040f15088dc2f81fe391c3923bec73e23a9662efc9c229c6a0054167ff0c57e16840df040f15088dc2f81fe391c3923bec73e23a9662efc9c229c6a00557fc7f505b2f371ae2175ee4913f4499e1f2633a7b5936321eed1cdaeb6115181d2602060405160018152a1005b68ffffffffffffffffff191668010000000000000001177ff0c57e16840df040f15088dc2f81fe391c3923bec73e23a9662efc9c229c6a005588610c4e565b7ff92ee8a9000000000000000000000000000000000000000000000000000000005f5260045ffd5b90501588610c07565b303b159150610bff565b889150610bf5565b346101d75760203660031901126101d7576001600160a01b03610e40611457565b610e48611a6c565b16610e548115156115e5565b805f52600f60205260ff60405f20541615610ea357805f52600f60205260405f2060ff1981541690557f2b6bf71b58b3583add364b3d9060ebf8019650f65f5be35f5464b9cb3e4ba2d45f80a2005b606460405162461bcd60e51b815260206004820152601f60248201527f426c61636b6c697374546f6b656e3a204e6f7420626c61636b6c6973746564006044820152fd5b346101d7575f3660031901126101d7576020600454604051908152f35b346101d7575f3660031901126101d7576020600354604051908152f35b346101d75760203660031901126101d7576001600160a01b03610f42611457565b610f4a611a6c565b16610f568115156115e5565b805f52600f60205260ff60405f205416610fa757805f52600f60205260405f20600160ff198254161790557ff9b68063b051b82957fa193585681240904fed808db8b30fc5a2d2202c6ed6275f80a2005b608460405162461bcd60e51b815260206004820152602360248201527f426c61636b6c697374546f6b656e3a20416c726561647920626c61636b6c697360448201527f74656400000000000000000000000000000000000000000000000000000000006064820152fd5b346101d7575f3660031901126101d7576020600554604051908152f35b346101d7575f3660031901126101d7576020600a54604051908152f35b346101d7575f3660031901126101d7576020600754604051908152f35b346101d75760203660031901126101d757600435611084611a6c565b60045481106110c1577fd8a95468d73aeb61e77d294fc5c4db88f1ea149330fa510789628deb2205f5df60206005549280600555604051908152a2005b608460405162461bcd60e51b815260206004820152603960248201527f4d6178696d756d206f66666c696e652073656c6c20616d6f756e74206d75737460448201527f206e6f74206265206c657373207468616e206d696e696d756d000000000000006064820152fd5b346101d7575f3660031901126101d75760206001600160a01b03600d5416604051908152f35b346101d75760203660031901126101d75760043561116d611a6c565b801561121a5760035481116111b0577fd468d2cd8df36292f71e76031dccd8dc46407b2e8c4469832c1cd36915261c0f60206002549280600255604051908152a2005b608460405162461bcd60e51b815260206004820152602b60248201527f4d696e696d756d2073656c6c20616d6f756e74206d757374206e6f742065786360448201527f656564206d6178696d756d0000000000000000000000000000000000000000006064820152fd5b608460405162461bcd60e51b815260206004820152602a60248201527f4d696e696d756d2073656c6c20616d6f756e74206d757374206265206772656160448201527f746572207468616e2030000000000000000000000000000000000000000000006064820152fd5b346101d75760203660031901126101d757600435335f52600f6020526112b160ff60405f20541615611483565b6004548110158061134e575b6112c6906114ce565b6112df816001600160a01b036008541630903390611acb565b6113185f806001600160a01b0360085416604051826020820191630852cd8d60e31b8352876024820152602481526103cf604482611519565b60075460405191825260208201527f45600b7af74a18b1066c7e7ec71baaac81c033cd895835315cc5d609fb95b32a60403392a2005b506005548111156112bd565b346101d7575f3660031901126101d7576020600b54604051908152f35b346101d7575f3660031901126101d7576020600c54604051908152f35b346101d75760203660031901126101d7576004356113b0611a6c565b60025481106113ed577f385606c1e6eb8dc3351d9eacc1e4fe9f6658e2384e181cf29b56371d1bde12f360206003549280600355604051908152a2005b608460405162461bcd60e51b815260206004820152603160248201527f4d6178696d756d2073656c6c20616d6f756e74206d757374206e6f742062652060448201527f6c657373207468616e206d696e696d756d0000000000000000000000000000006064820152fd5b600435906001600160a01b03821682036101d757565b602435906001600160a01b03821682036101d757565b1561148a57565b606460405162461bcd60e51b815260206004820152601e60248201527f426c61636b6c6973743a207573657220697320626c61636b6c697374656400006044820152fd5b156114d557565b606460405162461bcd60e51b815260206004820152600c60248201527f616d6f756e74206572726f7200000000000000000000000000000000000000006044820152fd5b90601f8019910116810190811067ffffffffffffffff82111761153b57604052565b634e487b7160e01b5f52604160045260245ffd5b67ffffffffffffffff811161153b57601f01601f191660200190565b3d15611595573d9061157c8261154f565b9161158a6040519384611519565b82523d5f602084013e565b606090565b156115a157565b606460405162461bcd60e51b815260206004820152600b60248201527f4275726e206661696c65640000000000000000000000000000000000000000006044820152fd5b156115ec57565b606460405162461bcd60e51b815260206004820152601c60248201527f426c61636b6c697374546f6b656e3a205a65726f2061646472657373000000006044820152fd5b1561163757565b608460405162461bcd60e51b815260206004820152602160248201527f4665652070657263656e746167652063616e6e6f74206578636565642031303060448201527f25000000000000000000000000000000000000000000000000000000000000006064820152fd5b519069ffffffffffffffffffff821682036101d757565b908160a09103126101d7576116cc816116a1565b916020820151916040810151916116ea6080606084015193016116a1565b90565b818102929181159184041417156104fc57565b600460a06001600160a01b036001541660405192838092633fabe5a360e21b82525afa908115611784575f91611750575b506402540be4008102908082046402540be40014901517156104fc5790565b611772915060a03d60a01161177d575b61176a8183611519565b8101906116b8565b50505090505f611731565b503d611760565b6040513d5f823e3d90fd5b8115611799570490565b634e487b7160e01b5f52601260045260245ffd5b600460a06001600160a01b035f541660405192838092633fabe5a360e21b82525afa908115611784575f9161198d575b5080821090811591611963575b50156118f957600a54808210908115916118cf575b5015611865576402540be4008102908082046402540be40014901517156104fc576118326305f5e100916009549061178f565b0461183b611700565b670de0b6b3a7640000820291808304670de0b6b3a764000014901517156104fc576116ea9161178f565b608460405162461bcd60e51b815260206004820152603260248201527f4f6666636861696e2070726963652064657669617465732066726f6d206c617460448201527f65737420707269636520746f6f206d75636800000000000000000000000000006064820152fd5b9050600c54612710039061271082116104fc57612710916118ef916116ed565b048110155f6117ff565b608460405162461bcd60e51b815260206004820152603260248201527f4f6666636861696e2070726963652064657669617465732066726f6d206f726160448201527f636c6520707269636520746f6f206d75636800000000000000000000000000006064820152fd5b9050600b54612710039061271082116104fc5761271091611983916116ed565b048110155f6117ea565b6119a6915060a03d60a01161177d5761176a8183611519565b50505090505f6117dd565b6001600160a01b03168015611a40576001600160a01b037f9016d09d72d40fdae2fd8ceac6b6234c7706214fd39c1cd1e609a0528c19930054826001600160a01b03198216177f9016d09d72d40fdae2fd8ceac6b6234c7706214fd39c1cd1e609a0528c19930055167f8be0079c531659141344cd1fd0a4f28419497f9722a3daafe3b4186f6b6457e05f80a3565b7f1e4fbdf7000000000000000000000000000000000000000000000000000000005f525f60045260245ffd5b6001600160a01b037f9016d09d72d40fdae2fd8ceac6b6234c7706214fd39c1cd1e609a0528c19930054163303611a9f57565b7f118cdaa7000000000000000000000000000000000000000000000000000000005f523360045260245ffd5b9091926001600160a01b03611b259481604051957f23b872dd000000000000000000000000000000000000000000000000000000006020880152166024860152166044840152606483015260648252610458608483611519565b565b905f602091828151910182855af115611784575f513d611b8b57506001600160a01b0381163b155b611b565750565b6001600160a01b03907f5274afe7000000000000000000000000000000000000000000000000000000005f521660045260245ffd5b60011415611b4f565b60ff7ff0c57e16840df040f15088dc2f81fe391c3923bec73e23a9662efc9c229c6a005460401c1615611bc357565b7fd7e6bcf8000000000000000000000000000000000000000000000000000000005f5260045ffd5b8151919060418303611c1b57611c149250602082015190606060408401519301515f1a90611ce4565b9192909190565b50505f9160029190565b6004811015611cd05780611c37575050565b60018103611c67577ff645eedf000000000000000000000000000000000000000000000000000000005f5260045ffd5b60028103611c9b57507ffce698f7000000000000000000000000000000000000000000000000000000005f5260045260245ffd5b600314611ca55750565b7fd78bce0c000000000000000000000000000000000000000000000000000000005f5260045260245ffd5b634e487b7160e01b5f52602160045260245ffd5b91907f7fffffffffffffffffffffffffffffff5d576e7357a4501ddfe92f46681b20a08411611d5b579160209360809260ff5f9560405194855216868401526040830152606082015282805260015afa15611784575f516001600160a01b03811615611d5157905f905f90565b505f906001905f90565b5050505f916003919056fea2646970667358221220b71d81478c65f8104e616bf8b79d257339eab84952bdc3b1083049edc90e110c64736f6c634300081e0033",
  "linkReferences": {},
  "deployedLinkReferences": {},
  "immutableReferences": {},
  "inputSourceName": "project/contracts/ghk-sell/GHKSellPool.sol",
  "buildInfoId": "solc-0_8_30-b5a2da7b832a14d859010e43fc98931459f628dc"
}