{
  "_format": "hh3-artifact-1",
  "contractName": "GHKToken",
  "sourceName": "contracts/ghk/GHKToken.sol",
  "abi": [
    {
      "inputs": [
        {
          "internalType": "address",
          "name": "spender",
          "type": "address"
        },
        {
          "internalType": "uint256",
          "name": "allowance",
          "type": "uint256"
        },
        {
          "internalType": "uint256",
          "name": "needed",
          "type": "uint256"
        }
      ],
      "name": "ERC20InsufficientAllowance",
      "type": "error"
    },
    {
      "inputs": [
        {
          "internalType": "address",
          "name": "sender",
          "type": "address"
        },
        {
          "internalType": "uint256",
          "name": "balance",
          "type": "uint256"
        },
        {
          "internalType": "uint256",
          "name": "needed",
          "type": "uint256"
        }
      ],
      "name": "ERC20InsufficientBalance",
      "type": "error"
    },
    {
      "inputs": [
        {
          "internalType": "address",
          "name": "approver",
          "type": "address"
        }
      ],
      "name": "ERC20InvalidApprover",
      "type": "error"
    },
    {
      "inputs": [
        {
          "internalType": "address",
          "name": "receiver",
          "type": "address"
        }
      ],
      "name": "ERC20InvalidReceiver",
      "type": "error"
    },
    {
      "inputs": [
        {
          "internalType": "address",
          "name": "sender",
          "type": "address"
        }
      ],
      "name": "ERC20InvalidSender",
      "type": "error"
    },
    {
      "inputs": [
        {
          "internalType": "address",
          "name": "spender",
          "type": "address"
        }
      ],
      "name": "ERC20InvalidSpender",
      "type": "error"
    },
    {
      "inputs": [],
      "name": "EnforcedPause",
      "type": "error"
    },
    {
      "inputs": [],
      "name": "ExpectedPause",
      "type": "error"
    },
    {
      "inputs": [],
      "name": "InvalidInitialization",
      "type": "error"
    },
    {
      "inputs": [],
      "name": "NotInitializing",
      "type": "error"
    },
    {
      "inputs": [
        {
          "internalType": "address",
          "name": "owner",
          "type": "address"
        }
      ],
      "name": "OwnableInvalidOwner",
      "type": "error"
    },
    {
      "inputs": [
        {
          "internalType": "address",
          "name": "account",
          "type": "address"
        }
      ],
      "name": "OwnableUnauthorizedAccount",
      "type": "error"
    },
    {
      "anonymous": false,
      "inputs": [
        {
          "indexed": true,
          "internalType": "address",
          "name": "account",
          "type": "address"
        }
      ],
      "name": "AddedToBlacklist",
      "type": "event"
    },
    {
      "anonymous": false,
      "inputs": [
        {
          "indexed": true,
          "internalType": "address",
          "name": "account",
          "type": "address"
        }
      ],
      "name": "AddedToMinters",
      "type": "event"
    },
    {
      "anonymous": false,
      "inputs": [
        {
          "indexed": true,
          "internalType": "address",
          "name": "owner",
          "type": "address"
        },
        {
          "indexed": true,
          "internalType": "address",
          "name": "spender",
          "type": "address"
        },
        {
          "indexed": false,
          "internalType": "uint256",
          "name": "value",
          "type": "uint256"
        }
      ],
      "name": "Approval",
      "type": "event"
    },
    {
      "anonymous": false,
      "inputs": [
        {
          "indexed": false,
          "internalType": "uint64",
          "name": "version",
          "type": "uint64"
        }
      ],
      "name": "Initialized",
      "type": "event"
    },
    {
      "anonymous": false,
      "inputs": [
        {
          "indexed": true,
          "internalType": "address",
          "name": "previousOwner",
          "type": "address"
        },
        {
          "indexed": true,
          "internalType": "address",
          "name": "newOwner",
          "type": "address"
        }
      ],
      "name": "OwnershipTransferred",
      "type": "event"
    },
    {
      "anonymous": false,
      "inputs": [
        {
          "indexed": false,
          "internalType": "address",
          "name": "account",
          "type": "address"
        }
      ],
      "name": "Paused",
      "type": "event"
    },
    {
      "anonymous": false,
      "inputs": [
        {
          "indexed": true,
          "internalType": "address",
          "name": "account",
          "type": "address"
        }
      ],
      "name": "RemovedFromBlacklist",
      "type": "event"
    },
    {
      "anonymous": false,
      "inputs": [
        {
          "indexed": true,
          "internalType": "address",
          "name": "account",
          "type": "address"
        }
      ],
      "name": "RemovedFromMinters",
      "type": "event"
    },
    {
      "anonymous": false,
      "inputs": [
        {
          "indexed": true,
          "internalType": "address",
          "name": "from",
          "type": "address"
        },
        {
          "indexed": true,
          "internalType": "address",
          "name": "to",
          "type": "address"
        },
        {
          "indexed": false,
          "internalType": "uint256",
          "name": "value",
          "type": "uint256"
        }
      ],
      "name": "Transfer",
      "type": "event"
    },
    {
      "anonymous": false,
      "inputs": [
        {
          "indexed": false,
          "internalType": "address",
          "name": "account",
          "type": "address"
        }
      ],
      "name": "Unpaused",
      "type": "event"
    },
    {
      "inputs": [
        {
          "internalType": "address",
          "name": "account",
          "type": "address"
        }
      ],
      "name": "addToBlacklist",
      "outputs": [],
      "stateMutability": "nonpayable",
      "type": "function"
    },
    {
      "inputs": [
        {
          "internalType": "address",
          "name": "account",
          "type": "address"
        }
      ],
      "name": "addedToMinters",
      "outputs": [],
      "stateMutability": "nonpayable",
      "type": "function"
    },
    {
      "inputs": [
        {
          "internalType": "address",
          "name": "owner",
          "type": "address"
        },
        {
          "internalType": "address",
          "name": "spender",
          "type": "address"
        }
      ],
      "name": "allowance",
      "outputs": [
        {
          "internalType": "uint256",
          "name": "",
          "type": "uint256"
        }
      ],
      "stateMutability": "view",
      "type": "function"
    },
    {
      "inputs": [
        {
          "internalType": "address",
          "name": "spender",
          "type": "address"
        },
        {
          "internalType": "uint256",
          "name": "value",
          "type": "uint256"
        }
      ],
      "name": "approve",
      "outputs": [
        {
          "internalType": "bool",
          "name": "",
          "type": "bool"
        }
      ],
      "stateMutability": "nonpayable",
      "type": "function"
    },
    {
      "inputs": [
        {
          "internalType": "address",
          "name": "account",
          "type": "address"
        }
      ],
      "name": "balanceOf",
      "outputs": [
        {
          "internalType": "uint256",
          "name": "",
          "type": "uint256"
        }
      ],
      "stateMutability": "view",
      "type": "function"
    },
    {
      "inputs": [
        {
          "internalType": "uint256",
          "name": "amount",
          "type": "uint256"
        }
      ],
      "name": "burn",
      "outputs": [],
      "stateMutability": "nonpayable",
      "type": "function"
    },
    {
      "inputs": [],
      "name": "decimals",
      "outputs": [
        {
          "internalType": "uint8",
          "name": "",
          "type": "uint8"
        }
      ],
      "stateMutability": "view",
      "type": "function"
    },
    {
      "inputs": [
        {
          "internalType": "uint256",
          "name": "initialSupply",
          "type": "uint256"
        }
      ],
      "name": "initialize",
      "outputs": [],
      "stateMutability": "nonpayable",
      "type": "function"
    },
    {
      "inputs": [
        {
          "internalType": "address",
          "name": "account",
          "type": "address"
        }
      ],
      "name": "isBlacklisted",
      "outputs": [
        {
          "internalType": "bool",
          "name": "",
          "type": "bool"
        }
      ],
      "stateMutability": "view",
      "type": "function"
    },
    {
      "inputs": [
        {
          "internalType": "address",
          "name": "account",
          "type": "address"
        }
      ],
      "name": "isMinter",
      "outputs": [
        {
          "internalType": "bool",
          "name": "",
          "type": "bool"
        }
      ],
      "stateMutability": "view",
      "type": "function"
    },
    {
      "inputs": [
        {
          "internalType": "address",
          "name": "to",
          "type": "address"
        },
        {
          "internalType": "uint256",
          "name": "amount",
          "type": "uint256"
        }
      ],
      "name": "mint",
      "outputs": [],
      "stateMutability": "nonpayable",
      "type": "function"
    },
    {
      "inputs": [
        {
          "internalType": "address",
          "name": "to",
          "type": "address"
        },
        {
          "internalType": "uint256",
          "name": "amount",
          "type": "uint256"
        }
      ],
      "name": "mintBy",
      "outputs": [],
      "stateMutability": "nonpayable",
      "type": "function"
    },
    {
      "inputs": [],
      "name": "name",
      "outputs": [
        {
          "internalType": "string",
          "name": "",
          "type": "string"
        }
      ],
      "stateMutability": "view",
      "type": "function"
    },
    {
      "inputs": [],
      "name": "owner",
      "outputs": [
        {
          "internalType": "address",
          "name": "",
          "type": "address"
        }
      ],
      "stateMutability": "view",
      "type": "function"
    },
    {
      "inputs": [],
      "name": "pause",
      "outputs": [],
      "stateMutability": "nonpayable",
      "type": "function"
    },
    {
      "inputs": [],
      "name": "paused",
      "outputs": [
        {
          "internalType": "bool",
          "name": "",
          "type": "bool"
        }
      ],
      "stateMutability": "view",
      "type": "function"
    },
    {
      "inputs": [
        {
          "internalType": "address",
          "name": "account",
          "type": "address"
        }
      ],
      "name": "removeFromBlacklist",
      "outputs": [],
      "stateMutability": "nonpayable",
      "type": "function"
    },
    {
      "inputs": [
        {
          "internalType": "address",
          "name": "account",
          "type": "address"
        }
      ],
      "name": "removedFromMinters",
      "outputs": [],
      "stateMutability": "nonpayable",
      "type": "function"
    },
    {
      "inputs": [],
      "name": "renounceOwnership",
      "outputs": [],
      "stateMutability": "nonpayable",
      "type": "function"
    },
    {
      "inputs": [],
      "name": "symbol",
      "outputs": [
        {
          "internalType": "string",
          "name": "",
          "type": "string"
        }
      ],
      "stateMutability": "view",
      "type": "function"
    },
    {
      "inputs": [],
      "name": "totalSupply",
      "outputs": [
        {
          "internalType": "uint256",
          "name": "",
          "type": "uint256"
        }
      ],
      "stateMutability": "view",
      "type": "function"
    },
    {
      "inputs": [
        {
          "internalType": "address",
          "name": "to",
          "type": "address"
        },
        {
          "internalType": "uint256",
          "name": "value",
          "type": "uint256"
        }
      ],
      "name": "transfer",
      "outputs": [
        {
          "internalType": "bool",
          "name": "",
          "type": "bool"
        }
      ],
      "stateMutability": "nonpayable",
      "type": "function"
    },
    {
      "inputs": [
        {
          "internalType": "address",
          "name": "from",
          "type": "address"
        },
        {
          "internalType": "address",
          "name": "to",
          "type": "address"
        },
        {
          "internalType": "uint256",
          "name": "value",
          "type": "uint256"
        }
      ],
      "name": "transferFrom",
      "outputs": [
        {
          "internalType": "bool",
          "name": "",
          "type": "bool"
        }
      ],
      "stateMutability": "nonpayable",
      "type": "function"
    },
    {
      "inputs": [
        {
          "internalType": "address",
          "name": "newOwner",
          "type": "address"
        }
      ],
      "name": "transferOwnership",
      "outputs": [],
      "stateMutability": "nonpayable",
      "type": "function"
    },
    {
      "inputs": [],
      "name": "unpause",
      "outputs": [],
      "stateMutability": "nonpayable",
      "type": "function"
    }
  ],
  "bytecode": "0x60808060405234601557611cb3908161001a8239f35b5f80fdfe60806040526004361015610011575f80fd5b5f3560e01c806306fdde0314611629578063095ea7b31461158657806318160ddd1461154a57806323b872dd146113c0578063313ce567146113a55780633d09a2e5146112db5780633f4ba83a1461121e57806340c10f191461116a57806342966c6814610ec757806344337ea114610dd9578063537df3b614610d135780635c975abb14610cd257806370a0823114610c7b578063715018a614610bd75780637f4a838f14610b595780638456cb5914610ac257806384bfac8f146109fa5780638da5cb5b146109b557806395d89b411461089d578063a9059cbb1461086c578063aa271e1a1461082f578063dd62ed3e146107b6578063f2fde38b1461078b578063fe4b84df1461016c5763fe575a871461012c575f80fd5b34610168576020366003190112610168576001600160a01b0361014d611736565b165f525f602052602060ff60405f2054166040519015158152f35b5f80fd5b34610168576020366003190112610168576004357ff0c57e16840df040f15088dc2f81fe391c3923bec73e23a9662efc9c229c6a00549060ff8260401c16159167ffffffffffffffff811680159081610783575b6001149081610779575b159081610770575b506107485767ffffffffffffffff1981166001177ff0c57e16840df040f15088dc2f81fe391c3923bec73e23a9662efc9c229c6a005582610709575b506040519161021e60408461179a565b600683527f476f6c64484b000000000000000000000000000000000000000000000000000060208401526040519161025760408461179a565b600383527f47484b00000000000000000000000000000000000000000000000000000000006020840152610289611c26565b610291611c26565b835167ffffffffffffffff81116105c7576102cc7f52c63247e1f47db19d5ce0460030c497f067ca4cebf71ba98eeadabe20bace0354611762565b601f8111610687575b50602094601f82116001146105e6579481929394955f926105db575b50508160011b915f199060031b1c1916177f52c63247e1f47db19d5ce0460030c497f067ca4cebf71ba98eeadabe20bace03555b825167ffffffffffffffff81116105c7576103607f52c63247e1f47db19d5ce0460030c497f067ca4cebf71ba98eeadabe20bace0454611762565b601f8111610545575b506020601f82116001146104a457819293945f92610499575b50508160011b915f199060031b1c1916177f52c63247e1f47db19d5ce0460030c497f067ca4cebf71ba98eeadabe20bace04555b6103be611c26565b6103c6611c26565b6103ce611c26565b6103d733611852565b670de0b6b3a7640000810290808204670de0b6b3a76400001490151715610485576104029033611aca565b61040857005b68ff0000000000000000197ff0c57e16840df040f15088dc2f81fe391c3923bec73e23a9662efc9c229c6a0054167ff0c57e16840df040f15088dc2f81fe391c3923bec73e23a9662efc9c229c6a00557fc7f505b2f371ae2175ee4913f4499e1f2633a7b5936321eed1cdaeb6115181d2602060405160018152a1005b634e487b7160e01b5f52601160045260245ffd5b015190508480610382565b601f198216907f52c63247e1f47db19d5ce0460030c497f067ca4cebf71ba98eeadabe20bace045f52805f20915f5b81811061052d57509583600195969710610515575b505050811b017f52c63247e1f47db19d5ce0460030c497f067ca4cebf71ba98eeadabe20bace04556103b6565b01515f1960f88460031b161c191690558480806104e8565b9192602060018192868b0151815501940192016104d3565b7f52c63247e1f47db19d5ce0460030c497f067ca4cebf71ba98eeadabe20bace045f527f46a2803e59a4de4e7a4c574b1243f25977ac4c77d5a1a4a609b5394cebb4a2aa601f830160051c810191602084106105bd575b601f0160051c01905b8181106105b25750610369565b5f81556001016105a5565b909150819061059c565b634e487b7160e01b5f52604160045260245ffd5b0151905085806102f1565b601f198216957f52c63247e1f47db19d5ce0460030c497f067ca4cebf71ba98eeadabe20bace035f52805f20915f5b88811061066f57508360019596979810610657575b505050811b017f52c63247e1f47db19d5ce0460030c497f067ca4cebf71ba98eeadabe20bace0355610325565b01515f1960f88460031b161c1916905585808061062a565b91926020600181928685015181550194019201610615565b7f52c63247e1f47db19d5ce0460030c497f067ca4cebf71ba98eeadabe20bace035f527f2ae08a8e29253f69ac5d979a101956ab8f8d9d7ded63fa7a83b16fc47648eab0601f830160051c810191602084106106ff575b601f0160051c01905b8181106106f457506102d5565b5f81556001016106e7565b90915081906106de565b68ffffffffffffffffff191668010000000000000001177ff0c57e16840df040f15088dc2f81fe391c3923bec73e23a9662efc9c229c6a00558261020e565b7ff92ee8a9000000000000000000000000000000000000000000000000000000005f5260045ffd5b905015846101d2565b303b1591506101ca565b8491506101c0565b34610168576020366003190112610168576107b46107a7611736565b6107af611a6b565b611852565b005b34610168576040366003190112610168576107cf611736565b6001600160a01b036108196107e261174c565b926001600160a01b03165f527f52c63247e1f47db19d5ce0460030c497f067ca4cebf71ba98eeadabe20bace0160205260405f2090565b91165f52602052602060405f2054604051908152f35b34610168576020366003190112610168576001600160a01b03610850611736565b165f526001602052602060ff60405f2054166040519015158152f35b3461016857604036600319011261016857610892610888611736565b602435903361191a565b602060405160018152f35b34610168575f366003190112610168576040515f7f52c63247e1f47db19d5ce0460030c497f067ca4cebf71ba98eeadabe20bace04546108dc81611762565b80845290600181169081156109915750600114610914575b610910836109048185038261179a565b6040519182918261170c565b0390f35b7f52c63247e1f47db19d5ce0460030c497f067ca4cebf71ba98eeadabe20bace045f9081527f46a2803e59a4de4e7a4c574b1243f25977ac4c77d5a1a4a609b5394cebb4a2aa939250905b808210610977575090915081016020016109046108f4565b91926001816020925483858801015201910190929161095f565b60ff191660208086019190915291151560051b8401909101915061090490506108f4565b34610168575f3660031901126101685760206001600160a01b037f9016d09d72d40fdae2fd8ceac6b6234c7706214fd39c1cd1e609a0528c1993005416604051908152f35b34610168576020366003190112610168576001600160a01b03610a1b611736565b610a23611a6b565b16610a2f8115156117bc565b805f52600160205260ff60405f20541615610a7e57805f52600160205260405f2060ff1981541690557f471327f0fc97a4d222fd118880772058e627834a090635e2a18237f636e62d0b5f80a2005b606460405162461bcd60e51b815260206004820152601060248201527f4d696e746572733a20696e76616c6964000000000000000000000000000000006044820152fd5b34610168575f36600319011261016857610ada611a6b565b610ae2611bd3565b600160ff197fcd5ed15c6e187e77e9aee88184c21f4f2182ab5827cb3b7e07fbedcd63f033005416177fcd5ed15c6e187e77e9aee88184c21f4f2182ab5827cb3b7e07fbedcd63f03300557f62e78cea01bee320cd4e420270b5ea74000d11b0c9f74754ebdbfc544b05a2586020604051338152a1005b3461016857604036600319011261016857610b72611736565b335f52600160205260ff60405f205416610b93576107b49060243590611aca565b606460405162461bcd60e51b815260206004820152601a60248201527f4d696e746572733a207065726d697373696f6e2064656e6965640000000000006044820152fd5b34610168575f36600319011261016857610bef611a6b565b5f6001600160a01b037f9016d09d72d40fdae2fd8ceac6b6234c7706214fd39c1cd1e609a0528c1993005473ffffffffffffffffffffffffffffffffffffffff1981167f9016d09d72d40fdae2fd8ceac6b6234c7706214fd39c1cd1e609a0528c19930055167f8be0079c531659141344cd1fd0a4f28419497f9722a3daafe3b4186f6b6457e08280a3005b34610168576020366003190112610168576001600160a01b03610c9c611736565b165f527f52c63247e1f47db19d5ce0460030c497f067ca4cebf71ba98eeadabe20bace00602052602060405f2054604051908152f35b34610168575f36600319011261016857602060ff7fcd5ed15c6e187e77e9aee88184c21f4f2182ab5827cb3b7e07fbedcd63f0330054166040519015158152f35b34610168576020366003190112610168576001600160a01b03610d34611736565b610d3c611a6b565b16610d48811515611807565b805f525f60205260ff60405f20541615610d9557805f525f60205260405f2060ff1981541690557f2b6bf71b58b3583add364b3d9060ebf8019650f65f5be35f5464b9cb3e4ba2d45f80a2005b606460405162461bcd60e51b815260206004820152601f60248201527f426c61636b6c697374546f6b656e3a204e6f7420626c61636b6c6973746564006044820152fd5b34610168576020366003190112610168576001600160a01b03610dfa611736565b610e02611a6b565b16610e0e811515611807565b805f525f60205260ff60405f205416610e5d57805f525f60205260405f20600160ff198254161790557ff9b68063b051b82957fa193585681240904fed808db8b30fc5a2d2202c6ed6275f80a2005b608460405162461bcd60e51b815260206004820152602360248201527f426c61636b6c697374546f6b656e3a20416c726561647920626c61636b6c697360448201527f74656400000000000000000000000000000000000000000000000000000000006064820152fd5b3461016857602036600319011261016857600435335f525f60205260ff60405f2054166111185733156110ec57335f525f60205260ff60405f20541661109a575f8080526020527fad3228b676f7d3cd4284a5443f17f1962b36e491b30a40b2405849e597ba5fb55460ff1661103057610f3f611bd3565b335f527f52c63247e1f47db19d5ce0460030c497f067ca4cebf71ba98eeadabe20bace0060205260405f20548181106110175790805f923384527f52c63247e1f47db19d5ce0460030c497f067ca4cebf71ba98eeadabe20bace00602052036040832055807f52c63247e1f47db19d5ce0460030c497f067ca4cebf71ba98eeadabe20bace0254037f52c63247e1f47db19d5ce0460030c497f067ca4cebf71ba98eeadabe20bace02556040519081527fddf252ad1be2c89b69c2b068fc378daa952ba7f163c4a11628f55a4df523b3ef60203392a3005b63391434e360e21b5f523360045260245260445260645ffd5b608460405162461bcd60e51b815260206004820152602860248201527f426c61636b6c697374546f6b656e3a20526563697069656e7420697320626c6160448201527f636b6c69737465640000000000000000000000000000000000000000000000006064820152fd5b608460405162461bcd60e51b815260206004820152602560248201527f426c61636b6c697374546f6b656e3a2053656e64657220697320626c61636b6c6044820152641a5cdd195960da1b6064820152fd5b7f96c6fd1e000000000000000000000000000000000000000000000000000000005f525f60045260245ffd5b608460405162461bcd60e51b815260206004820152602560248201527f426c61636b6c697374546f6b656e3a204275726e657220697320626c61636b6c6044820152641a5cdd195960da1b6064820152fd5b3461016857604036600319011261016857611183611736565b61118b611a6b565b6001600160a01b0381165f525f60205260ff60405f2054166111b4576107b49060243590611aca565b608460405162461bcd60e51b815260206004820152602160248201527f426c61636b6c697374546f6b656e3a20746f20697320626c61636b6c6973746560448201527f64000000000000000000000000000000000000000000000000000000000000006064820152fd5b34610168575f36600319011261016857611236611a6b565b7fcd5ed15c6e187e77e9aee88184c21f4f2182ab5827cb3b7e07fbedcd63f033005460ff8116156112b35760ff19167fcd5ed15c6e187e77e9aee88184c21f4f2182ab5827cb3b7e07fbedcd63f03300557f5db9ee0a495bf2e6ff9c91a7834c1ba4fdd244a5e8aa4e537bd38aeae4b073aa6020604051338152a1005b7f8dfc202b000000000000000000000000000000000000000000000000000000005f5260045ffd5b34610168576020366003190112610168576001600160a01b036112fc611736565b611304611a6b565b166113108115156117bc565b805f52600160205260ff60405f20541661136157805f52600160205260405f20600160ff198254161790557f045663e08f2161cf53b062a78ce1e4cb28df97149df9e570a0cae215431d31d25f80a2005b606460405162461bcd60e51b815260206004820152601760248201527f4d696e746572733a204a6f696e656420616c72656164790000000000000000006044820152fd5b34610168575f36600319011261016857602060405160128152f35b34610168576060366003190112610168576113d9611736565b6113e161174c565b6044359061141f836001600160a01b03165f527f52c63247e1f47db19d5ce0460030c497f067ca4cebf71ba98eeadabe20bace0160205260405f2090565b6001600160a01b0333165f5260205260405f2054925f198410611447575b610892935061191a565b828410611516576001600160a01b038116156114ea5733156114be57610892936114a1826001600160a01b03165f527f52c63247e1f47db19d5ce0460030c497f067ca4cebf71ba98eeadabe20bace0160205260405f2090565b6001600160a01b0333165f526020528360405f209103905561143d565b7f94280d62000000000000000000000000000000000000000000000000000000005f525f60045260245ffd5b7fe602df05000000000000000000000000000000000000000000000000000000005f525f60045260245ffd5b82847ffb8f41b2000000000000000000000000000000000000000000000000000000005f523360045260245260445260645ffd5b34610168575f3660031901126101685760207f52c63247e1f47db19d5ce0460030c497f067ca4cebf71ba98eeadabe20bace0254604051908152f35b346101685760403660031901126101685761159f611736565b6024359033156114ea576001600160a01b03169081156114be57335f9081527f52c63247e1f47db19d5ce0460030c497f067ca4cebf71ba98eeadabe20bace0160205260409020825f526020528060405f20556040519081527f8c5be1e5ebec7d5bd14f71427d1e84f3dd0314c0f7b2291e5b200ac8c7c3b92560203392a3602060405160018152f35b34610168575f366003190112610168576040515f7f52c63247e1f47db19d5ce0460030c497f067ca4cebf71ba98eeadabe20bace035461166881611762565b8084529060018116908115610991575060011461168f57610910836109048185038261179a565b7f52c63247e1f47db19d5ce0460030c497f067ca4cebf71ba98eeadabe20bace035f9081527f2ae08a8e29253f69ac5d979a101956ab8f8d9d7ded63fa7a83b16fc47648eab0939250905b8082106116f2575090915081016020016109046108f4565b9192600181602092548385880101520191019092916116da565b602060409281835280519182918282860152018484015e5f828201840152601f01601f1916010190565b600435906001600160a01b038216820361016857565b602435906001600160a01b038216820361016857565b90600182811c92168015611790575b602083101461177c57565b634e487b7160e01b5f52602260045260245ffd5b91607f1691611771565b90601f8019910116810190811067ffffffffffffffff8211176105c757604052565b156117c357565b606460405162461bcd60e51b815260206004820152601560248201527f4d696e746572733a205a65726f206164647265737300000000000000000000006044820152fd5b1561180e57565b606460405162461bcd60e51b815260206004820152601c60248201527f426c61636b6c697374546f6b656e3a205a65726f2061646472657373000000006044820152fd5b6001600160a01b031680156118ee576001600160a01b037f9016d09d72d40fdae2fd8ceac6b6234c7706214fd39c1cd1e609a0528c199300548273ffffffffffffffffffffffffffffffffffffffff198216177f9016d09d72d40fdae2fd8ceac6b6234c7706214fd39c1cd1e609a0528c19930055167f8be0079c531659141344cd1fd0a4f28419497f9722a3daafe3b4186f6b6457e05f80a3565b7f1e4fbdf7000000000000000000000000000000000000000000000000000000005f525f60045260245ffd5b6001600160a01b03169081156110ec576001600160a01b0316918215611a3f57815f525f60205260ff60405f20541661109a57825f525f60205260ff60405f20541661103057611968611bd3565b815f527f52c63247e1f47db19d5ce0460030c497f067ca4cebf71ba98eeadabe20bace0060205260405f2054818110611a2657817fddf252ad1be2c89b69c2b068fc378daa952ba7f163c4a11628f55a4df523b3ef92602092855f527f52c63247e1f47db19d5ce0460030c497f067ca4cebf71ba98eeadabe20bace0084520360405f2055845f527f52c63247e1f47db19d5ce0460030c497f067ca4cebf71ba98eeadabe20bace00825260405f20818154019055604051908152a3565b8263391434e360e21b5f5260045260245260445260645ffd5b7fec442f05000000000000000000000000000000000000000000000000000000005f525f60045260245ffd5b6001600160a01b037f9016d09d72d40fdae2fd8ceac6b6234c7706214fd39c1cd1e609a0528c19930054163303611a9e57565b7f118cdaa7000000000000000000000000000000000000000000000000000000005f523360045260245ffd5b6001600160a01b0316908115611a3f575f8080526020527fad3228b676f7d3cd4284a5443f17f1962b36e491b30a40b2405849e597ba5fb55460ff1661109a57815f525f60205260ff60405f20541661103057611b25611bd3565b7f52c63247e1f47db19d5ce0460030c497f067ca4cebf71ba98eeadabe20bace0254908082018092116104855760207fddf252ad1be2c89b69c2b068fc378daa952ba7f163c4a11628f55a4df523b3ef915f937f52c63247e1f47db19d5ce0460030c497f067ca4cebf71ba98eeadabe20bace02558484527f52c63247e1f47db19d5ce0460030c497f067ca4cebf71ba98eeadabe20bace00825260408420818154019055604051908152a3565b60ff7fcd5ed15c6e187e77e9aee88184c21f4f2182ab5827cb3b7e07fbedcd63f033005416611bfe57565b7fd93c0665000000000000000000000000000000000000000000000000000000005f5260045ffd5b60ff7ff0c57e16840df040f15088dc2f81fe391c3923bec73e23a9662efc9c229c6a005460401c1615611c5557565b7fd7e6bcf8000000000000000000000000000000000000000000000000000000005f5260045ffdfea26469706673582212208a39dbfd9ba381b780f3ae2e8f3d63f16b598081baa6c59999a6199da978c12364736f6c634300081e0033",
  "linkReferences": {},
  "deployedLinkReferences": {},
  "immutableReferences": {},
  "inputSourceName": "project/contracts/ghk/GHKToken.sol",
  "buildInfoId": "solc-0_8_30-6be4495cef73dbfa739318ea28b69a37ffc2abe0"
}