{
  "_format": "hh3-artifact-1",
  "contractName": "BEP20USDT",
  "sourceName": "contracts/mock/BEP20.sol",
  "abi": [
    {
      "inputs": [],
      "stateMutability": "nonpayable",
      "type": "constructor"
    },
    {
      "anonymous": false,
      "inputs": [
        {
          "indexed": true,
          "internalType": "address",
          "name": "owner",
          "type": "address"
        },
        {
          "indexed": true,
          "internalType": "address",
          "name": "spender",
          "type": "address"
        },
        {
          "indexed": false,
          "internalType": "uint256",
          "name": "value",
          "type": "uint256"
        }
      ],
      "name": "Approval",
      "type": "event"
    },
    {
      "anonymous": false,
      "inputs": [
        {
          "indexed": true,
          "internalType": "address",
          "name": "previousOwner",
          "type": "address"
        },
        {
          "indexed": true,
          "internalType": "address",
          "name": "newOwner",
          "type": "address"
        }
      ],
      "name": "OwnershipTransferred",
      "type": "event"
    },
    {
      "anonymous": false,
      "inputs": [
        {
          "indexed": true,
          "internalType": "address",
          "name": "from",
          "type": "address"
        },
        {
          "indexed": true,
          "internalType": "address",
          "name": "to",
          "type": "address"
        },
        {
          "indexed": false,
          "internalType": "uint256",
          "name": "value",
          "type": "uint256"
        }
      ],
      "name": "Transfer",
      "type": "event"
    },
    {
      "inputs": [],
      "name": "_decimals",
      "outputs": [
        {
          "internalType": "uint8",
          "name": "",
          "type": "uint8"
        }
      ],
      "stateMutability": "view",
      "type": "function"
    },
    {
      "inputs": [],
      "name": "_name",
      "outputs": [
        {
          "internalType": "string",
          "name": "",
          "type": "string"
        }
      ],
      "stateMutability": "view",
      "type": "function"
    },
    {
      "inputs": [],
      "name": "_symbol",
      "outputs": [
        {
          "internalType": "string",
          "name": "",
          "type": "string"
        }
      ],
      "stateMutability": "view",
      "type": "function"
    },
    {
      "inputs": [
        {
          "internalType": "address",
          "name": "owner",
          "type": "address"
        },
        {
          "internalType": "address",
          "name": "spender",
          "type": "address"
        }
      ],
      "name": "allowance",
      "outputs": [
        {
          "internalType": "uint256",
          "name": "",
          "type": "uint256"
        }
      ],
      "stateMutability": "view",
      "type": "function"
    },
    {
      "inputs": [
        {
          "internalType": "address",
          "name": "spender",
          "type": "address"
        },
        {
          "internalType": "uint256",
          "name": "amount",
          "type": "uint256"
        }
      ],
      "name": "approve",
      "outputs": [
        {
          "internalType": "bool",
          "name": "",
          "type": "bool"
        }
      ],
      "stateMutability": "nonpayable",
      "type": "function"
    },
    {
      "inputs": [
        {
          "internalType": "address",
          "name": "account",
          "type": "address"
        }
      ],
      "name": "balanceOf",
      "outputs": [
        {
          "internalType": "uint256",
          "name": "",
          "type": "uint256"
        }
      ],
      "stateMutability": "view",
      "type": "function"
    },
    {
      "inputs": [
        {
          "internalType": "uint256",
          "name": "amount",
          "type": "uint256"
        }
      ],
      "name": "burn",
      "outputs": [
        {
          "internalType": "bool",
          "name": "",
          "type": "bool"
        }
      ],
      "stateMutability": "nonpayable",
      "type": "function"
    },
    {
      "inputs": [],
      "name": "decimals",
      "outputs": [
        {
          "internalType": "uint8",
          "name": "",
          "type": "uint8"
        }
      ],
      "stateMutability": "view",
      "type": "function"
    },
    {
      "inputs": [
        {
          "internalType": "address",
          "name": "spender",
          "type": "address"
        },
        {
          "internalType": "uint256",
          "name": "subtractedValue",
          "type": "uint256"
        }
      ],
      "name": "decreaseAllowance",
      "outputs": [
        {
          "internalType": "bool",
          "name": "",
          "type": "bool"
        }
      ],
      "stateMutability": "nonpayable",
      "type": "function"
    },
    {
      "inputs": [],
      "name": "getOwner",
      "outputs": [
        {
          "internalType": "address",
          "name": "",
          "type": "address"
        }
      ],
      "stateMutability": "view",
      "type": "function"
    },
    {
      "inputs": [
        {
          "internalType": "address",
          "name": "spender",
          "type": "address"
        },
        {
          "internalType": "uint256",
          "name": "addedValue",
          "type": "uint256"
        }
      ],
      "name": "increaseAllowance",
      "outputs": [
        {
          "internalType": "bool",
          "name": "",
          "type": "bool"
        }
      ],
      "stateMutability": "nonpayable",
      "type": "function"
    },
    {
      "inputs": [
        {
          "internalType": "uint256",
          "name": "amount",
          "type": "uint256"
        }
      ],
      "name": "mint",
      "outputs": [
        {
          "internalType": "bool",
          "name": "",
          "type": "bool"
        }
      ],
      "stateMutability": "nonpayable",
      "type": "function"
    },
    {
      "inputs": [],
      "name": "name",
      "outputs": [
        {
          "internalType": "string",
          "name": "",
          "type": "string"
        }
      ],
      "stateMutability": "view",
      "type": "function"
    },
    {
      "inputs": [],
      "name": "owner",
      "outputs": [
        {
          "internalType": "address",
          "name": "",
          "type": "address"
        }
      ],
      "stateMutability": "view",
      "type": "function"
    },
    {
      "inputs": [],
      "name": "renounceOwnership",
      "outputs": [],
      "stateMutability": "nonpayable",
      "type": "function"
    },
    {
      "inputs": [],
      "name": "symbol",
      "outputs": [
        {
          "internalType": "string",
          "name": "",
          "type": "string"
        }
      ],
      "stateMutability": "view",
      "type": "function"
    },
    {
      "inputs": [],
      "name": "totalSupply",
      "outputs": [
        {
          "internalType": "uint256",
          "name": "",
          "type": "uint256"
        }
      ],
      "stateMutability": "view",
      "type": "function"
    },
    {
      "inputs": [
        {
          "internalType": "address",
          "name": "recipient",
          "type": "address"
        },
        {
          "internalType": "uint256",
          "name": "amount",
          "type": "uint256"
        }
      ],
      "name": "transfer",
      "outputs": [
        {
          "internalType": "bool",
          "name": "",
          "type": "bool"
        }
      ],
      "stateMutability": "nonpayable",
      "type": "function"
    },
    {
      "inputs": [
        {
          "internalType": "address",
          "name": "sender",
          "type": "address"
        },
        {
          "internalType": "address",
          "name": "recipient",
          "type": "address"
        },
        {
          "internalType": "uint256",
          "name": "amount",
          "type": "uint256"
        }
      ],
      "name": "transferFrom",
      "outputs": [
        {
          "internalType": "bool",
          "name": "",
          "type": "bool"
        }
      ],
      "stateMutability": "nonpayable",
      "type": "function"
    },
    {
      "inputs": [
        {
          "internalType": "address",
          "name": "newOwner",
          "type": "address"
        }
      ],
      "name": "transferOwnership",
      "outputs": [],
      "stateMutability": "nonpayable",
      "type": "function"
    }
  ],
  "bytecode": "0x608060405234610184575f80546001600160a01b031916339081178255907f8be0079c531659141344cd1fd0a4f28419497f9722a3daafe3b4186f6b6457e08180a361004c600654610188565b601f811161013c575b507f546574686572205553440000000000000000000000000000000000000000001460065560055461008690610188565b601f8111610111575b6008631554d11560e21b01600555601260ff1960045416176004556a18d0bf423c03d8de000000600355335f5260016020526a18d0bf423c03d8de00000060405f20556003546040519081525f7fddf252ad1be2c89b69c2b068fc378daa952ba7f163c4a11628f55a4df523b3ef60203393a3604051610efe90816101c18239f35b60055f52601f60205f20910160051c8101905b818110610131575061008f565b5f8155600101610124565b60065f52601f0160051c7ff652222313e28459528d920b65115c16c04f3efc82aaedc97be59f3f377c0d3f908101905b8181106101795750610055565b5f815560010161016c565b5f80fd5b90600182811c921680156101b6575b60208310146101a257565b634e487b7160e01b5f52602260045260245ffd5b91607f169161019756fe60806040526004361015610011575f80fd5b5f3560e01c806306fdde03146108d0578063095ea7b3146108aa57806318160ddd1461088d57806323b872dd146107c2578063313ce567146107a257806332424aa3146107a2578063395093511461075a57806342966c68146105d357806370a082311461059b578063715018a614610534578063893d20e81461050f5780638da5cb5b1461050f57806395d89b4114610338578063a0712d6814610432578063a457c2d714610384578063a9059cbb14610353578063b09f126614610338578063d28d885214610234578063dd62ed3e146101e05763f2fde38b146100f5575f80fd5b346101dc5760203660031901126101dc5761010e6109b5565b5f54906001600160a01b0380831691610128338414610ae5565b16918215610172578273ffffffffffffffffffffffffffffffffffffffff19927f8be0079c531659141344cd1fd0a4f28419497f9722a3daafe3b4186f6b6457e05f80a316175f55005b608460405162461bcd60e51b815260206004820152602660248201527f4f776e61626c653a206e6577206f776e657220697320746865207a65726f206160448201527f64647265737300000000000000000000000000000000000000000000000000006064820152fd5b5f80fd5b346101dc5760403660031901126101dc576101f96109b5565b6001600160a01b036102096109cb565b91165f5260026020526001600160a01b0360405f2091165f52602052602060405f2054604051908152f35b346101dc575f3660031901126101dc576040515f6006548060011c9060018116801561032e575b60208310811461031a578285529081156102f65750600114610298575b61029483610288818503826109e1565b6040519182918261098b565b0390f35b60065f9081527ff652222313e28459528d920b65115c16c04f3efc82aaedc97be59f3f377c0d3f939250905b8082106102dc57509091508101602001610288610278565b9192600181602092548385880101520191019092916102c4565b60ff191660208086019190915291151560051b840190910191506102889050610278565b634e487b7160e01b5f52602260045260245ffd5b91607f169161025b565b346101dc575f3660031901126101dc57610294610288610a17565b346101dc5760403660031901126101dc5761037961036f6109b5565b6024359033610c66565b602060405160018152f35b346101dc5760403660031901126101dc576103796103a06109b5565b335f52600260205260405f206001600160a01b0382165f5260205261042b60405f2054604051906103d26060836109e1565b602582527f42455032303a2064656372656173656420616c6c6f77616e63652062656c6f7760208301527f207a65726f000000000000000000000000000000000000000000000000000000604083015260243590610e27565b9033610b30565b346101dc5760203660031901126101dc5760043561045b6001600160a01b035f54163314610ae5565b33156104cb5761046d81600354610e70565b600355335f5260016020526104868160405f2054610e70565b335f52600160205260405f20556040519081525f7fddf252ad1be2c89b69c2b068fc378daa952ba7f163c4a11628f55a4df523b3ef60203393a3602060405160018152f35b606460405162461bcd60e51b815260206004820152601f60248201527f42455032303a206d696e7420746f20746865207a65726f2061646472657373006044820152fd5b346101dc575f3660031901126101dc5760206001600160a01b035f5416604051908152f35b346101dc575f3660031901126101dc5773ffffffffffffffffffffffffffffffffffffffff195f545f6001600160a01b038216610572338214610ae5565b7f8be0079c531659141344cd1fd0a4f28419497f9722a3daafe3b4186f6b6457e08280a3165f55005b346101dc5760203660031901126101dc576001600160a01b036105bc6109b5565b165f526001602052602060405f2054604051908152f35b346101dc5760203660031901126101dc5760043533156106f0575f9033825260016020526106646040832054826040519161060f6060846109e1565b602283527f42455032303a206275726e20616d6f756e7420657863656564732062616c616e60208401527f63650000000000000000000000000000000000000000000000000000000000006040840152610e27565b338352600160205260408320556106b660035482604051916106876040846109e1565b601e83527f536166654d6174683a207375627472616374696f6e206f766572666c6f7700006020840152610e27565b6003556040519081527fddf252ad1be2c89b69c2b068fc378daa952ba7f163c4a11628f55a4df523b3ef60203392a3602060405160018152f35b608460405162461bcd60e51b815260206004820152602160248201527f42455032303a206275726e2066726f6d20746865207a65726f2061646472657360448201527f73000000000000000000000000000000000000000000000000000000000000006064820152fd5b346101dc5760403660031901126101dc576103796107766109b5565b335f52600260205260405f206001600160a01b0382165f5260205261042b60405f206024359054610e70565b346101dc575f3660031901126101dc57602060ff60045416604051908152f35b346101dc5760603660031901126101dc576103796107de6109b5565b6108856107e96109cb565b6107f7604435809285610c66565b6001600160a01b0383165f52600260205260405f206001600160a01b0333165f5260205260405f205490604051916108306060846109e1565b602883527f42455032303a207472616e7366657220616d6f756e742065786365656473206160208401527f6c6c6f77616e63650000000000000000000000000000000000000000000000006040840152610e27565b903390610b30565b346101dc575f3660031901126101dc576020600354604051908152f35b346101dc5760403660031901126101dc576103796108c66109b5565b6024359033610b30565b346101dc575f3660031901126101dc576040515f6006548060011c90600181168015610981575b60208310811461031a578285529081156102f657506001146109235761029483610288818503826109e1565b60065f9081527ff652222313e28459528d920b65115c16c04f3efc82aaedc97be59f3f377c0d3f939250905b80821061096757509091508101602001610288610278565b91926001816020925483858801015201910190929161094f565b91607f16916108f7565b602060409281835280519182918282860152018484015e5f828201840152601f01601f1916010190565b600435906001600160a01b03821682036101dc57565b602435906001600160a01b03821682036101dc57565b90601f8019910116810190811067ffffffffffffffff821117610a0357604052565b634e487b7160e01b5f52604160045260245ffd5b604051905f6005548060011c9160018216918215610adb575b60208410831461031a578386528592908115610abc5750600114610a5d575b610a5b925003836109e1565b565b5060055f90815290917f036b6384b5eca791c62761152d0c79bb0604c104a5fb6f4eb0703f3154bb3db05b818310610aa0575050906020610a5b92820101610a4f565b6020919350806001915483858901015201910190918492610a88565b60209250610a5b94915060ff191682840152151560051b820101610a4f565b92607f1692610a30565b15610aec57565b606460405162461bcd60e51b815260206004820152602060248201527f4f776e61626c653a2063616c6c6572206973206e6f7420746865206f776e65726044820152fd5b6001600160a01b0316908115610bfd576001600160a01b0316918215610b935760207f8c5be1e5ebec7d5bd14f71427d1e84f3dd0314c0f7b2291e5b200ac8c7c3b92591835f526002825260405f20855f5282528060405f2055604051908152a3565b608460405162461bcd60e51b815260206004820152602260248201527f42455032303a20617070726f766520746f20746865207a65726f20616464726560448201527f73730000000000000000000000000000000000000000000000000000000000006064820152fd5b608460405162461bcd60e51b8152602060048201526024808201527f42455032303a20617070726f76652066726f6d20746865207a65726f2061646460448201527f72657373000000000000000000000000000000000000000000000000000000006064820152fd5b6001600160a01b0316908115610dbd576001600160a01b0316918215610d535760207fddf252ad1be2c89b69c2b068fc378daa952ba7f163c4a11628f55a4df523b3ef91835f5260018252610d1d60405f20548260405191610cc96060846109e1565b602683527f42455032303a207472616e7366657220616d6f756e7420657863656564732062868401527f616c616e636500000000000000000000000000000000000000000000000000006040840152610e27565b845f526001835260405f2055845f5260018252610d3e8160405f2054610e70565b855f526001835260405f2055604051908152a3565b608460405162461bcd60e51b815260206004820152602360248201527f42455032303a207472616e7366657220746f20746865207a65726f206164647260448201527f65737300000000000000000000000000000000000000000000000000000000006064820152fd5b608460405162461bcd60e51b815260206004820152602560248201527f42455032303a207472616e736665722066726f6d20746865207a65726f20616460448201527f64726573730000000000000000000000000000000000000000000000000000006064820152fd5b91828211610e5057508103908111610e3c5790565b634e487b7160e01b5f52601160045260245ffd5b610e6c9060405191829162461bcd60e51b83526004830161098b565b0390fd5b90810190818111610e3c578110610e845790565b606460405162461bcd60e51b815260206004820152601b60248201527f536166654d6174683a206164646974696f6e206f766572666c6f7700000000006044820152fdfea2646970667358221220e666985d3dc13f7cb8f7e987822a8fc63dc6f8c4e52a022ea32a2f8e547293c864736f6c634300081e0033",
  "linkReferences": {},
  "deployedLinkReferences": {},
  "immutableReferences": {},
  "inputSourceName": "project/contracts/mock/BEP20.sol",
  "buildInfoId": "solc-0_8_30-6be4495cef73dbfa739318ea28b69a37ffc2abe0"
}