{
  "_format": "hh3-artifact-1",
  "contractName": "GHKBuyPool",
  "sourceName": "contracts/ghk-buy/GHKBuyPool.sol",
  "abi": [
    {
      "inputs": [],
      "name": "ECDSAInvalidSignature",
      "type": "error"
    },
    {
      "inputs": [
        {
          "internalType": "uint256",
          "name": "length",
          "type": "uint256"
        }
      ],
      "name": "ECDSAInvalidSignatureLength",
      "type": "error"
    },
    {
      "inputs": [
        {
          "internalType": "bytes32",
          "name": "s",
          "type": "bytes32"
        }
      ],
      "name": "ECDSAInvalidSignatureS",
      "type": "error"
    },
    {
      "inputs": [],
      "name": "InvalidInitialization",
      "type": "error"
    },
    {
      "inputs": [],
      "name": "NotInitializing",
      "type": "error"
    },
    {
      "inputs": [
        {
          "internalType": "address",
          "name": "owner",
          "type": "address"
        }
      ],
      "name": "OwnableInvalidOwner",
      "type": "error"
    },
    {
      "inputs": [
        {
          "internalType": "address",
          "name": "account",
          "type": "address"
        }
      ],
      "name": "OwnableUnauthorizedAccount",
      "type": "error"
    },
    {
      "inputs": [
        {
          "internalType": "address",
          "name": "token",
          "type": "address"
        }
      ],
      "name": "SafeERC20FailedOperation",
      "type": "error"
    },
    {
      "anonymous": false,
      "inputs": [
        {
          "indexed": true,
          "internalType": "address",
          "name": "account",
          "type": "address"
        }
      ],
      "name": "AddedToBlacklist",
      "type": "event"
    },
    {
      "anonymous": false,
      "inputs": [
        {
          "indexed": true,
          "internalType": "address",
          "name": "to",
          "type": "address"
        },
        {
          "indexed": false,
          "internalType": "address",
          "name": "inviter",
          "type": "address"
        }
      ],
      "name": "BindInviter",
      "type": "event"
    },
    {
      "anonymous": false,
      "inputs": [
        {
          "indexed": true,
          "internalType": "address",
          "name": "to",
          "type": "address"
        },
        {
          "indexed": false,
          "internalType": "address",
          "name": "inviter",
          "type": "address"
        },
        {
          "indexed": false,
          "internalType": "uint256",
          "name": "ghkValue",
          "type": "uint256"
        },
        {
          "indexed": false,
          "internalType": "address",
          "name": "tradeToken",
          "type": "address"
        },
        {
          "indexed": false,
          "internalType": "uint256",
          "name": "price",
          "type": "uint256"
        },
        {
          "indexed": false,
          "internalType": "uint256",
          "name": "usdValue",
          "type": "uint256"
        }
      ],
      "name": "BuyEvent",
      "type": "event"
    },
    {
      "anonymous": false,
      "inputs": [
        {
          "indexed": true,
          "internalType": "uint256",
          "name": "oldVal",
          "type": "uint256"
        },
        {
          "indexed": false,
          "internalType": "uint256",
          "name": "newVal",
          "type": "uint256"
        }
      ],
      "name": "BuyGHKAmountMaxUpdated",
      "type": "event"
    },
    {
      "anonymous": false,
      "inputs": [
        {
          "indexed": true,
          "internalType": "uint256",
          "name": "oldVal",
          "type": "uint256"
        },
        {
          "indexed": false,
          "internalType": "uint256",
          "name": "newVal",
          "type": "uint256"
        }
      ],
      "name": "BuyGHKAmountMinUpdated",
      "type": "event"
    },
    {
      "anonymous": false,
      "inputs": [
        {
          "indexed": true,
          "internalType": "address",
          "name": "to",
          "type": "address"
        },
        {
          "indexed": false,
          "internalType": "uint256",
          "name": "ghkValue",
          "type": "uint256"
        }
      ],
      "name": "BuyOffline",
      "type": "event"
    },
    {
      "anonymous": false,
      "inputs": [
        {
          "indexed": true,
          "internalType": "address",
          "name": "coin",
          "type": "address"
        },
        {
          "indexed": false,
          "internalType": "address",
          "name": "to",
          "type": "address"
        },
        {
          "indexed": false,
          "internalType": "uint256",
          "name": "amount",
          "type": "uint256"
        }
      ],
      "name": "EmergencyWithdraw",
      "type": "event"
    },
    {
      "anonymous": false,
      "inputs": [
        {
          "indexed": false,
          "internalType": "uint256",
          "name": "newPrice",
          "type": "uint256"
        }
      ],
      "name": "GHK_GHKE_PriceUpdated",
      "type": "event"
    },
    {
      "anonymous": false,
      "inputs": [
        {
          "indexed": false,
          "internalType": "uint64",
          "name": "version",
          "type": "uint64"
        }
      ],
      "name": "Initialized",
      "type": "event"
    },
    {
      "anonymous": false,
      "inputs": [
        {
          "indexed": true,
          "internalType": "address",
          "name": "user",
          "type": "address"
        },
        {
          "indexed": false,
          "internalType": "uint256",
          "name": "level",
          "type": "uint256"
        },
        {
          "indexed": false,
          "internalType": "address",
          "name": "inviter",
          "type": "address"
        },
        {
          "indexed": false,
          "internalType": "uint256",
          "name": "inviterReward",
          "type": "uint256"
        },
        {
          "indexed": false,
          "internalType": "uint256",
          "name": "ghkAmount",
          "type": "uint256"
        },
        {
          "indexed": false,
          "internalType": "uint256",
          "name": "rate",
          "type": "uint256"
        },
        {
          "indexed": false,
          "internalType": "uint256",
          "name": "price",
          "type": "uint256"
        }
      ],
      "name": "InviterReward",
      "type": "event"
    },
    {
      "anonymous": false,
      "inputs": [
        {
          "indexed": false,
          "internalType": "uint256",
          "name": "rate",
          "type": "uint256"
        }
      ],
      "name": "InviterRewardLevel1Updated",
      "type": "event"
    },
    {
      "anonymous": false,
      "inputs": [
        {
          "indexed": false,
          "internalType": "uint256",
          "name": "rate",
          "type": "uint256"
        }
      ],
      "name": "InviterRewardLevel2Updated",
      "type": "event"
    },
    {
      "anonymous": false,
      "inputs": [
        {
          "indexed": true,
          "internalType": "address",
          "name": "previousOwner",
          "type": "address"
        },
        {
          "indexed": true,
          "internalType": "address",
          "name": "newOwner",
          "type": "address"
        }
      ],
      "name": "OwnershipTransferred",
      "type": "event"
    },
    {
      "anonymous": false,
      "inputs": [
        {
          "indexed": true,
          "internalType": "address",
          "name": "account",
          "type": "address"
        }
      ],
      "name": "RemovedFromBlacklist",
      "type": "event"
    },
    {
      "anonymous": false,
      "inputs": [
        {
          "indexed": true,
          "internalType": "address",
          "name": "to",
          "type": "address"
        },
        {
          "indexed": false,
          "internalType": "uint256",
          "name": "ghkValue",
          "type": "uint256"
        },
        {
          "indexed": false,
          "internalType": "address",
          "name": "tradeToken",
          "type": "address"
        },
        {
          "indexed": false,
          "internalType": "uint256",
          "name": "gPrice",
          "type": "uint256"
        },
        {
          "indexed": false,
          "internalType": "uint256",
          "name": "usdValue",
          "type": "uint256"
        },
        {
          "indexed": false,
          "internalType": "uint256",
          "name": "tokenPrice",
          "type": "uint256"
        },
        {
          "indexed": false,
          "internalType": "uint256",
          "name": "tokenValue",
          "type": "uint256"
        }
      ],
      "name": "TokenBuyEvent",
      "type": "event"
    },
    {
      "anonymous": false,
      "inputs": [
        {
          "indexed": true,
          "internalType": "address",
          "name": "token",
          "type": "address"
        },
        {
          "indexed": false,
          "internalType": "bool",
          "name": "enabled",
          "type": "bool"
        }
      ],
      "name": "TradeTokenUpdated",
      "type": "event"
    },
    {
      "inputs": [],
      "name": "BUY_GHK_AMOUNT_MAX",
      "outputs": [
        {
          "internalType": "uint256",
          "name": "",
          "type": "uint256"
        }
      ],
      "stateMutability": "view",
      "type": "function"
    },
    {
      "inputs": [],
      "name": "BUY_GHK_AMOUNT_MIN",
      "outputs": [
        {
          "internalType": "uint256",
          "name": "",
          "type": "uint256"
        }
      ],
      "stateMutability": "view",
      "type": "function"
    },
    {
      "inputs": [],
      "name": "GHK",
      "outputs": [
        {
          "internalType": "contract IERC20",
          "name": "",
          "type": "address"
        }
      ],
      "stateMutability": "view",
      "type": "function"
    },
    {
      "inputs": [],
      "name": "GHKE",
      "outputs": [
        {
          "internalType": "contract IERC20",
          "name": "",
          "type": "address"
        }
      ],
      "stateMutability": "view",
      "type": "function"
    },
    {
      "inputs": [],
      "name": "GHKE_BUY_POOL",
      "outputs": [
        {
          "internalType": "address",
          "name": "",
          "type": "address"
        }
      ],
      "stateMutability": "view",
      "type": "function"
    },
    {
      "inputs": [],
      "name": "GHK_GHKE_PRICE",
      "outputs": [
        {
          "internalType": "uint256",
          "name": "",
          "type": "uint256"
        }
      ],
      "stateMutability": "view",
      "type": "function"
    },
    {
      "inputs": [],
      "name": "INVITER_REWARD_LEVEL_1",
      "outputs": [
        {
          "internalType": "uint256",
          "name": "",
          "type": "uint256"
        }
      ],
      "stateMutability": "view",
      "type": "function"
    },
    {
      "inputs": [],
      "name": "INVITER_REWARD_LEVEL_2",
      "outputs": [
        {
          "internalType": "uint256",
          "name": "",
          "type": "uint256"
        }
      ],
      "stateMutability": "view",
      "type": "function"
    },
    {
      "inputs": [],
      "name": "USDC",
      "outputs": [
        {
          "internalType": "address",
          "name": "",
          "type": "address"
        }
      ],
      "stateMutability": "view",
      "type": "function"
    },
    {
      "inputs": [],
      "name": "USDT",
      "outputs": [
        {
          "internalType": "address",
          "name": "",
          "type": "address"
        }
      ],
      "stateMutability": "view",
      "type": "function"
    },
    {
      "inputs": [],
      "name": "USD_TO_ADDRESS",
      "outputs": [
        {
          "internalType": "address",
          "name": "",
          "type": "address"
        }
      ],
      "stateMutability": "view",
      "type": "function"
    },
    {
      "inputs": [
        {
          "internalType": "address",
          "name": "account",
          "type": "address"
        }
      ],
      "name": "addToBlacklist",
      "outputs": [],
      "stateMutability": "nonpayable",
      "type": "function"
    },
    {
      "inputs": [
        {
          "internalType": "uint256",
          "name": "amount",
          "type": "uint256"
        },
        {
          "internalType": "address",
          "name": "tradeToken",
          "type": "address"
        },
        {
          "internalType": "address",
          "name": "inviter",
          "type": "address"
        },
        {
          "internalType": "uint256",
          "name": "offchainXAUPrice",
          "type": "uint256"
        },
        {
          "internalType": "uint256",
          "name": "deadline",
          "type": "uint256"
        },
        {
          "internalType": "bytes",
          "name": "sig",
          "type": "bytes"
        }
      ],
      "name": "buy",
      "outputs": [],
      "stateMutability": "nonpayable",
      "type": "function"
    },
    {
      "inputs": [
        {
          "internalType": "uint256",
          "name": "amount",
          "type": "uint256"
        },
        {
          "internalType": "address",
          "name": "to",
          "type": "address"
        }
      ],
      "name": "buyOffline",
      "outputs": [],
      "stateMutability": "nonpayable",
      "type": "function"
    },
    {
      "inputs": [
        {
          "internalType": "address",
          "name": "user",
          "type": "address"
        },
        {
          "internalType": "address",
          "name": "coin",
          "type": "address"
        },
        {
          "internalType": "uint256",
          "name": "usdtAmount",
          "type": "uint256"
        },
        {
          "internalType": "uint256",
          "name": "offchainXAUPrice",
          "type": "uint256"
        },
        {
          "internalType": "uint256",
          "name": "deadline",
          "type": "uint256"
        },
        {
          "internalType": "bytes",
          "name": "sig",
          "type": "bytes"
        }
      ],
      "name": "buyTo",
      "outputs": [
        {
          "internalType": "bool",
          "name": "",
          "type": "bool"
        }
      ],
      "stateMutability": "nonpayable",
      "type": "function"
    },
    {
      "inputs": [
        {
          "internalType": "address",
          "name": "coin",
          "type": "address"
        },
        {
          "internalType": "address",
          "name": "to",
          "type": "address"
        },
        {
          "internalType": "uint256",
          "name": "amount",
          "type": "uint256"
        }
      ],
      "name": "emergencyWithdraw",
      "outputs": [],
      "stateMutability": "nonpayable",
      "type": "function"
    },
    {
      "inputs": [
        {
          "internalType": "uint256",
          "name": "offchainXAUPrice",
          "type": "uint256"
        }
      ],
      "name": "getPrice",
      "outputs": [
        {
          "internalType": "uint256",
          "name": "",
          "type": "uint256"
        }
      ],
      "stateMutability": "view",
      "type": "function"
    },
    {
      "inputs": [],
      "name": "getUsdcPrice",
      "outputs": [
        {
          "internalType": "uint256",
          "name": "",
          "type": "uint256"
        }
      ],
      "stateMutability": "view",
      "type": "function"
    },
    {
      "inputs": [],
      "name": "getUsdtPrice",
      "outputs": [
        {
          "internalType": "uint256",
          "name": "",
          "type": "uint256"
        }
      ],
      "stateMutability": "view",
      "type": "function"
    },
    {
      "inputs": [
        {
          "internalType": "address",
          "name": "_GHK",
          "type": "address"
        },
        {
          "internalType": "address",
          "name": "_GHKE",
          "type": "address"
        },
        {
          "internalType": "address",
          "name": "_USDT",
          "type": "address"
        },
        {
          "internalType": "address",
          "name": "_USDC",
          "type": "address"
        },
        {
          "internalType": "address",
          "name": "_dataFeedXAU",
          "type": "address"
        },
        {
          "internalType": "address",
          "name": "_dataFeedUSDT",
          "type": "address"
        },
        {
          "internalType": "address",
          "name": "_dataFeedUSDC",
          "type": "address"
        },
        {
          "internalType": "uint256",
          "name": "_initialXAUPrice",
          "type": "uint256"
        },
        {
          "internalType": "address",
          "name": "_signer",
          "type": "address"
        }
      ],
      "name": "initialize",
      "outputs": [],
      "stateMutability": "nonpayable",
      "type": "function"
    },
    {
      "inputs": [
        {
          "internalType": "address",
          "name": "",
          "type": "address"
        }
      ],
      "name": "inviterStatus",
      "outputs": [
        {
          "internalType": "bool",
          "name": "",
          "type": "bool"
        }
      ],
      "stateMutability": "view",
      "type": "function"
    },
    {
      "inputs": [
        {
          "internalType": "address",
          "name": "",
          "type": "address"
        }
      ],
      "name": "inviters",
      "outputs": [
        {
          "internalType": "address",
          "name": "",
          "type": "address"
        }
      ],
      "stateMutability": "view",
      "type": "function"
    },
    {
      "inputs": [
        {
          "internalType": "address",
          "name": "account",
          "type": "address"
        }
      ],
      "name": "isBlacklisted",
      "outputs": [
        {
          "internalType": "bool",
          "name": "",
          "type": "bool"
        }
      ],
      "stateMutability": "view",
      "type": "function"
    },
    {
      "inputs": [],
      "name": "latestXAUPrice",
      "outputs": [
        {
          "internalType": "uint256",
          "name": "",
          "type": "uint256"
        }
      ],
      "stateMutability": "view",
      "type": "function"
    },
    {
      "inputs": [],
      "name": "maxLatestPriceDeviation",
      "outputs": [
        {
          "internalType": "uint256",
          "name": "",
          "type": "uint256"
        }
      ],
      "stateMutability": "view",
      "type": "function"
    },
    {
      "inputs": [],
      "name": "maxOraclePriceDeviation",
      "outputs": [
        {
          "internalType": "uint256",
          "name": "",
          "type": "uint256"
        }
      ],
      "stateMutability": "view",
      "type": "function"
    },
    {
      "inputs": [],
      "name": "owner",
      "outputs": [
        {
          "internalType": "address",
          "name": "",
          "type": "address"
        }
      ],
      "stateMutability": "view",
      "type": "function"
    },
    {
      "inputs": [
        {
          "internalType": "address",
          "name": "account",
          "type": "address"
        }
      ],
      "name": "removeFromBlacklist",
      "outputs": [],
      "stateMutability": "nonpayable",
      "type": "function"
    },
    {
      "inputs": [],
      "name": "renounceOwnership",
      "outputs": [],
      "stateMutability": "nonpayable",
      "type": "function"
    },
    {
      "inputs": [
        {
          "internalType": "uint256",
          "name": "_newMax",
          "type": "uint256"
        }
      ],
      "name": "setBuyGHKAmountMax",
      "outputs": [],
      "stateMutability": "nonpayable",
      "type": "function"
    },
    {
      "inputs": [
        {
          "internalType": "uint256",
          "name": "_newMin",
          "type": "uint256"
        }
      ],
      "name": "setBuyGHKAmountMin",
      "outputs": [],
      "stateMutability": "nonpayable",
      "type": "function"
    },
    {
      "inputs": [
        {
          "internalType": "address",
          "name": "_priceDataFeed",
          "type": "address"
        }
      ],
      "name": "setDataFeed",
      "outputs": [],
      "stateMutability": "nonpayable",
      "type": "function"
    },
    {
      "inputs": [
        {
          "internalType": "address",
          "name": "_priceDataFeed",
          "type": "address"
        }
      ],
      "name": "setDataFeedUSDC_USD",
      "outputs": [],
      "stateMutability": "nonpayable",
      "type": "function"
    },
    {
      "inputs": [
        {
          "internalType": "address",
          "name": "_priceDataFeed",
          "type": "address"
        }
      ],
      "name": "setDataFeedUSDT_USD",
      "outputs": [],
      "stateMutability": "nonpayable",
      "type": "function"
    },
    {
      "inputs": [
        {
          "internalType": "address",
          "name": "pool",
          "type": "address"
        }
      ],
      "name": "setGHKE_BUY_POOL",
      "outputs": [],
      "stateMutability": "nonpayable",
      "type": "function"
    },
    {
      "inputs": [
        {
          "internalType": "uint256",
          "name": "newPrice",
          "type": "uint256"
        }
      ],
      "name": "setGHK_GHKE_Price",
      "outputs": [],
      "stateMutability": "nonpayable",
      "type": "function"
    },
    {
      "inputs": [
        {
          "internalType": "uint256",
          "name": "rate",
          "type": "uint256"
        }
      ],
      "name": "setInviterRewardLevel1",
      "outputs": [],
      "stateMutability": "nonpayable",
      "type": "function"
    },
    {
      "inputs": [
        {
          "internalType": "uint256",
          "name": "rate",
          "type": "uint256"
        }
      ],
      "name": "setInviterRewardLevel2",
      "outputs": [],
      "stateMutability": "nonpayable",
      "type": "function"
    },
    {
      "inputs": [
        {
          "internalType": "uint256",
          "name": "price",
          "type": "uint256"
        }
      ],
      "name": "setLatestXAUPrice",
      "outputs": [],
      "stateMutability": "nonpayable",
      "type": "function"
    },
    {
      "inputs": [
        {
          "internalType": "uint256",
          "name": "deviation",
          "type": "uint256"
        }
      ],
      "name": "setMaxLatestPriceDeviation",
      "outputs": [],
      "stateMutability": "nonpayable",
      "type": "function"
    },
    {
      "inputs": [
        {
          "internalType": "uint256",
          "name": "deviation",
          "type": "uint256"
        }
      ],
      "name": "setMaxOraclePriceDeviation",
      "outputs": [],
      "stateMutability": "nonpayable",
      "type": "function"
    },
    {
      "inputs": [
        {
          "internalType": "address",
          "name": "_signer",
          "type": "address"
        }
      ],
      "name": "setSigner",
      "outputs": [],
      "stateMutability": "nonpayable",
      "type": "function"
    },
    {
      "inputs": [
        {
          "internalType": "address",
          "name": "tokenAddress",
          "type": "address"
        },
        {
          "internalType": "bool",
          "name": "enabled",
          "type": "bool"
        }
      ],
      "name": "setTradeToken",
      "outputs": [],
      "stateMutability": "nonpayable",
      "type": "function"
    },
    {
      "inputs": [
        {
          "internalType": "address",
          "name": "_USDC",
          "type": "address"
        }
      ],
      "name": "setUSDC",
      "outputs": [],
      "stateMutability": "nonpayable",
      "type": "function"
    },
    {
      "inputs": [
        {
          "internalType": "address",
          "name": "_USDT",
          "type": "address"
        }
      ],
      "name": "setUSDT",
      "outputs": [],
      "stateMutability": "nonpayable",
      "type": "function"
    },
    {
      "inputs": [],
      "name": "signer",
      "outputs": [
        {
          "internalType": "address",
          "name": "",
          "type": "address"
        }
      ],
      "stateMutability": "view",
      "type": "function"
    },
    {
      "inputs": [
        {
          "internalType": "address",
          "name": "",
          "type": "address"
        }
      ],
      "name": "tradeTokens",
      "outputs": [
        {
          "internalType": "bool",
          "name": "",
          "type": "bool"
        }
      ],
      "stateMutability": "view",
      "type": "function"
    },
    {
      "inputs": [
        {
          "internalType": "address",
          "name": "newOwner",
          "type": "address"
        }
      ],
      "name": "transferOwnership",
      "outputs": [],
      "stateMutability": "nonpayable",
      "type": "function"
    }
  ],
  "bytecode": "0x60808060405234601557612985908161001a8239f35b5f80fdfe60806040526004361015610011575f80fd5b5f3560e01c80630e3063af1461165b57806311c57e2e146115af5780631203117f14611589578063138b75981461156c578063162eefb5146114ee578063179af607146114d1578063238ac933146114ab57806325a2b41a1461146c578063260373ae1461144f57806334463a68146114325780633ae034031461140c5780633c68f689146113755780633d64d789146113365780634038e453146112f757806344337ea11461120757806350c1b923146111c857806351c2eeb51461118b578063537df3b6146110c357806360c42688146110a957806367e15f1b1461106c5780636a42dcf01461104f5780636c19e78314611010578063709b90a814610fb6578063715018a614610f1f578063717c063814610ef957806375f2c9a414610edc57806389a3027114610eb65780638da5cb5b14610e71578063961bdfbf14610e5757806398ae4b4914610dfd5780639ca14bb714610ddc5780639d7a6ba414610dbf578063a407db2314610d99578063a97f982414610a25578063b3e089a2146109e6578063b4e5ffab146109c5578063c50d52101461086e578063c54e44eb14610848578063c85301211461080b578063e24f2adb146107ee578063e53f002e146107cd578063e63ea408146106a2578063e75722301461067c578063ed72d07f1461063b578063f2fde38b14610610578063f94853f814610564578063fe575a87146105275763ff68c98a14610229575f80fd5b346104b85760c03660031901126104b857610242611e2e565b61024a611e02565b6044356064359260a43567ffffffffffffffff81116104b857610271903690600401611e44565b6001600160a01b036012939293541633036104e3576001600160a01b03821695865f5260116020526102aa60ff60405f20541615611e72565b6102b2612201565b91670de0b6b3a76400008602868104670de0b6b3a764000014871517156104cf576102f4916102e4856102ef9361207d565b9660843585886124e0565b611fd4565b6102fd81612250565b9261030984151561201f565b6402540be40085028581046402540be40014861517156104cf578461032d9161207d565b9561033c600154881015611ebd565b61034a600254881115611f08565b602460206001600160a01b0360035416604051928380926370a0823160e01b82523060048301525afa9081156104c4575f9161046c575b50917f937b79465a35358c2ce08d16690f890791030847dfa46901e5a038b99e4d12ff987fe20a4cd1eae74b8e20ee62beb1d2d5f3939091eac36b644a3140fc7fc89f17e389936103d761043e96861115611f89565b6001600160a01b038316976103f9826001600160a01b0360055416338c6125fb565b604080518781526001600160a01b0395909516602086015284018a9052606084018b9052608084015260a0830152339160c090a26001600160a01b036003541661265c565b600755604080515f815260208101959095528401526060830152608082015260a090a2602060405160018152f35b9290506020833d6020116104bc575b8161048860209383611f53565b810103126104b85791517f937b79465a35358c2ce08d16690f890791030847dfa46901e5a038b99e4d12ff610381565b5f80fd5b3d915061047b565b6040513d5f823e3d90fd5b634e487b7160e01b5f52601160045260245ffd5b606460405162461bcd60e51b815260206004820152601160248201527f7065726d697373696f6e2064656e6965640000000000000000000000000000006044820152fd5b346104b85760203660031901126104b8576001600160a01b03610548611e2e565b165f526011602052602060ff60405f2054166040519015158152f35b346104b85760203660031901126104b8576004356105806126b1565b80156105ba577f6da9b5c0b274236b1aa0a633b646ab28ed3c19c54f91542c4852917558cb06ba60206001549280600155604051908152a2005b608460405162461bcd60e51b815260206004820152602960248201527f4d696e696d756d2062757920616d6f756e74206d75737420626520677265617460448201526806572207468616e20360bc1b6064820152fd5b346104b85760203660031901126104b85761063961062c611e2e565b6106346126b1565b612425565b005b346104b85760203660031901126104b8576001600160a01b0361065c611e2e565b165f52600d60205260206001600160a01b0360405f205416604051908152f35b346104b85760203660031901126104b857602061069a600435612250565b604051908152f35b346104b85760603660031901126104b8576106bb611e2e565b6106c3611e02565b6001600160a01b03604435926106d76126b1565b16916040516370a0823160e01b8152306004820152602081602481875afa80156104c45782915f91610798575b50106107545781610737827ff24ef89f38eadc1bde50701ad6e4d6d11a2dc24f7cf834a486991f3883328504948661265c565b604080516001600160a01b039290921682526020820192909252a2005b606460405162461bcd60e51b815260206004820152600c60248201527f616d6f756e74206572726f7200000000000000000000000000000000000000006044820152fd5b9150506020813d6020116107c5575b816107b460209383611f53565b810103126104b85781905185610704565b3d91506107a7565b346104b85760203660031901126104b8576107e66126b1565b600435600755005b346104b8575f3660031901126104b8576020600e54604051908152f35b346104b85760203660031901126104b8576001600160a01b0361082c611e2e565b165f52600b602052602060ff60405f2054166040519015158152f35b346104b8575f3660031901126104b85760206001600160a01b0360165416604051908152f35b346104b85760403660031901126104b85760043561088a611e02565b906108936126b1565b6001600160a01b03821691825f52601160205260ff60405f205416610981576108c0600154831015611ebd565b6108ce600254831115611f08565b6001600160a01b03600354166040516370a0823160e01b8152306004820152602081602481855afa9081156104c4575f91610949575b5083602093819361093b610940947f74ebc01d304ee2020e987f00ff465e30fb250f36c9e46eb8470759b08ce895db981115611f89565b61265c565b604051908152a2005b939190506020843d602011610979575b8161096660209383611f53565b810103126104b857925190929083610904565b3d9150610959565b606460405162461bcd60e51b815260206004820152601c60248201527f426c61636b6c6973743a20746f20697320626c61636b6c6973746564000000006044820152fd5b346104b85760203660031901126104b8576109de6126b1565b600435600855005b346104b85760203660031901126104b8576001600160a01b03610a07611e2e565b610a0f6126b1565b166001600160a01b031960145416176014555f80f35b346104b8576101203660031901126104b857610a3f611e2e565b610a47611e02565b90610a50611e18565b906064356001600160a01b0381168091036104b8576084356001600160a01b0381168091036104b85760a435916001600160a01b0383168093036104b85760c435936001600160a01b0385168095036104b85761010435956001600160a01b0387168097036104b8577ff0c57e16840df040f15088dc2f81fe391c3923bec73e23a9662efc9c229c6a00549160ff8360401c16159867ffffffffffffffff841680159081610d91575b6001149081610d87575b159081610d7e575b50610d565767ffffffffffffffff1984166001177ff0c57e16840df040f15088dc2f81fe391c3923bec73e23a9662efc9c229c6a00556001600160a01b0393849283918c610d17575b50610b5d61277d565b610b6561277d565b610b6e33612425565b166001600160a01b03196003541617600355166001600160a01b0319600454161760045516806001600160a01b03196016541617601655816001600160a01b031960145416176014555f52600b60205260405f20600160ff198254161790555f52600b60205260405f20600160ff198254161790556001600160a01b03195f5416175f556001600160a01b031960155416176015556001600160a01b03196013541617601355662386f26fc1000060015569010f0cf064dd5920000060025564e8d4a51000600e556064600f55603260105564486b1dea80600655336001600160a01b03196005541617600555335f52600c60205260405f20600160ff1982541617905560e43560075560506008556103e86009556001600160a01b0319600a541617600a55610c9a57005b68ff0000000000000000197ff0c57e16840df040f15088dc2f81fe391c3923bec73e23a9662efc9c229c6a0054167ff0c57e16840df040f15088dc2f81fe391c3923bec73e23a9662efc9c229c6a00557fc7f505b2f371ae2175ee4913f4499e1f2633a7b5936321eed1cdaeb6115181d2602060405160018152a1005b68ffffffffffffffffff191668010000000000000001177ff0c57e16840df040f15088dc2f81fe391c3923bec73e23a9662efc9c229c6a00558c610b54565b7ff92ee8a9000000000000000000000000000000000000000000000000000000005f5260045ffd5b9050158b610b0b565b303b159150610b03565b8b9150610af9565b346104b8575f3660031901126104b85760206001600160a01b0360035416604051908152f35b346104b8575f3660031901126104b8576020600f54604051908152f35b346104b85760203660031901126104b857610df56126b1565b600435600955005b346104b85760203660031901126104b8577f9be4c2a4a6ec357a97e3dd84470216bd98df5049471fc0f84e07514619c203956020600435610e3c6126b1565b610e4a6127108211156121b6565b80601055604051908152a1005b346104b8575f3660031901126104b857602061069a612201565b346104b8575f3660031901126104b85760206001600160a01b037f9016d09d72d40fdae2fd8ceac6b6234c7706214fd39c1cd1e609a0528c1993005416604051908152f35b346104b8575f3660031901126104b85760206001600160a01b0360145416604051908152f35b346104b8575f3660031901126104b8576020601054604051908152f35b346104b8575f3660031901126104b85760206001600160a01b0360045416604051908152f35b346104b8575f3660031901126104b857610f376126b1565b5f6001600160a01b037f9016d09d72d40fdae2fd8ceac6b6234c7706214fd39c1cd1e609a0528c199300546001600160a01b031981167f9016d09d72d40fdae2fd8ceac6b6234c7706214fd39c1cd1e609a0528c19930055167f8be0079c531659141344cd1fd0a4f28419497f9722a3daafe3b4186f6b6457e08280a3005b346104b85760203660031901126104b8577f877eb8e50ade0ca8e7577f085d16acbccbae2aa624994be43415b6a66e565b026020600435610ff56126b1565b6110036127108211156121b6565b80600f55604051908152a1005b346104b85760203660031901126104b8576001600160a01b03611031611e2e565b6110396126b1565b166001600160a01b0319600a541617600a555f80f35b346104b8575f3660031901126104b8576020600154604051908152f35b346104b85760203660031901126104b8576001600160a01b0361108d611e2e565b6110956126b1565b166001600160a01b03195f5416175f555f80f35b346104b8575f3660031901126104b857602061069a612132565b346104b85760203660031901126104b8576001600160a01b036110e4611e2e565b6110ec6126b1565b166110f881151561209b565b805f52601160205260ff60405f2054161561114757805f52601160205260405f2060ff1981541690557f2b6bf71b58b3583add364b3d9060ebf8019650f65f5be35f5464b9cb3e4ba2d45f80a2005b606460405162461bcd60e51b815260206004820152601f60248201527f426c61636b6c697374546f6b656e3a204e6f7420626c61636b6c6973746564006044820152fd5b346104b85760203660031901126104b8576001600160a01b036111ac611e2e565b165f52600c602052602060ff60405f2054166040519015158152f35b346104b85760203660031901126104b8576001600160a01b036111e9611e2e565b6111f16126b1565b166001600160a01b031960165416176016555f80f35b346104b85760203660031901126104b8576001600160a01b03611228611e2e565b6112306126b1565b1661123c81151561209b565b805f52601160205260ff60405f20541661128d57805f52601160205260405f20600160ff198254161790557ff9b68063b051b82957fa193585681240904fed808db8b30fc5a2d2202c6ed6275f80a2005b608460405162461bcd60e51b815260206004820152602360248201527f426c61636b6c697374546f6b656e3a20416c726561647920626c61636b6c697360448201527f74656400000000000000000000000000000000000000000000000000000000006064820152fd5b346104b85760203660031901126104b8576001600160a01b03611318611e2e565b6113206126b1565b166001600160a01b031960135416176013555f80f35b346104b85760203660031901126104b8576001600160a01b03611357611e2e565b61135f6126b1565b166001600160a01b031960125416176012555f80f35b346104b85760203660031901126104b8576004356113916126b1565b80156113c8576020817fedc0c63da22d77f24aab5cf375dc00652205b8ae2aa6aec9b29c62446cb8b43392600e55604051908152a1005b606460405162461bcd60e51b815260206004820152601c60248201527f5072696365206d7573742062652067726561746572207468616e2030000000006044820152fd5b346104b8575f3660031901126104b85760206001600160a01b0360055416604051908152f35b346104b8575f3660031901126104b8576020600754604051908152f35b346104b8575f3660031901126104b8576020600254604051908152f35b346104b85760203660031901126104b8576001600160a01b0361148d611e2e565b6114956126b1565b166001600160a01b031960155416176015555f80f35b346104b8575f3660031901126104b85760206001600160a01b03600a5416604051908152f35b346104b8575f3660031901126104b8576020600854604051908152f35b346104b85760403660031901126104b857611507611e2e565b602435908115158092036104b85760206001600160a01b037f1996274124fd3418649ced8b48aa3f3076c5eef885125806d703a482989e51eb926115496126b1565b1692835f52600b825260405f2060ff1981541660ff8316179055604051908152a2005b346104b8575f3660031901126104b8576020600954604051908152f35b346104b8575f3660031901126104b85760206001600160a01b0360125416604051908152f35b346104b85760203660031901126104b8576004356115cb6126b1565b8015611605577f48666edaf6cb2437ec76d3dfb3d1736f9912fa847528f73de7c0fbc216df307860206002549280600255604051908152a2005b608460405162461bcd60e51b815260206004820152602960248201527f4d6178696d756d2062757920616d6f756e74206d75737420626520677265617460448201526806572207468616e20360bc1b6064820152fd5b346104b85760c03660031901126104b857600435611677611e02565b61167f611e18565b916064359260a4359167ffffffffffffffff83116104b8576116ad6001600160a01b03933690600401611e44565b939092335f5260116020526116c960ff60405f20541615611e72565b168015159384611d9a575b6116e2600154841015611ebd565b6116f0600254841115611f08565b602460206001600160a01b0360035416604051928380926370a0823160e01b82523060048301525afa80156104c4575f90611d66575b6117339150841115611f89565b6001600160a01b03861693845f52600b60205260ff60405f20541615611d2257611765916102ef916084358a336124e0565b61176e86612250565b9361177a85151561201f565b6402540be40061178a868561206a565b04958615611cde576014546001600160a01b03168503611bc4576117ac612132565b8015611b8057670de0b6b3a7640000880290888204670de0b6b3a7640000036104cf576117fa817fe20a4cd1eae74b8e20ee62beb1d2d5f3939091eac36b644a3140fc7fc89f17e39361207d565b90611812826001600160a01b0360055416338b6125fb565b604080518881526001600160a01b039590951660208601528401899052606084018a9052608084015260a0830152339160c090a25b61185d83336001600160a01b036003541661265c565b80611b63575b611b15575b50335f52600d6020526001600160a01b0360405f205416946305f5e1006127106118a0611897600f548661206a565b600e549061206a565b040486151580611a9f575b611a33575b50855f52600d6020526001600160a01b0360405f2054166305f5e1006127106118de6118976010548761206a565b0404811515806119bd575b611951575b5050335f52600c60205260405f20600160ff1982541617905560075560405194855260208501526040840152606083015260808201527f937b79465a35358c2ce08d16690f890791030847dfa46901e5a038b99e4d12ff339160a08180030190a2005b61196781836001600160a01b036004541661265c565b601054600e5491604051936002855260208501526040840152846060840152608083015260a08201527f8aaee62c43541bf39b4bbf418da51ad0c0b13a92159bc917dd41aafca9f2f2e360c03392a286806118ee565b50602460206001600160a01b0360045416604051928380926370a0823160e01b82523060048301525afa80156104c45782915f916119fe575b5010156118e9565b9150506020813d602011611a2b575b81611a1a60209383611f53565b810103126104b8578190518a6119f6565b3d9150611a0d565b611a4981886001600160a01b036004541661265c565b600f54600e549060405192600184528960208501526040840152846060840152608083015260a08201527f8aaee62c43541bf39b4bbf418da51ad0c0b13a92159bc917dd41aafca9f2f2e360c03392a2866118b0565b50602460206001600160a01b0360045416604051928380926370a0823160e01b82523060048301525afa80156104c45782915f91611ae0575b5010156118ab565b9150506020813d602011611b0d575b81611afc60209383611f53565b810103126104b85781905189611ad8565b3d9150611aef565b335f52600d60205260405f20816001600160a01b03198254161790556040519081527faedcbe757d0af5671d08686487d4ddf9c86e82687daf8fd291edfe54b7e9707c60203392a285611868565b50335f52600d6020526001600160a01b0360405f20541615611863565b606460405162461bcd60e51b815260206004820152601260248201527f496e76616c6964207573646320707269636500000000000000000000000000006044820152fd5b6016546001600160a01b03168503611cc157611bde612201565b8015611c7d57670de0b6b3a7640000880290888204670de0b6b3a7640000036104cf57611c2c817fe20a4cd1eae74b8e20ee62beb1d2d5f3939091eac36b644a3140fc7fc89f17e39361207d565b90611c44826001600160a01b0360055416338b6125fb565b604080518881526001600160a01b039590951660208601528401899052606084018a9052608084015260a0830152339160c090a2611847565b606460405162461bcd60e51b815260206004820152601260248201527f496e76616c6964207573647420707269636500000000000000000000000000006044820152fd5b50611cd9866001600160a01b036005541633876125fb565b611847565b606460405162461bcd60e51b815260206004820152601160248201527f496e76616c696420757364416d6f756e740000000000000000000000000000006044820152fd5b606460405162461bcd60e51b815260206004820152601260248201527f496e76616c6964207472616465546f6b656e00000000000000000000000000006044820152fd5b506020813d602011611d92575b81611d8060209383611f53565b810103126104b8576117339051611726565b3d9150611d73565b3382141580611dec575b6116d457606460405162461bcd60e51b815260206004820152600f60248201527f496e76616c696420696e766974657200000000000000000000000000000000006044820152fd5b50815f52600c60205260ff60405f205416611da4565b602435906001600160a01b03821682036104b857565b604435906001600160a01b03821682036104b857565b600435906001600160a01b03821682036104b857565b9181601f840112156104b85782359167ffffffffffffffff83116104b857602083818601950101116104b857565b15611e7957565b606460405162461bcd60e51b815260206004820152601e60248201527f426c61636b6c6973743a207573657220697320626c61636b6c697374656400006044820152fd5b15611ec457565b606460405162461bcd60e51b815260206004820152601460248201527f616d6f756e74206c657373207468616e206d696e0000000000000000000000006044820152fd5b15611f0f57565b606460405162461bcd60e51b815260206004820152601460248201527f616d6f756e74206d6f7265207468616e206d61780000000000000000000000006044820152fd5b90601f8019910116810190811067ffffffffffffffff821117611f7557604052565b634e487b7160e01b5f52604160045260245ffd5b15611f9057565b606460405162461bcd60e51b815260206004820152601560248201527f616d6f756e74206578636565642062616c616e636500000000000000000000006044820152fd5b15611fdb57565b606460405162461bcd60e51b815260206004820152601160248201527f496e76616c6964207369676e61747572650000000000000000000000000000006044820152fd5b1561202657565b606460405162461bcd60e51b815260206004820152601260248201527f496e76616c696420676f6c6420707269636500000000000000000000000000006044820152fd5b818102929181159184041417156104cf57565b8115612087570490565b634e487b7160e01b5f52601260045260245ffd5b156120a257565b606460405162461bcd60e51b815260206004820152601c60248201527f426c61636b6c697374546f6b656e3a205a65726f2061646472657373000000006044820152fd5b519069ffffffffffffffffffff821682036104b857565b908160a09103126104b857612111816120e6565b9160208201519160408101519161212f6080606084015193016120e6565b90565b600460a06001600160a01b036013541660405192838092633fabe5a360e21b82525afa9081156104c4575f91612182575b506402540be4008102908082046402540be40014901517156104cf5790565b6121a4915060a03d60a0116121af575b61219c8183611f53565b8101906120fd565b50505090505f612163565b503d612192565b156121bd57565b606460405162461bcd60e51b815260206004820152601760248201527f526174652063616e6e6f742065786365656420313030250000000000000000006044820152fd5b600460a06001600160a01b036015541660405192838092633fabe5a360e21b82525afa9081156104c4575f9161218257506402540be4008102908082046402540be40014901517156104cf5790565b600460a06001600160a01b035f541660405192838092633fabe5a360e21b82525afa9081156104c4575f91612401575b50808210908115916123d7575b501561236d5760075480821090811591612343575b50156122d9576402540be4008102908082046402540be40014901517156104cf576122d56305f5e100916006549061207d565b0490565b608460405162461bcd60e51b815260206004820152603260248201527f4f6666636861696e2070726963652064657669617465732066726f6d206c617460448201527f65737420707269636520746f6f206d75636800000000000000000000000000006064820152fd5b9050600954612710039061271082116104cf57612710916123639161206a565b048110155f6122a2565b608460405162461bcd60e51b815260206004820152603260248201527f4f6666636861696e2070726963652064657669617465732066726f6d206f726160448201527f636c6520707269636520746f6f206d75636800000000000000000000000000006064820152fd5b9050600854612710039061271082116104cf57612710916123f79161206a565b048110155f61228d565b61241a915060a03d60a0116121af5761219c8183611f53565b50505090505f612280565b6001600160a01b031680156124b4576001600160a01b037f9016d09d72d40fdae2fd8ceac6b6234c7706214fd39c1cd1e609a0528c19930054826001600160a01b03198216177f9016d09d72d40fdae2fd8ceac6b6234c7706214fd39c1cd1e609a0528c19930055167f8be0079c531659141344cd1fd0a4f28419497f9722a3daafe3b4186f6b6457e05f80a3565b7f1e4fbdf7000000000000000000000000000000000000000000000000000000005f525f60045260245ffd5b919091814210156125b757604051916020830193845260408301526bffffffffffffffffffffffff199060601b16606082015260548152612522607482611f53565b5190207f19457468657265756d205369676e6564204d6573736167653a0a3332000000005f52601c52603c5f2067ffffffffffffffff8311611f755760405190612576601f8501601f191660200183611f53565b83825236848401116104b8575f6020856125a49661259b9683870137840101526127d4565b9092919261280e565b6001600160a01b0380600a541691161490565b606460405162461bcd60e51b815260206004820152601160248201527f5369676e617475726520657870697265640000000000000000000000000000006044820152fd5b9091926001600160a01b0361265a9481604051957f23b872dd000000000000000000000000000000000000000000000000000000006020880152166024860152166044840152606483015260648252612655608483611f53565b612710565b565b6040517fa9059cbb0000000000000000000000000000000000000000000000000000000060208201526001600160a01b0392909216602483015260448083019390935291815261265a91612655606483611f53565b6001600160a01b037f9016d09d72d40fdae2fd8ceac6b6234c7706214fd39c1cd1e609a0528c199300541633036126e457565b7f118cdaa7000000000000000000000000000000000000000000000000000000005f523360045260245ffd5b905f602091828151910182855af1156104c4575f513d61277457506001600160a01b0381163b155b61273f5750565b6001600160a01b03907f5274afe7000000000000000000000000000000000000000000000000000000005f521660045260245ffd5b60011415612738565b60ff7ff0c57e16840df040f15088dc2f81fe391c3923bec73e23a9662efc9c229c6a005460401c16156127ac57565b7fd7e6bcf8000000000000000000000000000000000000000000000000000000005f5260045ffd5b8151919060418303612804576127fd9250602082015190606060408401519301515f1a906128cd565b9192909190565b50505f9160029190565b60048110156128b95780612820575050565b60018103612850577ff645eedf000000000000000000000000000000000000000000000000000000005f5260045ffd5b6002810361288457507ffce698f7000000000000000000000000000000000000000000000000000000005f5260045260245ffd5b60031461288e5750565b7fd78bce0c000000000000000000000000000000000000000000000000000000005f5260045260245ffd5b634e487b7160e01b5f52602160045260245ffd5b91907f7fffffffffffffffffffffffffffffff5d576e7357a4501ddfe92f46681b20a08411612944579160209360809260ff5f9560405194855216868401526040830152606082015282805260015afa156104c4575f516001600160a01b0381161561293a57905f905f90565b505f906001905f90565b5050505f916003919056fea2646970667358221220dc545c494cde30d668e2cec2d77ed8768f6b0dbaeb80d570a47cb7ab3654d3b264736f6c634300081e0033",
  "linkReferences": {},
  "deployedLinkReferences": {},
  "immutableReferences": {},
  "inputSourceName": "project/contracts/ghk-buy/GHKBuyPool.sol",
  "buildInfoId": "solc-0_8_30-830c1ad9cde21404a5c473695c65c615121436f7"
}